:400000000080002011000000D9460000D946000080B500AF024A034B1B68136004F090FBBC760040FA46004010B5054C237833B9044B13B10448AFF300800123237010BD4A
:40004000408AFF1F00000000046B0100084B10B51BB108490848AFF300800848036803B910BD074B002BFBD0BDE81040184700BF00000000448AFF1F046B0100C880FF1F20
:400080000000000080B500AF06F086FE4FF48072002104480DF0A4FB034B00221A7000BF80BD00BF5C8AFF1F5D8BFF1F80B582B000AF06F04FFE0346FB71FB79002B09D05F
:4000C000114B1B785A1CD1B20F4A117019460F4AFB795354FB790D2B11D10D4B1A680D4B1B68194610460EF047FA02460A4B1A60054B1B781A46054B1344054A136000BFB2
:400100000837BD4680BD00BF5D8BFF1F5C8AFF1FCC80FF1F648BFF1F608BFF1FB0B58AB000AF7860002387F82130002387F82030FFF7A8FF012006F0ABFEC82004F0B6FFFE
:40014000022008F07DFC06F09BFD384806F046FE4FF4FA6004F0AAFF06F0D8FD06F050FE002006F095FE0C2008F06AFC002008F049FC2F492F480FF0A1FA786233E00D2127
:40018000786A0DF0F5FE0346002B27D0786A0DF061F903467B847B8C002B1FD07B8C42F20F72934214D097F82030B7F922205B0007F128010B4423F8202C97F820300A2BD4
:4001C00015D897F820300133DBB287F8203005E097F821300133DBB287F82130144900200FF06CFA78627B6A002BC8D100E000BF97F8202007F108031146184600F01CF8BE
:4002000003461BB2FB837B681D4607F108040FCC28606960AA60EB6003CC2861696123882B8378682837BD46B0BD00BFAD000000106B01005C8AFF1F90B585B000AF786048
:400240000B46FB700023FB81FB781BB21946786800F03AF8FB7803F00103DBB2002B25D1FB78013BDA0F13445B105B007A681344B3F900301946FB785B08DBB25B007A68A1
:400280001344B3F900300B4418460CF0D7FA4FF000024FF080430CF061FC03460C46184621460CF0E1FD0346FB8107E0FB785B08DBB25B007A6813441B88FB81FB89184617
:4002C0001437BD4690BD00BF80B584B000AF78600B467B800023FB8137E00023BB8124E0B7F90C305B007A681344B3F90020B7F90C3001335B0079680B44B3F900309A42A0
:400300000DDDB7F90C305B007A68D018B7F90C3001335B007A681344194600F021F8B7F90C309BB201339BB2BB81B7F90C20B7F90210B7F90E30CB1A013B9A42D0DBB7F9CC
:400340000E309BB201339BB2FB81B7F90E20B7F90230013B9A42C0DB00BF1037BD4680BD80B485B000AF786039607B681B88FB813B68B3F900207B681A803B68FA891A8005
:4003800000BF1437BD4680BC704700BF80B584B000AF78600923FB7300F078F8786809F05DF90346DBB20133FB7300F07BF8FB7B18461037BD4680BD80B586B000AFF860BD
:4003C000B9607A600923FB7500F060F8B968F86809F02EF938613B69002B08D108F05CFF08F0D4FFB968F86809F022F938613B69002B10D078680DF001FF03461A467968E2
:40040000386909F0C3FA386909F04CF80346DBB2C3F10103FB7500F045F8FB7D18461837BD4680BD80B586B000AFF860B9607A600923FB7500F02AF81349F86809F0F8F83F
:4004400038613B69002B08D108F026FF08F09EFF0D49F86809F0ECF838613B69002B0CD07A68B968386909F06AF9386909F01AF80346DBB2C3F10103FB7500F013F8FB7D95
:4004800018461837BD4680BD606B010080B500AF06F022FD012006F025FD08F077FF00BF80BD00BF80B500AF002006F01BFD06F00DFD08F0F1FE002006F086FD002006F080
:4004C00065FD002006F09EFD002006F0B9FD00BF80BD00BFF0B5EBB000AF3B1D186007F124033D4A1C4613460FCB07C4237007F12403002283F8802007F11803374A07CA49
:4005000003C31A8007F10C03354A07CA03C31A7007F10C031846FFF739FF07F10C03314A31491846FFF748FF07F1180107F10C030A221846FFF776FF07F10C031846FFF722
:4005400025FF03461A4607F1240383F8802007F1240393F88030012B14D107F124038133224A1D4614460FCC28606960AA60EB6007CC28616961AA612388A278AB8313460F
:40058000AB7717E007F124038133194A14469E4604F1200C754626460FCE28606960AA60EB6010340EF1100E6445F3D17346224612781A703B1D1A6807F124031046194632
:4005C00040F281131A460DF095F83B1D186807F5D677BD46F0BD00BF646B0100C86B0100D46B0100746B0100806B0100846B0100A46B010080B500AF07F0C0FD00BF80BD17
:4006000080B500AF07F01AFE034603F00203002B02D1012004F04AFD07F086FE00BF80BD80B500AF07F09AFE00BF80BD0EB480B5ADF6340D00AF0246FB1D1A70FB1D1B7827
:40064000022B07D0FB1D1B78012B03D0FB1D1B78032B1DD13E4800F035F900F0CDF8034619463C4800F02EF9FB1D1B78022B03D1394800F027F920E0FB1D1B78012B03D181
:40068000364800F01FF918E0354800F01BF914E0FB1D1B78002B52D1324B1B79002B4ED02B4800F00FF900F0A7F803461946294800F008F92C4800F005F907F5046207F134
:4006C00028031A6007F1280307F12C001B68D7F83C284FF4006111F06DFE07F12C03184607F0D2FD214800F0EDF800F085F8C7F82C0807F10800D7F82C381D4A20210DF087
:4007000097FB1C4A1C491D48FFF756FE07F108031A4619491948FFF74FFE164A16491748FFF74AFE07F12C031A4613491348FFF743FE104A10491148FFF73EFE00E000BF96
:4007400007F63407BD46BDE8804003B0704700BFE06B0100E46B0100F46B0100106C01002C6C01004C9EFF1F486C0100646C01006C6C0100706C0100746C0100D080FF1F0B
:4007800084B080B500AF07F1080E8EE80F00134800F098F800F030F803461946104800F091F8104800F08EF807F108010E4800F089F897F8883019460C4800F083F807F12F
:4007C000890319460A4800F07DF80A4800F07AF800BFBD46BDE8804004B07047E06B0100E46B0100786C0100886C0100986C0100A86C0100B86C010080B58CB000AF05F047
:4008000091FCF862FB6A1B78DBB27B60FB6A5B78DBB2BB60FB6A9B78DBB2FB60FB6A5B899BB2A3F26C73BB61FB6A1B7ADBB27B61FB6A1B79DBB23B6100237B623B1D1846D0
:400840000DF020F9B862BB6A18463037BD4680BD80B586B000AFF860B9607A603B60FB68002B01D1002329E000237B617968F8680DF082FE38613B69002B1ED078680DF0A2
:40088000BDFC02463B6913443B61396838690DF073FE78617B69002B0FD07A693B69D31A1A463969B8680DF0D7FC7A693B69D31A1A46BB68134400221A707B691846183738
:4008C000BD4680BD0FB480B5ADF6080D00AF07F61403C7F80438381DD7F80438D7F810284FF4006111F066FD3B1D184607F0CCFC00BF07F60807BD46BDE8804004B07047C8
:40090000B0B598B000AF7860012007F01FFA012008F0B4F80A2004F0C9FB07F0E9F907F0C1F906F003FD002387F85F3034E097F85F30184607F0F6F90023A7F85C300FE047
:40094000B7F85C4007F082F90246A30007F160010B4443F8582CB7F85C300133A7F85C30B7F85C300A2BEBD997F85F4007F108030B21184600F014F90346184606F046FE01
:400980000246A30007F160010B4443F82C2C97F85F30013387F85F3097F85F30042BC6D907F0A6F907F06EF906F0D8FC002007F0CDF9002008F062F87B6B18460BF050FF2A
:4009C00019A3D3E900230BF0EBFD03460C46184621460CF091FA0346BB65BB6B144918460CF0E8FB0346B96D18460CF0D9FA03467B64FB6BB96D18460CF0D2FA0346BB648B
:400A00003B6C3B65012387F854307B681D4607F144040FCC0FC523682B6078686037BD46B0BD00BFAFF30080FCA9F1D24D62F03F000030410000000084B090B585B000AF21
:400A4000786007F1240080E80E003B6B18460BF007FF25A3D3E900230CF080F803460C46184621464FF00002234B0BF04DFF03460C46184621460CF03FFA0346BB603B6BF7
:400A800018460BF0EDFE4FF000021C4B0BF03CFF03460C461846214615A3D3E900230CF05DF803460C46184621464FF00002144B0BF076FD03460C46184621460CF01CFAEC
:400AC0000346FB607B681A4607F1080393E8030082E8030078681437BD46BDE8904004B0704700BFAFF300800000000000C06240333333333333034000408F4000002440E8
:400B00000000044080B584B000AF786039600023FB6028E00023BB601BE0BB689B007A6813441A68BB6801339B0079680B441B689A420BDDBB689B007A68D018BB68013368
:400B40009B007A681344194600F016F8BB680133BB603A68FB68D31A5A1EBB689A42DCDCFB680133FB603B685A1EFB689A42D1DC00BF1037BD4680BD80B485B000AF786082
:400B800039607B681B68FB603B681A687B681A603B68FA681A6000BF1437BD4680BC704790B585B000AF786039600023FB6039687868FFF7A7FF3B6803F00103002B23D1EC
:400BC0003B68013BDA0F13445B109B007A6813441A683B68D90F0B445B109B0079680B441B68134418460BF029FE4FF000024FF080430BF0B3FF03460C46184621460CF05F
:400C000033F90346FB6008E03B68DA0F13445B109B007A6813441B68FB60FB6818461437BD4690BD98B500AF12E00D4BB3F900301C4607F0C1FC03461A460A4B1A55084BA8
:400C4000B3F900309BB201339BB21AB2044B1A8007F0D4FC0346012BE7D000BF98BD00BF688BFF1F0C08002080B500AF00F032F8154B00221A70154B002283F82820134B5D
:400C800000221A75114B00221A70114B00221A600F4B00225A600E4B00229A600C4B0022DA600B4B00221A61094B00225A61084B0022DA61064B00229A610021402007F06B
:400CC00035FE00BF80BD00BFE107002074EDFF1FE407002080B500AF002007F059FE0C2007F006FE002007F09BFB002007F0E2FD002007F033FE002007F074FB002007F073
:400D0000ADFB00BF80BD00BF80B500AF022007F0EFFD012007F03CFE012007F081FB642004F0C4F900BF80BD80B500AF41F288320B490C4800F0ACF800F088F84FF47A70A6
:400D400004F0B4F907F008FC07F038FDFFF7C2FF002008F07DF8044B00221A7000BF80BDBC6C0100C06C0100E107002080B582B000AF012008F06CF8FFF7C6FF07F08AFB48
:400D80002B4807F009FD00F061F80023FB7100233B71FFF731FD38600023BB711CE000237B710EE04FF47A722249234800F070F80346002B02D00123FB7105E07B790133D8
:400DC0007B717B79132BEDD9FB79012B08D000F03DF8BB790133BB71BB79022BDFD900E000BFFFF709FD02463B68D31A3B603A6812490020FFF71AFCFB79012B0AD13B795F
:400E00001A460F490020FFF711FC0E4B01221A70012309E00C490220FFF708FC094B00221A70FFF781FF002318460837BD4680BD250C0000BC6C0100CC6C0100D46C010009
:400E4000E86C0100E10700201C6D010080B500AF012007F0C7FA4FF4FA6004F027F9002007F0C0FA00BF80BD80B500AF064B00221A804FF48062002104480CF0B1FC07F02D
:400E8000D3FB00BF80BD00BF688BFF1F0C08002080B58AB000AFF860B9607A6000237B6200237B6246E00A23FB617A68FB69B2FBF3F3BB61FFF7D8FFF86807F0F1FB7B6864
:400EC000002B06D1FA681F490020FFF7AFFB012334E000233B6220E0F86904F0E7F8B96819480DF049FB78617B69002B12D07B6A002B06D1144BFA6814490020FFF796FB01
:400F000006E07B6A5A1C104B11490120FFF78EFB012313E03B6A01333B623A6ABB699A42DAD3094BFA680B490220FFF77FFB7B6A01337B627B6A022BB5D90023184628372B
:400F4000BD4680BD346D01000C080020606D0100B06D0100E86D010080B586B000AFF860B9607A603B60B968F8680DF005FB78617B69002B01D1FB687B61B8680DF03EF94E
:400F800002467B6913447B61796878690DF0F4FA38613B69002B06D1F8680DF02FF90246FB6813443B613A697B69D31A1A46796938680DF051F93A697B69D31A1A463B68AF
:400FC000134400221A70012318461837BD4680BD80B582B000AF464B1B78012B0BD1FFF70BFC0246434B1A6000F06EFA404B02221A70012377E03E4B1B78022B44D10023C1
:40100000FB7110E000F000F93B4B5B691A2B03DD394B5B69FF2B0AD14FF47A7004F046F8FB790133FB71FB791D2BEBD900E000BF00F06CF80346002B13D0FFF7DDFB02465C
:401040002C4B1B68D31A2C4A93612B4B9B691A462A490020FFF7EAFA00F0B4F8244B03221A70FFF7C9FB0246224B1B68D31AB42B08DD1F4B00221A70FFF756FE2049022090
:40108000FFF7D4FA00232EE0194B1B78032B29D100F0A6F80346002B11D0154B04221A70FFF7AAFB0246134B1B68D31A124AD361114BDB691A4613490020FFF7B7FAFFF7CF
:4010C0009BFB02460B4B1B68D31AE62B08DD084B00221A70FFF728FE0B490220FFF7A6FA002300E0002318460837BD4680BD00BFE107002008080020E4070020586E010063
:40110000806E0100A46E0100C46E010080B584B000AF20490020FFF789FA4FF4FA621E491E48FFF7B5FE0346FB731D490020FFF77DFA1C4A1C490020FFF778FAFB7B002BAD
:4011400023D000233B713B1D184A19491548FFF703FF3B1D1A4617490020FFF767FA16490020FFF763FA3B1D144918460DF004FA0346002B07D13B1D114918460DF0FCF97F
:401180000346002B01D0012300E0002318461037BD4680BDEC6E0100BC6C0100006F01000C6F01000C080020286F0100446F0100486F01004C6F01006C6F01008C6F0100A2
:4011C000906F010080B500AF4FF47A7202490348FFF75EFE00BF80BDBC6C0100946F010080B500AF4FF4FA6205490648FFF750FE0346002B01D0012300E00023184680BD61
:40120000A46F0100A86F010080B586B004AF154BFF225A60134BFF22DA60124BFF229A60104BFF225A610F4BFF221A610D4BFF221A604FF4FA620C490C48FFF729FE0C4B1C
:4012400003930C4B02930C4B01930C4B00930C4B044A0C490C480CF05DFE786000BF0837BD4680BDE4070020BC6C0100B46F0100F8070020F4070020F0070020EC070020A0
:40128000E8070020C06F01000C08002080B400AF094B02221A70084B01225A70064B0A229A70054B3C22DA70034B01221A7100BFBD4680BC704700BF4C9EFF1F90B597B013
:4012C00000AF002387F84C30002387F84030002387F83430002387F8283000233B7707F14C03644A64496548FFF736FE07F14003604A63496148FFF72FFE07F134035D4A8E
:4013000060495E48FFF728FE07F12803594A5E495A48FFF721FE07F11C03564A5B495748FFF71AFE07F1180207F14C03584918460CF0F0FD0346012B0AD1BB69DAB2554B35
:401340001A70BB691A4654490020FFF76FF903E052490220FFF76AF907F1140207F140034B4918460CF0D6FD0346012B0ED17B69002B14BF01230023DAB2464B5A707B69F9
:401380001A4647490020FFF751F903E045490220FFF74CF907F1100207F134033C4918460CF0B8FD0346012B19D13B69DAB2394B9A70384B9B7899B23B4C384607230122F2
:4013C00001F020FC22463B46196811609B8893803B691A4635490020FFF728F903E034490220FFF723F907F10C0207F12803284918460CF08FFD0346012B19D1FB68DAB2B4
:40140000244BDA70234BDB7899B22A4C38460723012201F0F7FB22463B46196811609B889380FB681A4624490020FFF7FFF803E022490220FFF7FAF807F1080207F11C0304
:40144000134918460CF066FD0346012B0AD1BB68DAB2104B1A71BB681A4619490020FFF7E5F803E017490220FFF7E0F800BF5C37BD4690BD446F0100E06F01000C08002089
:40148000EC6F0100F86F01000870010018700100287001004C9EFF1F2C70010048700100647001008070010070C5FF1F9C700100C0700100549EFF1FF0700100187101001D
:4014C000487101007471010080B584B000AF454B1B7D002B13D14FF4FA6243494348FFF7D7FC0346002B0AD0414B424A42494348FFF732FD3E4A42490020FFF797F8394BA1
:401500001B78002B13D14FF4FA6237493D48FFF7BFFC0346002B0AD0324B364A36493748FFF71AFD2F4A38490020FFF77FF82D4B93F82830002B13D14FF4FA622A493348E0
:40154000FFF7A6FC0346002B0AD0314B294A2A492A48FFF701FD2E4A2E490020FFF766F82D4B5B7883F00103DBB2002B06D04FF4FA621D492948FFF78BFC09E0264B5B78EA
:40158000002B05D04FF4FA6217492548FFF780FC4FF4FA6214492348FFF77AFC0346002B1BD000233B713B1D124A13491348FFF7D3FC3B1D1A461C490020FFF737F83B1D62
:4015C000312118460CF0D4FC0346002B05D14FF4FA6205491548FFF75BFC00BF1037BD4680BD00BF74EDFF1FBC6C0100A471010088EDFF1F446F0100486F01000C08002098
:40160000B0710100C0710100CC710100D87101009CEDFF1FE47101004C9EFF1FF07101001C72010038720100447201005072010080B5A0B006AF444B1B78042B05D04349C7
:401640000220FEF7F3FF00237AE000237B664FF4FA623F493F48FFF71BFC0346002B6ED0002387F8443007F144033B4A3B493C48FFF772FC0023BB6207F13C0107F140027E
:4016800007F1440007F12803049307F12C03039307F13003029307F13403019307F1380300930B462F490CF035FC0346072B06D1BB6A4FF4617202FB03F3BB6227E007F19C
:4016C0003C0107F1400207F1440007F12803049307F12C03039307F13003029307F13403019307F1380300930B461F490CF012FC0346072B05D1BB6A1C4A02FB03F3BB62C8
:4017000005E01B490220FEF791FF002318E0FB6A7B603B6BBB607B6BFB603B6C6433BB61FB6B013B7B61BB6B3B6100237B623B1D18460CF0A7F90246BB6A13447B667B6EE2
:4017400018466837BD4680BDE10700205C720100BC6C010094720100A0720100A47201000C080020A8720100C07201007CFCFFFFD872010080B400AF024B1B781846BD4694
:4017800080BC7047E107002080B500AFFFF7F2FF0346002B03D007F029F906F0D1FF00BF80BD00BF80B500AFFFF7E4FF0346002B0BD007F021F906F0DDFFFFF7DBFF03467A
:4017C000032B02D1642003F071FC00BF80BD00BF80B584B000AFF860B9607A60234B1B881A462C2303FB02F3214A9818FB68214A14210CF01DFB1D4B1B881A462C2303FB49
:4018000002F310331A4A1344181DBB68194A14210CF00EFB154B1B881946154A2C2303FB01F3134428337A681A60104B1B8801339AB20E4B1A80104B1B8801339AB20E4B68
:401840001A800A4B1B88952B0BD9084B00221A800A4B01221A700A490220FEF7E7FE002300E0012318461037BD4680BD76C5FF1F18EEFF1F0474010078C5FF1FE00700206E
:401880000874010080B483B000AF1CE0FB88164A2C2101FB03F3134400221A70FB88124A2C2101FB03F31344143300221A70FB880D4A2C2101FB03F31344283300221A60A5
:4018C000FB880133FB80FB88952BDFD9074B00221A80074B00221A80064B00221A7000BF0C37BD4680BC704718EEFF1F76C5FF1F78C5FF1FE007002080B400AF024B1B88F8
:401900001846BD4680BC704778C5FF1F80B400AF024B1B881846BD4680BC704776C5FF1F80B58CB008AFF860B9607A603B60FB6A01933B680093FB692A4A42F21071F8684E
:401940000CF076FA284B07933B6A0693274B0593254B0493BB690393254B02937B680193244B0093FB68244A42F21071F8680CF05FFA7B6A002B0CD07B6A1B78002B08D0C5
:401980007B6A0093FB681D4A42F21071F8680CF04FFA1B49F8690CF053FB0346002B13D0B8680CF02BFC0246BB6A1344154A03920293154B0193154B0093FB68144A42F2B9
:4019C0001071F8680CF034FABB680093FB68114A42F21071F8680CF02BFA00BF1037BD4680BD00BF40740100687401006C7401007C7401008074010054740100887401000E
:401A000090740100A0740100A8740100BC74010094740100D874010090B589B004AF78607B6800221A70334B1B7883F00103DBB2002B2DD00023FB8122E0FB892C2202FBA3
:401A400003F32D4A1344FA892C2101FB02F2103229490A440432F98927482C2404FB01F10144283109680291019200937B68234A42F2107178680CF0DBF9FB890133FB81C7
:401A8000FFF744FF03461A46FB899342D5D328E00023BB8122E0BB892C2202FB03F3164A1344BA892C2101FB02F2103212490A440432B98910482C2404FB01F10144283184
:401AC00009680291019200937B680C4A42F2107178680CF0ADF9BB890133BB81BB89952BD9D978680CF08AFBB860BB6818461437BD4690BDE007002018EEFF1FE0740100CD
:401B000080B588B004AFF860B9607A603B60FB6800221A703B6802937B680193BB680093FB68044AC821F8680CF082F900BF1037BD4680BD0075010080B5ADF5327D00AFC9
:401B40003B1D1860C54A07F5FC731146CC2218460BF0D0FD07F59073C14A18461146D8231A460BF0C7FD07F1EC03184634231A4600210BF035FE07F1EC03BA4A1A6007F12F
:401B8000EC0307F590729A6007F1EC0336221A7307F1080336221A7007F1080300225A7007F1080307F590725A6007F1080307F5FC729A6007F10803AB4ADA6007F1080347
:401BC0004FF040421A6107F10803A84A5A6107F10803A74A9A6107F10803A64ADA6107F10803A54A1A6207F10803A44A5A6207F108034FF041429A6207F10803A04ADA62D7
:401C000007F108039F4A1A6307F108039E4A5A6307F108039D4A9A6307F108039C4ADA6307F108039B4A1A6407F108039A4A5A6407F10803994A9A6407F10803984ADA6474
:401C400007F10803974A1A6507F10803964A5A6507F10803954A9A6507F10803944ADA6507F10803934A1A6607F10803924A5A6607F10803914A9A6607F10803904ADA6664
:401C800007F108038F4A1A6707F108038E4A5A6707F108038D4A9A6707F108038C4ADA6707F108038B4AC3F8802007F108038A4AC3F8842007F108034FF04242C3F88820A4
:401CC00007F10803854AC3F88C2007F10803844AC3F8902007F10803824AC3F8942007F10803814AC3F8982007F108037F4AC3F89C2007F108037E4AC3F8A02007F1080364
:401D00007C4AC3F8A42007F108037B4AC3F8A82007F10803794AC3F8AC2007F10803784AC3F8B02007F10803764AC3F8B42007F10803754AC3F8B82007F10803734AC3F854
:401D4000BC2007F10803724AC3F8C02007F10803704AC3F8C42007F108036F4AC3F8C82007F108036D4AC3F8CC2007F108036C4AC3F8D02007F108036A4AC3F8D42007F14F
:401D80000803694AC3F8D82007F10803674AC3F8DC2007F10803664AC3F8E02000F07EFB012006F0F5FF002387F8C73257E34FF47A7003F07BF907F1EC03184600F0C2FB0A
:401DC0000346002B00F0428307F1EC03184600F023FD4FF4FA7003F069F9002387F8C6322EE3002387F8C53297F9C61207F1EC030022184600F0E0FB0346002B00F0C482DB
:401E000007F1080301225A7097F8C632002B1CD1002387F8C53214E097F8C53207F1EC02916897F8C52292000A44126807F1080102339B000B445A6097F8C532013387F83E
:401E4000C53297F8C532032BE6D997F8C632012B40F08880002387F8C5327FE018770100E477010010750100000080BF000040C0000080C00000A0C00000C0C00000E0C0A4
:401E8000000010C1000020C1000030C1000040C1000050C1000060C1000070C1000080C1000088C1000090C1000098C10000A0C10000A8C10000B0C10000B8C10000C0C1B2
:401EC0000000C8C10000D0C10000D8C10000E0C10000E8C10000F0C10000F8C1000004C2000008C200000CC2000010C2000014C2000018C200001CC2000020C2000024C2F5
:401F0000000028C200002CC2000030C2000034C2000038C200003CC2000040C2000044C2000048C200004C42000050C2000054C2000058C297F8C52207F1EC03996897F81A
:401F4000C5329B000B44196807F108030C3243F8221097F8C532013387F8C53297F8C532052BE7D997F8C632022B1BD1002387F8C53213E097F8C52207F1EC03996897F892
:401F8000C5329B000B44196807F10803123243F8221097F8C532013387F8C53297F8C532052BE7D997F8C632032B1BD1002387F8C53213E097F8C52207F1EC03996897F84B
:401FC000C5329B000B44196807F10803183243F8221097F8C532013387F8C53297F8C532052BE7D997F8C632042B1BD1002387F8C53213E097F8C52207F1EC03996897F804
:40200000C5329B000B44196807F108031E3243F8221097F8C532013387F8C53297F8C532052BE7D997F8C632052B1BD1002387F8C53213E097F8C52207F1EC03996897F8BC
:40204000C5329B000B44196807F10803243243F8221097F8C532013387F8C53297F8C532052BE7D997F8C632062B1BD1002387F8C53213E097F8C52207F1EC03996897F875
:40208000C5329B000B44196807F108032A3243F8221097F8C532013387F8C53297F8C532052BE7D997F8C632072B1BD1002387F8C53213E097F8C52207F1EC03996897F82E
:4020C000C5329B000B44196807F10803303243F8221097F8C532013387F8C53297F8C532032BE7D997F8C632082B1BD1002387F8C53213E097F8C52207F1EC03996897F8E9
:40210000C5329B000B44196807F10803343243F8221097F8C532013387F8C53297F8C532042BE7D997F8C632002B1CD1002387F8C53214E007F108035A6897F8C5329B00B0
:402140001A4497F8C53207F1080102339B000B445B68136097F8C532013387F8C53297F8C532032BE6D997F8C632012B1DD1092387F8C53215E007F108035A6897F8C532FF
:402180009B00134497F8C522A2F1090107F108020C3152F821201A6097F8C532013387F8C53297F8C5320E2BE5D997F8C632022B1DD10F2387F8C53215E007F108035A6825
:4021C00097F8C5329B00134497F8C522A2F10F0107F10802123152F821201A6097F8C532013387F8C53297F8C532142BE5D997F8C632032B1DD1152387F8C53215E007F113
:4022000008035A6897F8C5329B00134497F8C522A2F1150107F10802183152F821201A6097F8C532013387F8C53297F8C5321A2BE5D997F8C632042B1DD11B2387F8C532D9
:4022400015E007F108035A6897F8C5329B00134497F8C522A2F11B0107F108021E3152F821201A6097F8C532013387F8C53297F8C532202BE5D997F8C632052B1DD1212309
:4022800087F8C53215E007F108035A6897F8C5329B00134497F8C522A2F1210107F10802243152F821201A6097F8C532013387F8C53297F8C532262BE5D997F8C632062B72
:4022C0001DD1272387F8C53215E007F108035A6897F8C5329B00134497F8C522A2F1270107F108022A3152F821201A6097F8C532013387F8C53297F8C5322C2BE5D997F811
:40230000C632072B1DD12D2387F8C53215E007F108035A6897F8C5329B00134497F8C522A2F12D0107F10802303152F821201A6097F8C532013387F8C53297F8C532302BDD
:40234000E5D997F8C632082B22D1312387F8C53215E007F108035A6897F8C5329B00134497F8C522A2F1310107F10802343152F821201A6097F8C532013387F8C53297F890
:40238000C532352BE5D903E007F1080302225A7097F8C632002B4ED197F9C61207F1EC030122184600F008F90346002B3FD007F1080301225A70002387F8C53214E097F813
:4023C000C53207F1EC02916897F8C52292000A44126807F1080106339B000B445A6097F8C532013387F8C53297F8C532042BE6D9042387F8C53215E007F108035A6897F8CF
:40240000C5329B001A4497F8C532043B07F1080106339B000B445B68136097F8C532013387F8C53297F8C532082BE5D903E007F1080302225A7097F8C632013387F8C632E0
:4024400097F8C632082B7FF6CCAC0DE007F1080303225A7097F8C732013387F8C73297F8C732092B7FF6A3AC41F2883002F01EFE002006F08DFC00F01DF83B1D1A6807F1B3
:40248000080310461946E4231A460BF033F93B1D186807F53277BD4680BD00BF80B500AF06F00AFB024806F019FC00BF80BD00BF4D29000080B500AF06F022FC06F05EFBA6
:4024C00000BF80BD80B582B000AF786078680BF095FE03461A46002178680BF081F9012318460837BD4680BD80B500AF06F098FB40F20112002104480BF072F9034B00226F
:402500001A7000BF80BD00BF6C8BFF1F6D8CFF1F80B582B000AF7860012006F055FC42F6E06002F0E5FD002006F04EFC42F2D00002F0DEFD786806F0AFFB00BF0837BD46D6
:4025400080BD00BF80B584B002AF78601348FFF7B9FF7B681A68124B0093124B12490F480BF0B2FCFFF7C0FF0C48FFF7D1FF4FF47A7002F09BFD0D48FFF7A4FF0C4B084A3A
:402580000A490C48FEF764F90346002B01D0012300E0002318460837BD4680BD748CFF1F087B0100FC7A0100007B0100E08CFF1F0C7B01006C8BFF1F90B585B002AF78601A
:4025C0000B46FB701346BB708248FFF77BFF97F90330002B03D17F4B4D221A8006E097F903307D4A7D497B480BF06EFC7C48FFF769FF97F902307B4A784979480BF064FCE8
:402600007948FFF75FFF7B681A68784B0093714B774975480BF058FCFFF766FF7248FFF777FF7448FFF74EFF7348FFF74BFF734B00221A7011E0052002F038FD704B6B4AB0
:402640006C497048FEF704F90346002B0AD16B4B1B780133DAB2694B1A70684B1B78C72BE9D900E000BF7B681B6818460BF0C6FD0246604B1344032219465F480BF0ECFDF1
:4026800000215D480DF012F803460C46184621460AF012FC02464FF47A7303FB02F35A4A1360594B1B68184602F000FD4E48FFF709FF5048FFF706FF7B681A684B4B00933A
:4026C000474B4B4948480BF0FFFBFFF70DFF4648FFF71EFF494B00221A7011E0052002F0E5FC474B414A43494648FEF7B1F80346002B0AD1414B1B780133DAB23F4B1A704C
:402700003E4B1B78C72BE9D900E000BF2B2139480BF02EFC02463D4B1A603C4B1B68002B24D12D2133480BF023FC0246374B1A60364B1B68002B19D1304B00221A700DE070
:402740007B689A682D4B1B789B001344304A1A602A4B1B780133DAB2284B1A707B681A7B264B1B789A42EBD800232EE07B681B6818460BF043FD02461E4B1344254A136089
:402780001E4B00221A7019E07B689A681B4B1B789B00D4181F4B1B681E4918460CF086FF02460B46104619460AF0A6FB03462360124B1B780133DAB2104B1A707B681A7BB1
:4027C0000E4B1B789A42DFD8012318460C37BD4690BD00BFD88CFF1F287B01002C7B0100DC8CFF1F347B0100748CFF1F087B0100007B0100E08CFF1F448DFF1F6E8CFF1FD3
:402800000C7B01006C8BFF1F708CFF1F0C0C0020003C1CC6100C002090B585B002AF78604148FFF74FFE7B681A68404B0093404B40493D480BF048FBFFF756FE3A48FFF764
:4028400067FE3D48FFF73EFE3C4B00221A7062E0052002F02BFC3A4B344A37493948FDF7F7FF0346002B50D0374B334A1A60364B1C687B681B6818460BF0C0FC034623445E
:40288000314A13607B6803F10D002F4B1B68022219460BF0E1FC2C4B1B6802332A4A13607B6803F11000284B1B68082219460BF0D3FC254B1B680833234A13607B6803F1C3
:4028C0001900214B1B68062219460BF0C5FC1E4B1B6806331C4A13607B6803F120001A4B1B68032219460BF0B7FC174B1B680333154A13607B6803F12400134B1B680D2286
:4029000019460BF0A9FC01230AE00C4B1B780133DAB20A4B1A70094B1B78C72B98D9002318460C37BD4690BD748CFF1F087B0100387B0100007B0100E08CFF1F6E8CFF1F2F
:402940000C7B01006C8BFF1F100C002080B582B000AF06F043F90346FB71FB79002B09D0064B1B785A1CD1B2044A11701946044AFB79535400BF0837BD4680BD6D8CFF1F40
:402980006C8BFF1F80B500AF03F04AFB00BF80BDB0B58AB002AF394803F05EFA03F0AAFAFF2003F0F5FB03F05FFBFDF723FEFEF75BF9FEF76BFC07F11403184602F0F8FBDC
:4029C0007A69BB69009313462D4A18212D480BF02FFA2D4B2D4A1A602D4A2E4B14461D460FCD0FC40FCD0FC40FCD0FC42B682380274B41F288325A66274B9B7899B2274CE0
:402A000038460723012200F0FDF822463B46196811609B889380224B01221A701E4BDB7899B2204C38460723012200F0EBF822463B46196811609B8893801B4B01221A7086
:402A40001A4B00221A701A4B01221A70184B1B7807F10800174A0A210BF0EAF9FDF7CCFE024607F1080319461348FEF7B1FE0023FB7700BF2037BD46B0BD00BF85290000E4
:402A8000487B010080C5FF1F7CC5FF1F74EDFF1FB0EDFF1F507B01004C9EFF1F70C5FF1F04080020549EFF1F6CC5FF1F5A9EFF1F70EDFF1F847B0100887B010080B582B0A8
:402AC00000AF144B1B78002B06D000F00DFB03461A46104B1A7014E00F4B1B78002B06D000F024FB03461A460B4B1A7009E00B4B1B78002B05D000F0DFF803461A46074BA0
:402B00001A70FEF765FA0346FB71FB7918460837BD4680BD5A9EFF1F040800206CC5FF1F80B500AFFEF730FEFDF76AFD02F0A2FB4FF40061002002F059FE02F0DFFCFDF761
:402B40006FFDFEF72FFE00BF80BD00BF80B582B000AF0346FB71FB7919460C4800F01EF80346002B02D00A4B01221A70FB791946084800F013F80346002B02D0064B0122F4
:402B80001A7000BF0837BD4680BD00BF70C5FF1F04080020549EFF1F6CC5FF1F80B582B000AF78600B46FB707B681B79DBB2FA789A4212D17B685B881BB29BB2013B9BB268
:402BC0001AB27B685A807B685B881BB2002B04DC786800F007F8012300E0002318460837BD4680BD80B483B000AF78607B681B889BB21AB27B685A8000BF0C37BD4680BC50
:402C0000704700BF80B485B000AF7860084611461A4603467B800B467B7013463B707B883B817B783B733B787B73B7F902307B817B681A4607F10803186810609B8893805A
:402C400078681437BD4680BC704700BF90B5ADF5417D5EAF0E490320FDF7E8FC3B1D1846FDF738FC3C1D684604F1100340F2711219460AF03FFD94E80F00FDF781FD0549EE
:402C80000320FDF7D3FC00BF07F5C677BD4690BD907B0100BC7B010080B500AF62B6FFF777FEFFF7D3FFFFF709FF0346002BFAD1FFF736FFF7E700BF90B5ADF2545D06AF24
:402CC000012003F0B5F9642002F0F0F9002003F0AFF9FEF71BFE0346002B01D10023F9E1FEF748FD0346002B11D1C74B1B780133DAB2C54B1A70C44B1B78022B02D8FEF77A
:402D000035F8E6E1C04B00221A700023E2E1FEF731FD0346042B40F0DC81BC490020FDF785FCBB4B00221A70BA4B00221A70BA4B00221A70B94B5B6907F5A260B84A14212F
:402D40000BF076F8FDF758FD024607F5A2631946B448FEF73DFDAC4B1B7807F2FC40B04A14210BF065F8FDF747FD024607F2FC431946AD48FEF72CFDAC4B1B7883F001035D
:402D8000DBB2002B16D0FEF7C1FD0346A7F83035B7F8303507F2D440A14A14210BF048F8FDF72AFD024607F2D4431946A048FEF70FFD0FE007F598609623994A14210BF08F
:402DC00037F8FDF719FD024607F5986319469848FEF7FEFCFEF790FD0346A7F82E35B7F82E35013B07F59D608D4A14210BF020F8FDF702FD024607F59D6319468D48FEF79A
:402E0000E7FC8D490020FDF711FC8C4B8C4A8D498148FEF775FE804A8B490020FDF706FC7C48FEF7F9FD894B5B6E894A059200220492884A0392884A0292884A019200931D
:402E4000754B824A73497248FEF76AFD704A84490020FDF7EBFB002387F82D357B4B5A6E38467A4B009313467E4AC8210AF0E0FF3B461A467C490020FDF7D8FB3B4642F2E6
:402E800010727A491846FEF703F8034687F82D355F4BC7F834355E480BF0B0F90246744BA3FB02235B09184609F0B8FC4FF00002704B08F0BDFB03460C461846214608F0FC
:402EC0002FFB03460C461846214609F0CDFF034687F82C354E480BF091F903461A4666490020FDF7A3FB97F92C351A4663490020FDF79CFB002387F8333553E04FF47A7221
:402F00005F496048FDF7C4FF034687F82D3507F1C800D7F83435544A4FF4FA710AF088FF07F1C80318460BF069F903461A4607F1C803134454491A460B461B88138097F946
:402F4000332507F1C80351490020FDF76FFB97F933355A1C97F92C359A4211D007F1C80341F2883241491846FDF792FF034687F82D35D7F8343503F2F313C7F834350AE076
:402F800007F1C80341F2883241491846FDF780FF034687F82D3597F93335DBB20133DBB287F8333597F9332597F92C359A42A5DB41F2883237493848FDF76AFF034687F868
:402FC0002D3597F82D35012B6CD1FEF777F9FEF759FCFDF711FC0246304B1B68D31AC7F8283507F2B440D7F828350D4A0A210AF01FFFFDF701FC024607F2B443194628486B
:40300000FEF7E6FB52E000BFB00C0020E87B01005C9EFF1F98C5FF1FA8ECFF1FE4070020847B0100F87B0100007C0100E00700200C7C01001C7C0100307C0100447C0100B1
:403040009CEDFF1F707C0100807C0100B0EDFF1F907C0100947C0100987C0100A07C0100A87C0100C07C0100DC7C0100E07C0100D34D621000407F40E47C0100FC7C010031
:40308000107D0100147D0100247D0100287D0100387D0100407D0100487D0100080800205C7D01000E490220FDF7C0FAFEF7C0FAC7F82405D7F82435002B03D0D7F8240588
:4030C00000F062FFFDF730FE064B00221A70002300E00123184607F23C57BD4690BD00BF6C7D0100B00C002080B582B000AFFEF741FB0346002B02D1FDF738FE11E0FEF7DC
:4031000039FB0346042B0CD1FEF792FA78607B68002B02D0786800F037FFFDF705FE002300E0012318460837BD4680BD2DE9B04FADF5B86D6CAFFDF75FFBC7F80C0407F5BC
:403140007B70D7F80C34254A20210AF071FE244B1B78002B56D107F51F731846FCF7DEFF07F51F731B7E002B32D007F51F73B3F9163007F576701B4A14210AF059FE07F58F
:4031800076731A4618490020FDF750FA07F57673D7F80C2419461548FEF71AFB07F57B731A4613491348FDF707F9134A10491148FDF702F907F576731A460D490D48FDF786
:4031C000FBF80E4A0A490B48FDF7F6F800F0DEBD0B490220FDF72AFA00F0D8BD987D01004C9EFF1F847B01009C7D0100B07D0100C07D0100F080FF1FC47D0100D87D010094
:40320000DC7D0100084B1B78022B40F0BF8507F5C8731846FEF790FC07F5C8735B78012B40F0848502E000BF4C9EFF1F07F5C873DB68184609F014FB07F5C473C3E90001BF
:4032400007F5C8731B69184609F00AFB07F5C073C3E9000107F5C8735B69184609F000FB07F5BC73C3E9000107F5C8739B69184609F0F6FA07F5B873C3E9000107F5C873A9
:40328000DB69184609F0ECFA07F5B473C3E9000107F5C8731B6A184609F0E2FA07F5B073C3E9000107F5C8735B6A184609F0D8FA07F5AC73C3E9000107F5C8739B6A18467B
:4032C00009F0CEFA07F5A873C3E9000107F5C873DB6A184609F0C4FA07F5A473C3E9000107F5C8731B6B184609F0BAFA07F5A073C3E9000107F5C8735B6B184609F0B0FA76
:4033000007F59C73C3E9000107F5C8739B6B184609F0A6FA07F59873C3E9000107F5C873DB6B184609F09CFA07F59473C3E9000107F5C8731B6C184609F092FA07F5907333
:40334000C3E9000107F5C8735B6C184609F088FA07F58C73C3E9000107F5C8739B6C184609F07EFA07F58873C3E9000107F5C873DB6C184609F074FA07F58473C3E900018D
:4033800007F5C8731B6D184609F06AFA07F58073C3E9000107F5C8735B6D184609F060FAC7E93E0107F5C8739B6D184609F058FAC7E93C0107F5C873DB6D184609F050FA63
:4033C000C7E93A0107F5C8731B6E184609F048FAC7E9380107F5C8735B6E184609F040FAC7E9360107F5C8739B6E184609F038FAC7E9340107F5C873DB6E184609F030FA79
:40340000C7E9320107F5C8731B6F184609F028FAC7E9300107F5C8735B6F184609F020FAC7E92E0107F5C8739B6F184609F018FAC7E92C0107F5C873DB6F184609F010FAD4
:40344000C7E92A0107F5C873D3F88030184609F007FAC7E9280107F5C873D3F88430184609F0FEF9C7E9260107F5C873D3F88830184609F0F5F9C7E9240107F5C873D3F8DD
:403480008C30184609F0ECF9C7E9220107F5C873D3F89030184609F0E3F9C7E9200107F5C873D3F89430184609F0DAF9C7E91E0107F5C873D3F89830184609F0D1F9C7E921
:4034C0001C0107F5C873D3F89C30184609F0C8F9C7E91A0107F5C873D3F8A030184609F0BFF9C7E9180107F5C873D3F8A430184609F0B6F9C7E9160107F5C873D3F8A830D7
:40350000184609F0ADF9C7E9140107F5C873D3F8AC30184609F0A4F9C7E9120107F5C873D3F8B030184609F09BF9C7E9100107F5C873D3F8B430184609F092F9C7E90E011F
:4035400007F5C873D3F8B830184609F089F9C7E90C0107F5C873D3F8BC30184609F080F9C7E90A0107F5C873D3F8C030184609F077F9C7E9080107F5C873D3F8C43018468C
:4035800009F06EF9C7E9060107F5C873D3F8C830184609F065F9C7E9040107F5C873D3F8CC30184609F05CF9C7E9020107F5C873D3F8D030184609F053F9C7E9000107F5E1
:4035C000C873D3F8D430184609F04AF982468B4607F5C873D3F8D830184609F041F98046894607F5C873D3F8DC30184609F038F904460D4607F5C873D3F8E030184609F0C2
:403600002FF90A46014607F52B706AABC3E9001268ABC3E9004566ABC3E9008964ABC3E900AB62ABD7E90012C3E9001260ABD7E90212C3E900125EABD7E90412C3E90012DA
:403640005CABD7E90612C3E900125AABD7E90812C3E9001258ABD7E90A12C3E9001256ABD7E90C12C3E9001254ABD7E90E12C3E9001252ABD7E91012C3E9001250ABD7E9E1
:403680001212C3E900124EABD7E91412C3E900124CABD7E91612C3E900124AABD7E91812C3E9001248ABD7E91A12C3E9001246ABD7E91C12C3E9001244ABD7E91E12C3E98C
:4036C000001242ABD7E92012C3E9001240ABD7E92212C3E90012D7E92434CDE93E34D7E92634CDE93C34D7E92834CDE93A34D7E92A34CDE93834D7E92C34CDE93634D7E97E
:403700002E34CDE93434D7E93034CDE93234D7E93234CDE93034D7E93434CDE92E34D7E93634CDE92C34D7E93834CDE92A34D7E93A34CDE92834D7E93C34CDE92634D7E989
:403740003E34CDE9243407F5807318CBCDE9223407F5847318CBCDE9203407F5887318CBCDE91E3407F58C7318CBCDE91C3407F5907318CBCDE91A3407F5947318CBCDE9C3
:40378000183407F5987318CBCDE9163407F59C7318CBCDE9143407F5A07318CBCDE9123407F5A47318CBCDE9103407F5A87318CBCDE90E3407F5AC7318CBCDE90C3407F527
:4037C000B07318CBCDE90A3407F5B47318CBCDE9083407F5B87318CBCDE9063407F5BC7318CBCDE9043407F5C07318CBCDE9023407F5C47318CBCDE90034CD4A4FF4967182
:403800000AF016FB07F52B731A46CA490020FCF70DFF07F57B731A46C749C848FCF7CCFDC74AC549C548FCF7C7FD07F52B731A46C149C248FCF7C0FDC24ABF49BF48FCF77C
:40384000BBFD07F5C8735B69184609F009F803460C4607F57670CDE90034BB4A14210AF0E7FA07F57673D7F80C241946B748FDF7AFFF07F5C873DB6A184608F0F1FF0346D2
:403880000C4607F57670CDE90034AF4A14210AF0CFFA07F57673D7F80C241946AC48FDF797FF07F5C8739B6A184608F0D9FF03460C4607F57670CDE90034A34A14210AF04B
:4038C000B7FA07F57673D7F80C241946A148FDF77FFF07F5C8739B6C184608F0C1FF03460C4607F57670CDE90034974A14210AF09FFA07F57673D7F80C2419469648FDF700
:4039000067FF07F5C873DB6C184608F0A9FF03460C4607F57670CDE900348B4A14210AF087FA07F57673D7F80C2419468B48FDF74FFF07F5C8731B6D184608F091FF034673
:403940000C4607F57670CDE900347F4A14210AF06FFA07F57673D7F80C2419468048FDF737FF07F5C8735B6D184608F079FF03460C4607F57670CDE90034734A14210AF073
:4039800057FA07F57673D7F80C2419467548FDF71FFF07F5C8739B6D184608F061FF03460C4607F57670CDE90034674A14210AF03FFA07F57673D7F80C2419466A48FDF746
:4039C00007FF07F5C873DB6D184608F049FF03460C4607F57670CDE900345B4A14210AF027FA07F57673D7F80C2419465F48FDF7EFFE07F5C8739B6F184608F031FF03466D
:403A00000C4607F57670CDE900344F4A14210AF00FFA07F57673D7F80C2419465448FDF7D7FE07F5C873DB6F184608F019FF03460C4607F57670CDE90034434A14210AF0DD
:403A4000F7F907F57673D7F80C2419464948FDF7BFFE07F5C873D3F88030184608F000FF03460C4607F57670CDE90034364A14210AF0DEF907F57673D7F80C2419463E4814
:403A8000FDF7A6FE07F5C873D3F88430184608F0E7FE03460C4607F57670CDE900342A4A14210AF0C5F907F57673D7F80C2419463248FDF78DFE07F5C873D3F88830184661
:403AC00008F0CEFE03460C4607F57670CDE900341D4A14210AF0ACF907F57673D7F80C2419462748FDF774FE07F5C873D3F88C30184608F0B5FE03460C4607F57670CDE94E
:403B00000034114A14210AF093F907F57673D7F80C2419461B48FDF75BFE07F5C873D3F8A830184608F09CFE03460C462CE000BF087E0100A87F0100C07D0100F080FF1F9D
:403B4000B47F0100C07F0100C47F0100CC7F0100DC7F0100E87F0100F87F010004800100108001001C8001002880010034800100408001004C8001005880010064800100A8
:403B8000708001007C80010007F57670CDE900345D4A14210AF04CF907F57673D7F80C2419465A48FDF714FE07F5C873D3F8AC30184608F055FE03460C4607F57670CDE98B
:403BC0000034514A14210AF033F907F57673D7F80C2419464E48FDF7FBFD07F5C873D3F8B030184608F03CFE03460C4607F57670CDE90034444A14210AF01AF907F5767348
:403C0000D7F80C2419464348FDF7E2FD07F5C873D3F8B430184608F023FE03460C4607F57670CDE90034384A14210AF001F907F57673D7F80C2419463748FDF7C9FD07F5E1
:403C4000C873D3F8B830184608F00AFE03460C4607F57670CDE900342B4A14210AF0E8F807F57673D7F80C2419462C48FDF7B0FD07F5C873D3F8BC30184608F0F1FD03463A
:403C80000C4607F57670CDE900341F4A14210AF0CFF807F57673D7F80C2419462048FDF797FD07F5C873D3F8C830184608F0D8FD03460C4607F57670CDE90034124A142137
:403CC0000AF0B6F807F57673D7F80C2419461548FDF77EFD07F5C873D3F8CC30184608F0BFFD03460C4607F57670CDE90034064A14210AF09DF807F57673D7F80C2419463F
:403D00000948FDF765FD41E0C47F01008880010094800100A0800100AC800100B8800100C4800100D0800100E080010007F5C8735B7807F57670804A14210AF079F807F589
:403D400076731A467D490220FCF770FC07F57673D7F80C2419467A48FDF73AFD07F57B731A4678497848FCF727FB784A75497648FCF722FB07F576731A4672497248FCF7A8
:403D80001BFB734A6F497048FCF716FB07F526731846FCF7B5FD07F526731B7C002B00F0BF8007F526731B68184608F059FD03460C4607F57670CDE90034664A14210AF094
:403DC00037F807F576731A4663490020FCF72EFC07F57673D7F80C2419466048FDF7F8FC5F4A58495848FCF7E7FA07F57B731A4654495548FCF7E0FA5A4A52495248FCF7B8
:403E0000DBFA07F576731A464E494F48FCF7D4FA534A4C494C48FCF7CFFA534B1B78012B40F0828007F51D7407F526736D4603F10C0292E8030085E803000ECB2046FCF772
:403E4000FBFD07F51D731B68184608F009FD03460C4607F57670CDE900343E4A142109F0E7FF07F576731A4640490020FCF7DEFB07F57673D7F80C2419463D48FDF7A8FCC2
:403E8000374A30493048FCF797FA07F57B731A462C492D48FCF790FA364A2A492A48FCF78BFA07F576731A4626492748FCF784FA07F51D735B68184608F0D2FC03460C46DC
:403EC00007F57670CDE90034224A142109F0B0FF07F576731A4628490020FCF7A7FB07F57673D7F80C2419462448FDF771FC1C4A14491548FCF760FA07F57B731A46114921
:403F00001148FCF759FA1E4A0E490F48FCF754FA07F576731A460B490B48FCF74DFA03E018490220FCF782FB0023184607F58267BD46BDE8B08F00BFF0800100F48001009D
:403F40002C810100C07D0100F080FF1F38810100C07F0100C47F01004881010054810100D87D01005C8101004C9EFF1F64810100788101008C810100A0810100B481010067
:403F8000C4810100D881010080B586B000AF78607B68002B05DC18490220FCF747FB002325E03B1D184609F05FFA78617B691B68DBB23B727B695B68DBB27B727B699B6816
:403FC000DBB2BB727B695B699BB203F26C739BB27B827B691B69DBB23B747B69DB68DBB23B7307F10803184602F0A6F8012318461837BD4680BD00BF0082010080B582B043
:4040000000AF786039603A680021786809F0E8FB00BF0837BD4680BD80B584B000AFF860B9607A607A68B968F86809F063FB00BF1037BD4680BD00BF80B483B000AF034622
:40404000FB71FEE780B487B000AF7860396000233B6100237B6127E07B699B007A6813441B68BB60BB68FB73BB6823F0FF03BB6014E03B695B003A6813441B781A46BB6863
:40408000134419463B695B003A6813445B780B703B6901333B61FB7B013BFB73FB7B002BE7D17B6901337B617B69272BD4D900BF1C37BD4680BC704780B582B000AF604B77
:4040C0001B78BB705F4B00221A805F4B58221A705E4B00221A805E4B50221A705D4B19221A805D4B19221A705C4B19221A805C4B19221A705B4B4FF49C721A805A4B1822A2
:404100001A705A4B40F6C3121A80594B18221A70042258495848FFF77FFF584B02221A704FF0402308221A70554BF3221A70444B03221A70534B84221A70534B05221A7027
:40414000524B7B6006E04FF4F07004F0A1FE7B68013B7B607B68002B06D04B4B1B78DBB203F02003002BEED0354ABB781370484B02221A70474B484A1278D2B21A70474B54
:404180004FF4E1621A80464B41F251221A800023FB7019237B6014E0FB785B00DAB2414B1B78DBB203F00103DBB21343DBB203F00303FB704FF4F07004F06AFE7B68013B86
:4041C0007B607B68002B02D0FB78032BE4D17B68002B02D10320FFF72FFF334B4FF480721A80314B07221A70304B00221A70304B48221A702C4B00221A702E4B02221A702A
:404200002D4B04221A702D4A2C4B1B78DBB243F03F03DBB213702A4A294B1B78DBB243F00103DBB21370274A264B1B78DBB263F07F03DBB2137000BF0837BD4680BD00BF90
:404240009846004080400040824000408440004086400040884000408A4000408C4000408E40004090400040924000409440004096400040D00D0048004100400043004073
:404280000A4300400943004008430040A086010000420040A14600400B010049224200402042004025420040044000400640004008400040014000400B400040A243004085
:4042C000A1430040A043004080B483B000AF114B1B78FB71104AFB7903F00703DBB213700E4AFB791B09DBB213700D4B02221A700C4B01221A700C4B20221A700B4B402246
:404300001A700B4B66221A7000BF0C37BD4680BC704700BFCF0100496E5800406F58004040580040A7430040C35A0040585B00407658004080B485B000AF0346FB71FB790D
:40434000012202FA03F3FB73FB79032B3BD8204B1A78FB7B1340DBB2002B34D11C4B1A78FB7B1343DAB21A4B1A70FB79194A52F82330FA79174951F822201178FA79164816
:40438000825C0A43D2B21A70FB79144AD35CBB73BB7B134AD35C002B0ED1BB7B114A52F82330BA7B0F4951F822201178BA7B0E48825C0A43D2B21A70BB7B094AD25C01324C
:4043C000D1B2074AD15400BF1437BD4680BC7047508DFF1F28820100388201004C820100548DFF1F3C8201004882010080B485B000AF0346FB71FB79012202FA03F3FB7347
:40440000FB79032B41D8234B1A78FB7B1340DBB2002B3AD0FB7BDB43DAB21E4B1B781340DAB21C4B1A70FB791B4A52F82330FA79194951F822201178FA791848825CD24325
:40444000D2B20A40D2B21A70FB79154AD35CBB73BB7B144AD25C013AD1B2124AD154BB7B104AD35C002B10D1BB7B0F4A52F82330BA7B0D4951F822201178BA7B0B48825C33
:40448000D243D2B20A40D2B21A7000BF1437BD4680BC7047508DFF1F28820100388201004C820100548DFF1F3C8201004882010080B483B000AF0346FB71FB79012B0ED801
:4044C000FB79094A52F82330FA79074951F822201178FA790548825C0A43D2B21A7000BF0C37BD4680BC7047508201005882010080B483B000AF0346FB71FB79012B10D88F
:40450000FB790A4A52F82330FA79084951F822201178FA790648825CD243D2B20A40D2B21A7000BF0C37BD4680BC7047508201005882010080B586B000AF72B60023FB7533
:4045400013E0FA7D13465B0013445B004B4A13443B613B691A683B699B889BB219461046FFF74CFDFB7D0133FB75FB7D092BE8D90023FB751CE0FA7D13469B0013445B0080
:404580003F4A1344FB60FB681B68BB60FB685B687B60FB681A7A5B7A1B0213437B807B881A467968B868FFF737FDFB7D0133FB75FB7D022BDFD933494FF09040FFF742FDBD
:4045C000314B0A221A70314B03221A80304A304B1B78DBB243F00203DBB213702D4A2D4B1B78DBB243F00203DBB213702A4A2A4B1B78DBB243F04003DBB21370274A274B28
:404600001B78DBB243F01003DBB21370082224492448FFF701FD082223492448FFF7FCFC0A2223492348FFF7F7FC082222492348FFF7F2FC082222492248FFF7EDFC224A03
:40464000214B1B78DBB243F00803DBB213701F4B61221A70FFF730FD1C4B81221A701C4B01221A70FFF730FE0E220B491948FFF7D3FC00BF1837BD4680BD00BF5C82010064
:4046800098820100A000004883580040485800400350014013500140A0430040C2430040A40D004802510040AC0D0048C2510040B40D0048F0510040C00D0048225100402A
:4046C000C80D004832510040224300400048004004000840B043004080B500AF08F0BEFE03461B680C2B00D1FEE7FEE780B584B000AF7860104B1A687B6813441A460F4B37
:40470000D31AB3F5804F09DC0B4B1B68FB600A4B1A687B681344084A136007E008F09EFE02460C2313604FF0FF33FB60FB6818461037BD4680BD00BF1081FF1F480D0020CA
:4047400080B586B000AF224B7B61224B3B61204B7B6135E03B691B68FB603B695B68BB603B699B683B6000237B600CE0FB681A68BB681A60BB680433BB60FB680433FB6055
:404780007B6804337B607A683B689A42EED13B69DB683B6000237B6008E0BB6800221A60BB680433BB607B6804337B607A683B689A42F2D13B6910333B617B69013B7B61B0
:4047C0007B69002BC6D108F03BFFFEF765FAFEE7010000008089010080B582B000AF184B184A1A60184A184B1B6843F40073136000237B600FE07B68032B04D8134A7B68C9
:4048000052F8233000E0124B12497A6841F822307B6801337B607B682F2BECD90E4B1B78DAB20E4B1A700E4B0A4A1A60FFF782FE0C4B00221A6000BF0837BD4680BD00BFFA
:404840000CED00E00004FA0514ED00E000000000D94600000080FF1FBC760040C480FF1F08ED00E0C080FF1F80B584B000AF0346FB710023FB60234A224B1B78DBB243F03F
:404880000103DBB21370FB79002B36D01E4B1B78DBB203F00403FB721C4B1B78BB721C4B1B787B72182001F087F81023FB6010E0184B1B78DBB203F00103002B09D0154B3D
:4048C0001B78DBB203F00103002B02D00023FB6008E0012001F042F8034603F00103DBB2002BE5D0FB7A002B01D100F04BFB074ABB7A1370064A7B7A1370FB6818461037C4
:40490000BD4680BD204200400043004080430040824300402542004080B400AF054A054B1B78DBB223F00103DBB2137000BFBD4680BC70472042004080B584B000AF0346E2
:40494000FB711D4A1C4B1B78DBB243F01003DBB213701A4A194B1B78DBB243F01003DBB21370FB79002B23D0154B1B78DBB203F00403FB73134B1B78BB73134B1B787B73D1
:40498000002001F019F800BF012000F0E7FF034603F00103DBB2002BF6D0FB7B002B01D100F0F0FA074ABB7B1370074A7B7B137000BF1037BD4680BDA0430040B0430040A4
:4049C00000430040804300408243004080B400AF094A094B1B78DBB223F01003DBB21370064A064B1B78DBB223F01003DBB2137000BFBD4680BC7047A0430040B04300404A
:404A000080B483B000AF0023FB71124B1B78DBB203F00703002B06D10F4B1B78DBB203F00103002B0DD10B4B1B78DBB203F00703012B08D1094B1B78DBB203F00103002BCD
:404A400001D00123FB71FB7918460C37BD4680BC704700BF93430040A5430040B543004080B584B000AF0346FB71FFF7C9FF0346FB73FB7B012B07D1314A314B1B78DBB2C2
:404A800023F00203DBB21370FB79082B4FD801A252F823F0B94A0000C54A0000D14A0000DD4A0000E94A0000F54A0000014B00002F4B00000D4B0000224B234A1278D2B234
:404AC0001A7039E01F4B214A1278D2B21A7033E01C4B1F4A1278D2B21A702DE0194B1D4A1278D2B21A7027E0164B1B4A1278D2B21A7021E0134B194A1278D2B21A701BE001
:404B0000104B174A1278D2B21A7015E00D4B154A1278D2B21A70FB7B012B0CD1084A084B1B78DBB243F00203DBB2137003E0002000F0B0FA00E000BF00BF1037BD4680BDCF
:404B400009600040A146004008010049090100490A0100490B010049890100490C0100490D0100490F01004980B584B000AF0346FB71684B1B78DBB203F00703FB73FB79BF
:404B8000082B01D0FB7900E00323BB73FB7B062B25D801A252F823F0B54B0000BB4B0000C14B0000C74B0000CD4B0000D34B0000D94B00000223FB7315E00123FB7312E01B
:404BC0000323FB730FE00023FB730CE00423FB7309E00523FB7306E00623FB7303E0002000F058FA00BFBA7BFB7B9A4203D3FB791846FFF735FFFB79082B72D801A252F8E9
:404C000023F000BF294C0000414C0000594C00006B4C0000834C00009B4C0000B34C0000E34C0000CB4C00003A4A3A4B1B78DBB223F04703DBB243F00303DBB2137054E0B9
:404C4000344A344B1B78DBB223F04703DBB243F00103DBB2137048E02E4A2E4B1B78DBB223F04703DBB213703FE02A4A294B1B78DBB223F04703DBB243F00203DBB21370E7
:404C800033E0244A234B1B78DBB223F04703DBB243F00403DBB2137027E01E4A1D4B1B78DBB223F04703DBB243F00503DBB213701BE0184A174B1B78DBB223F04703DBB2BC
:404CC00043F00603DBB213700FE0124A114B1B78DBB223F04703DBB243F04203DBB2137003E0002000F0D6F900BFFB79082B02D100F058F801E000F065F8BA7BFB7B9A423F
:404D000003D2FB791846FFF7ABFE00BF1037BD4680BD00BF0042004080B582B000AF0346FB71FB79012B17D0022B02D0002B26D02EE04FF040224FF040231B78DBB223F0B0
:404D40004003DBB21370164A154B1B78DBB243F02003DBB213701FE04FF040224FF040231B78DBB243F04003DBB213700C4A0C4B1B78DBB243F02003DBB213700CE0084A41
:404D8000074B1B78DBB223F02003DBB2137003E0002000F07FF900BF00BF0837BD4680BD0042004080B400AF054A054B1B78DBB243F01003DBB2137000BFBD4680BC7047A4
:404DC0000042004080B400AF054A054B1B78DBB223F01003DBB2137000BFBD4680BC70470042004080B483B000AF0346FB710949084B1B78DBB223F00303DAB2FB7903F086
:404E00000303DBB21343DBB20B7000BF0C37BD4680BC70470540004080B483B000AF0346FB71044AFB79137000BF0C37BD4680BC704700BF0440004080B483B000AF03465A
:404E4000FB80154A144B1B78DBB223F00F03DBB21370124B00221A70114A114B1B78DBB263F07F03DBB213700E4BFA88D2B21A700D4AFB881B0A9BB2DBB213700B4A0B4BEF
:404E80001B78DBB243F00103DBB2137000BF0C37BD4680BC704700BF14400040104000400840004002400040034000400140004080B584B000AF0346FB8003F0F1FF03469A
:404EC000FB73244B1B78DBB29BB21B02BB81224B1B78DBB29AB2BB891343BB81FB88002B02D0BB89002B29D11C4B1B78FB72FB7A062B02D80720FFF78FFFFB88002B0CD15A
:404F0000174A174B1B78DBB243F04003DBB21370FB881846FFF790FF0BE0FB881846FFF78BFF0F4A0E4B1B78DBB223F04003DBB21370FB7A1846FFF76FFF03E0FB88184623
:404F4000FFF77AFFFB7B184603F0AEFF00BF1037BD4680BD0740004006400040044000400840004080B400AF054A054B1B78DBB243F00403DBB2137000BFBD4680BC70474E
:404F80000043004080B400AF054A054B1B78DBB223F00403DBB2137000BFBD4680BC70470043004080B586B000AF0346FB7100237B61FB793B742B4A2A4B1B78DBB243F03C
:404FC0000103DBB21370FB79002B45D0264B1B78FB74264B1B78BB74254B1B787B74182000F0EAFC10237B6125E01E4B1B780423FB730EE000BF012000F0B0FC034603F0F8
:405000000103DBB2002BF6D0FB7BDBB2013BDBB2FB73FB7BDBB2002BECD1124B1B78DBB25BB2002B02DB00237B6108E03B7CDBB2013BDBB23B743B7CDBB2002BD5D1FB7C08
:4050400003F00403002B01D1FFF79CFF074ABB7C1370074A7B7C13707B6918461837BD4680BD00BF1042004000430040804300408243004080B400AF054A054B1B78DBB283
:4050800023F00103DBB2137000BFBD4680BC70471042004080B483B000AF0346FB7101BE00BF0C37BD4680BC704700BF80B582B000AF786008E00C4B1B68184603F0E8FE5A
:4050C0007B68A3F500437B607B68B3F5004FF2D8064B1B687A6802FB03F3184603F0D8FE00BF0837BD4680BD2081FF1F1881FF1F80B582B000AF0346FB80FB88054A1278B9
:4051000002FB03F3184603F0C3FE00BF0837BD4680BD00BF1C81FF1F80B584B000AF03463960FB710F4B1B68FB60FB791F2B02D90020FFF7AFFFFB7903F01F0310339B0050
:40514000FA6813441B68BB60FB7903F01F0310339B00FA6813443A681A60BB6818461037BD4680BD08ED00E080B582B000AF03460A46FB711346BB71BB79072B02D90020BE
:40518000FFF788FFFB791F2B02D90020FFF782FFFB7903F01F0303F1604303F56443BA795201D2B21A7000BF0837BD4680BD00BF80B483B000AF7860264B1B78DBB21A4613
:4051C0007B681A60244B1B78DBB21B027A6812681A437B681A60214B1B78DBB21B047A6812681A437B681A601D4B1B78DBB21B067A6812681A437B681A607B680433194A93
:405200001278D2B21A60184B1B78DBB21A027B6804337968043109680A431A60134B1B78DBB21A047B6804337968043109680A431A600F4B1B78DBB21A067B680433796846
:40524000043109680A431A6000BF0C37BD4680BC704700BF0301004904010049EC460040020100490101004900010049050100490601004980B500AF924B1B78DBB203F0A9
:405280000F03DAB2904B1A70904B1B78DAB28E4B5A708C4A8B4B1B78DBB223F00F03DBB213708A4B1B78894B00221A70884B1B78DBB223F03F03DAB2834B5A71372003F0AE
:4052C000F7FD844B1B78DBB203F00703DAB27E4BDA70804B1B78DBB203F04003DAB27A4B1A717C4B1B78DBB203F01003002B03D0754B01225A7202E0734B00225A72764B49
:405300001B78DBB203F00303DAB26F4B9A706E4B9B78012B1CD14FF040231B78DBB203F00303012B08D0012B02D3022B08D00BE00020FFF757FD0BE00220FFF753FD07E0CB
:405340000320FFF74FFD03E00020FFF7A3FE00BF624B1B78DBB203F00103002B05D05A4B01229A73FFF7D8FA02E0574B00229A730420FFF7F9FB5A4B1B78DBB203F0100382
:40538000DBB2002B03D0504B01229A7108E04E4B00229A710020FFF7CFFA0620FFF7A8FE4C4B1B78DBB203F02003002B10D04FF040231B78DBB203F04003002B01D1022259
:4053C00000E00122404BDA710020FFF7A5FC02E03D4B0022DA714FF040231B78DBB203F03003DAB2384B1A72374B1B7A002B09D04FF040224FF040231B78DBB223F03003FF
:40540000DBB21370334B1B78DBB203F01003002B01D0FFF7D7FC334B1B78DAB22A4B9A72294B9B7A002B02D00020FFF7F5FC264B9B78002B02D00020FFF7D4FC2A4B1B78D9
:40544000DBB29BB21B029AB21F4B9A81274B1B78D9B21D4B9A898BB213439AB21A4B9A81194B9B89002B02D00020FFF721FD194B1B78DBB203F007031D4AD35C184603F0C9
:4054800017FD1C4B1B78DBB203F00103002B05D00D4B0122DA73FFF7EDFD02E00A4B0022DA73154B1B78DBB203F00403002B03D0054B01221A7402E0034B00221A7400BFF4
:4054C00080BD00BFA1430040888DFF1FA243004000480040004200400540004020420040A0430040044000400740004006400040B8820100104200400B40004080B586B08C
:4055000000AF10233B61AB4A3B1D106818609188927999809A71A84B1B7C012B17D1A74B1B78DBB203F00703A54AD35C1A4613469B0013441A01D31A184603F0A9FCA14A09
:40554000A04B1B78DBB243F00403DBB213709A4BDB7B012B24D10020FFF724FD9A4B1B780523FB8219E0954B1B78DBB203F00703934AD35C1A46C82303FB02F3184603F095
:4055800087FC914B1B78DBB25BB2002B02DB00233B6105E0FB8A013BFB82FB8A002BE2D1372003F085FC844B9B78022B03D0824B9B78032B10D1854B1B78DAB27E4B9B7AA9
:4055C0009A4204D07C4B9B7A1846FFF725FC7A4B9B781846FFF706FC774B1B7903F04003002B0CD0744BDB7807F11802134413F8143C032B03D10820FFF7B6FA20E06E4B8A
:40560000DB7807F11802134413F8143C1846FFF7ABFA694B1B7903F04003002B08D0674A664B1B78DBB243F04003DBB2137007E0624A624B1B78DBB223F04003DBB213700B
:405640005D4B9B79012B0AD1614B1B78DBB203F01003DBB2002B02D10020FFF76DF9564BDB791846FFF758FB534B5B7A012B01D1FFF798FB504B1B7A1A464FF040231B7833
:40568000DBB203F030039A4210D04FF040214FF040231B78DBB25BB223F030035AB2464B1B7A5BB213435BB2DBB20B70424B9B7B012B26D110233B610020FFF7D5F8502034
:4056C000FFF716FD434B1B78AB23FB8216E00120FFF70EFD3F4B1B78DBB203F00103002B09D03C4B1B78DBB203F00103002B02D000233B6105E0FB8A013BFB82FB8A002B4B
:40570000E5D12D4B9B78002B03D02B4B9B78012B10D12E4B1B78DAB2274B9B7A9A4204D0254B9B7A1846FFF777FB234B9B781846FFF758FB204B9B79002B09D1244B1B78CC
:40574000DBB203F01003DBB2002B01D0FFF73EF9214B1B78DBB29BB21B02FB811F4B1B78DBB29AB2FB891343FB81134B9B89FA899A4204D0104B9B891846FFF799FB1849C5
:40578000174B1B78DBB25BB203F03F035AB20A4B5B795BB213435BB2DBB20B70114B064A12781A70104B044A52781A7000BF1837BD4680BDC0820100888DFF1F0042004075
:4057C000B88201000B4000401042004004400040A043004025420040074000400640004000480040A1430040A243004080B584B000AF03460A46FB711346BB8003F050FB36
:405800000346FB734E4B1B78DBB203F00803002B0BD14C4A4B4B1B78DBB203F01F03DBB21370FB79002B08D004E0FB7B184603F03BFB81E00020FFF72DFC00F007F9424B0D
:405840001B78DAB2414B1A713F4ABB881B099BB2DBB213703E4B1B78DAB23C4B5A713C4ABB88DBB203F00F03DBB21370394B1B78DAB2364B9A71374ABB881B0B9BB2DBB24D
:4058800003F00103DBB21370334B1B78DBB203F00703002B04D12D4B012283F82E2014E02A4B002283F82E202B4B1B78DBB203F00703DAB2254B83F82D20274A264B1B78C2
:4058C000DBB223F00703DBB213701D4A1C4B1B78DBB223F00703DBB243F00303DBB21370174B1B7800BF00BF30BF184B93F82E30012B0FD01849184B1B78DBB25BB223F050
:4059000007035AB2114B93F82D305BB213435BB2DBB20B7000F0DAF90B4B0C4A12791A700B4B0A4A52791A700A4B084A92791A70FB7B184603F0B8FA1037BD4680BD00BF17
:40594000934300408346004098430040588DFF1F994300409A4300400042004080B584B000AF0346FB7103F09BFA0346FB73104B1B78DAB20F4B1B781343DAB20D4B1A70F8
:405980000C4B1B7803F00703BB73FB79DB43DAB2084B1B781340DAB2064B1A70FB7B184603F082FABB7B18461037BD4680BD00BF904300409A8DFF1F80B582B000AF034640
:4059C000FB71204A1F4B1B78DBB223F00203DBB21370FFF7C7FA1B4B1B78DBB203F00103002B19D0184B1B78DBB2FA799A4224D0144A144B1B78DBB223F00103DBB213700D
:405A0000114AFB7913700F4A0E4B1B78DBB243F00103DBB2137010E00B4B1B78DBB2FA799A4202D0084AFB791370064A054B1B78DBB243F00103DBB2137000BF0837BD4623
:405A400080BD00BF824300408043004080B400AF804B1B78DAB2804B9A72804B1B78DAB27D4BDA727E4B1B78DAB27B4B1A737D4B1B78DAB2784B5A737B4B1B78DAB2764B28
:405A80009A737A4B1B78DAB2734BDA73784B1B78DAB2714B1A74774B1B78DAB26E4B5A74754B1B78DAB26C4B9A74744B1B78DAB2694BDA74724B1B78DAB2674B1A75714BF9
:405AC0001B78DAB2644B5A756F4B1B78DAB2624B9A756E4B1B78DAB25F4BDA756C4B1B78DAB25D4B1A766B4B1B78DAB25A4B5A76694B1B78DAB2584B9A76684B1B78DAB2F3
:405B0000554BDA76664B1B78DAB2534B1A77654B1B78DAB2504B5A77634B1B78DAB24E4B9A77624B1B78DAB24B4BDA77604B1B78DAB2494B83F820205E4B1B78DAB2464B9F
:405B400083F821205C4B1B78DAB2434B83F822205A4B1B78DAB2404B83F82320584B1B78DAB23D4B83F82420564B1B78DAB23A4B83F82520374B00221A70384B00221A70E0
:405B8000374B00221A70374B00221A70364B00221A70364B00221A70354B00221A70354B00221A70344B00221A70344B00221A70334B00221A70334B00221A70324B00228E
:405BC0001A70324B00221A70314B00221A70314B00221A70304B00221A70304B00221A702F4B00221A702F4B00221A702E4B00221A702E4B00221A702D4B00221A702D4B22
:405C000000221A702C4B00221A702C4B00221A702B4B00221A702B4B00221A702A4B1B78DBB203F00803002B0CD00B4B012283F82F20254A244B1B78DBB223F00803DBB2A8
:405C4000137003E0044B002283F82F2000BFBD4680BC7047005A0040588DFF1F025A0040035A0040045A0040065A0040085A00400A5A0040105A0040125A0040135A004071
:405C8000145A0040165A0040185A00401A5A0040205A0040225A0040235A0040245A0040265A0040285A00402A5A0040305A0040325A0040335A0040345A0040365A0040E8
:405CC000385A00403A5A00402243004080B400AF434B444A927A1A70434B424AD27A1A70424B404A127B1A70414B3E4A527B1A70404B3C4A927B1A703F4B3A4AD27B1A70AE
:405D00003E4B384A127C1A703D4B364A527C1A703C4B344A927C1A703B4B324AD27C1A703A4B304A127D1A70394B2E4A527D1A70384B2C4A927D1A70374B2A4AD27D1A709B
:405D4000364B284A127E1A70354B264A527E1A70344B244A927E1A70334B224AD27E1A70324B204A127F1A70314B1E4A527F1A70304B1C4A927F1A702F4B1A4AD27F1A700B
:405D80002E4B184A92F820201A702D4B154A92F821201A702B4B134A92F822201A702A4B104A92F823201A70284B0E4A92F824201A70274B0B4A92F825201A70094B93F817
:405DC0002F30012B07D1234A224B1B78DBB243F00803DBB2137000BFBD4680BC704700BF005A0040588DFF1F025A0040035A0040045A0040065A0040085A00400A5A00402A
:405E0000105A0040125A0040135A0040145A0040165A0040185A00401A5A0040205A0040225A0040235A0040245A0040265A0040285A00402A5A0040305A0040325A0040CE
:405E4000335A0040345A0040365A0040385A00403A5A00402243004080B582B000AF786000F03CF8786800F009F8072000F018F800F028F800BF0837BD4680BD80B485B0AB
:405E800000AF7860054B1B68FB60FB684C337A681A6000BF1437BD4680BC704708ED00E080B483B000AF0346FB71054AFB795B01DBB2137000BF0C37BD4680BC704700BF69
:405EC00003E400E080B400AF034B08221A6000BFBD4680BC704700BF00E100E080B400AF034B08221A6000BFBD4680BC704700BF80E100E080B500AF064B1B78002B04D17F
:405F000000F00AF8034B01221A7000F00FF800BF80BD00BF9B8DFF1F80B500AF0A2000F05BF800F03FF800BF80BD00BF80B582B000AF1A4B1B78DBB203F00203002B18D1A2
:405F400002F0AEFF0346FB71144A144B1B78DBB243F00203DBB21370114A114B1B78DBB243F00403DBB21370FB79184602F09CFF0FE002F095FF0346FB71094A084B1B78C5
:405F8000DBB243F00403DBB21370FB79184602F08BFF00BF0837BD4680BD00BF004300408243004080B582B000AF02F079FF0346FB71084A074B1B78DBB243F00803DBB273
:405FC0001370FB79184602F06FFF00BF0837BD4680BD00BF8243004080B483B000AF0346FB710D4B1B78DBB203F00403002B0DD10A490A4B1B78DBB223F00F03DAB2FB79B7
:4060000003F00F03DBB21343DBB20B7000BF0C37BD4680BC704700BF824300408143004080B500AF0220FFF799FC0346184680BD80B485B000AF0346FB710A4B1B78DBB2F9
:4060400023F00103FB730749FB7903F00103DAB2FB7B1343DBB20B7000BF1437BD4680BC704700BF2051004080B500AF064B1B78002B04D100F022F8034B01221A7000F053
:4060800033F800BF80BD00BF9C8DFF1F80B400AF034B02221A6000BFBD4680BC704700BF00E100E080B400AF034B02221A6000BFBD4680BC704700BF80E100E080B500AF47
:4060C00000F0B8F8064B02221A6006490120FFF723F807210120FFF747F800BF80BD00BF80E100E06966000080B582B000AF02F0D7FE0346FB71094A084B1B78DBB243F0BC
:406100003003DBB21370FB79184602F0CDFE044B02221A6000BF0837BD4680BD8243004000E100E080B400AF024B1846BD4680BC704700BF2481FF1F80B582B000AF7860A8
:40614000FFF7B0FF7B681B78DAB2104B1A707B685B78DAB20D4B5A707B689B78DAB20B4B9A707B681B79DAB2084B1A717B681B7ADAB2064B1A727B685B899AB2034B5A814F
:40618000FFF784FF00BF0837BD4680BD2481FF1F80B483B000AF0346FB71044AFB79137000BF0C37BD4680BC704700BF9F8DFF1F90B482B000AF0346FB710B46BB711346A4
:4061C000BB80BB79022B02D8BB88013BBB80BA88BB889B089BB21846BB881349A1FB03135B099BB2C31AB9880F48A0FB0101C90989B20B441344BA79013A0C498A5C1146D5
:40620000FA790A441A440A4BA2FB0334111B49080B1999080B46DB005B1AD11ACBB218460837BD4690BC70471F85EB51D48201002549922480B582B000AFA04B0022DA8050
:406240009E4B1B79D9B29D4BDB889AB28BB213449AB29A4BDA80994B5B899BB2984AA2FB0312D2094FF4C87101FB02F29B1A9BB2002B15D0914B5B899BB203F003039BB20B
:40628000002B16D18D4B5B899BB28D4AA2FB03125209642101FB02F29B1A9BB2002B08D0884B1B78DBB243F00203DAB2854B1A7007E0844B1B78DBB223F00203DAB2814B0E
:4062C0001A700023FB710DE07C4BDB889AB2FB797D49CB5C9BB213449AB2784BDA80FB790133FB71FA79754B1B7ADBB2013B9A42EAD3744B1B78DBB203F00203002B0BD099
:406300006E4B1B7ADBB2022B06D96C4BDB889BB201339AB2694BDA80684B1B79D8B2674B1B7AD9B2654B5B899BB21A46FFF740FF03460133DAB2614BDA70604BDB78DBB2DE
:40634000002B05D05D4BDB78DAB25C4BDA7006E05A4BDB78DBB20733DAB2584BDA70574B9B78DBB20B2B08D8564B1B78DBB223F00403DAB2534B1A7007E0524B1B78DBB2FC
:4063800043F00403DAB24F4B1A70504B1B78DBB203F00103002B18D04D4B1B78DAB2474B1B78DBB29A4208D14A4B1B78DBB243F00103DAB2474B1A7007E0464B1B78DBB2E4
:4063C00023F00103DAB2434B1A70404B1B78DBB203F00203002B18D03D4B5B78DAB2374B5B78DBB29A4208D13A4B1B78DBB243F00203DAB2374B1A7007E0364B1B78DBB2B1
:4064000023F00203DAB2334B1A70304B1B78DBB203F00403002B18D02D4B9B78DAB2274B9B78DBB29A4208D12A4B1B78DBB243F00403DAB2274B1A7007E0264B1B78DBB25B
:4064400023F00403DAB2234B1A70204B1B78DBB203F00803002B18D01D4BDB78DAB2174BDB78DBB29A4208D11A4B1B78DBB243F00803DAB2174B1A7007E0164B1B78DBB201
:4064800023F00803DAB2134B1A70104B1B78DBB203F02003002B27D00D4BDB889AB2074BDB889BB29A4217D10A4B1B78DBB243F02003DAB2074B1A7016E000BF2481FF1F1F
:4064C0001F85EB51A08DFF1FC88201009D8DFF1F3081FF1F9E8DFF1F424B1B78DBB223F02003DAB23F4B1A703F4B1B78DBB203F01003002B18D03D4B1B79DAB23C4B1B79BD
:40650000DBB29A4208D1374B1B78DBB243F01003DAB2344B1A7007E0324B1B78DBB223F01003DAB22F4B1A702F4B1B78DBB203F04003002B18D02D4B1B7ADAB22C4B1B7ADA
:40654000DBB29A4208D1274B1B78DBB243F04003DAB2244B1A7007E0224B1B78DBB223F04003DAB21F4B1A701F4B1B78DBB25BB2002B18DA1D4B5B899AB21D4B5B899BB21D
:406580009A4208D1174B1B78DBB263F07F03DAB2144B1A7007E0134B1B78DBB203F07F03DAB2104B1A70104B1B78BB71BB79002B13D00C4B1B78DAB2BB791340DBB2BA79F6
:4065C0009A420AD10B4B1B78DBB243F00803DAB2084B1A70034B00221A7000BF0837BD4680BD00BF9E8DFF1F9D8DFF1F3081FF1F2481FF1FA08DFF1F80B500AF0020FCF76B
:40660000A5FA00BF80BD00BF80B500AF0120FCF79DFA00BF80BD00BF80B500AF0220FCF795FA00BF80BD00BF80B500AF0320FCF78DFA00BF80BD00BF80B500AF0420FCF73C
:4066400085FA00BF80BD00BF80B500AF0520FCF77DFA00BF80BD00BF80B500AF0620FCF775FA00BF80BD00BF80B582B000AF0420FFF774F99E4B1B78DBB20133DAB29C4B3E
:406680001A709B4B1B78DBB23B2B40F2A682984B5B78DBB20133DAB2954B5A70944B00221A70934B5B78DBB23B2B40F24682904B9B78DBB20133DAB28D4B9A708C4B00229E
:4066C0005A708B4B9B78DBB2172B40F2DD81884B1B79DBB20133DAB2854B1A71844B00229A70834BDB889BB201339AB2804BDA807F4BDB78DBB20133DAB27D4BDA707C4B18
:40670000DB78DBB2072B02D9794B0122DA70794B1B78DBB203F00203002B11D0744B1B7ADBB2022B0CD1724B1B79DBB21946704B1B7ADBB2013B704AD35C013399422AD818
:406740006C4B1B78DBB203F00203002B0FD0684B1B7ADBB2022B0AD0654B1B79DAB2644B1B7ADBB2013B6449CB5C9A4213D8614B1B78DBB203F00203002B40F0F4805C4BB2
:406780001B79DAB25A4B1B7ADBB2013B5A49CB5C9A4240F2E880564B1B7ADBB20133DAB2534B1A72524B01221A71514B1B7ADBB20C2B40F285804E4B5B899BB201339AB208
:4067C0004B4B5A814A4B01221A72494B0122DA80474B5B899BB2494AA2FB0312D2094FF4C87101FB02F29B1A9BB2002B15D0404B5B899BB203F003039BB2002B16D13C4BD7
:406800005B899BB23D4AA2FB03125209642101FB02F29B1A9BB2002B08D0364B1B78DBB243F00203DAB2334B1A7007E0314B1B78DBB223F00203DAB22E4B1A70304B1B7874
:40684000DBB25BB2002B18DA2E4B5B899AB2284B5B899BB29A4208D12B4B1B78DBB263F07F03DAB2284B1A7007E0274B1B78DBB203F07F03DAB2244B1A70214B1B78FB718D
:40688000FB79002B13D0204B1B78DAB2FB791340DBB2FA799A420AD1164B1B78DBB243F00803DAB2134B1A70174B00221A70174B1B78DBB203F04003002B01D0FFF7CCFE99
:4068C0000F4B1B78DBB203F04003002B28D00D4B1B7ADAB2064B1B7ADBB29A4218D10A4B1B78DBB243F04003DAB2074B1A7017E02481FF1FA08DFF1FC88201001F85EB5191
:406900009D8DFF1F3081FF1F9E8DFF1F9F8DFF1F964B1B78DBB223F04003DAB2934B1A70934B1B78FB71FB79002B13D08F4B1B78DAB2FB791340DBB2FA799A420AD18D4BB4
:406940001B78DBB243F00803DAB28A4B1A70874B00221A70884B1B78DBB203F02003002B01D0FFF771FE824B1B78DBB203F00803002B18D0814BDB78DAB2814BDB78DBB291
:406980009A4208D1794B1B78DBB243F00803DAB2764B1A7007E0754B1B78DBB223F00803DAB2724B1A70724B1B78DBB203F02003002B18D0714BDB889AB2714BDB889BB294
:4069C0009A4208D1694B1B78DBB243F02003DAB2664B1A7007E0654B1B78DBB223F02003DAB2624B1A70624B1B78DBB203F01003002B18D0614B1B79DAB2614B1B79DBB2C2
:406A00009A4208D1594B1B78DBB243F01003DAB2564B1A7007E0554B1B78DBB223F01003DAB2524B1A70524B1B78FB71FB79002B13D04E4B1B78DAB2FB791340DBB2FA79C3
:406A40009A420AD14B4B1B78DBB243F00803DAB2484B1A70454B00221A70474B1B78DBB203F00803002B01D0FFF7DEFD444BDB78DBB2012B08D1404B1B78DBB203F01003E4
:406A8000002B01D0FFF7D8FD3D4B9B78DBB20B2B08D8384B1B78DBB223F00403DAB2354B1A7007E0334B1B78DBB243F00403DAB2304B1A702E4B1B78DBB203F00403002B70
:406AC00018D02E4B9B78DAB22D4B9B78DBB29A4208D1264B1B78DBB243F00403DAB2234B1A7007E0214B1B78DBB223F00403DAB21E4B1A701E4B1B78FB71FB79002B13D084
:406B00001A4B1B78DAB2FB791340DBB2FA799A420AD1184B1B78DBB243F00803DAB2154B1A70124B00221A70134B1B78DBB203F00403002B01D0FFF76FFD0D4B1B78DBB2C5
:406B400003F00203002B25D00C4B5B78DAB20C4B5B78DBB29A4215D1044B1B78DBB243F00203DAB2014B1A7014E000BF9E8DFF1F9D8DFF1FA08DFF1F9F8DFF1F3081FF1F1D
:406B80002481FF1F384B1B78DBB223F00203DAB2354B1A70354B1B78FB71FB79002B13D0314B1B78DAB2FB791340DBB2FA799A420AD12F4B1B78DBB243F00803DAB22C4BCC
:406BC0001A70294B00221A702A4B1B78DBB203F00203002B01D0FFF717FD244B1B78DBB203F00103002B18D0234B1B78DAB2234B1B78DBB29A4208D11B4B1B78DBB243F036
:406C00000103DAB2184B1A7007E0174B1B78DBB223F00103DAB2144B1A70144B1B78FB71FB79002B13D0104B1B78DAB2FB791340DBB2FA799A420AD10D4B1B78DBB243F05F
:406C40000803DAB20A4B1A70074B00221A70094B1B78DBB203F00103002B01D0FFF7CCFC00BF0837BD4680BD9E8DFF1F9D8DFF1FA08DFF1F9F8DFF1F3081FF1F2481FF1F85
:406C800080B500AF064B1B78002B04D100F00AF8034B01221A7000F015F800BF80BD00BFA18DFF1F80B400AF044B72221A70044B20221A7000BFBD4680BC704789640040CE
:406CC0008965004080B582B000AF02F0E9F80346FB710C4A0B4B1B78DBB243F02003DBB21370094A084B1B78DBB243F01003DBB21370FB79184602F0D7F800BF0837BD46E6
:406D000080BD00BF996400409965004080B582B000AF02F0C5F80346FB710C4A0B4B1B78DBB223F02003DBB21370094A084B1B78DBB223F01003DBB21370FB79184602F090
:406D4000B3F800BF0837BD4680BD00BF996400409965004080B483B000AF0023FB710C4B1B78BB71BB7903F02003002B09D0094B1B78FB71BB7903F01E03002B01D000232D
:406D8000FB71FB7918460C37BD4680BC704700BF696500404964004080B582B000AF02F07FF80346FB710C4A0B4B1B78DBB243F00103DBB21370084A074B1B78DBB223F084
:406DC0000103DBB21370FB79184602F06DF800BF0837BD4680BD00BF9964004080B582B000AF786000F048F8786800F015F8072000F024F800F034F800BF0837BD4680BD94
:406E000080B500AF00F038F8024800F005F800BF80BD00BFD946000080B485B000AF7860054B1B68FB60FB6840337A681A6000BF1437BD4680BC704708ED00E080B483B0B1
:406E400000AF0346FB71054AFB795B01DBB2137000BF0C37BD4680BC704700BF00E400E080B400AF034B01221A6000BFBD4680BC704700BF00E100E080B400AF034B0122AD
:406E80001A6000BFBD4680BC704700BF80E100E080B485B000AF0346FB710B4B1B78DBB223F01003FB730849FB791B01DBB203F01003DAB2FB7B1343DBB20B7000BF1437EE
:406EC000BD4680BC704700BFC051004080B500AF00F032F800BF80BD80B500AF00F046F800BF80BD80B485B000AF0346FB710B4B1B78DBB223F02003FB730849FB795B017C
:406F0000DBB203F02003DAB2FB7B1343DBB20B7000BF1437BD4680BC704700BF2051004080B400AF00BFBD4680BC704780B400AF00BFBD4680BC704780B500AF094B1B78E3
:406F4000DBB203F01003002B14BF01230023DBB21A46054B1A7002F067F8FFF7E1FF00BF80BD00BF906400403C81FF1F80B500AFFFF7DCFF02F0DCF8034B1B78002B01D029
:406F800002F00EF800BF80BD3C81FF1F80B485B000AF0346FB710B4B1B78DBB223F01003FB730849FB791B01DBB203F01003DAB2FB7B1343DBB20B7000BF1437BD4680BC0E
:406FC000704700BF3051004080B485B000AF0346FB710B4B1B78DBB223F00203FB730849FB795B00DBB203F00203DAB2FB7B1343DBB20B7000BF1437BD4680BC704700BFCD
:407000002051004080B485B000AF0346FB710B4B1B78DBB223F02003FB730849FB795B01DBB203F02003DAB2FB7B1343DBB20B7000BF1437BD4680BC704700BF3051004014
:4070400080B485B000AF0346FB710B4B1B78DBB223F01003FB730849FB791B01DBB203F01003DAB2FB7B1343DBB20B7000BF1437BD4680BC704700BF2051004080B582B08E
:4070800002AF414B01221A70404B00221A70102000F066FF102001F049F807211D20FEF763F83B4B04221A703A4B00221A703A4B00221A70394A394B1B78DBB243F0180306
:4070C000DBB21370364B00221A70364B00221A70354B00221A70354B0A221A70344B00221A70344B00221A70334B5B221A70334B5E221A70324B00221A70324B14221A70FB
:407100000123009310234FF4004247F60271032000F0A6FC0223009310234FF4004249F2DA01002000F09CFC0323009310234FF4004249F2DA01002000F092FC042300936E
:4071400010234FF4004249F2DA01002000F088FC1D4A0D4B1B78DBB2013B1C499B000B449B7813701A4A084B1B78DBB2013B174931F823301380044B1B78DBB2184600F06E
:4071800067FA00BFBD4680BD3E81FF1FA48DFF1F96580040975800409E580040075B004093580040885B0040895B004080580040815800408358004088580040895800400F
:4071C0008D580040014E00400E4E0040AC8DFF1F0C4E004080B582B000AF01F061FE0346FB71444B1B78BB71434A434B1B78DBB243F00103DBB213703F4A3F4B1B78DBB230
:4072000043F01003DBB213703C4A3C4B1B78DBB243F00103DBB21370384A384B1B78DBB243F01003DBB21370354A354B1B78DBB243F00203DBB21370324A324B1B78DBB289
