:400000000080002011000000514700005147000080B500AF024A034B1B68136004F0CCFBBC760040FA46004010B5054C237833B9044B13B10448AFF300800123237010BD1C
:40004000208AFF1F00000000786D0100084B10B51BB108490848AFF300800848036803B910BD074B002BFBD0BDE81040184700BF00000000248AFF1F786D0100C880FF1F74
:400080000000000080B500AF06F00CFF4FF48072002104480DF066FC034B00221A7000BF80BD00BF3C8AFF1F3D8BFF1F80B582B000AF06F0D5FE0346FB71FB79002B09D0CF
:4000C000114B1B785A1CD1B20F4A117019460F4AFB795354FB790D2B11D10D4B1A680D4B1B68194610460EF061FB02460A4B1A60054B1B781A46054B1344054A136000BF97
:400100000837BD4680BD00BF3D8BFF1F3C8AFF1FCC80FF1F448BFF1F408BFF1F80B582B000AF7860796803480EF024F900BF0837BD4680BDF8C4FF1F80B596B000AF314986
:4001400031480EF033FB78657B6D002B01D0002353E02E492C480EF029FB78657B6D002B4AD000F00BFC386538463B6D284A20210DF020FF07F12003184600F05DF897F8D6
:400180003830002B2DD0B7F9363007F13C00214A14210DF00FFF07F13C031A461E49002000F038FB07F13C033A6D19461B4802F04BF83B461A461A491A4800F0F1F91A4AC0
:4001C0001749184800F0ECF907F13C031A461449144800F0E5F9154A1149124800F0E0F908E01349022000F015FB3A6D11490B4802F02AF8002300E0002318465837BD468C
:4002000080BD00BF886D0100F8C4FF1F8C6D0100906D0100946D0100986D0100AC6D0100BC6D0100C06D0100CC6D0100E06D0100E46D0100106E0100B0B58AB000AF786001
:40024000002387F82130002387F82030FFF71AFF012006F0A3FEC82004F064FF022008F075FC06F093FD384806F03EFE4FF4FA6004F058FF06F0D0FD06F048FE002006F0D3
:400280008DFE0C2008F062FC002008F041FC2F492F480EF09BFB786233E00D21786A0DF023FF0346002B27D0786A0DF07BF903467B847B8C002B1FD07B8C42F20F72934285
:4002C00014D097F82030B7F922205B0007F128010B4423F8202C97F820300A2B15D897F820300133DBB287F8203005E097F821300133DBB287F82130144900200EF066FB75
:4003000078627B6A002BC8D100E000BF97F8202007F108031146184600F082F803461BB2FB837B681D4607F108040FCC28606960AA60EB6003CC2861696123882B837868F0
:400340002837BD46B0BD00BFAD000000146E01003C8AFF1FB0B5EEB004AF3B1D186007F12403002283F8802007F124032A4A1C4615460FCD0FC42B68238007F10803184663
:40038000FFF75AFF07F108031B7E1A4607F108035B7E134407F10802127E114607F10802B2F91620144607F1240202F181000294019100930B23194A4FF480710DF0FAFD93
:4003C00007F108031B7E0B2B05D107F12403012283F880200EE007F108031B7E002B09D007F108031B7E0A2B04D807F12403022283F880203B1D1A6807F1240310461946B1
:4004000040F281131A460DF037FA3B1D186807F5D477BD46B0BD00BF186E01002C6E010090B585B000AF78600B46FB700023FB81FB781BB21946786800F03AF8FB7803F095
:400440000103DBB2002B25D1FB78013BDA0F13445B105B007A681344B3F900301946FB785B08DBB25B007A681344B3F900300B4418460CF035FA4FF000024FF080430CF0B7
:40048000BFFB03460C46184621460CF03FFD0346FB8107E0FB785B08DBB25B007A6813441B88FB81FB8918461437BD4690BD00BF80B584B000AF78600B467B800023FB8111
:4004C00037E00023BB8124E0B7F90C305B007A681344B3F90020B7F90C3001335B0079680B44B3F900309A420DDDB7F90C305B007A68D018B7F90C3001335B007A68134424
:40050000194600F021F8B7F90C309BB201339BB2BB81B7F90C20B7F90210B7F90E30CB1A013B9A42D0DBB7F90E309BB201339BB2FB81B7F90E20B7F90230013B9A42C0DB7E
:4005400000BF1037BD4680BD80B485B000AF786039607B681B88FB813B68B3F900207B681A803B68FA891A8000BF1437BD4680BC704700BF80B584B000AF78600923FB73B5
:4005800000F078F8786809F075F80346DBB20133FB7300F07BF8FB7B18461037BD4680BD80B586B000AFF860B9607A600923FB7500F060F8B968F86809F046F838613B6921
:4005C000002B08D108F074FE08F0ECFEB968F86809F03AF838613B69002B10D078680DF027FF03461A467968386909F0DBF9386908F064FF0346DBB2C3F10103FB7500F0D2
:4006000045F8FB7D18461837BD4680BD80B586B000AFF860B9607A600923FB7500F02AF81349F86809F010F838613B69002B08D108F03EFE08F0B6FE0D49F86809F004F87C
:4006400038613B69002B0CD07A68B968386909F082F8386908F032FF0346DBB2C3F10103FB7500F013F8FB7D18461837BD4680BD646E010080B500AF06F0B4FC012006F083
:40068000B7FC08F08FFE00BF80BD00BF80B500AF002006F0ADFC06F09FFC08F009FE002006F018FD002006F0F7FC002006F030FD002006F04BFD00BF80BD00BFF0B5EBB044
:4006C00000AF3B1D186007F124033D4A1C4613460FCB07C4237007F12403002283F8802007F11803374A07CA03C31A8007F10C03354A07CA03C31A7007F10C031846FFF7BF
:4007000039FF07F10C03314A31491846FFF748FF07F1180107F10C030A221846FFF776FF07F10C031846FFF725FF03461A4607F1240383F8802007F1240393F88030012BF5
:4007400014D107F124038133224A1D4614460FCC28606960AA60EB6007CC28616961AA612388A278AB831346AB7717E007F124038133194A14469E4604F1200C75462646C5
:400780000FCE28606960AA60EB6010340EF1100E6445F3D17346224612781A703B1D1A6807F124031046194640F281131A460DF063F83B1D186807F5D677BD46F0BD00BFF7
:4007C000686E0100CC6E0100D86E0100786E0100846E0100886E0100A86E010080B500AF07F052FD00BF80BD80B500AF07F0ACFD034603F00203002B02D1012004F092FC2C
:4008000007F018FE00BF80BD80B500AF07F02CFE00BF80BD0EB480B5ADF6140D00AF0246FB1D1A70FB1D1B78022B07D0FB1D1B78012B03D0FB1D1B78032B1DD1294800F0D9
:40084000C9F800F09BF803461946274800F0C2F8FB1D1B78022B03D1244800F0BBF820E0FB1D1B78012B03D1214800F0B3F818E0204800F0AFF814E0FB1D1B78002B29D14E
:400880001D4B1B79002B25D0164800F0A3F800F075F803461946144800F09CF8174800F099F807F5026207F10C031A6007F10C0307F110001B68D7F81C284FF4006110F044
:4008C00041FF07F11003184607F064FD0C4800F081F800E000BF07F61407BD46BDE8804003B07047E46E0100E86E0100F86E0100146F0100306F01005C9DFF1F4C6F0100A9
:40090000686F010084B080B500AF07F1080E8EE80F00134800F05EF800F030F803461946104800F057F8104800F054F807F108010E4800F04FF897F8883019460C4800F030
:4009400049F807F1890319460A4800F043F80A4800F040F800BFBD46BDE8804004B07047E46E0100E86E0100706F0100806F0100906F0100A06F0100B06F010080B58CB0AF
:4009800000AF05F019FCF862FB6A1B78DBB27B60FB6A5B78DBB2BB60FB6A9B78DBB2FB60FB6A5B899BB2A3F26C73BB61FB6A1B7ADBB27B61FB6A1B79DBB23B6100237B62D9
:4009C0003B1D18460DF020F9B862BB6A18463037BD4680BD0FB480B5ADF6080D00AF07F61403C7F80438381DD7F80438D7F810284FF4006110F0A6FE3B1D184607F0CAFC57
:400A000000BF07F60807BD46BDE8804004B07047B0B59AB000AF7860012007F01DFA012008F0B2F80A2004F07DFB07F0E7F907F0BFF906F001FD002387F8673034E097F804
:400A40006730184607F0F4F90023A7F864300FE0B7F8644007F080F90246A30007F168010B4443F8602CB7F864300133A7F86430B7F864300A2BEBD997F8674007F1080314
:400A80000B21184600F0DCF90346184606F044FE0246A30007F168010B4443F8342C97F86730013387F8673097F86730062BC6D907F0A4F907F06CF906F0D6FC002007F09D
:400AC000CBF9002008F060F87B6B18460BF01AFF19A3D3E900230BF0B5FD03460C46184621460CF03BFA03463B66BB6B144918460CF092FB0346396E18460CF083FA03462D
:400B0000FB64FB6B396E18460CF07CFA03463B653B6CBB65012387F85C307B681D4607F14C040FCC0FC523682B6078686837BD46B0BD00BFAFF30080FCA9F1D24D62F03F31
:400B4000000030410000000090B599B000AF786007F054F907F02CF906F06EFC032007F067F90023A7F85E300FE0B7F85E4007F0F3F80246A30007F160010B4443F8582CF5
:400B8000B7F85E300133A7F85E30B7F85E300A2BEBD907F108030B21184600F051F90346184606F0B9FD03463B653B6D484918460CF032FB034618460AF0C8FD0346444962
:400BC00018460CF0DDFB03463B65012007F0DCFF0A2004F0A7FA0023A7F85C300FE0B7F85C4007F0B9F80246A30007F160010B4443F8582CB7F85C300133A7F85C30B7F85D
:400C00005C300A2BEBD907F108030B21184600F017F90346184606F07FFD0346FB6407F0EDF807F0B5F806F01FFC002007F0ACFFFB6C18460BF066FE21A3D3E900230BF0CC
:400C4000DFFF03460C46184621464FF00002214B0BF0ACFE03460C46184621460CF07EF903467B65FB6C18460BF04CFE4FF00002194B0BF09BFE03460C461846214612A390
:400C8000D3E900230BF0BCFF03460C46184621464FF00002114B0BF0D5FC03460C46184621460CF05BF90346BB657B681C4607F14C030FCB84E80F0078686437BD4690BD11
:400CC0000000000000C0624033333333333303400000C84200408F40000024400000044084B090B587B000AF786007F12C0080E80E00BB6B18460BF005FE23A3D3E9002364
:400D00000BF07EFF03460C46184621464FF00002214B0BF075FF03460C46184621460CF01DF903463B61BB6B18460BF0EBFD4FF000021A4B0BF03AFE03460C4618462146C8
:400D400013A3D3E900230BF05BFF03460C46184621464FF00002124B0BF074FC03460C46184621460CF0FAF803467B617B681C4607F108030FCB84E80F0078681C37BD46DA
:400D8000BDE8904004B070470000000000C06240333333333333034000408F40000024400000044080B584B000AF786039600023FB6028E00023BB601BE0BB689B007A68DD
:400DC00013441A68BB6801339B0079680B441B689A420BDDBB689B007A68D018BB6801339B007A681344194600F016F8BB680133BB603A68FB68D31A5A1EBB689A42DCDC0E
:400E0000FB680133FB603B685A1EFB689A42D1DC00BF1037BD4680BD80B485B000AF786039607B681B68FB603B681A687B681A603B68FA681A6000BF1437BD4680BC704728
:400E400090B585B000AF786039600023FB6039687868FFF7A7FF3B6803F00103002B23D13B68013BDA0F13445B109B007A6813441A683B68D90F0B445B109B0079680B4494
:400E80001B68134418460BF02BFD4FF000024FF080430BF0B5FE03460C46184621460CF035F80346FB6008E03B68DA0F13445B109B007A6813441B68FB60FB6818461437C5
:400EC000BD4690BD2DE9B043EEB006AF3B1D186007F11C03002283F8802007F11C03264A1C4615460FCD0FC495E8030020600434217007F108031846FFF78AFD07F1080385
:400F00001B6818460BF0FEFC04460D4607F108035B6818460BF0F6FC8046894607F108039B6818460BF0EEFC02460B4607F11C0101F18100CDE90423CDE90289CDE9004515
:400F40000E4A4FF480710DF035F807F11C03012283F880203B1D1A6807F11C031046194640F281131A460CF087FC3B1D186807F5D077BD46BDE8B083B46F0100CC6F0100C5
:400F80002DE9B043EEB006AF3B1D186007F11C03002283F8802007F11C03374A1C4615460FCD0FC495E8030020600434217007F10C031846FFF7C8FD07F10C031B681846DC
:400FC0000BF0A0FC04460D4607F10C039B6818460BF098FC8046894607F10C03DB6818460BF090FC02460B4607F11C0101F18100CDE90423CDE90289CDE900451F4A4FF41C
:4010000080710CF0D7FF07F10C031B681C4918460CF002F9034618460AF098FB0346184918460CF0ADF903461A4607F10C031A6007F10C035A6807F10C031B681946104699
:401040000CF07EFA0346002B04D107F11C03012283F880203B1D1A6807F11C031046194640F281131A460CF007FC3B1D186807F5D077BD46BDE8B083EC6F010004700100CC
:401080000000C84298B500AF12E00D4BB3F900301C4607F017FB03461A460A4B1A55084BB3F900309BB201339BB21AB2044B1A8007F02AFB0346012BE7D000BF98BD00BF5F
:4010C000488BFF1F5409002080B500AF00F032F8154B00221A70154B002283F82820134B00221A75114B00221A70114B00221A600F4B00225A600E4B00229A600C4B002200
:40110000DA600B4B00221A61094B00225A61084B0022DA61064B00229A610021402007F08BFC00BF80BD00BFB9080020DCEDFF1FBC08002080B500AF002007F0AFFC0C20FB
:4011400007F05CFC002007F0F1F9002007F038FC002007F089FC002007F0CAF9002007F003FA00BF80BD00BF80B500AF022007F045FC012007F092FC012007F0D7F964203F
:4011800003F0D0FF00BF80BD80B500AF41F288320A490B4800F0A8F800F084F84FF47A7003F0C0FF07F05EFA07F08EFBFFF7C2FF044B00221A7000BF80BD00BF347001003E
:4011C00038700100B908002080B582B000AFFFF7CBFF07F0E5F92C4807F064FB00F062F80023FB7100233B71FFF7C8FB38600023BB711CE000237B710EE04FF47A72234914
:40120000234800F071F80346002B02D00123FB7105E07B7901337B717B79132BEDD9FB79012B08D000F03EF8BB790133BB71BB79022BDFD900E000BFFFF7A0FB02463B68BD
:40124000D31A3B603A6813490020FFF7E3FAFB79012B0AD13B791A460F490020FFF7DAFA0E4B01221A70012309E00D490220FFF7D1FA0A4B00221A70FFF786FF00231846DB
:401280000837BD4680BD00BF8510000034700100447001004C70010060700100B90800209470010080B500AF012007F021F94FF4FA6003F037FF002007F01AF900BF80BD8B
:4012C00080B500AF064B00221A804FF48062002104480CF047FB07F02DFA00BF80BD00BF488BFF1F5409002080B58AB000AFF860B9607A6000237B6200237B6246E00A232A
:40130000FB617A68FB69B2FBF3F3BB61FFF7D8FFF86807F04BFA7B68002B06D1FA681F490020FFF777FA012334E000233B6220E0F86903F0F7FEB96819480DF037FA7861F3
:401340007B69002B12D07B6A002B06D1144BFA6814490020FFF75EFA06E07B6A5A1C104B11490120FFF756FA012313E03B6A01333B623A6ABB699A42DAD3094BFA680B49C4
:401380000220FFF747FA7B6A01337B627B6A022BB5D9002318462837BD4680BDAC70010054090020D87001002871010060710100B0B5E6B000AF3B1D186007F10C0300222C
:4013C00083F8802007F10C03364A07CA03C31A800233120C1A7007F10C038133324A1C4615460FCD20606160A260E36028682061AB88AA79A3821346A3750023C7F8943143
:401400003AE000F091F800F0F1FE0346002B02D1FFF7DAFE27E000F0E9FE0346042B22D100F042FEC7F89001D7F89031002B03D0D7F8900102F0CCFD07F10C0381331B4A93
:401440001D4614460FCC28606960AA60EB6007CC28616961AA6107F10C03012283F88020FFF792FE0CE04FF47A7003F05BFED7F894310133C7F89431D7F894313B2BC0DDEA
:401480003B1D1A6807F10C031046194640F281131A460CF0F1F93B1D186807F5CC77BD46B0BD00BF907101009C710100B471010080B586B000AFF860B9607A603B60B968ED
:4014C000F8680DF073F978617B69002B01D1FB687B61B8680CF0ACFF02467B6913447B61796878690DF062F938613B69002B06D1F8680CF09DFF0246FB6813443B613A6972
:401500007B69D31A1A46796938680CF0BFFF3A697B69D31A1A463B68134400221A70012318461837BD4680BD80B582B000AF534B1B78012B0BD1FFF721FA0246504B1A60F6
:4015400000F0FEFC4D4B02221A70012392E04B4B1B78022B5FD10023FB712BE000F01CF9484B5B7883F00103DBB2002B07D0464B5B691A2B03DD444B5B69FF2B1ED1414BA2
:401580005B78002B0FD0404B9B68242B03DD3E4B9B68FF2B13D13C4B5B691A2B03DD3A4B5B69FF2B0BD14FF47A7003F0BBFDFB790133FB71FB791D2BD0D900E000BF00F058
:4015C0006DF80346002B13D0FFF7D8F902462C4B1B68D31A2C4A93612B4B9B691A462B490020FFF717F900F0B5F8244B03221A70FFF7C4F90246224B1B68D31AB42B08DD04
:401600001E4B00221A70FFF7BFFD21490220FFF701F900232EE0194B1B78032B29D100F0A7F80346002B11D0144B04221A70FFF7A5F90246124B1B68D31A134AD361124B8D
:40164000DB691A4613490020FFF7E4F8FFF796F902460B4B1B68D31AE62B08DD074B00221A70FFF791FD0C490220FFF7D3F8002300E0002318460837BD4680BDB908002051
:40168000500900205C9DFF1FBC080020D0710100F87101001C7201003C72010080B584B000AF20490020FFF7B5F84FF4FA621E491E48FFF719FE0346FB731D490020FFF7DC
:4016C000A9F81C4A1C490020FFF7A4F8FB7B002B23D000233B713B1D184A19491548FFF7E7FE3B1D1A4617490020FFF793F816490020FFF78FF83B1D144918460DF056F802
:401700000346002B07D13B1D114918460DF04EF80346002B01D0012300E0002318461037BD4680BD6472010034700100787201008472010054090020A0720100BC7201009C
:40174000C0720100C4720100E4720100047301000873010080B500AF4FF47A7202490348FFF7C2FD00BF80BD347001000C73010080B500AF4FF4FA6205490648FFF7B4FD6F
:401780000346002B01D0012300E00023184680BD1C7301002073010080B586B004AF154BFF225A60134BFF22DA60124BFF229A60104BFF225A610F4BFF221A610D4BFF22CE
:4017C0001A604FF4FA620C490C48FFF78DFD0C4B03930C4B02930C4B01930C4B00930C4B044A0C490C480CF031FC786000BF0837BD4680BDBC080020347001002C73010043
:40180000D0080020CC080020C8080020C4080020C0080020387301005409002080B400AF104B00221A700F4B01225A700D4B01229A700C4B0122DA700A4B01221A71094BFE
:4018400078225A71074B78229A71064B7822DA71044B78221A72034B78225A7200BFBD4680BC70475C9DFF1F90B5ADF5637D00AF002387F8E83207F5217300221A7007F577
:40188000087300221A7007F5DE7300221A7007F5AC7300221A7007F1900300221A70002387F87C33002387F87033002387F86433002387F85833002387F84C3307F55F731F
:4018C000B34AB449B448FFF7F3FD07F55C73B04AB249B148FFF7ECFD07F55973AC4AB049AD48FFF7E5FD07F55673A94AAD49AA48FFF7DEFD07F55373A54AAB49A648FFF7F6
:40190000D7FDAA49A4480CF051FF0346002B4FD007F190039E4AA5499F48FFF7C9FD07F19003A34918460CF041FF0346002B14BF01230023DBB21A469E4B1A7007F1900387
:401940009D4918460CF032FF0346002B14BF01230023DAB2994B1A7007F19003984918460CF024FF0346002B14BF01230023DAB2944B1A7007F19003934918460CF016FF2C
:401980000346002B14BF01230023DBB21A468F4B1A7007F190038E4918460CF007FF0346002B14BF01230023DBB21A46894B1A7007F53A73764A88497748FFF779FD07F54C
:4019C0003A73184600F076FE07F52173704A83497148FFF76DFD07F521731846FEF79EFB07F508736A4A7E496B48FFF761FD07F50873184600F0A4FE07F5DE73644A7949B0
:401A00006548FFF755FD07F5DE73184601F0B0F807F5AC735E4A74495F48FFF749FD07F5AC73184601F026FC07F18C0207F55F736E4918460CF00AFB0346012B0ED107F1C8
:401A40008C031B68DAB26A4B1A7007F18C031B681A4668490020FEF7DDFE03E066490220FEF7D8FE07F1880207F55C735F4918460CF0ECFA0346012B12D107F188031B686C
:401A8000002B14BF01230023DAB2594B5A7007F188031B681A4659490020FEF7BBFE03E057490220FEF7B6FE07F1840207F559734E4918460CF0CAFA0346012B1DD107F16D
:401AC00084031B68DAB24A4B9A70494B9B7899B24C4C38460723012201F00EFE3A4623461168196092889A8007F184031B681A4645490020FEF78EFE03E044490220FEF738
:401B000089FE07F1800207F55673384918460CF09DFA0346012B1DD107F180031B68DAB2334BDA70324BDB7899B2394C38460723012201F0E1FD3A46234611681960928889
:401B40009A8007F180031B681A4632490020FEF761FE03E030490220FEF75CFE07F17C0207F55373214918460CF070FA0346012B56D107F17C031B68DAB21D4B1A7107F1BE
:401B80007C031B681A4625490020FEF743FE4BE0BC720100587301005409002064730100707301008073010090730100A0730100B0730100F3C4FF1FB87301005DEDFF1F07
:401BC000C87301004C090020DC730100F2C4FF1FE4730100CAEDFF1FF0730100FC7301000C7401002074010028740100387401005C9DFF1F3C740100587401007474010031
:401C000090740100ECC4FF1FAC740100D0740100D09DFF1F007501002875010058750100AE490220FEF7F6FDAD4B1B78042B40F0508107F1080300221A70AA4B1B78002BE0
:401C40004ED007F53A73A84918460CF0AFFD0346002B41D007F1080300221A7007F53A7207F10803114618460CF084FB07F53A7307F108009D4A9C49FFF71AFC07F17802A4
:401C800007F53A739A4918460CF0E0F90346012B1DD107F178031B68DAB2914B5A71904B5B7999B2934C38460723012201F024FD3A4623461168196092889A8007F17803A1
:401CC0001B681A468C490020FEF7A4FD08E08B490220FEF79FFD03E089490220FEF79AFD884B1B78002B4ED007F521737E4918460CF05CFD0346002B41D007F10803002241
:401D00001A7007F5217207F10803114618460CF031FB07F5217307F10800744A7249FFF7C7FB07F1740207F52173714918460CF08DF90346012B1DD107F174031B68DAB270
:401D4000674B9A71664B9B7999B26F4C38460723012201F0D1FC3A4623461168196092889A8007F174031B681A4668490020FEF751FD08E066490220FEF74CFD03E0654955
:401D80000220FEF747FD644B1B78002B4ED007F50873554918460CF009FD0346002B41D007F1080300221A7007F5087207F10803114618460CF0DEFA07F5087307F108001B
:401DC0004A4A4949FFF774FB07F1700207F50873474918460CF03AF90346012B1DD107F170031B68DAB23E4BDA713D4BDB7999B24A4C38460723012201F07EFC3A462346CD
:401E00001168196092889A8007F170031B681A4643490020FEF7FEFC08E042490220FEF7F9FC03E040490220FEF7F4FC3F4B1B78002B4ED007F5AC732B4918460CF0B6FCA0
:401E40000346002B41D007F1080300221A7007F5AC7207F10803114618460CF08BFA07F5AC7307F10800214A1F49FFF721FB07F16C0207F5AC731E4918460CF0E7F8034671
:401E8000012B1DD107F16C031B68DAB2144B5A72134B5B7A99B2264C38460723012201F02BFC3A4623461168196092889A8007F16C031B681A461F490020FEF7ABFC08E02F
:401EC0001D490220FEF7A6FC03E01C490220FEF7A1FC00BF07F56377BD4690BD847501005C9DFF1FF3C4FF1FB4750100BC72010038740100CCEDFF1FBC750100E075010097
:401F0000107601005DEDFF1FD4EDFF1F3876010060760100947601004C090020C4EDFF1FC0760100F476010034770100CAEDFF1F4C0800206C77010094770100C877010037
:401F400080B584B000AF454B1B7D002B13D14FF4FA6243494348FFF7C7F90346002B0AD0414B424A42494348FFF7A2FA3E4A42490020FEF74FFC394B1B78002B13D14FF4BC
:401F8000FA6237493D48FFF7AFF90346002B0AD0324B364A36493748FFF78AFA2F4A38490020FEF737FC2D4B93F82830002B13D14FF4FA622A493348FFF796F90346002B2D
:401FC0000AD0314B294A2A492A48FFF771FA2E4A2E490020FEF71EFC2D4B5B7883F00103DBB2002B06D04FF4FA621D492948FFF77BF909E0264B5B78002B05D04FF4FA62B8
:4020000017492548FFF770F94FF4FA6214492348FFF76AF90346002B1BD000233B713B1D124A13491348FFF743FA3B1D1A461C490020FEF7EFFB3B1D312118460CF054F87C
:402040000346002B05D14FF4FA6205491548FFF74BF900BF1037BD4680BD00BFDCEDFF1F34700100F4770100F0EDFF1FBC720100C0720100540900200078010010780100B9
:402080001C7801002878010004EEFF1F347801005C9DFF1F407801006C7801008878010094780100A078010080B5A0B006AF444B1B78042B05D043490220FEF7ABFB002385
:4020C0007AE000237B664FF4FA623F493F48FFF70BF90346002B6ED0002387F8443007F144033B4A3B493C48FFF7E2F90023BB6207F13C0107F1400207F1440007F1280367
:40210000049307F12C03039307F13003029307F13403019307F1380300930B462F490BF095FF0346072B06D1BB6A4FF4617202FB03F3BB6227E007F13C0107F1400207F19F
:40214000440007F12803049307F12C03039307F13003029307F13403019307F1380300930B461F490BF072FF0346072B05D1BB6A1C4A02FB03F3BB6205E01B490220FEF7EA
:4021800049FB002318E0FB6A7B603B6BBB607B6BFB603B6C6433BB61FB6B013B7B61BB6B3B6100237B623B1D18460BF02DFD0246BB6A13447B667B6E18466837BD4680BD3E
:4021C000B9080020AC78010034700100E4780100F0780100F478010054090020F8780100107901007CFCFFFF2879010080B400AF024B1B781846BD4680BC7047B908002079
:4022000080B500AFFFF7F2FF0346002B03D006F073FC06F01BFB00BF80BD00BF80B500AFFFF7E4FF0346002B0BD006F06BFC06F027FBFFF7DBFF0346032B02D1642002F04F
:4022400071FF00BF80BD00BF80B584B000AFF860B9607A60234B1B881A462C2303FB02F3214A9818FB68214A14210BF0A3FE1D4B1B881A462C2303FB02F310331A4A1344B8
:40228000181DBB68194A14210BF094FE154B1B881946154A2C2303FB01F3134428337A681A60104B1B8801339AB20E4B1A80104B1B8801339AB20E4B1A800A4B1B88952BF7
:4022C0000BD9084B00221A800A4B01221A700A490220FEF79FFA002300E0012318461037BD4680BDF4C4FF1F80EEFF1F547A0100F6C4FF1F52080020587A010080B483B01D
:4023000000AF1CE0FB88164A2C2101FB03F3134400221A70FB88124A2C2101FB03F31344143300221A70FB880D4A2C2101FB03F31344283300221A60FB880133FB80FB8849
:40234000952BDFD9074B00221A80074B00221A80064B00221A7000BF0C37BD4680BC704780EEFF1FF4C4FF1FF6C4FF1F5208002080B400AF024B1B881846BD4680BC7047F9
:40238000F6C4FF1F80B400AF024B1B881846BD4680BC7047F4C4FF1F80B58CB008AFF860B9607A603B60FB6A01933B680093FB692A4A42F21071F8680BF0FCFD284B07931D
:4023C0003B6A0693274B0593254B0493BB690393254B02937B680193244B0093FB68244A42F21071F8680BF0E5FD7B6A002B0CD07B6A1B78002B08D07B6A0093FB681D4AEA
:4024000042F21071F8680BF0D5FD1B49F8690BF0D3FE0346002B13D0B8680CF009F80246BB6A1344154A03920293154B0193154B0093FB68144A42F21071F8680BF0BAFDF9
:40244000BB680093FB68114A42F21071F8680BF0B1FD00BF1037BD4680BD00BF907A0100B87A0100BC7A0100CC7A0100D07A0100A47A0100D87A0100E07A0100F07A0100E6
:40248000F87A01000C7B0100E47A0100287B010090B589B004AF78607B6800221A70334B1B7883F00103DBB2002B2DD00023FB8122E0FB892C2202FB03F32D4A1344FA8992
:4024C0002C2101FB02F2103229490A440432F98927482C2404FB01F10144283109680291019200937B68234A42F2107178680BF061FDFB890133FB81FFF744FF03461A4619
:40250000FB899342D5D328E00023BB8122E0BB892C2202FB03F3164A1344BA892C2101FB02F2103212490A440432B98910482C2404FB01F1014428310968029101920093B1
:402540007B680C4A42F2107178680BF033FDBB890133BB81BB89952BD9D978680BF068FFB860BB6818461437BD4690BD5208002080EEFF1F307B010080B588B004AFF86058
:40258000B9607A603B60FB6800221A703B6802937B680193BB680093FB68044AC821F8680BF008FD00BF1037BD4680BD507B0100B0B58CB000AF03F093FD034687F82F3013
:4025C00097F82F3007F124010A2218460BF020F9FEF7D4F9024607F1240319462C48FFF733FE00233B713B1D18460BF021FF03461A463B1D1344274A1C4615460FCD20608D
:402600006160A260E36007F124023B1D114618460BF04AFD3B1D19460020FEF7FBF81E491E480CF0C3F8B862BB6A002B11D0012003F03AFD194B00221A70FEF79FF9034668
:402640001A4617491248FFF7FFFD16490020FEF7E1F8154911480CF0A9F8B862BB6A002B11D0002003F020FD0C4B00221A70FEF785F903461A460D490548FFF7E5FD0C4943
:402680000020FEF7C7F8002318463037BD46B0BD607B0100707B0100807B0100689DFF1F847B0100887B0100B47B0100B87B0100BC7B010080B582B000AF7860796803484D
:4026C0000BF058FE00BF0837BD4680BD689DFF1F80B582B000AF06F0DFFA0346FB71FB79002B09D0114B1B785A1CD1B20F4A117019460F4AFB795354FB790D2B11D10D4B9B
:402700001A680D4B1B68194610460CF04FF802460A4B1A60054B1B781A46054B1344054A136000BF0837BD4680BD00BF4D8CFF1F4C8BFF1FD080FF1F548CFF1F508CFF1F32
:4027400080B582B000AF7860796803480BF012FE00BF0837BD4680BD60EDFF1F80B596B000AF314931480CF021F878657B6D002B01D0002353E02E492C480CF017F878656F
:402780007B6D002B4AD0FEF7F9F8386538463B6D284A20210BF00EFC07F12003184600F05DF897F83830002B2DD0B7F9363007F13C00214A14210BF0FDFB07F13C031A463A
:4027C0001E490020FEF726F807F13C033A6D19461B48FFF739FD3B461A461A491A48FDF7DFFE1A4A17491848FDF7DAFE07F13C031A4614491448FDF7D3FE154A11491248E4
:40280000FDF7CEFE08E013490220FEF703F83A6D11490B48FFF718FD002300E0002318465837BD4680BD00BFE87B010060EDFF1FEC7B0100F07B0100F47B0100F87B01008A
:40284000187C0100347C0100387C0100447C0100647C0100687C0100A07C0100B0B58AB000AF7860002387F82130002387F82030FDF708FC012006F0C3FAC82002F052FCBA
:40288000022006F045FA06F09DF9384806F05EFA4FF4FA6002F046FC06F0DAF906F068FA002006F0ADFA0C2006F032FA002006F015FA2F492F480CF089F8786233E00D21BE
:4028C000786A0BF011FC0346002B27D0786A0AF069FE03467B847B8C002B1FD07B8C42F20F72934214D097F82030B7F922205B0007F128010B4423F8202C97F820300A2B4B
:4029000015D897F820300133DBB287F8203005E097F821300133DBB287F82130144900200CF054F878627B6A002BC8D100E000BF97F8202007F1080311461846FDF770FD16
:4029400003461BB2FB837B681D4607F108040FCC28606960AA60EB6003CC2861696123882B8378682837BD46B0BD00BFD1260000A47C01004C8BFF1FB0B5EEB004AF3B1DF4
:40298000186007F12403002283F8802007F124032B4A1C4615460FCD0FC495E80F0007C4237007F108031846FFF758FF07F108031B7E1A4607F108035B7E134407F108027A
:4029C000127E114607F10802B2F91620144607F1240202F181000294019100930B23194A4FF480710BF0E6FA07F108031B7E0B2B05D107F12403012283F880200EE007F1DB
:402A000008031B7E002B09D007F108031B7E0A2B04D807F12403022283F880203B1D1A6807F124031046194640F281131A460AF023FF3B1D186807F5D477BD46B0BD00BFA5
:402A4000A87C0100C87C010090B591B002AFFDF795FF7863374938480BF0A8FE3863374B7B623B6B002B60D007F11803344A35493148FEF71DFD07F11803334A33491846B5
:402A80000BF0E4FA324B2E4A32492B48FEF710FD31492F480BF08AFE38633B6B002B03D02E490220FDF7B6FE07F10C03244A21492148FEF7FDFC07F1240207F10C0323499D
:402AC00018460BF0C3FA7B6A184600F019F9034687F82F3097F82F3007F10800204A04210BF068FA07F108037A6B19461D48FFF7ABFB07F10C037A6B19461B48FFF7A4FBEF
:402B000000F046F8B862B86A09F0FCFE03460C463846CDE900340D4A05210BF04BFA3B467A6B19461148FFF78FFB002318463C37BD4690BDF87C0100E80800209A99D93FC6
:402B4000007D0100047D0100CC9DFF1F1C7D010078C5FF1F207D01002C7D0100347D0100FC7D0100007E0100187E0100307E010080B582B000AF7860796803480BF0FAFB96
:402B800000BF0837BD4680BDE80800200000000090B599B000AF012006F04CF90A2002F0C1FA05F02BF905F003F904F045FC042387F85F3033E097F85F30184605F038F92E
:402BC0000023A7F85C300FE0B7F85C4005F0C4F80246A30007F160010B4443F8602CB7F85C300133A7F85C30B7F85C300A2BEBD997F85F403B460B211846FEF721F90346E3
:402C0000184604F089FD0246A30007F160010B4443F8342C97F85F30013387F85F3097F85F30062BC7D905F0E9F805F0B1F804F01BFC002006F0FEF8FB6B7B643B6CBB64A9
:402C4000294BBB6529492A480BF0B0FD78657B6D002B0ED0274BBB657B6CBA6C114618460AF08EFB0346B96D18460AF089FB03462BE021491E480BF099FD78657B6D002B9F
:402C800022D07B6CBA6C114618460AF079FB03463B65386D09F036FE0FA3D3E9002309F0AFFF03460C46184621460DA3D3E9002309F0C8FC03460C46184621460AF04EF9B2
:402CC0000346FB64FB6C00E00C4B18466437BD4690BD00BFAFF30080666666666666E63F0AD7A3703D0AA73FCDCCCCBDB07E010078C5FF1FD7A3703F2C7D0100000080BFFC
:402D0000F0B587B002AF7860012005F03DFF4FF07F53BB60FFF73CFF0346796818460AF071F9034623F00043184609F0EBFDC4A3D3E900230AF0ACF80346002B16D0786897
:402D400009F0E0FD05460E46FFF722FF0346184609F0D8FD03460C46CDE900342A463346BB490220FDF756FD0123FDE10023FB73FFF70EFF0346184609F0C4FD03460C46E5
:402D80001A462346B3490220FDF744FDFFF700FF0346796818460AF0FBFB0346002B00F0D28091E0FFF7F4FEB860012003F0D0FFA949AA480BF0FAFC0346002B03D04FF421
:402DC0007A7002F0AFF9A649A4480BF0EFFC0346002B03D04FF47A7002F0A4F9002003F0B7FF4FF47A7002F09DF9B86809F08AFD05460E46FFF7CCFE0346184609F082FDEF
:402E000003460C46CDE900342A46334695490220FDF700FDFFF7BCFE034623F00042BB6823F00043194610460AF0B2FB0346002B06D08D490220FDF7EDFCFB7B0133FB73D9
:402E4000FB7B052B12D9002003F082FF002005F09BFE786809F056FD03460C461A46234682490220FDF7D6FC00237DE1FFF790FE034623F00043796818460AF06BFB0346B0
:402E8000002B00D120E07A490220FDF7C3FC002003F05EFF002005F077FE786809F032FD05460E46FFF774FE0346184609F02AFD03460C46CDE900342A4633466D49022068
:402EC000FDF7A8FC01234FE1FFF762FE0346796818460AF097F8034623F00043184609F011FD59A3D3E9002309F0F0FF0346002B7FF458AF002003F02BFFFFF749FE034607
:402F0000796818460AF07EF8034623F00043184609F0F8FC4AA3D3E9002309F0D7FF0346002B00F00881002005F02EFE786809F0E9FC03460C461A4623464C490220FDF762
:402F400069FC002310E1FFF723FE0346796818460AF000FB0346002B00F0ED80ADE0FFF717FEB860012003F0D5FE3B493B480BF01DFC0346002B03D04FF47A7002F0D2F891
:402F8000374936480BF012FC0346002B03D04FF47A7002F0C7F8002003F0BCFE4FF47A7002F0C0F8B86809F0ADFC05460E46FFF7EFFD0346184609F0A5FC03460C46CDE96C
:402FC00000342A46334627490220FDF723FCFFF7DFFD034623F00042BB6823F00043194610460AF0B7FA0346002B06D01E490220FDF710FCFB7B0133FB73FB7B052B12D94A
:40300000002003F087FE002005F0BEFD786809F079FC03460C461A46234614490220FDF7F9FB0023A0E0FFF7B3FD034623F00043796818460AF0ACFA0346002B1CD13CE0CB
:403040009A9999999999A93FB81E85EB51B89E3FBC7E0100047F01002C7D010078C5FF1FB07E01001C7F0100387F0100507F0100807F01009C7F010041490220FDF7CAFB0D
:40308000002003F047FE002005F07EFD786809F039FC05460E46FFF77BFD0346184609F031FC03460C46CDE900342A46334635490220FDF7AFFB012356E0FFF769FD034695
:4030C0007968184609F09EFF034623F00043184609F018FC26A3D3E9002309F0F7FE0346002B7FF43CAF002003F014FEFFF750FD03467968184609F085FF034623F000437D
:40310000184609F0FFFB1CA3D3E9002309F0DEFE0346002B0FD0002005F036FD786809F0F1FB03460C461A46234617490220FDF771FB002318E0002005F026FD786809F0F9
:40314000E1FB05460E46FFF723FD0346184609F0D9FB03460C46CDE900342A46334609490220FDF757FB012318461437BD46F0BDB81E85EB51B89E3F9A9999999999A93FFA
:40318000807F01009C7F0100507F010080B586B000AFFDF7F3FB386100237B612B492C480BF004FBF860FB68002B06D04FF47A737B6128490020FDF72DFB274924480BF061
:4031C000F5FAF860FB68002B06D041F288337B6122490020FDF71EFB1D4B00221A707A691F490020FDF716FB00F052F87B69184601F098FF00F05CF87B69184601F092FF32
:4032000000F046F87B69184601F08CFF00F050F8144B1B780133DAB2124B1A70114B1B783846114A0A210AF0C5FE3B461A460F490020FDF7EFFA3B463A6919460C48FFF71E
:4032400003F8002318461837BD4680BD308001005408002034800100648001006880010098800100588CFF1FB4800100B8800100C880010080B582B000AF786079680348A7
:403280000BF078F800BF0837BD4680BD5408002080B500AF012005F0EBFD4FF47A7001F041FF024B01221A7000BF80BD540D002080B500AF002005F0DBFD024B00221A7068
:4032C00000BF80BD540D002080B500AF02F0E4FE00BF80BDB0B588B002AF554802F0F8FD02F044FEFF2002F09DFF02F007FFFDF775FAFDF7E9FEFEF791FA07F10C031846CF
:4033000001F092FFFA683B6900931346494A182149480AF04FFE494B494A1A60494A4A4B14461D460FCD0FC40FCD0FC40FCD0FC42B681A46228002341B0C2370414B41F29E
:4033400088325A66414B9B7899B2414C38460723012200F0D1F922463B46196811609B8893803C4B01221A70384BDB7899B23A4C38460723012200F0BFF922463B4619680E
:4033800011609B889380354B01221A70344B00221A702E4B5B7999B2324C38460723012200F0AAF922463B46196811609B8893802D4B01221A70254B9B7999B22B4C3846A0
:4033C0000723012200F098F922463B46196811609B889380264B01221A701C4BDB7999B2244C38460723012200F086F922463B46196811609B8893801F4B01221A70134B9A
:403400005B7A99B21D4C38460723012200F074F922463B46196811609B889380184B01221A700023FB7500BF1837BD46B0BD00BFC93200001C81010060C5FF1F5CC5FF1FCF
:40344000DCEDFF1F18EEFF1F248101005C9DFF1FECC4FF1FDC080020D09DFF1FE8C4FF1FD69DFF1FCCEDFF1F48080020D4EDFF1FDAEDFF1FC4EDFF1FB80800204C0800209E
:403480004908002080B582B000AF374B1B78002B06D000F029FC03461A46334B1A7009E0324B1B78002B05D000F040FC03461A462E4B1A702E4B1B78042B41D12D4B1B7880
:4034C000002B09D02C4B1B78002B05D0FFF770F803461A46284B1A70284B1B78002B09D0274B1B78002B05D0FCF726FE03461A46234B1A70234B1B78002B09D0224B1B78EE
:40350000002B05D0FFF72AF903461A461E4B1A701E4B1B78002B05D0FFF796FA03461A461A4B1A701A4B1B78002B09D0194B1B78002B05D0FFF72AFE03461A46154B1A7018
:40354000154B1B78002B05D000F0A0F903461A46114B1A70FDF7E8FF0346FB71FB7918460837BD4680BD00BFD69DFF1FDC0800205C9DFF1FF3C4FF1F480800205DEDFF1F47
:40358000DAEDFF1F4C090020B8080020F2C4FF1FCAEDFF1F49080020E8C4FF1F80B500AFFEF72EFEFDF720F901F0A0FE4FF40061002002F057F901F0DDFFFDF725F9FEF772
:4035C0002DFE00BF80BD00BF80B582B000AF0346FB71FB791946224800F05AF80346002B02D0204B01221A70FB7919461E4800F04FF80346002B02D01C4B01221A70FB79FF
:4036000019461B4800F044F80346002B02D0194B01221A70FB791946174800F039F80346002B02D0154B01221A70FB791946144800F02EF80346002B02D0124B01221A700A
:40364000FB791946104800F023F80346002B02D00E4B01221A7000BF0837BD4680BD00BFECC4FF1FDC080020D09DFF1FE8C4FF1FCCEDFF1F48080020D4EDFF1FDAEDFF1F99
:40368000C4EDFF1FB80800204C0800204908002080B582B000AF78600B46FB707B681B79DBB2FA789A4212D17B685B881BB29BB2013B9BB21AB27B685A807B685B881BB212
:4036C000002B04DC786800F007F8012300E0002318460837BD4680BD80B483B000AF78607B681B889BB21AB27B685A8000BF0C37BD4680BC704700BF80B485B000AF7860FB
:40370000084611461A4603467B800B467B7013463B707B883B817B783B733B787B73B7F902307B817B681A4607F10803186810609B88938078681437BD4680BC704700BFD5
:4037400090B5ADF6942D5EAF42490320FDF762F807F294731846FCF7FDFD07F29474684604F1100340F2711219460AF085F894E80F00FDF7C7F807F5C2631846FFF7FCF863
:4037800007F5C264684604F1100340F2711219460AF072F894E80F00FDF7B4F807F28C431846FDF78FFB07F28C44684604F1100340F2711219460AF05FF894E80F00FDF787
:4037C000A1F807F542731846FDF7DAFB07F54274684604F1100340F2711219460AF04CF894E80F00FDF78EF807F5C2731846FCF765FF07F5C274684604F1100340F2711216
:4038000019460AF039F894E80F00FDF77BF83B461846FDF7CDFD104B0093104B104A11490320FCF7F7FF3C46684604F1100340F2711219460AF020F894E80F00FDF762F82F
:4038400009490320FCF7E6FF00BF07F61C17BD4690BD00BF5881010060C5FF1FDCEDFF1F04EEFF1F84810100A481010080B500AF62B6FFF72FFDFFF763FFFFF703FE034607
:40388000002BFAD1FFF78AFEF7E700BF90B5ADF26C5D06AF012002F007FC642001F042FC002002F001FCFEF76DFD0346002B01D1002303E2FEF79AFC0346002B11D1AE4B36
:4038C0001B780133DAB2AC4B1A70AB4B1B78022B02D8FDF779FCF0E1A74B00221A700023ECE1FEF783FC0346042B40F0E681A3490020FCF78FFFA24B00221A70A14B0022E5
:403900001A70A14B00221A70A04B5B6907F5A5609F4A14210AF04EFBFDF730F8024607F5A56319469B48FEF78FFC984B9B6807F21450974A14210AF03DFBFDF71FF802464C
:4039400007F2145319469448FEF77EFC8A4B1B7807F5A0608E4A14210AF02CFBFDF70EF8024607F5A06319468C48FEF76DFC8C4B1B7883F00103DBB2002B16D0FEF702FD66
:403980000346A7F84835B7F8483507F59B60804A14210AF00FFBFCF7F1FF024607F59B6319468048FEF750FC0FE007F2C4409623774A14210AF0FEFAFCF7E0FF024607F24F
:4039C000C44319467748FEF73FFCFEF7D1FC0346A7F84635B7F84635013B07F2EC406C4A14210AF0E7FAFCF7C9FF024607F2EC4319466D48FEF728FC6C490020FCF70AFFD3
:403A00006B4B6C4A6C496048FEF7B6FD5E4A6B490020FCF7FFFE5B48FEF73AFD684B5B6E684A059200220492674A0392674A0292674A01920093544B614A52495048FEF789
:403A4000ABFC4F4A63490020FCF7E4FE002387F845355B4B5A6E381D594B009313465E4AC8210AF0A7FA3B1D1A465C490020FCF7D1FE3B1D42F2107259491846FDF734FC59
:403A8000034687F845353E4BC7F84C353C480AF0CFFC0246534BA3FB02235B09184608F00FFF4FF00002504B07F0CEFD03460C461846214607F040FD03460C4618462146AF
:403AC00009F024FA034687F844352D480AF0B0FC03461A4645490020FCF79CFE97F944351A4643490020FCF795FE002387F84B359AE04FF47A723F493F48FDF7F5FB0346CD
:403B000087F8453507F1CC00D7F84C35334A4FF4FA710AF04FFA07F1CC0318460AF088FC03461A4607F1CC03134434491A460B461B88138097F94B2507F1CC0330490020DC
:403B4000FCF768FE97F94B355A1C97F944359A4258D007F1CC0341F2883221491846FDF7C3FB034687F84535D7F84C3503F2F313C7F84C3551E000BF550D0020D08101009A
:403B8000D89DFF1F84C5FF1F94ECFF1FBC080020E0810100E4810100EC810100F4810100520800200082010010820100248201003882010004EEFF1F6482010074820100FD
:403BC00018EEFF1F84820100888201008C820100948201009C820100B4820100D0820100D4820100D34D621000407F40D8820100F08201000483010008830100188301005A
:403C00001C83010007F1CC0341F288322E491846FDF76AFB034687F8453597F94B35DBB20133DBB287F84B3597F94B2597F944359A42FFF65EAF41F2883224492448FDF7C2
:403C400053FB034687F8453597F84535012B1DD1FDF70AFEFEF752FBFCF790FE02461D4B1B68D31AC7F8403507F59760D7F84035194A0A210AF09EF9FCF780FE024607F573
:403C8000976319461548FEF7DFFA03E014490220FCF7C0FDFEF708FAC7F83C05D7F83C35002B03D0D7F83C0500F092F9FDF76CFA0C4B00221A70002300E00123184607F2D3
:403CC0005457BD4690BD00BF2C830100348301003C83010050090020E08101005083010060830100550D002080B582B000AFFEF77DFA0346002B02D1FDF766FA11E0FEF7CA
:403D000075FA0346042B0CD1FEF7CEF978607B68002B02D0786800F05BF9FDF735FA002300E0012318460837BD4680BD90B5A3B002AFFCF723FEF86707F15C00FB6F8E4AAE
:403D400020210AF037F98D4B1B78184607F140030A22194609F05CFDFCF710FE024607F1400319468648FEF76FFA844B1B78002B3BD107F110031846FCF75EFA97F82830B4
:403D8000002B2ED0B7F9263007F148007D4A14210AF010F907F148031A467B490020FCF739FD07F14803FA6F19467848FEF74CFA07F15C031A4676497648FCF7F1FB764A0C
:403DC00073497448FCF7ECFB07F148031A4670497048FCF7E5FB714A6D496E48FCF7E0FB03E06F490220FCF715FD07F12C031846FCF70EFE97F83C30002B00F0B380FB6AA1
:403E0000184608F07FFD03460C4607F14800CDE90034644A14210AF0CDF807F148031A4661490020FCF7F6FC07F14803FA6F19465E48FEF709FA594A55495648FCF7B0FBD1
:403E400007F15C031A4652495248FCF7A9FB584A4F495048FCF7A4FB07F148031A464C494C48FCF79DFB454B1B78012B03D0434B1B78042B7AD13C466A4607F1380393E867
:403E8000030082E8030007F12C030ECB2046FCF727FFBB68184608F035FD03460C4607F14800CDE900343F4A14210AF083F807F148031A463F490020FCF7ACFC07F1480347
:403EC000FA6F19463C48FEF7BFF9344A30493148FCF766FB07F15C031A462D492D48FCF75FFB364A2A492B48FCF75AFB07F148031A4627492748FCF753FBFB68184608F0EC
:403F000001FD03460C4607F14800CDE90034254A14210AF04FF807F148031A4628490020FCF778FC07F14803FA6F19462548FEF78BF91A4A16491748FCF732FB07F15C03B4
:403F40001A4613491348FCF72BFB1F4A10491148FCF726FB07F148031A460D490D48FCF71FFB03E019490220FCF754FC002318468437BD4690BD00BF8C8301005C9DFF1F6B
:403F800090830100E0810100A4830100B8830100C8830100D480FF1FCC830100E0830100E48301001084010018840100248401002C84010034840100488401005C8401005A
:403FC000708401008484010094840100A884010080B586B000AF78607B68002B05DC18490220FCF717FC002325E03B1D184609F0E3FA78617B691B68DBB23B727B695B683E
:40400000DBB27B727B699B68DBB2BB727B695B699BB203F26C739BB27B827B691B69DBB23B747B69DB68DBB23B7307F10803184602F0CCF8012318461837BD4680BD00BF65
:40404000D084010080B582B000AF786039603A680021786809F086FC00BF0837BD4680BD80B584B000AFF860B9607A607A68B968F86809F001FC00BF1037BD4680BD00BF47
:4040800080B483B000AF0346FB71FEE780B487B000AF7860396000233B6100237B6127E07B699B007A6813441B68BB60BB68FB73BB6823F0FF03BB6014E03B695B003A6831
:4040C00013441B781A46BB68134419463B695B003A6813445B780B703B6901333B61FB7B013BFB73FB7B002BE7D17B6901337B617B69242BD4D900BF1C37BD4680BC70478E
:4041000080B582B000AF644B1B78BB70634B00221A80634B58221A70624B00221A80624B50221A70614B19221A80614B19221A70604B19221A80604B19221A705F4B4FF4FF
:404140009C721A805E4B18221A705E4B4FF49C721A805D4B18221A705C4B00221A805C4B1B221A705B4B09221A805B4B1B221A7004225A495A48FFF773FF5A4B02221A705B
:404180004FF0402308221A70574BF3221A70424B03221A70554B84221A70554B05221A70544B7B6006E04FF4F07004F07DFE7B68013B7B607B68002B06D04D4B1B78DBB203
:4041C00003F02003002BEED0334ABB7813704A4B02221A70494B4A4A1278D2B21A70494B4FF4E1621A80484B41F251221A800023FB7019237B6014E0FB785B00DAB2434B82
:404200001B78DBB203F00103DBB21343DBB203F00303FB704FF4F07004F046FE7B68013B7B607B68002B02D0FB78032BE4D17B68002B02D10320FFF723FF354B4FF48072B7
:404240001A80334B07221A70324B00221A70324B48221A702E4B00221A70304B02221A702F4B04221A702F4B1B782E4BFF221A702D4A2D4B1B78DBB243F00103DBB21370DA
:404280002A4A2A4B1B78DBB263F07F03DBB2137000BF0837BD4680BD9846004080400040824000408440004086400040884000408A4000408C4000408E400040904000406C
:4042C000924000409440004096400040984000409A4000409C4000409E400040300D004800410040004300400A4300400943004008430040A086010000420040A146004019
:404300000B010049224200402042004025420040044000400640004008400040014000400B400040A2430040A1430040A043004080B483B000AF114B1B78FB71104AFB79F2
:4043400003F00703DBB213700E4AFB791B09DBB213700D4B02221A700C4B01221A700C4B20221A700B4B40221A700B4B66221A7000BF0C37BD4680BC704700BFCF01004989
:404380006E5800406F58004040580040A7430040C35A0040585B00407658004080B485B000AF0346FB71FB79012202FA03F3FB73FB79052B3BD8204B1A78FB7B1340DBB2C2
:4043C000002B34D11C4B1A78FB7B1343DAB21A4B1A70FB79194A52F82330FA79174951F822201178FA791648825C0A43D2B21A70FB79144AD35CBB73BB7B134AD35C002BCC
:404400000ED1BB7B114A52F82330BA7B0F4951F822201178BA7B0E48825C0A43D2B21A70BB7B094AD25C0132D1B2074AD15400BF1437BD4680BC70475C8CFF1FF8840100A4
:404440001085010034850100608CFF1F188501002C85010080B485B000AF0346FB71FB79012202FA03F3FB73FB79052B41D8234B1A78FB7B1340DBB2002B3AD0FB7BDB43F2
:40448000DAB21E4B1B781340DAB21C4B1A70FB791B4A52F82330FA79194951F822201178FA791848825CD243D2B20A40D2B21A70FB79154AD35CBB73BB7B144AD25C013A76
:4044C000D1B2124AD154BB7B104AD35C002B10D1BB7B0F4A52F82330BA7B0D4951F822201178BA7B0B48825CD243D2B20A40D2B21A7000BF1437BD4680BC70475C8CFF1FC5
:40450000F88401001085010034850100608CFF1F188501002C85010080B483B000AF0346FB71FB79012B0ED8FB79094A52F82330FA79074951F822201178FA790548825C2A
:404540000A43D2B21A7000BF0C37BD4680BC70473C8501004485010080B483B000AF0346FB71FB79012B10D8FB790A4A52F82330FA79084951F822201178FA790648825C2D
:40458000D243D2B20A40D2B21A7000BF0C37BD4680BC70473C8501004485010080B586B000AF72B60023FB7513E0FA7D13465B0013445B004D4A13443B613B691A683B698D
:4045C0009B889BB219461046FFF73CFDFB7D0133FB75FB7D052BE8D90023FB751CE0FA7D13469B0013445B00414A1344FB60FB681B68BB60FB685B687B60FB681A7A5B7A2B
:404600001B0213437B807B881A467968B868FFF727FDFB7D0133FB75FB7D002BDFD035494FF09040FFF732FD334B0A221A70334B03221A80324A324B1B78DBB243F00203AC
:40464000DBB213702F4A2F4B1B78DBB243F00203DBB213702C4A2C4B1B78DBB243F04003DBB21370294A294B1B78DBB243F01003DBB21370082226492648FFF7F1FC0822CB
:4046800025492648FFF7ECFC0A2225492548FFF7E7FC082224492548FFF7E2FC082224492448FFF7DDFC082223492448FFF7D8FC234A234B1B78DBB243F00803DBB21370A1
:4046C000204B61221A70FFF71BFD1E4B81221A701D4B01221A70FFF72BFE0E220A491B48FFF7BEFC00BF1837BD4680BD488501006C850100940000488358004048580040EF
:404700000350014013500140A0430040C2430040FC0C004802510040040D0048C25100400C0D0048F0510040180D004812510040200D004822510040280D004832510040F0
:40474000224300400048004004000840B043004080B500AF08F02AFF03461B680C2B00D1FEE7FEE780B584B000AF7860104B1A687B6813441A460F4BD31AB3F5804F09DCE0
:404780000B4B1B68FB600A4B1A687B681344084A136007E008F00AFF02460C2313604FF0FF33FB60FB6818461037BD4680BD00BFF480FF1FE80D002080B586B000AF224B1C
:4047C0007B61224B3B61204B7B6135E03B691B68FB603B695B68BB603B699B683B6000237B600CE0FB681A68BB681A60BB680433BB60FB680433FB607B6804337B607A6885
:404800003B689A42EED13B69DB683B6000237B6008E0BB6800221A60BB680433BB607B6804337B607A683B689A42F2D13B6910333B617B69013B7B617B69002BC6D108F068
:40484000A7FFFFF713F8FEE7010000006C8C010080B582B000AF184B184A1A60184A184B1B6843F40073136000237B600FE07B68032B04D8134A7B6852F8233000E0124B04
:4048800012497A6841F822307B6801337B607B682F2BECD90E4B1B78DAB20E4B1A700E4B0A4A1A60FFF77AFE0C4B00221A6000BF0837BD4680BD00BF0CED00E00004FA0580
:4048C00014ED00E000000000514700000080FF1FBC760040C480FF1F08ED00E0C080FF1F80B584B000AF0346FB710023FB60234A224B1B78DBB243F00103DBB21370FB799A
:40490000002B36D01E4B1B78DBB203F00403FB721C4B1B78BB721C4B1B787B72182001F087F81023FB6010E0184B1B78DBB203F00103002B09D0154B1B78DBB203F001032D
:40494000002B02D00023FB6008E0012001F042F8034603F00103DBB2002BE5D0FB7A002B01D100F04BFB074ABB7A1370064A7B7A1370FB6818461037BD4680BD2042004078
:404980000043004080430040824300402542004080B400AF054A054B1B78DBB223F00103DBB2137000BFBD4680BC70472042004080B584B000AF0346FB711D4A1C4B1B7877
:4049C000DBB243F01003DBB213701A4A194B1B78DBB243F01003DBB21370FB79002B23D0154B1B78DBB203F00403FB73134B1B78BB73134B1B787B73002001F019F800BF3D
:404A0000012000F0E7FF034603F00103DBB2002BF6D0FB7B002B01D100F0F0FA074ABB7B1370074A7B7B137000BF1037BD4680BDA0430040B043004000430040804300407E
:404A40008243004080B400AF094A094B1B78DBB223F01003DBB21370064A064B1B78DBB223F01003DBB2137000BFBD4680BC7047A0430040B043004080B483B000AF002316
:404A8000FB71124B1B78DBB203F00703002B06D10F4B1B78DBB203F00103002B0DD10B4B1B78DBB203F00703012B08D1094B1B78DBB203F00103002B01D00123FB71FB79B1
:404AC00018460C37BD4680BC704700BF93430040A5430040B543004080B584B000AF0346FB71FFF7C9FF0346FB73FB7B012B07D1314A314B1B78DBB223F00203DBB21370EF
:404B0000FB79082B4FD801A252F823F0314B00003D4B0000494B0000554B0000614B00006D4B0000794B0000A74B0000854B0000224B234A1278D2B21A7039E01F4B214A25
:404B40001278D2B21A7033E01C4B1F4A1278D2B21A702DE0194B1D4A1278D2B21A7027E0164B1B4A1278D2B21A7021E0134B194A1278D2B21A701BE0104B174A1278D2B22E
:404B80001A7015E00D4B154A1278D2B21A70FB7B012B0CD1084A084B1B78DBB243F00203DBB2137003E0002000F0B0FA00E000BF00BF1037BD4680BD09600040A146004049
:404BC00008010049090100490A0100490B010049890100490C0100490D0100490F01004980B584B000AF0346FB71684B1B78DBB203F00703FB73FB79082B01D0FB7900E0B7
:404C00000323BB73FB7B062B25D801A252F823F02D4C0000334C0000394C00003F4C0000454C00004B4C0000514C00000223FB7315E00123FB7312E00323FB730FE00023FD
:404C4000FB730CE00423FB7309E00523FB7306E00623FB7303E0002000F058FA00BFBA7BFB7B9A4203D3FB791846FFF735FFFB79082B72D801A252F823F000BFA14C00004F
:404C8000B94C0000D14C0000E34C0000FB4C0000134D00002B4D00005B4D0000434D00003A4A3A4B1B78DBB223F04703DBB243F00303DBB2137054E0344A344B1B78DBB29F
:404CC00023F04703DBB243F00103DBB2137048E02E4A2E4B1B78DBB223F04703DBB213703FE02A4A294B1B78DBB223F04703DBB243F00203DBB2137033E0244A234B1B7802
:404D0000DBB223F04703DBB243F00403DBB2137027E01E4A1D4B1B78DBB223F04703DBB243F00503DBB213701BE0184A174B1B78DBB223F04703DBB243F00603DBB2137071
:404D40000FE0124A114B1B78DBB223F04703DBB243F04203DBB2137003E0002000F0D6F900BFFB79082B02D100F058F801E000F065F8BA7BFB7B9A4203D2FB791846FFF76D
:404D8000ABFE00BF1037BD4680BD00BF0042004080B582B000AF0346FB71FB79012B17D0022B02D0002B26D02EE04FF040224FF040231B78DBB223F04003DBB21370164A1A
:404DC000154B1B78DBB243F02003DBB213701FE04FF040224FF040231B78DBB243F04003DBB213700C4A0C4B1B78DBB243F02003DBB213700CE0084A074B1B78DBB223F0EF
:404E00002003DBB2137003E0002000F07FF900BF00BF0837BD4680BD0042004080B400AF054A054B1B78DBB243F01003DBB2137000BFBD4680BC70470042004080B400AF43
:404E4000054A054B1B78DBB223F01003DBB2137000BFBD4680BC70470042004080B483B000AF0346FB710949084B1B78DBB223F00303DAB2FB7903F00303DBB21343DBB2F4
:404E80000B7000BF0C37BD4680BC70470540004080B483B000AF0346FB71044AFB79137000BF0C37BD4680BC704700BF0440004080B483B000AF0346FB80154A144B1B7884
:404EC000DBB223F00F03DBB21370124B00221A70114A114B1B78DBB263F07F03DBB213700E4BFA88D2B21A700D4AFB881B0A9BB2DBB213700B4A0B4B1B78DBB243F00103E4
:404F0000DBB2137000BF0C37BD4680BC704700BF14400040104000400840004002400040034000400140004080B584B000AF0346FB8003F0C1FF0346FB73244B1B78DBB2A3
:404F40009BB21B02BB81224B1B78DBB29AB2BB891343BB81FB88002B02D0BB89002B29D11C4B1B78FB72FB7A062B02D80720FFF78FFFFB88002B0CD1174A174B1B78DBB2F3
:404F800043F04003DBB21370FB881846FFF790FF0BE0FB881846FFF78BFF0F4A0E4B1B78DBB223F04003DBB21370FB7A1846FFF76FFF03E0FB881846FFF77AFFFB7B184643
:404FC00003F07EFF00BF1037BD4680BD0740004006400040044000400840004080B400AF054A054B1B78DBB243F00403DBB2137000BFBD4680BC70470043004080B400AFDB
:40500000054A054B1B78DBB223F00403DBB2137000BFBD4680BC70470043004080B586B000AF0346FB7100237B61FB793B742B4A2A4B1B78DBB243F00103DBB21370FB7999
:40504000002B45D0264B1B78FB74264B1B78BB74254B1B787B74182000F0EAFC10237B6125E01E4B1B780423FB730EE000BF012000F0B0FC034603F00103DBB2002BF6D07D
:40508000FB7BDBB2013BDBB2FB73FB7BDBB2002BECD1124B1B78DBB25BB2002B02DB00237B6108E03B7CDBB2013BDBB23B743B7CDBB2002BD5D1FB7C03F00403002B01D113
:4050C000FFF79CFF074ABB7C1370074A7B7C13707B6918461837BD4680BD00BF1042004000430040804300408243004080B400AF054A054B1B78DBB223F00103DBB21370D3
:4051000000BFBD4680BC70471042004080B483B000AF0346FB7101BE00BF0C37BD4680BC704700BF80B582B000AF786008E00C4B1B68184603F0B8FE7B68A3F500437B6097
:405140007B68B3F5004FF2D8064B1B687A6802FB03F3184603F0A8FE00BF0837BD4680BD0481FF1FFC80FF1F80B582B000AF0346FB80FB88054A127802FB03F3184603F0F6
:4051800093FE00BF0837BD4680BD00BF0081FF1F80B584B000AF03463960FB710F4B1B68FB60FB791F2B02D90020FFF7AFFFFB7903F01F0310339B00FA6813441B68BB6009
:4051C000FB7903F01F0310339B00FA6813443A681A60BB6818461037BD4680BD08ED00E080B582B000AF03460A46FB711346BB71BB79072B02D90020FFF788FFFB791F2B5A
:4052000002D90020FFF782FFFB7903F01F0303F1604303F56443BA795201D2B21A7000BF0837BD4680BD00BF80B483B000AF7860264B1B78DBB21A467B681A60244B1B786E
:40524000DBB21B027A6812681A437B681A60214B1B78DBB21B047A6812681A437B681A601D4B1B78DBB21B067A6812681A437B681A607B680433194A1278D2B21A60184B86
:405280001B78DBB21A027B6804337968043109680A431A60134B1B78DBB21A047B6804337968043109680A431A600F4B1B78DBB21A067B6804337968043109680A431A6044
:4052C00000BF0C37BD4680BC704700BF0301004904010049EC460040020100490101004900010049050100490601004980B500AF924B1B78DBB203F00F03DAB2904B1A7093
:40530000904B1B78DAB28E4B5A708C4A8B4B1B78DBB223F00F03DBB213708A4B1B78894B00221A70884B1B78DBB223F03F03DAB2834B5A71372003F0C7FD844B1B78DBB27D
:4053400003F00703DAB27E4BDA70804B1B78DBB203F04003DAB27A4B1A717C4B1B78DBB203F01003002B03D0754B01225A7202E0734B00225A72764B1B78DBB203F0030392
:40538000DAB26F4B9A706E4B9B78012B1CD14FF040231B78DBB203F00303012B08D0012B02D3022B08D00BE00020FFF757FD0BE00220FFF753FD07E00320FFF74FFD03E01C
:4053C0000020FFF7A3FE00BF624B1B78DBB203F00103002B05D05A4B01229A73FFF7D8FA02E0574B00229A730420FFF7F9FB5A4B1B78DBB203F01003DBB2002B03D0504B24
:4054000001229A7108E04E4B00229A710020FFF7CFFA0620FFF7A8FE4C4B1B78DBB203F02003002B10D04FF040231B78DBB203F04003002B01D1022200E00122404BDA7125
:405440000020FFF7A5FC02E03D4B0022DA714FF040231B78DBB203F03003DAB2384B1A72374B1B7A002B09D04FF040224FF040231B78DBB223F03003DBB21370334B1B7836
:40548000DBB203F01003002B01D0FFF7D7FC334B1B78DAB22A4B9A72294B9B7A002B02D00020FFF7F5FC264B9B78002B02D00020FFF7D4FC2A4B1B78DBB29BB21B029AB237
:4054C0001F4B9A81274B1B78D9B21D4B9A898BB213439AB21A4B9A81194B9B89002B02D00020FFF721FD194B1B78DBB203F007031D4AD35C184603F0E7FC1C4B1B78DBB222
:4055000003F00103002B05D00D4B0122DA73FFF7EDFD02E00A4B0022DA73154B1B78DBB203F00403002B03D0054B01221A7402E0034B00221A7400BF80BD00BFA1430040EE
:40554000988CFF1FA243004000480040004200400540004020420040A043004004400040074000400640004078850100104200400B40004080B586B000AF10233B61AB4AE6
:405580003B1D106818609188927999809A71A84B1B7C012B17D1A74B1B78DBB203F00703A54AD35C1A4613469B0013441A01D31A184603F079FCA14AA04B1B78DBB243F0EE
:4055C0000403DBB213709A4BDB7B012B24D10020FFF724FD9A4B1B780523FB8219E0954B1B78DBB203F00703934AD35C1A46C82303FB02F3184603F057FC914B1B78DBB204
:405600005BB2002B02DB00233B6105E0FB8A013BFB82FB8A002BE2D1372003F055FC844B9B78022B03D0824B9B78032B10D1854B1B78DAB27E4B9B7A9A4204D07C4B9B7A4B
:405640001846FFF725FC7A4B9B781846FFF706FC774B1B7903F04003002B0CD0744BDB7807F11802134413F8143C032B03D10820FFF7B6FA20E06E4BDB7807F118021344D9
:4056800013F8143C1846FFF7ABFA694B1B7903F04003002B08D0674A664B1B78DBB243F04003DBB2137007E0624A624B1B78DBB223F04003DBB213705D4B9B79012B0AD184
:4056C000614B1B78DBB203F01003DBB2002B02D10020FFF76DF9564BDB791846FFF758FB534B5B7A012B01D1FFF798FB504B1B7A1A464FF040231B78DBB203F030039A42E7
:4057000010D04FF040214FF040231B78DBB25BB223F030035AB2464B1B7A5BB213435BB2DBB20B70424B9B7B012B26D110233B610020FFF7D5F85020FFF716FD434B1B7818
:40574000AB23FB8216E00120FFF70EFD3F4B1B78DBB203F00103002B09D03C4B1B78DBB203F00103002B02D000233B6105E0FB8A013BFB82FB8A002BE5D12D4B9B78002B88
:4057800003D02B4B9B78012B10D12E4B1B78DAB2274B9B7A9A4204D0254B9B7A1846FFF777FB234B9B781846FFF758FB204B9B79002B09D1244B1B78DBB203F01003DBB298
:4057C000002B01D0FFF73EF9214B1B78DBB29BB21B02FB811F4B1B78DBB29AB2FB891343FB81134B9B89FA899A4204D0104B9B891846FFF799FB1849174B1B78DBB25BB2D6
:4058000003F03F035AB20A4B5B795BB213435BB2DBB20B70114B064A12781A70104B044A52781A7000BF1837BD4680BD80850100988CFF1F00420040788501000B40004028
:405840001042004004400040A043004025420040074000400640004000480040A1430040A243004080B584B000AF03460A46FB711346BB8003F020FB0346FB734E4B1B78C8
:40588000DBB203F00803002B0BD14C4A4B4B1B78DBB203F01F03DBB21370FB79002B08D004E0FB7B184603F00BFB81E00020FFF72DFC00F007F9424B1B78DAB2414B1A716A
:4058C0003F4ABB881B099BB2DBB213703E4B1B78DAB23C4B5A713C4ABB88DBB203F00F03DBB21370394B1B78DAB2364B9A71374ABB881B0B9BB2DBB203F00103DBB21370FC
:40590000334B1B78DBB203F00703002B04D12D4B012283F82E2014E02A4B002283F82E202B4B1B78DBB203F00703DAB2254B83F82D20274A264B1B78DBB223F00703DBB211
:4059400013701D4A1C4B1B78DBB223F00703DBB243F00303DBB21370174B1B7800BF00BF30BF184B93F82E30012B0FD01849184B1B78DBB25BB223F007035AB2114B93F809
:405980002D305BB213435BB2DBB20B7000F0DAF90B4B0C4A12791A700B4B0A4A52791A700A4B084A92791A70FB7B184603F088FA1037BD4680BD00BF9343004083460040A5
:4059C00098430040688CFF1F994300409A4300400042004080B584B000AF0346FB7103F06BFA0346FB73104B1B78DAB20F4B1B781343DAB20D4B1A700C4B1B7803F00703D1
:405A0000BB73FB79DB43DAB2084B1B781340DAB2064B1A70FB7B184603F052FABB7B18461037BD4680BD00BF90430040AA8CFF1F80B582B000AF0346FB71204A1F4B1B78F4
:405A4000DBB223F00203DBB21370FFF7C7FA1B4B1B78DBB203F00103002B19D0184B1B78DBB2FA799A4224D0144A144B1B78DBB223F00103DBB21370114AFB7913700F4AB4
:405A80000E4B1B78DBB243F00103DBB2137010E00B4B1B78DBB2FA799A4202D0084AFB791370064A054B1B78DBB243F00103DBB2137000BF0837BD4680BD00BF824300404D
:405AC0008043004080B400AF804B1B78DAB2804B9A72804B1B78DAB27D4BDA727E4B1B78DAB27B4B1A737D4B1B78DAB2784B5A737B4B1B78DAB2764B9A737A4B1B78DAB2B8
:405B0000734BDA73784B1B78DAB2714B1A74774B1B78DAB26E4B5A74754B1B78DAB26C4B9A74744B1B78DAB2694BDA74724B1B78DAB2674B1A75714B1B78DAB2644B5A75CC
:405B40006F4B1B78DAB2624B9A756E4B1B78DAB25F4BDA756C4B1B78DAB25D4B1A766B4B1B78DAB25A4B5A76694B1B78DAB2584B9A76684B1B78DAB2554BDA76664B1B78DB
:405B8000DAB2534B1A77654B1B78DAB2504B5A77634B1B78DAB24E4B9A77624B1B78DAB24B4BDA77604B1B78DAB2494B83F820205E4B1B78DAB2464B83F821205C4B1B785D
:405BC000DAB2434B83F822205A4B1B78DAB2404B83F82320584B1B78DAB23D4B83F82420564B1B78DAB23A4B83F82520374B00221A70384B00221A70374B00221A70374BA6
:405C000000221A70364B00221A70364B00221A70354B00221A70354B00221A70344B00221A70344B00221A70334B00221A70334B00221A70324B00221A70324B00221A700A
:405C4000314B00221A70314B00221A70304B00221A70304B00221A702F4B00221A702F4B00221A702E4B00221A702E4B00221A702D4B00221A702D4B00221A702C4B00220F
:405C80001A702C4B00221A702B4B00221A702B4B00221A702A4B1B78DBB203F00803002B0CD00B4B012283F82F20254A244B1B78DBB223F00803DBB2137003E0044B002296
:405CC00083F82F2000BFBD4680BC7047005A0040688CFF1F025A0040035A0040045A0040065A0040085A00400A5A0040105A0040125A0040135A0040145A0040165A00405B
:405D0000185A00401A5A0040205A0040225A0040235A0040245A0040265A0040285A00402A5A0040305A0040325A0040335A0040345A0040365A0040385A00403A5A00401F
:405D40002243004080B400AF434B444A927A1A70434B424AD27A1A70424B404A127B1A70414B3E4A527B1A70404B3C4A927B1A703F4B3A4AD27B1A703E4B384A127C1A70B0
:405D80003D4B364A527C1A703C4B344A927C1A703B4B324AD27C1A703A4B304A127D1A70394B2E4A527D1A70384B2C4A927D1A70374B2A4AD27D1A70364B284A127E1A7031
:405DC000354B264A527E1A70344B244A927E1A70334B224AD27E1A70324B204A127F1A70314B1E4A527F1A70304B1C4A927F1A702F4B1A4AD27F1A702E4B184A92F82020F3
:405E00001A702D4B154A92F821201A702B4B134A92F822201A702A4B104A92F823201A70284B0E4A92F824201A70274B0B4A92F825201A70094B93F82F30012B07D1234A6B
:405E4000224B1B78DBB243F00803DBB2137000BFBD4680BC704700BF005A0040688CFF1F025A0040035A0040045A0040065A0040085A00400A5A0040105A0040125A004014
:405E8000135A0040145A0040165A0040185A00401A5A0040205A0040225A0040235A0040245A0040265A0040285A00402A5A0040305A0040325A0040335A0040345A004009
:405EC000365A0040385A00403A5A00402243004080B582B000AF786000F03CF8786800F009F8072000F018F800F028F800BF0837BD4680BD80B485B000AF7860054B1B686C
:405F0000FB60FB6850337A681A6000BF1437BD4680BC704708ED00E080B483B000AF0346FB71054AFB795B01DBB2137000BF0C37BD4680BC704700BF04E400E080B400AF93
:405F4000034B10221A6000BFBD4680BC704700BF00E100E080B400AF034B10221A6000BFBD4680BC704700BF80E100E080B500AF064B1B78002B04D100F00AF8034B012235
:405F80001A7000F00FF800BF80BD00BFAB8CFF1F80B500AF0A2000F05BF800F03FF800BF80BD00BF80B582B000AF1A4B1B78DBB203F00203002B18D102F07EFF0346FB7152
:405FC000144A144B1B78DBB243F00203DBB21370114A114B1B78DBB243F00403DBB21370FB79184602F06CFF0FE002F065FF0346FB71094A084B1B78DBB243F00403DBB2A5
:406000001370FB79184602F05BFF00BF0837BD4680BD00BF004300408243004080B582B000AF02F049FF0346FB71084A074B1B78DBB243F00803DBB21370FB79184602F05F
:406040003FFF00BF0837BD4680BD00BF8243004080B483B000AF0346FB710D4B1B78DBB203F00403002B0DD10A490A4B1B78DBB223F00F03DAB2FB7903F00F03DBB21343C5
:40608000DBB20B7000BF0C37BD4680BC704700BF824300408143004080B500AF0220FFF799FC0346184680BD80B485B000AF0346FB710A4B1B78DBB223F00103FB7307498C
:4060C000FB7903F00103DAB2FB7B1343DBB20B7000BF1437BD4680BC704700BF2051004080B400AF044B1B78DBB203F00103DBB21846BD4680BC70472151004080B500AFA5
:40610000064B1B78002B04D100F022F8034B01221A7000F033F800BF80BD00BFAC8CFF1F80B400AF034B04221A6000BFBD4680BC704700BF00E100E080B400AF034B0422ED
:406140001A6000BFBD4680BC704700BF80E100E080B500AF00F0B8F8064B04221A6006490220FFF715F807210220FFF739F800BF80BD00BF80E100E0FD66000080B582B0D0
:4061800000AF02F099FE0346FB71094A084B1B78DBB243F03003DBB21370FB79184602F08FFE044B04221A6000BF0837BD4680BD8243004000E100E080B400AF024B1846E4
:4061C000BD4680BC704700BF0881FF1F80B582B000AF7860FFF7B0FF7B681B78DAB2104B1A707B685B78DAB20D4B5A707B689B78DAB20B4B9A707B681B79DAB2084B1A71A2
:406200007B681B7ADAB2064B1A727B685B899AB2034B5A81FFF784FF00BF0837BD4680BD0881FF1F80B483B000AF0346FB71044AFB79137000BF0C37BD4680BC704700BF1C
:40624000AF8CFF1F90B482B000AF0346FB710B46BB711346BB80BB79022B02D8BB88013BBB80BA88BB889B089BB21846BB881349A1FB03135B099BB2C31AB9880F48A0FB00
:406280000101C90989B20B441344BA79013A0C498A5C1146FA790A441A440A4BA2FB0334111B49080B1999080B46DB005B1AD11ACBB218460837BD4690BC70471F85EB5113
:4062C000948501002549922480B582B000AFA04B0022DA809E4B1B79D9B29D4BDB889AB28BB213449AB29A4BDA80994B5B899BB2984AA2FB0312D2094FF4C87101FB02F235
:406300009B1A9BB2002B15D0914B5B899BB203F003039BB2002B16D18D4B5B899BB28D4AA2FB03125209642101FB02F29B1A9BB2002B08D0884B1B78DBB243F00203DAB2C8
:40634000854B1A7007E0844B1B78DBB223F00203DAB2814B1A700023FB710DE07C4BDB889AB2FB797D49CB5C9BB213449AB2784BDA80FB790133FB71FA79754B1B7ADBB22A
:40638000013B9A42EAD3744B1B78DBB203F00203002B0BD06E4B1B7ADBB2022B06D96C4BDB889BB201339AB2694BDA80684B1B79D8B2674B1B7AD9B2654B5B899BB21A466B
:4063C000FFF740FF03460133DAB2614BDA70604BDB78DBB2002B05D05D4BDB78DAB25C4BDA7006E05A4BDB78DBB20733DAB2584BDA70574B9B78DBB20B2B08D8564B1B78BC
:40640000DBB223F00403DAB2534B1A7007E0524B1B78DBB243F00403DAB24F4B1A70504B1B78DBB203F00103002B18D04D4B1B78DAB2474B1B78DBB29A4208D14A4B1B7868
:40644000DBB243F00103DAB2474B1A7007E0464B1B78DBB223F00103DAB2434B1A70404B1B78DBB203F00203002B18D03D4B5B78DAB2374B5B78DBB29A4208D13A4B1B7811
:40648000DBB243F00203DAB2374B1A7007E0364B1B78DBB223F00203DAB2334B1A70304B1B78DBB203F00403002B18D02D4B9B78DAB2274B9B78DBB29A4208D12A4B1B78BD
:4064C000DBB243F00403DAB2274B1A7007E0264B1B78DBB223F00403DAB2234B1A70204B1B78DBB203F00803002B18D01D4BDB78DAB2174BDB78DBB29A4208D11A4B1B7865
:40650000DBB243F00803DAB2174B1A7007E0164B1B78DBB223F00803DAB2134B1A70104B1B78DBB203F02003002B27D00D4BDB889AB2074BDB889BB29A4217D10A4B1B78B6
:40654000DBB243F02003DAB2074B1A7016E000BF0881FF1F1F85EB51B08CFF1F88850100AD8CFF1F1481FF1FAE8CFF1F424B1B78DBB223F02003DAB23F4B1A703F4B1B782A
:40658000DBB203F01003002B18D03D4B1B79DAB23C4B1B79DBB29A4208D1374B1B78DBB243F01003DAB2344B1A7007E0324B1B78DBB223F01003DAB22F4B1A702F4B1B786C
:4065C000DBB203F04003002B18D02D4B1B7ADAB22C4B1B7ADBB29A4208D1274B1B78DBB243F04003DAB2244B1A7007E0224B1B78DBB223F04003DAB21F4B1A701F4B1B780A
:40660000DBB25BB2002B18DA1D4B5B899AB21D4B5B899BB29A4208D1174B1B78DBB263F07F03DAB2144B1A7007E0134B1B78DBB203F07F03DAB2104B1A70104B1B78BB718C
:40664000BB79002B13D00C4B1B78DAB2BB791340DBB2BA799A420AD10B4B1B78DBB243F00803DAB2084B1A70034B00221A7000BF0837BD4680BD00BFAE8CFF1FAD8CFF1FA1
:406680001481FF1F0881FF1FB08CFF1F80B500AF0020FCF799FF00BF80BD00BF80B500AF0120FCF791FF00BF80BD00BF80B500AF0220FCF789FF00BF80BD00BF80B500AF79
:4066C0000320FCF781FF00BF80BD00BF80B500AF0420FCF779FF00BF80BD00BF80B500AF0520FCF771FF00BF80BD00BF80B500AF0620FCF769FF00BF80BD00BF80B582B06D
:4067000000AF0420FFF766F99E4B1B78DBB20133DAB29C4B1A709B4B1B78DBB23B2B40F2A682984B5B78DBB20133DAB2954B5A70944B00221A70934B5B78DBB23B2B40F223
:406740004682904B9B78DBB20133DAB28D4B9A708C4B00225A708B4B9B78DBB2172B40F2DD81884B1B79DBB20133DAB2854B1A71844B00229A70834BDB889BB201339AB221
:40678000804BDA807F4BDB78DBB20133DAB27D4BDA707C4BDB78DBB2072B02D9794B0122DA70794B1B78DBB203F00203002B11D0744B1B7ADBB2022B0CD1724B1B79DBB2A2
:4067C0001946704B1B7ADBB2013B704AD35C013399422AD86C4B1B78DBB203F00203002B0FD0684B1B7ADBB2022B0AD0654B1B79DAB2644B1B7ADBB2013B6449CB5C9A42E5
:4068000013D8614B1B78DBB203F00203002B40F0F4805C4B1B79DAB25A4B1B7ADBB2013B5A49CB5C9A4240F2E880564B1B7ADBB20133DAB2534B1A72524B01221A71514B3C
:406840001B7ADBB20C2B40F285804E4B5B899BB201339AB24B4B5A814A4B01221A72494B0122DA80474B5B899BB2494AA2FB0312D2094FF4C87101FB02F29B1A9BB2002BFC
:4068800015D0404B5B899BB203F003039BB2002B16D13C4B5B899BB23D4AA2FB03125209642101FB02F29B1A9BB2002B08D0364B1B78DBB243F00203DAB2334B1A7007E0C5
:4068C000314B1B78DBB223F00203DAB22E4B1A70304B1B78DBB25BB2002B18DA2E4B5B899AB2284B5B899BB29A4208D12B4B1B78DBB263F07F03DAB2284B1A7007E0274B41
:406900001B78DBB203F07F03DAB2244B1A70214B1B78FB71FB79002B13D0204B1B78DAB2FB791340DBB2FA799A420AD1164B1B78DBB243F00803DAB2134B1A70174B002291
:406940001A70174B1B78DBB203F04003002B01D0FFF7CCFE0F4B1B78DBB203F04003002B28D00D4B1B7ADAB2064B1B7ADBB29A4218D10A4B1B78DBB243F04003DAB2074BCC
:406980001A7017E00881FF1FB08CFF1F888501001F85EB51AD8CFF1F1481FF1FAE8CFF1FAF8CFF1F964B1B78DBB223F04003DAB2934B1A70934B1B78FB71FB79002B13D002
:4069C0008F4B1B78DAB2FB791340DBB2FA799A420AD18D4B1B78DBB243F00803DAB28A4B1A70874B00221A70884B1B78DBB203F02003002B01D0FFF771FE824B1B78DBB22A
:406A000003F00803002B18D0814BDB78DAB2814BDB78DBB29A4208D1794B1B78DBB243F00803DAB2764B1A7007E0754B1B78DBB223F00803DAB2724B1A70724B1B78DBB2AB
:406A400003F02003002B18D0714BDB889AB2714BDB889BB29A4208D1694B1B78DBB243F02003DAB2664B1A7007E0654B1B78DBB223F02003DAB2624B1A70624B1B78DBB2F3
:406A800003F01003002B18D0614B1B79DAB2614B1B79DBB29A4208D1594B1B78DBB243F01003DAB2564B1A7007E0554B1B78DBB223F01003DAB2524B1A70524B1B78FB7192
:406AC000FB79002B13D04E4B1B78DAB2FB791340DBB2FA799A420AD14B4B1B78DBB243F00803DAB2484B1A70454B00221A70474B1B78DBB203F00803002B01D0FFF7DEFD88
:406B0000444BDB78DBB2012B08D1404B1B78DBB203F01003002B01D0FFF7D8FD3D4B9B78DBB20B2B08D8384B1B78DBB223F00403DAB2354B1A7007E0334B1B78DBB243F020
:406B40000403DAB2304B1A702E4B1B78DBB203F00403002B18D02E4B9B78DAB22D4B9B78DBB29A4208D1264B1B78DBB243F00403DAB2234B1A7007E0214B1B78DBB223F01D
:406B80000403DAB21E4B1A701E4B1B78FB71FB79002B13D01A4B1B78DAB2FB791340DBB2FA799A420AD1184B1B78DBB243F00803DAB2154B1A70124B00221A70134B1B7832
:406BC000DBB203F00403002B01D0FFF76FFD0D4B1B78DBB203F00203002B25D00C4B5B78DAB20C4B5B78DBB29A4215D1044B1B78DBB243F00203DAB2014B1A7014E000BF35
:406C0000AE8CFF1FAD8CFF1FB08CFF1FAF8CFF1F1481FF1F0881FF1F384B1B78DBB223F00203DAB2354B1A70354B1B78FB71FB79002B13D0314B1B78DAB2FB791340DBB257
:406C4000FA799A420AD12F4B1B78DBB243F00803DAB22C4B1A70294B00221A702A4B1B78DBB203F00203002B01D0FFF717FD244B1B78DBB203F00103002B18D0234B1B7838
:406C8000DAB2234B1B78DBB29A4208D11B4B1B78DBB243F00103DAB2184B1A7007E0174B1B78DBB223F00103DAB2144B1A70144B1B78FB71FB79002B13D0104B1B78DAB280
:406CC000FB791340DBB2FA799A420AD10D4B1B78DBB243F00803DAB20A4B1A70074B00221A70094B1B78DBB203F00103002B01D0FFF7CCFC00BF0837BD4680BDAE8CFF1F3C
:406D0000AD8CFF1FB08CFF1FAF8CFF1F1481FF1F0881FF1F80B485B000AF0346FB710B4B1B78DBB223F00403FB730849FB799B00DBB203F00403DAB2FB7B1343DBB20B70DD
:406D400000BF1437BD4680BC704700BF0051004080B485B000AF0346FB710B4B1B78DBB223F00803FB730849FB79DB00DBB203F00803DAB2FB7B1343DBB20B7000BF14375F
:406D8000BD4680BC704700BF0051004080B500AF064B1B78002B04D100F00AF8034B01221A7000F015F800BF80BD00BFB18CFF1F80B400AF044B72221A70044B20221A705A
:406DC00000BFBD4680BC7047826400408A64004080B582B000AF02F06FF80346FB710C4A0B4B1B78DBB243F02003DBB21370094A084B1B78DBB243F01003DBB21370FB79A4
:406E0000184602F05DF800BF0837BD4680BD00BF926400409A64004080B582B000AF02F04BF80346FB710C4A0B4B1B78DBB223F02003DBB21370094A084B1B78DBB223F051
:406E40001003DBB21370FB79184602F039F800BF0837BD4680BD00BF926400409A64004080B483B000AF0023FB710C4B1B78BB71BB7903F02003002B09D0094B1B78FB712D
:406E8000BB7903F01E03002B01D00023FB71FB7918460C37BD4680BC704700BF6A6400404564004080B582B000AF02F005F80346FB710C4A0B4B1B78DBB243F00103DBB2F4
:406EC0001370084A074B1B78DBB223F00103DBB21370FB79184601F0F3FF00BF0837BD4680BD00BF9564004080B582B000AF786000F048F8786800F015F8072000F024F80B
:406F000000F034F800BF0837BD4680BD80B500AF00F038F8024800F005F800BF80BD00BF5147000080B485B000AF7860054B1B68FB60FB6844337A681A6000BF1437BD4608
:406F400080BC704708ED00E080B483B000AF0346FB71054AFB795B01DBB2137000BF0C37BD4680BC704700BF01E400E080B400AF034B02221A6000BFBD4680BC704700BF90
:406F800000E100E080B400AF034B02221A6000BFBD4680BC704700BF80E100E080B485B000AF0346FB710B4B1B78DBB223F01003FB730849FB791B01DBB203F01003DAB2B5
:406FC000FB7B1343DBB20B7000BF1437BD4680BC704700BFC051004080B500AF00F032F800BF80BD80B500AF00F046F800BF80BD80B485B000AF0346FB710B4B1B78DBB262
:4070000023F02003FB730849FB795B01DBB203F02003DAB2FB7B1343DBB20B7000BF1437BD4680BC704700BF2051004080B400AF00BFBD4680BC704780B400AF00BFBD46DB
:4070400080BC704780B500AF094B1B78DBB203F01003002B14BF01230023DBB21A46054B1A7001F0EDFFFFF7E1FF00BF80BD00BF946500402081FF1F80B500AFFFF7DCFF98
:4070800002F062F8034B1B78002B01D001F094FF00BF80BD2081FF1F80B485B000AF0346FB710B4B1B78DBB223F01003FB730849FB791B01DBB203F01003DAB2FB7B1343C5
:4070C000DBB20B7000BF1437BD4680BC704700BF3051004080B485B000AF0346FB710B4B1B78DBB223F00203FB730849FB795B00DBB203F00203DAB2FB7B1343DBB20B703A
:4071000000BF1437BD4680BC704700BF3051004080B485B000AF0346FB710B4B1B78DBB223F02003FB730849FB795B01DBB203F02003DAB2FB7B1343DBB20B7000BF1437BA
:40714000BD4680BC704700BF3051004080B485B000AF0346FB710B4B1B78DBB223F01003FB730849FB791B01DBB203F01003DAB2FB7B1343DBB20B7000BF1437BD4680BCA5
:40718000704700BF2051004080B582B002AF414B01221A70404B00221A70102000F066FF102001F049F807211D20FEF719F83B4B04221A703A4B00221A703A4B00221A7036
:4071C000394A394B1B78DBB243F01803DBB21370364B00221A70364B00221A70354B00221A70354B0A221A70344B00221A70344B00221A70334B5B221A70334B5E221A70EB
:40720000324B00221A70324B14221A700123009310234FF4004247F60271032000F0A6FC0223009310234FF4004249F2DA01002000F09CFC0323009310234FF4004249F23A
