:400000000080002011000000F13D0000F13D000080B500AF024A034B1B68136003F01CFFBC760040FA46004010B5054C237833B9044B13B10448AFF300800123237010BD9D
:40004000288AFF1F0000000028650100084B10B51BB108490848AFF300800848036803B910BD074B002BFBD0BDE81040184700BF000000002C8AFF1F28650100C880FF1F14
:400080000000000080B500AF06F04EFA4FF48072002104480DF096F8034B00221A7000BF80BD00BF448AFF1F458BFF1F80B582B000AF06F017FA0346FB71FB79002B09D018
:4000C000114B1B785A1CD1B20F4A117019460F4AFB795354FB790D2B11D10D4B1A680D4B1B68194610460DF013FF02460A4B1A60054B1B781A46054B1344054A136000BFE2
:400100000837BD4680BD00BF458BFF1F448AFF1FCC80FF1F4C8BFF1F488BFF1FB0B58AB000AF7860002387F82130002387F82030FFF7A8FF012006F073FAC82004F042FB12
:40014000022008F043F806F063F9384806F00EFA4FF4FA6004F036FB06F0A0F906F018FA002006F05DFA0C2008F030F8002008F00FF82F492F480EF06DFF786233E00D21B5
:40018000786A0DF0C1FB0346002B27D0786A0CF053FE03467B847B8C002B1FD07B8C42F20F72934214D097F82030B7F922205B0007F128010B4423F8202C97F820300A2B15
:4001C00015D897F820300133DBB287F8203005E097F821300133DBB287F82130144900200EF038FF78627B6A002BC8D100E000BF97F8202007F108031146184600F082F888
:4002000003461BB2FB837B681D4607F108040FCC28606960AA60EB6003CC2861696123882B8378682837BD46B0BD00BFAD00000038650100448AFF1FB0B5EEB004AF3B1D31
:40024000186007F12403002283F8802007F124032A4A1C4615460FCD0FC42B68238007F108031846FFF75AFF07F108031B7E1A4607F108035B7E134407F10802127E1146AD
:4002800007F10802B2F91620144607F1240202F181000294019100930B23194A4FF480710DF0B8FA07F108031B7E0B2B05D107F12403012283F880200EE007F108031B7EB1
:4002C000002B09D007F108031B7E0A2B04D807F12403022283F880203B1D1A6807F124031046194640F281131A460CF0F5FE3B1D186807F5D477BD46B0BD00BF3C6501003C
:400300005065010090B585B000AF78600B46FB700023FB81FB781BB21946786800F03AF8FB7803F00103DBB2002B25D1FB78013BDA0F13445B105B007A681344B3F9003028
:400340001946FB785B08DBB25B007A681344B3F900300B4418460BF009FF4FF000024FF080430CF093F803460C46184621460CF013FA0346FB8107E0FB785B08DBB25B00FE
:400380007A6813441B88FB81FB8918461437BD4690BD00BF80B584B000AF78600B467B800023FB8137E00023BB8124E0B7F90C305B007A681344B3F90020B7F90C300133E8
:4003C0005B0079680B44B3F900309A420DDDB7F90C305B007A68D018B7F90C3001335B007A681344194600F021F8B7F90C309BB201339BB2BB81B7F90C20B7F90210B7F95F
:400400000E30CB1A013B9A42D0DBB7F90E309BB201339BB2FB81B7F90E20B7F90230013B9A42C0DB00BF1037BD4680BD80B485B000AF786039607B681B88FB813B68B3F90B
:4004400000207B681A803B68FA891A8000BF1437BD4680BC704700BF80B584B000AF78600923FB7300F078F8786808F027FC0346DBB20133FB7300F07BF8FB7B1846103785
:40048000BD4680BD80B586B000AFF860B9607A600923FB7500F060F8B968F86808F0F8FB38613B69002B08D108F026FA08F09EFAB968F86808F0ECFB38613B69002B10D0B6
:4004C00078680DF067FB03461A467968386908F08DFD386908F016FB0346DBB2C3F10103FB7500F045F8FB7D18461837BD4680BD80B586B000AFF860B9607A600923FB75D5
:4005000000F02AF81349F86808F0C2FB38613B69002B08D108F0F0F908F068FA0D49F86808F0B6FB38613B69002B0CD07A68B968386908F034FC386908F0E4FA0346DBB200
:40054000C3F10103FB7500F013F8FB7D18461837BD4680BD8865010080B500AF06F084F8012006F087F808F041FA00BF80BD00BF80B500AF002006F07DF806F06FF808F067
:40058000BBF9002006F0E6F8002006F0C7F8002006F0FEF8002006F019F900BF80BD00BFF0B5EBB000AF3B1D186007F124033D4A1C4613460FCB07C4237007F12403002236
:4005C00083F8802007F11803374A07CA03C31A8007F10C03354A07CA03C31A7007F10C031846FFF739FF07F10C03314A31491846FFF748FF07F1180107F10C030A221846A8
:40060000FFF776FF07F10C031846FFF725FF03461A4607F1240383F8802007F1240393F88030012B14D107F124038133224A1D4614460FCC28606960AA60EB6007CC2861A9
:400640006961AA612388A278AB831346AB7717E007F124038133194A14469E4604F1200C754626460FCE28606960AA60EB6010340EF1100E6445F3D17346224612781A70FE
:400680003B1D1A6807F124031046194640F281131A460CF021FD3B1D186807F5D677BD46F0BD00BF8C650100F0650100FC6501009C650100A8650100AC650100CC650100BE
:4006C00080B500AF07F020F900BF80BD80B500AF07F07AF9034603F00203002B02D1012004F070F807F0E6F900BF80BD80B500AF07F0FAF900BF80BD0EB480B5ADF6140DA9
:4007000000AF0246FB1D1A70FB1D1B78022B07D0FB1D1B78012B03D0FB1D1B78032B1DD1294800F0C9F800F09BF803461946274800F0C2F8FB1D1B78022B03D1244800F092
:40074000BBF820E0FB1D1B78012B03D1214800F0B3F818E0204800F0AFF814E0FB1D1B78002B29D11D4B1B79002B25D0164800F0A3F800F075F803461946144800F09CF872
:40078000174800F099F807F5026207F10C031A6007F10C0307F110001B68D7F81C284FF4006111F0D3FA07F11003184607F032F90C4800F081F800E000BF07F61407BD465F
:4007C000BDE8804003B07047086601000C6601001C6601003866010054660100609DFF1F706601008C66010084B080B500AF07F1080E8EE80F00134800F05EF800F030F822
:4008000003461946104800F057F8104800F054F807F108010E4800F04FF897F8883019460C4800F049F807F1890319460A4800F043F80A4800F040F800BFBD46BDE880402B
:4008400004B07047086601000C66010094660100A4660100B4660100C4660100D466010080B58CB000AF04F0E9FFF862FB6A1B78DBB27B60FB6A5B78DBB2BB60FB6A9B7896
:40088000DBB2FB60FB6A5B899BB2A3F26C73BB61FB6A1B7ADBB27B61FB6A1B79DBB23B6100237B623B1D18460CF0DEFDB862BB6A18463037BD4680BD0FB480B5ADF6080D24
:4008C00000AF07F61403C7F80438381DD7F80438D7F810284FF4006111F038FA3B1D184607F098F800BF07F60807BD46BDE8804004B0704700000000B0B59CB000AF7860E9
:40090000012007F09FFC012006F0E6FD504B1B78042B02D0012007F077FC0A2003F052FF06F0ACFD06F084FD06F0C6F8002387F86F3034E097F86F30184606F0B9FD002368
:40094000A7F86C300FE0B7F86C4006F045FD0246A30007F170010B4443F8682CB7F86C300133A7F86C30B7F86C300A2BEBD997F86F4007F108030B21184600F0E9F9034664
:40098000184606F009FA0246A30007F170010B4443F83C2C97F86F30013387F86F3097F86F30062BC6D906F069FD06F031FD06F09BF8002006F090FD254B1B78042B02D06C
:4009C000002007F021FC7B6B18460BF0E1FB1EA3D3E900230BF07CFA03460C46184621460BF002FF0346BB66BB6B1A4918460CF059F80346B96E18460BF04AFF0346FB64E3
:400A0000FB6BB96E18460BF043FF03463B653B6CBB657B6CFB65BB6C3B66012387F86430002007F00FFC7B681D4607F14C040FCC0FC594E8070085E8070078687037BD46B8
:400A4000B0BD00BFAFF30080FCA9F1D24D62F03F609DFF1F0000304190B599B000AF786006F00CFD06F0E4FC06F026F8032006F01FFD0023A7F85E300FE0B7F85E4006F0A1
:400A8000ABFC0246A30007F160010B4443F8582CB7F85E300133A7F85E30B7F85E300A2BEBD907F108030B21184600F051F90346184606F071F903463B653B6D484918461B
:400AC0000BF0F0FF034618460AF064F90346444918460CF09BF803463B65012007F094FB0A2003F06FFE0023A7F85C300FE0B7F85C4006F071FC0246A30007F160010B44B3
:400B000043F8582CB7F85C300133A7F85C30B7F85C300A2BEBD907F108030B21184600F017F90346184606F037F90346FB6406F0A5FC06F06DFC05F0D7FF002007F064FBEF
:400B4000FB6C18460BF024FB21A3D3E900230BF09DFC03460C46184621464FF00002214B0BF06AFB03460C46184621460BF03CFE03467B65FB6C18460BF00AFB4FF000022E
:400B8000194B0BF059FB03460C461846214612A3D3E900230BF07AFC03460C46184621464FF00002114B0BF093F903460C46184621460BF019FE0346BB657B681C4607F181
:400BC0004C030FCB84E80F0078686437BD4690BD0000000000C0624033333333333303400000C84200408F40000024400000044084B090B587B000AF786007F12C0080E82B
:400C00000E00BB6B18460BF0C3FA23A3D3E900230BF03CFC03460C46184621464FF00002214B0BF033FC03460C46184621460BF0DBFD03463B61BB6B18460BF0A9FA4FF0E2
:400C400000021A4B0BF0F8FA03460C461846214613A3D3E900230BF019FC03460C46184621464FF00002124B0BF032F903460C46184621460BF0B8FD03467B617B681C467D
:400C800007F108030FCB84E80F0078681C37BD46BDE8904004B070470000000000C06240333333333333034000408F40000024400000044080B584B000AF7860396000238C
:400CC000FB6028E00023BB601BE0BB689B007A6813441A68BB6801339B0079680B441B689A420BDDBB689B007A68D018BB6801339B007A681344194600F016F8BB6801330F
:400D0000BB603A68FB68D31A5A1EBB689A42DCDCFB680133FB603B685A1EFB689A42D1DC00BF1037BD4680BD80B485B000AF786039607B681B68FB603B681A687B681A606C
:400D40003B68FA681A6000BF1437BD4680BC704790B585B000AF786039600023FB6039687868FFF7A7FF3B6803F00103002B23D13B68013BDA0F13445B109B007A681344A8
:400D80001A683B68D90F0B445B109B0079680B441B68134418460BF0E9F94FF000024FF080430BF073FB03460C46184621460BF0F3FC0346FB6008E03B68DA0F13445B10BC
:400DC0009B007A6813441B68FB60FB6818461437BD4690BD2DE9B043F0B006AF3B1D186007F12403002283F8802007F12403264A1C4615460FCD0FC495E803002060043428
:400E0000217007F108031846FFF776FD07F108031B6818460BF0BCF904460D4607F108035B6818460BF0B4F98046894607F108039B6818460BF0ACF902460B4607F124010B
:400E400001F18100CDE90423CDE90289CDE900450E4A4FF480710CF0DDFC07F12403012283F880203B1D1A6807F124031046194640F281131A460CF02FF93B1D186807F55C
:400E8000D477BD46BDE8B083D8660100F06601002DE9B043EEB006AF3B1D186007F11C03002283F8802007F11C03374A1C4615460FCD0FC495E8030020600434217007F131
:400EC0000C031846FFF7C8FD07F10C031B6818460BF05EF904460D4607F10C039B6818460BF056F98046894607F10C03DB6818460BF04EF902460B4607F11C0101F18100A1
:400F0000CDE90423CDE90289CDE900451F4A4FF480710CF07FFC07F10C031B681C4918460BF0C0FD0346184609F034FF0346184918460BF06BFE03461A4607F10C031A6016
:400F400007F10C035A6807F10C031B68194610460BF03CFF0346002B04D107F11C03012283F880203B1D1A6807F11C031046194640F281131A460CF0AFF83B1D186807F552
:400F8000D077BD46BDE8B08310670100286701000000C84298B500AF12E00D4BB3F900301C4606F0CFFE03461A460A4B1A55084BB3F900309BB201339BB21AB2044B1A8097
:400FC00006F0E2FE0346012BE7D000BF98BD00BF508BFF1F2007002080B500AF00F032F8154B00221A70154B002283F82820134B00221A75114B00221A70114B00221A607E
:401000000F4B00225A600E4B00229A600C4B0022DA600B4B00221A61094B00225A61084B0022DA61064B00229A610021402007F043F800BF80BD00BFF506002088ECFF1FF5
:40104000F806002080B500AF002007F067F80C2007F014F8002006F0A9FD002006F0F0FF002007F041F8002006F082FD002006F0BBFD00BF80BD00BF80B500AF022006F09E
:40108000FDFF012007F04AF8012006F08FFD642003F098FB00BF80BD80B500AF41F288320A490B4800F0A8F800F084F84FF47A7003F088FB06F016FE06F046FFFFF7C2FF1F
:4010C000044B00221A7000BF80BD00BF586701005C670100F506002080B582B000AFFFF7CBFF06F09DFD2C4806F01CFF00F062F80023FB7100233B71FFF7B2FB38600023AA
:40110000BB711CE000237B710EE04FF47A722349234800F071F80346002B02D00123FB7105E07B7901337B717B79132BEDD9FB79012B08D000F03EF8BB790133BB71BB79FE
:40114000022BDFD900E000BFFFF78AFB02463B68D31A3B603A6813490020FFF7CDFAFB79012B0AD13B791A460F490020FFF7C4FA0E4B01221A70012309E00D490220FFF7E6
:40118000BBFA0A4B00221A70FFF786FF002318460837BD4680BD00BF950F000058670100686701007067010084670100F5060020B867010080B500AF012006F0D9FC4FF4F9
:4011C000FA6003F0FFFA002006F0D2FC00BF80BD80B500AF064B00221A804FF48062002104480BF0EFFF06F0E5FD00BF80BD00BF508BFF1F2007002080B58AB000AFF86014
:40120000B9607A6000237B6200237B6246E00A23FB617A68FB69B2FBF3F3BB61FFF7D8FFF86806F003FE7B68002B06D1FA681F490020FFF761FA012334E000233B6220E0DB
:40124000F86903F0BFFAB96819480CF061FE78617B69002B12D07B6A002B06D1144BFA6814490020FFF748FA06E07B6A5A1C104B11490120FFF740FA012313E03B6A013326
:401280003B623A6ABB699A42DAD3094BFA680B490220FFF731FA7B6A01337B627B6A022BB5D9002318462837BD4680BDD067010020070020FC6701004C68010084680100B8
:4012C000B0B5E6B000AF3B1D186007F10C03002283F8802007F10C03364A07CA03C31A800233120C1A7007F10C038133324A1C4615460FCD20606160A260E3602868206134
:40130000AB88AA79A3821346A3750023C7F894313AE000F091F800F0C1FC0346002B02D1FFF7DAFE27E000F0B9FC0346042B22D100F012FCC7F89001D7F89031002B03D0D2
:40134000D7F8900102F0A4F907F10C0381331B4A1D4614460FCC28606960AA60EB6007CC28616961AA6107F10C03012283F88020FFF792FE0CE04FF47A7003F023FAD7F82C
:4013800094310133C7F89431D7F894313B2BC0DD3B1D1A6807F10C031046194640F281131A460BF099FE3B1D186807F5CC77BD46B0BD00BFB4680100C0680100D8680100FE
:4013C00080B586B000AFF860B9607A603B60B968F8680CF09DFD78617B69002B01D1FB687B61B8680CF0D6FB02467B6913447B61796878690CF08CFD38613B69002B06D10B
:40140000F8680CF0C7FB0246FB6813443B613A697B69D31A1A46796938680CF0E9FB3A697B69D31A1A463B68134400221A70012318461837BD4680BD80B582B000AF464B88
:401440001B78012B0BD1FFF70BFA0246434B1A6000F0CEFA404B02221A70012377E03E4B1B78022B44D10023FB7110E000F000F93B4B5B691A2B03DD394B5B69FF2B0AD198
:401480004FF47A7003F09EF9FB790133FB71FB791D2BEBD900E000BF00F06CF80346002B13D0FFF7DDF902462C4B1B68D31A2C4A93612B4B9B691A462A490020FFF71CF9BA
:4014C00000F0B4F8244B03221A70FFF7C9F90246224B1B68D31AB42B08DD1F4B00221A70FFF7DAFD20490220FFF706F900232EE0194B1B78032B29D100F0A6F80346002BDC
:4015000011D0154B04221A70FFF7AAF90246134B1B68D31A124AD361114BDB691A4613490020FFF7E9F8FFF79BF902460B4B1B68D31AE62B08DD084B00221A70FFF7ACFDFC
:401540000B490220FFF7D8F8002300E0002318460837BD4680BD00BFF50600201C070020F8060020F46801001C690100406901006069010080B584B000AF20490020FFF703
:40158000BBF84FF4FA621E491E48FFF735FE0346FB731D490020FFF7AFF81C4A1C490020FFF7AAF8FB7B002B23D000233B713B1D184A19491548FFF703FF3B1D1A4617499A
:4015C0000020FFF799F816490020FFF795F83B1D144918460CF09CFC0346002B07D13B1D114918460CF094FC0346002B01D0012300E0002318461037BD4680BD8869010070
:40160000586701009C690100A869010020070020C4690100E0690100E4690100E8690100086A0100286A01002C6A010080B500AF4FF47A7202490348FFF7DEFD00BF80BD60
:4016400058670100306A010080B500AF4FF4FA6205490648FFF7D0FD0346002B01D0012300E00023184680BD406A0100446A010080B586B004AF154BFF225A60134BFF22F4
:40168000DA60124BFF229A60104BFF225A610F4BFF221A610D4BFF221A604FF4FA620C490C48FFF7A9FD0C4B03930C4B02930C4B01930C4B00930C4B044A0C490C480CF07C
:4016C000F5F8786000BF0837BD4680BDF806002058670100506A01000C070020080700200407002000070020FC0600205C6A01002007002080B400AF094B00221A70084B34
:4017000000225A70064B0A229A70054B3C22DA70034B01221A7100BFBD4680BC704700BF609DFF1F90B599B000AF002387F85430002387F84830002387F83C30002387F886
:401740003030002387F8243007F154038D4A8E498E48FFF735FE07F148038A4A8C498B48FFF72EFE07F13C03864A8A498748FFF727FE07F13003834A87498448FFF720FECA
:4017800007F124037F4A85498048FFF719FE07F1200207F15403824918460CF087F80346012B0AD13B6ADAB27E4B1A703B6A1A467D490020FEF7A0FF03E07C490220FEF77F
:4017C0009BFF07F11C0207F14803754918460CF06DF80346012B0ED1FB69002B14BF01230023DAB26F4B5A70FB691A4670490020FEF782FF03E06F490220FEF77DFF07F133
:40180000180207F13C03664918460CF04FF80346012B19D1BB69DAB2624B9A70614B9B7899B2654C38460723012201F0CBF922463B46196811609B889380BB691A465F49C9
:401840000020FEF759FF03E05D490220FEF754FF07F1140207F13003514918460CF026F80346012B19D17B69DAB24E4BDA704D4BDB7899B2534C38460723012201F0A2F9DF
:4018800022463B46196811609B8893807B691A464D490020FEF730FF03E04C490220FEF72BFF07F1100207F124033D4918460BF0FDFF0346012B0AD13B69DAB2394B1A71AD
:4018C0003B691A4642490020FEF716FF03E041490220FEF711FF334B1B78042B4ED13E4B1B68BB600023BB8107F10803254A3B492648FFF765FD07F1080318460BF098FA0C
:4019000003460C46184621460AF06EFF0346184600F03EFD034687F85F3097F85F30002B16D007F1080318460BF082FA03460C461A4623462A490020FEF7DEFEFEF790FF64
:40194000024607F108031946264800F0D5F915E007F1080318460BF06BFA03460C461A46234621490220FEF7C7FEFEF779FF024607F1080319461D4800F0BEF900BF6437B4
:40198000BD4690BDE06901007C6A010020070020886A0100946A0100A46A0100B46A0100C46A0100609DFF1FC86A0100E46A0100006B01001C6B010084C4FF1F386B010075
:4019C0005C6B0100689DFF1F8C6B0100B46B0100E46B0100106C0100D06C0100406C0100506C0100706C0100846C0100AC6C010080B584B000AF454B1B7D002B13D14FF4F7
:401A0000FA6243494348FFF7F7FB0346002B0AD0414B424A42494348FFF7D2FC3E4A42490020FEF769FE394B1B78002B13D14FF4FA6237493D48FFF7DFFB0346002B0AD094
:401A4000324B364A36493748FFF7BAFC2F4A38490020FEF751FE2D4B93F82830002B13D14FF4FA622A493348FFF7C6FB0346002B0AD0314B294A2A492A48FFF7A1FC2E4A86
:401A80002E490020FEF738FE2D4B5B7883F00103DBB2002B06D04FF4FA621D492948FFF7ABFB09E0264B5B78002B05D04FF4FA6217492548FFF7A0FB4FF4FA621449234871
:401AC000FFF79AFB0346002B1BD000233B713B1D124A13491348FFF773FC3B1D1A461C490020FEF709FE3B1D312118460BF00CFF0346002B05D14FF4FA6205491548FFF78C
:401B00007BFB00BF1037BD4680BD00BF88ECFF1F58670100D86C01009CECFF1FE0690100E469010020070020E46C0100F46C0100006D01000C6D0100B0ECFF1F186D010034
:401B4000609DFF1F246D0100506D01006C6D0100786D0100846D010080B5A0B006AF444B1B78042B05D043490220FEF7C5FD00237AE000237B664FF4FA623F493F48FFF75E
:401B80003BFB0346002B6ED0002387F8443007F144033B4A3B493C48FFF712FC0023BB6207F13C0107F1400207F1440007F12803049307F12C03039307F13003029307F13D
:401BC0003403019307F1380300930B462F490BF06DFE0346072B06D1BB6A4FF4617202FB03F3BB6227E007F13C0107F1400207F1440007F12803049307F12C03039307F167
:401C00003003029307F13403019307F1380300930B461F490BF04AFE0346072B05D1BB6A1C4A02FB03F3BB6205E01B490220FEF763FD002318E0FB6A7B603B6BBB607B6BA9
:401C4000FB603B6C6433BB61FB6B013B7B61BB6B3B6100237B623B1D18460BF005FC0246BB6A13447B667B6E18466837BD4680BDF5060020906D010058670100C86D0100E3
:401C8000D46D0100D86D010020070020DC6D0100F46D01007CFCFFFF0C6E010080B400AF024B1B781846BD4680BC7047F506002080B500AFFFF7F2FF0346002B03D006F07E
:401CC0005BFA06F003F900BF80BD00BF80B500AFFFF7E4FF0346002B0BD006F053FA06F00FF9FFF7DBFF0346032B02D1642002F069FD00BF80BD00BF80B584B000AFF86074
:401D0000B9607A60234B1B881A462C2303FB02F3214A9818FB68214A14210BF07BFD1D4B1B881A462C2303FB02F310331A4A1344181DBB68194A14210BF06CFD154B1B886A
:401D40001946154A2C2303FB01F3134428337A681A60104B1B8801339AB20E4B1A80104B1B8801339AB20E4B1A800A4B1B88952B0BD9084B00221A800A4B01221A700A4974
:401D80000220FEF7B9FC002300E0012318461037BD4680BD8AC4FF1F2CEDFF1F386F01008CC4FF1FF40600203C6F010080B483B000AF1CE0FB88164A2C2101FB03F3134441
:401DC00000221A70FB88124A2C2101FB03F31344143300221A70FB880D4A2C2101FB03F31344283300221A60FB880133FB80FB88952BDFD9074B00221A80074B00221A801F
:401E0000064B00221A7000BF0C37BD4680BC70472CEDFF1F8AC4FF1F8CC4FF1FF406002080B400AF024B1B881846BD4680BC70478CC4FF1F80B400AF024B1B881846BD46B9
:401E400080BC70478AC4FF1F80B58CB008AFF860B9607A603B60FB6A01933B680093FB692A4A42F21071F8680BF0D4FC284B07933B6A0693274B0593254B0493BB690393F8
:401E8000254B02937B680193244B0093FB68244A42F21071F8680BF0BDFC7B6A002B0CD07B6A1B78002B08D07B6A0093FB681D4A42F21071F8680BF0ADFC1B49F8690BF0E8
:401EC0008BFD0346002B13D0B8680BF063FE0246BB6A1344154A03920293154B0193154B0093FB68144A42F21071F8680BF092FCBB680093FB68114A42F21071F8680BF070
:401F000089FC00BF1037BD4680BD00BF746F01009C6F0100A06F0100B06F0100B46F0100886F0100BC6F0100C46F0100D46F0100DC6F0100F06F0100C86F01000C700100D6
:401F400090B589B004AF78607B6800221A70334B1B7883F00103DBB2002B2DD00023FB8122E0FB892C2202FB03F32D4A1344FA892C2101FB02F2103229490A440432F989DE
:401F800027482C2404FB01F10144283109680291019200937B68234A42F2107178680BF039FCFB890133FB81FFF744FF03461A46FB899342D5D328E00023BB8122E0BB89D0
:401FC0002C2202FB03F3164A1344BA892C2101FB02F2103212490A440432B98910482C2404FB01F10144283109680291019200937B680C4A42F2107178680BF00BFCBB8991
:402000000133BB81BB89952BD9D978680BF0C2FDB860BB6818461437BD4690BDF40600202CEDFF1F1470010080B588B004AFF860B9607A603B60FB6800221A703B68029389
:402040007B680193BB680093FB68044AC821F8680BF0E0FB00BF1037BD4680BD347001002DE9B04FADF5C06D5EAF07F15C03186007F53A73184600F0FDFB07F53A74684671
:4020800004F1100340F2711219460BF025F894E80F00FEF7A9FB012006F0B6F807F5B273002283F8802007F5B273A04A07CA03C31A800233120C1A704FF07E5000F068F92E
:4020C00000F03EF9024607F5A2731A6007F1640407F138031846FEF70FFC07F138031D460FCD0FC495E8070084E807004FF0000000F04EF903461A4607F5B27383F880205E
:4021000000F01EF9024607F5A2735A6007F1640407F138031846FEF7EFFB07F138031C341D460FCD0FC495E8070084E8070007F5B27393F88030002B3AD04FF0785000F0A1
:4021400027F900F0FDF8024607F5A2739A604FF07A5000F01DF900F0F3F8024607F5A273DA604FF07B5000F013F900F0E9F8024607F5A2731A614FF07C5000F009F900F0F2
:40218000DFF8024607F5A2735A61694800F000F900F0D6F8024607F5A2739A614FF07D5000F0F6F800F0CCF8024607F5A273DA6107F164031B69184609F0EAFFC7E90C0176
:4021C00007F16403DB6A184609F0E2FFC7E90A0107F164035B69184609F0DAFFC7E9080107F5A2731B68184609F0D2FFC7E9060107F5A2735B68184609F0CAFFC7E9040120
:4022000007F5A2739B68184609F0C2FFC7E9020107F5A273DB68184609F0BAFFC7E9000107F5A2731B69184609F0B2FF82468B4607F5A2735B69184609F0AAFF804689460A
:4022400007F5A2739B69184609F0A2FF04460D4607F5A273DB69184609F09AFF0A46014607F5B2738133CDE91412CDE91245CDE91089CDE90EABD7E90012CDE90C12D7E9F6
:402280000212CDE90A12D7E90412CDE90812D7E90612CDE90612D7E90812CDE90412D7E90A12CDE90212D7E90C12CDE90012214A4FF4807118460BF0ADFA07F5B27393F8AF
:4022C0008030002B10D107F5B27381331A4A1D4614460FCC28606960AA60EB6007CC28616961AA6123782B77002005F08DFF07F26C431846FDF712FFB7F98234184600F0DD
:4023000077F907F15C031A6807F5B2731046194640F281131A460AF0DFFE07F15C03186807F59167BD46BDE8B08F00BF44700100CDCC2C3F50700100AC7001000000000079
:4023400090B589B000AF3B1D1846FEF7D5FA7B69BA69114618460AF059FC0346184609F017FF09A3D3E900230AF090F803460C46184621460AF038FA034618462437BD4657
:4023800090BD00BFAFF3008014AE47E17A14EE3F90B585B000AF7860012005F035FF4FF07F53FB60FFF7CCFF0346796818460AF06FFA034623F00043184609F0E9FE84A3E3
:4023C000D3E900230AF0AAF90346002B01D00123FAE0FFF7B5FF0346796818460AF01EFD0346002B71D0012003F0F4FF2FE0FFF7A7FFF8604FF47A7002F0E4F9FFF7A0FF87
:4024000003461946F8680AF043FA034623F00043184609F0BDFE70A3D3E900230AF07EF90346002B00D112E0002003F0D3FF002005F0EAFE786809F0ABFE03460C461A46B3
:40244000234669490220FEF757F90023BCE0FFF777FF0346796818460AF01AFA034623F00043184609F094FE5DA3D3E900230AF073F90346002BBAD1002003F0ABFFFFF79A
:402480005FFF0346796818460AF002FA034623F00043184609F07CFE4DA3D3E900230AF05BF90346002B00F08B80002005F0ACFE786809F06DFE03460C461A4623464A494A
:4024C0000220FEF719F900237EE0FFF739FF0346796818460AF084FC0346002B70D0012003F05AFF2FE0FFF72BFFF8604FF47A7002F068F9FFF724FF03461946F8680AF0BF
:40250000C7F9034623F00043184609F041FE32A3D3E900230AF002F90346002B00D112E0002003F039FF002005F06EFE786809F02FFE03460C461A4623462B490220FEF705
:40254000DBF8002340E0FFF7FBFE0346796818460AF09EF9034623F00043184609F018FE1FA3D3E900230AF0F7F80346002BBAD1002003F011FFFFF7E3FE03467968184626
:402580000AF086F9034623F00043184609F000FE0FA3D3E900230AF0DFF80346002B0FD0002005F031FE786809F0F2FD03460C461A4623460D490220FEF79EF8002303E080
:4025C000002005F021FE012318461437BD4690BD9A9999999999A93FFCA9F1D24D62403FB81E85EB51B89E3FCC700100FC70010080B582B000AF0346FB80B7F906301A467F
:402600000A490020FEF778F8B7F90630B3F5FA7F04DD4FF00000FFF7BBFE03E04FF07E50FFF7B6FE00BF0837BD4680BD2C710100B0B594B000AF07F12003184600F08CF831
:402640003B1D1846FDF76AFDB7F936301A46B7F91A30D31A214A82FB03129211DB17D31A18460AF0CBF90346FB644FF08043BB641B4B7B641B4B3B64B96C786C0AF012FA2F
:402680000346184609F084FD04460D463B6C194618460AF0FFF80346F96C18460AF002FA0346184609F074FD02460B461046194608F0B6FB02460B462046294609F0BCFDDD
:4026C00003460C46184621460AF08EF80346FB63FB6B18465037BD46B0BD00BFD34D6210CDCCCC3EC3F51C4180B582B000AF05F031FE0346FB71FB79002B09D0114B1B7839
:402700005A1CD1B20F4A117019460F4AFB795354FB790D2B11D10D4B1A680D4B1B68194610460BF0F5FB02460A4B1A60054B1B781A46054B1344054A136000BF0837BD464C
:4027400080BD00BF558CFF1F548BFF1FD080FF1F5C8CFF1F588CFF1FB0B58AB000AF7860002387F82130002387F82030FDF78AFC012005F0A3FEC82002F024F8022005F0A2
:4027800025FE05F07DFD384805F03EFE4FF4FA6002F018F805F0BAFD05F048FE002005F08DFE0C2005F012FE002005F0F5FD2F492F480CF04FFC786233E00D21786A0BF04A
:4027C000A3F80346002B27D0786A0AF035FB03467B847B8C002B1FD07B8C42F20F72934214D097F82030B7F922205B0007F128010B4423F8202C97F820300A2B15D897F856
:4028000020300133DBB287F8203005E097F821300133DBB287F82130144900200CF01AFC78627B6A002BC8D100E000BF97F8202007F1080311461846FDF764FD03461BB2BF
:40284000FB837B681D4607F108040FCC28606960AA60EB6003CC2861696123882B8378682837BD46B0BD00BFE926000054710100548BFF1FB0B5EEB004AF3B1D186007F1D6
:402880002403002283F8802007F124032B4A1C4615460FCD0FC495E80F0007C4237007F108031846FFF758FF07F108031B7E1A4607F108035B7E134407F10802127E114604
:4028C00007F10802B2F91620144607F1240202F181000294019100930B23194A4FF480710AF098FF07F108031B7E0B2B05D107F12403012283F880200EE007F108031B7E69
:40290000002B09D007F108031B7E0A2B04D807F12403022283F880203B1D1A6807F124031046194640F281131A460AF0D5FB3B1D186807F5D477BD46B0BD00BF58710100D2
:402940007871010080B500AF02F0F6FE00BF80BDB0B58AB002AF394802F00AFE02F056FEFF2002F0A1FF02F00BFFFDF7A9FEFEF733FBFEF7BFFE07F11403184601F0A4FF78
:402980007A69BB69009313462D4A18212D480AF041FF2D4B2D4A1A602D4A2E4B14461D460FCD0FC40FCD0FC40FCD0FC42B682380274B41F288325A66274B9B7899B2274C0A
:4029C00038460723012200F0FDF822463B46196811609B889380224B01221A701E4BDB7899B2204C38460723012200F0EBF822463B46196811609B8893801B4B01221A70C7
:402A00001A4B00221A701A4B01221A70184B1B7807F10800174A0A210AF0FCFEFDF720FF024607F1080319461348FFF765F90023FB7700BF2037BD46B0BD00BF4529000049
:402A4000A871010094C4FF1F90C4FF1F88ECFF1FC4ECFF1FB0710100609DFF1F84C4FF1F18070020689DFF1F80C4FF1F6E9DFF1F84ECFF1FE4710100E871010080B582B0BF
:402A800000AF144B1B78002B06D000F095FB03461A46104B1A7014E00F4B1B78002B06D000F0ACFB03461A460B4B1A7009E00B4B1B78002B05D000F04FF903461A46074B5F
:402AC0001A70FEF7B9FC0346FB71FB7918460837BD4680BD6E9DFF1F1807002080C4FF1F80B500AFFFF7E4F8FDF7F0FD01F04EFF4FF40061002002F005FA02F08BF8FDF7DF
:402B0000F5FDFFF7E3F800BF80BD00BF80B582B000AF0346FB71FB7919460C4800F01EF80346002B02D00A4B01221A70FB791946084800F013F80346002B02D0064B0122FF
:402B40001A7000BF0837BD4680BD00BF84C4FF1F18070020689DFF1F80C4FF1F80B582B000AF78600B46FB707B681B79DBB2FA789A4212D17B685B881BB29BB2013B9BB25C
:402B80001AB27B685A807B685B881BB2002B04DC786800F007F8012300E0002318460837BD4680BD80B483B000AF78607B681B889BB21AB27B685A8000BF0C37BD4680BC90
:402BC000704700BF80B485B000AF7860084611461A4603467B800B467B7013463B707B883B817B783B733B787B73B7F902307B817B681A4607F10803186810609B8893809B
:402C000078681437BD4680BC704700BF90B5ADF6942D5EAF42490320FDF76EFD07F294731846FDF709FB07F29474684604F1100340F2711219460AF04FFA94E80F00FDF70E
:402C4000D3FD07F5C2631846FFF70AFA07F5C264684604F1100340F2711219460AF03CFA94E80F00FDF7C0FD07F28C431846FEF7B1F807F28C44684604F1100340F27112BB
:402C800019460AF029FA94E80F00FDF7ADFD07F542731846FEF7FCF807F54274684604F1100340F2711219460AF016FA94E80F00FDF79AFD07F5C2731846FDF771FC07F5EF
:402CC000C274684604F1100340F2711219460AF003FA94E80F00FDF787FD3B461846FEF7EFFA104B0093104B104A11490320FDF703FD3C46684604F1100340F271121946BD
:402D00000AF0EAF994E80F00FDF76EFD09490320FDF7F2FC00BF07F61C17BD4690BD00BFF071010094C4FF1F88ECFF1FB0ECFF1F1C7201003C72010080B500AF62B6FFF723
:402D400007FEFFF763FFFFF799FE0346002BFAD1FFF7C6FEF7E700BF90B5ADF2745D06AF012002F0F1FC642001F02CFD002002F0EBFCFFF75FF80346002B01D1002305E235
:402D8000FEF78CFF0346002B23D1AE4B1B780133DAB2AC4B1A70AB4B1B78022B02D8FEF79BF9F2E1A74B00221A70A74B1B78042B0DD1A6490020FDF79FFC07F5A563184642
:402DC000FDF7ACF9B7F93E351846FFF711FC0023DCE1FEF763FF0346042B40F0D6819C490020FDF789FC9B4B00221A709A4B00221A709A4B00221A70994B5B6907F2145049
:402E0000984A14210AF006FDFDF72AFD024607F2145319469448FEF76FFF8A4B1B7807F5A060904A14210AF0F5FCFDF719FD024607F5A06319468D48FEF75EFF8C4B1B787E
:402E400083F00103DBB2002B16D0FEF7F3FF0346A7F85035B7F8503507F59B60814A14210AF0D8FCFDF7FCFC024607F59B6319468048FEF741FF0FE007F2C4409623794AFE
:402E800014210AF0C7FCFDF7EBFC024607F2C44319467848FEF730FFFEF7C2FF0346A7F84E35B7F84E35013B07F2EC406D4A14210AF0B0FCFDF7D4FC024607F2EC431946E1
:402EC0006D48FEF719FF6D490020FDF715FC6C4B6C4A6D496148FFF7A7F8604A6B490020FDF70AFC5C48FFF72BF8694B5B6E694A059200220492684A0392684A0292684AE1
:402F000001920093554B624A53495248FEF79CFF504A64490020FDF7EFFB002387F84D355B4B5A6E381D5A4B009313465E4AC8210AF070FC3B1D1A465C490020FDF7DCFB5D
:402F40003B1D42F210725A491846FEF755F9034687F84D353F4BC7F854353E480AF01AFE0246544BA3FB02235B09184609F0EEF84FF00002504B07F08BFE03460C461846AB
:402F8000214607F0FDFD03460C461846214609F003FC034687F84C352E480AF0FBFD03461A4646490020FDF7A7FB97F94C351A4643490020FDF7A0FB002387F853359BE071
:402FC0004FF47A723F494048FEF716F9034687F84D3507F1CC00D7F85435344A4FF4FA710AF018FC07F1CC0318460AF0D3FD03461A4607F1CC03134434491A460B461B8867
:40300000138097F9532507F1CC0331490020FDF773FB97F953355A1C97F94C359A4259D007F1CC0341F2883221491846FEF7E4F8034687F84D35D7F8543503F2F313C7F8E5
:40304000543552E0200B0020609DFF1F6872010094720100709DFF1FACC4FF1FBCEBFF1FF8060020E4710100A4720100AC720100F4060020B8720100C8720100DC72010056
:40308000F0720100B0ECFF1F1C7301002C730100C4ECFF1F3C73010040730100447301004C730100547301006C730100887301008C730100D34D621000407F4090730100E0
:4030C000A8730100BC730100C0730100D0730100D473010007F1CC0341F288322E491846FEF78AF8034687F84D3597F95335DBB20133DBB287F8533597F9532597F94C35F4
:403100009A42FFF65DAF41F2883224492448FEF773F8034687F84D3597F84D35012B1DD1FEF700FBFEF742FEFDF79AFB02461D4B1B68D31AC7F8483507F59760D7F84835CE
:40314000194A0A210AF066FBFDF78AFB024607F5976319461548FEF7CFFD03E014490220FDF7CAFAFEF7F8FCC7F84405D7F84435002B03D0D7F8440500F08AFAFDF78CFFD6
:403180000C4B00221A70002300E00123184607F25C57BD4690BD00BFE4730100EC730100F47301001C070020E47101000874010018740100200B002080B582B000AFFEF7B3
:4031C0006DFD0346002B02D1FDF786FF11E0FEF765FD0346042B0CD1FEF7BEFC78607B68002B02D0786800F053FAFDF755FF002300E0012318460837BD4680BDB0B5B4B06F
:4032000004AFFDF72DFBC7F8BC0007F19400D7F8BC30A14A20210AF0FDFAA04B1B78002B3CD107F148031846FCF778FF97F86030002B2FD0B7F95E3007F18000984A142109
:403240000AF0E8FA07F180031A4696490020FDF753FA07F18003D7F8BC2019469248FEF74BFD07F194031A4690499148FDF70AF9904A8E498E48FDF705F907F180031A46CF
:403280008A498B48FDF7FEF88B4A88498848FDF7F9F803E089490220FDF72EFA07F164031846FDF729FB97F87C30002B00F0B2807B6E184608F06CFF03460C4607F1800016
:4032C000CDE900347E4A14210AF0A4FA07F180031A467C490020FDF70FFA07F18003D7F8BC2019467848FEF707FD734A6F497048FDF7C8F807F194031A466C496C48FDF727
:40330000C1F8724A69496A48FDF7BCF807F180031A4666496648FDF7B5F8604B1B78012B7CD107F138056C4607F170030FCB84E80F0007F164030ECB2846FDF759FC3B6C3F
:40334000184608F025FF03460C4607F18000CDE900345B4A14210AF05DFA07F180031A465B490020FDF7C8F907F18003D7F8BC2019465848FEF7C0FC4F4A4C494C48FDF7CB
:4033800081F807F194031A4648494948FDF77AF8514A46494648FDF775F807F180031A4642494348FDF76EF87B6C184608F0F0FE03460C4607F18000CDE90034404A1421D2
:4033C0000AF028FA07F180031A4644490020FDF793F907F18003D7F8BC2019464048FEF78BFC354A31493248FDF74CF807F194031A462E492E48FDF745F83A4A2B492C48FC
:40340000FDF740F807F180031A4628492848FDF739F803E034490220FDF76EF91F4B1B78042B40F0148107F11C031846FCF776FE97F83430002B59D0B7F9323007F1800004
:40344000174A14210AF0E6F907F180031A4615490020FDF751F907F18003D7F8BC2019461148FEF749FC07F194031A460F491048FDF708F80F4A0D490D48FDF703F807F1B0
:4034800080031A4609490A48FCF7FCFF0A4A07490748FCF7F7FF2DE044740100609DFF1FE4710100487401005C7401006C740100D480FF1F707401008474010088740100C8
:4034C000B4740100BC740100C8740100D0740100D8740100EC740100007501001475010028750100387501004C7501005A490220FDF702F9FEF724FFC7F8B800D7F8B8006A
:4035000008F046FE03460C4607F18000CDE90034524A14210AF07EF907F180031A4650490020FDF7E9F807F18003D7F8BC2019464C48FEF7E1FB07F194031A464A494B48A8
:40354000FCF7A0FF4A4A48494848FCF79BFF07F180031A4644494548FCF794FF454A42494248FCF78FFF3B461846FFF7F5F83B7E002B2FD0B7F9163007F180003E4A142107
:403580000AF048F907F180031A463C490020FDF7B3F807F18003D7F8BC2019463848FEF7ABFB07F194031A462F493048FCF76AFF344A2D492D48FCF765FF07F180031A463B
:4035C00029492A48FCF75EFF2A4A27492748FCF759FF03E020490220FDF78EF8FFF728F8C7F8B400D7F8B40008F0D2FD03460C4607F18000CDE90034184A14210AF00AF9AD
:4036000007F180031A4620490020FDF775F807F18003D7F8BC2019461C48FEF76DFB07F194031A4610491148FCF72CFF154A0E490E48FCF727FF07F180031A460A490B481A
:40364000FCF720FF0B4A08490848FCF71BFF00231846C037BD46B0BD887401007475010078750100887501006C740100D480FF1F9475010084740100E4710100A4750100B4
:40368000C475010070740100E0750100F875010080B586B000AF78607B68002B05DC18490220FDF729F8002325E03B1D184609F0CDFB78617B691B68DBB23B727B695B68EE
:4036C000DBB27B727B699B68DBB2BB727B695B699BB203F26C739BB27B827B691B69DBB23B747B69DB68DBB23B7307F10803184602F0AEF8012318461837BD4680BD00BFCD
:403700000C76010080B582B000AF786039603A680021786809F056FD00BF0837BD4680BD80B584B000AFF860B9607A607A68B968F86809F0D1FC00BF1037BD4680BD00BFC1
:4037400080B483B000AF0346FB71FEE780B487B000AF7860396000233B6100237B6127E07B699B007A6813441B68BB60BB68FB73BB6823F0FF03BB6014E03B695B003A687A
:4037800013441B781A46BB68134419463B695B003A6813445B780B703B6901333B61FB7B013BFB73FB7B002BE7D17B6901337B617B69262BD4D900BF1C37BD4680BC7047D5
:4037C00080B582B000AF604B1B78BB705F4B00221A805F4B58221A705E4B00221A805E4B50221A705D4B19221A805D4B19221A705C4B19221A805C4B19221A705B4B4FF471
:403800009C721A805A4B18221A705A4B4FF49C721A80594B18221A70042258495848FFF77FFF584B02221A704FF0402308221A70554BF3221A70444B03221A70534B84223C
:403840001A70534B05221A70524B7B6006E04FF4F07004F04DFE7B68013B7B607B68002B06D04B4B1B78DBB203F02003002BEED0354ABB781370484B02221A70474B484A02
:403880001278D2B21A70474B4FF4E1621A80464B41F251221A800023FB7019237B6014E0FB785B00DAB2414B1B78DBB203F00103DBB21343DBB203F00303FB704FF4F070E0
:4038C00004F016FE7B68013B7B607B68002B02D0FB78032BE4D17B68002B02D10320FFF72FFF334B4FF480721A80314B07221A70304B00221A70304B48221A702C4B0022BD
:403900001A702E4B02221A702D4B04221A702D4A2C4B1B78DBB243F03F03DBB213702A4A294B1B78DBB243F00103DBB21370274A264B1B78DBB263F07F03DBB2137000BF26
:403940000837BD4680BD00BF9846004080400040824000408440004086400040884000408A4000408C4000408E40004090400040924000409440004096400040940B004880
:4039800000410040004300400A4300400943004008430040A086010000420040A14600400B010049224200402042004025420040044000400640004008400040014000403A
:4039C0000B400040A2430040A1430040A043004080B483B000AF114B1B78FB71104AFB7903F00703DBB213700E4AFB791B09DBB213700D4B02221A700C4B01221A700C4B23
:403A000020221A700B4B40221A700B4B66221A7000BF0C37BD4680BC704700BFCF0100496E5800406F58004040580040A7430040C35A0040585B00407658004080B485B06A
:403A400000AF0346FB71FB79012202FA03F3FB73FB79052B3BD8204B1A78FB7B1340DBB2002B34D11C4B1A78FB7B1343DAB21A4B1A70FB79194A52F82330FA79174951F8E1
:403A800022201178FA791648825C0A43D2B21A70FB79144AD35CBB73BB7B134AD35C002B0ED1BB7B114A52F82330BA7B0F4951F822201178BA7B0E48825C0A43D2B21A70A3
:403AC000BB7B094AD25C0132D1B2074AD15400BF1437BD4680BC7047608CFF1F347601004C76010070760100648CFF1F547601006876010080B485B000AF0346FB71FB798B
:403B0000012202FA03F3FB73FB79052B41D8234B1A78FB7B1340DBB2002B3AD0FB7BDB43DAB21E4B1B781340DAB21C4B1A70FB791B4A52F82330FA79194951F8222011786F
:403B4000FA791848825CD243D2B20A40D2B21A70FB79154AD35CBB73BB7B144AD25C013AD1B2124AD154BB7B104AD35C002B10D1BB7B0F4A52F82330BA7B0D4951F8222065
:403B80001178BA7B0B48825CD243D2B20A40D2B21A7000BF1437BD4680BC7047608CFF1F347601004C76010070760100648CFF1F547601006876010080B483B000AF0346AF
:403BC000FB71FB79012B0ED8FB79094A52F82330FA79074951F822201178FA790548825C0A43D2B21A7000BF0C37BD4680BC7047787601008076010080B483B000AF034662
:403C0000FB71FB79012B10D8FB790A4A52F82330FA79084951F822201178FA790648825CD243D2B20A40D2B21A7000BF0C37BD4680BC7047787601008076010080B586B07A
:403C400000AF72B60023FB7513E0FA7D13465B0013445B004D4A13443B613B691A683B699B889BB219461046FFF74CFDFB7D0133FB75FB7D062BE8D90023FB751CE0FA7DC6
:403C800013469B0013445B00414A1344FB60FB681B68BB60FB685B687B60FB681A7A5B7A1B0213437B807B881A467968B868FFF737FDFB7D0133FB75FB7D002BDFD035496B
:403CC0004FF09040FFF742FD334B0A221A70334B03221A80324A324B1B78DBB243F00203DBB213702F4A2F4B1B78DBB243F00203DBB213702C4A2C4B1B78DBB243F04003D0
:403D0000DBB21370294A294B1B78DBB243F01003DBB21370082226492648FFF701FD082225492648FFF7FCFC0A2225492548FFF7F7FC082224492548FFF7F2FC08222449B8
:403D40002448FFF7EDFC082223492448FFF7E8FC234A234B1B78DBB243F00803DBB21370204B61221A70FFF72BFD1E4B81221A701D4B01221A70FFF72BFE0E220A491B488D
:403D8000FFF7CEFC00BF1837BD4680BD84760100B07601009C00004883580040485800400350014013500140A0430040C2430040600B004802510040680B0048C251004000
:403DC000700B0048F05100407C0B004812510040840B0048225100408C0B004832510040224300400048004004000840B043004080B500AF09F024F803461B680C2B00D168
:403E0000FEE7FEE780B584B000AF7860104B1A687B6813441A460F4BD31AB3F5804F09DC0B4B1B68FB600A4B1A687B681344084A136007E009F004F802460C2313604FF09F
:403E4000FF33FB60FB6818461037BD4680BD00BFF480FF1FB80B002080B586B000AF224B7B61224B3B61204B7B6135E03B691B68FB603B695B68BB603B699B683B60002308
:403E80007B600CE0FB681A68BB681A60BB680433BB60FB680433FB607B6804337B607A683B689A42EED13B69DB683B6000237B6008E0BB6800221A60BB680433BB607B68BB
:403EC00004337B607A683B689A42F2D13B6910333B617B69013B7B617B69002BC6D109F0A1F8FEF729FFFEE701000000907D010080B582B000AF184B184A1A60184A184BAA
:403F00001B6843F40073136000237B600FE07B68032B04D8134A7B6852F8233000E0124B12497A6841F822307B6801337B607B682F2BECD90E4B1B78DAB20E4B1A700E4B7D
:403F40000A4A1A60FFF77AFE0C4B00221A6000BF0837BD4680BD00BF0CED00E00004FA0514ED00E000000000F13D00000080FF1FBC760040C480FF1F08ED00E0C080FF1F85
:403F800080B584B000AF0346FB710023FB60234A224B1B78DBB243F00103DBB21370FB79002B36D01E4B1B78DBB203F00403FB721C4B1B78BB721C4B1B787B72182001F0A9
:403FC00087F81023FB6010E0184B1B78DBB203F00103002B09D0154B1B78DBB203F00103002B02D00023FB6008E0012001F042F8034603F00103DBB2002BE5D0FB7A002BD3
:4040000001D100F04BFB074ABB7A1370064A7B7A1370FB6818461037BD4680BD204200400043004080430040824300402542004080B400AF054A054B1B78DBB223F00103D2
:40404000DBB2137000BFBD4680BC70472042004080B584B000AF0346FB711D4A1C4B1B78DBB243F01003DBB213701A4A194B1B78DBB243F01003DBB21370FB79002B23D0F8
:40408000154B1B78DBB203F00403FB73134B1B78BB73134B1B787B73002001F019F800BF012000F0E7FF034603F00103DBB2002BF6D0FB7B002B01D100F0F0FA074ABB7BB0
:4040C0001370074A7B7B137000BF1037BD4680BDA0430040B043004000430040804300408243004080B400AF094A094B1B78DBB223F01003DBB21370064A064B1B78DBB2AB
:4041000023F01003DBB2137000BFBD4680BC7047A0430040B043004080B483B000AF0023FB71124B1B78DBB203F00703002B06D10F4B1B78DBB203F00103002B0DD10B4B4D
:404140001B78DBB203F00703012B08D1094B1B78DBB203F00103002B01D00123FB71FB7918460C37BD4680BC704700BF93430040A5430040B543004080B584B000AF034685
:40418000FB71FFF7C9FF0346FB73FB7B012B07D1314A314B1B78DBB223F00203DBB21370FB79082B4FD801A252F823F0D1410000DD410000E9410000F541000001420000C4
:4041C0000D420000194200004742000025420000224B234A1278D2B21A7039E01F4B214A1278D2B21A7033E01C4B1F4A1278D2B21A702DE0194B1D4A1278D2B21A7027E03B
:40420000164B1B4A1278D2B21A7021E0134B194A1278D2B21A701BE0104B174A1278D2B21A7015E00D4B154A1278D2B21A70FB7B012B0CD1084A084B1B78DBB243F00203B7
:40424000DBB2137003E0002000F0B0FA00E000BF00BF1037BD4680BD09600040A146004008010049090100490A0100490B010049890100490C0100490D0100490F010049B5
:4042800080B584B000AF0346FB71684B1B78DBB203F00703FB73FB79082B01D0FB7900E00323BB73FB7B062B25D801A252F823F0CD420000D3420000D9420000DF420000CF
:4042C000E5420000EB420000F14200000223FB7315E00123FB7312E00323FB730FE00023FB730CE00423FB7309E00523FB7306E00623FB7303E0002000F058FA00BFBA7B61
:40430000FB7B9A4203D3FB791846FFF735FFFB79082B72D801A252F823F000BF414300005943000071430000834300009B430000B3430000CB430000FB430000E3430000C9
:404340003A4A3A4B1B78DBB223F04703DBB243F00303DBB2137054E0344A344B1B78DBB223F04703DBB243F00103DBB2137048E02E4A2E4B1B78DBB223F04703DBB21370B9
:404380003FE02A4A294B1B78DBB223F04703DBB243F00203DBB2137033E0244A234B1B78DBB223F04703DBB243F00403DBB2137027E01E4A1D4B1B78DBB223F04703DBB280
:4043C00043F00503DBB213701BE0184A174B1B78DBB223F04703DBB243F00603DBB213700FE0124A114B1B78DBB223F04703DBB243F04203DBB2137003E0002000F0D6F962
:4044000000BFFB79082B02D100F058F801E000F065F8BA7BFB7B9A4203D2FB791846FFF7ABFE00BF1037BD4680BD00BF0042004080B582B000AF0346FB71FB79012B17D02F
:40444000022B02D0002B26D02EE04FF040224FF040231B78DBB223F04003DBB21370164A154B1B78DBB243F02003DBB213701FE04FF040224FF040231B78DBB243F0400327
:40448000DBB213700C4A0C4B1B78DBB243F02003DBB213700CE0084A074B1B78DBB223F02003DBB2137003E0002000F07FF900BF00BF0837BD4680BD0042004080B400AFF6
:4044C000054A054B1B78DBB243F01003DBB2137000BFBD4680BC70470042004080B400AF054A054B1B78DBB223F01003DBB2137000BFBD4680BC70470042004080B483B0FA
:4045000000AF0346FB710949084B1B78DBB223F00303DAB2FB7903F00303DBB21343DBB20B7000BF0C37BD4680BC70470540004080B483B000AF0346FB71044AFB791370C8
:4045400000BF0C37BD4680BC704700BF0440004080B483B000AF0346FB80154A144B1B78DBB223F00F03DBB21370124B00221A70114A114B1B78DBB263F07F03DBB213704E
:404580000E4BFA88D2B21A700D4AFB881B0A9BB2DBB213700B4A0B4B1B78DBB243F00103DBB2137000BF0C37BD4680BC704700BF14400040104000400840004002400040BF
:4045C000034000400140004080B584B000AF0346FB8003F095FF0346FB73244B1B78DBB29BB21B02BB81224B1B78DBB29AB2BB891343BB81FB88002B02D0BB89002B29D1D0
:404600001C4B1B78FB72FB7A062B02D80720FFF78FFFFB88002B0CD1174A174B1B78DBB243F04003DBB21370FB881846FFF790FF0BE0FB881846FFF78BFF0F4A0E4B1B78FD
:40464000DBB223F04003DBB21370FB7A1846FFF76FFF03E0FB881846FFF77AFFFB7B184603F052FF00BF1037BD4680BD0740004006400040044000400840004080B400AF83
:40468000054A054B1B78DBB243F00403DBB2137000BFBD4680BC70470043004080B400AF054A054B1B78DBB223F00403DBB2137000BFBD4680BC70470043004080B586B04A
:4046C00000AF0346FB7100237B61FB793B742B4A2A4B1B78DBB243F00103DBB21370FB79002B45D0264B1B78FB74264B1B78BB74254B1B787B74182000F0EAFC10237B617A
:4047000025E01E4B1B780423FB730EE000BF012000F0B0FC034603F00103DBB2002BF6D0FB7BDBB2013BDBB2FB73FB7BDBB2002BECD1124B1B78DBB25BB2002B02DB0023E1
:404740007B6108E03B7CDBB2013BDBB23B743B7CDBB2002BD5D1FB7C03F00403002B01D1FFF79CFF074ABB7C1370074A7B7C13707B6918461837BD4680BD00BF10420040AD
:4047800000430040804300408243004080B400AF054A054B1B78DBB223F00103DBB2137000BFBD4680BC70471042004080B483B000AF0346FB7101BE00BF0C37BD4680BC93
:4047C000704700BF80B582B000AF786008E00C4B1B68184603F08CFE7B68A3F500437B607B68B3F5004FF2D8064B1B687A6802FB03F3184603F07CFE00BF0837BD4680BDC9
:404800000481FF1FFC80FF1F80B582B000AF0346FB80FB88054A127802FB03F3184603F067FE00BF0837BD4680BD00BF0081FF1F80B584B000AF03463960FB710F4B1B687D
:40484000FB60FB791F2B02D90020FFF7AFFFFB7903F01F0310339B00FA6813441B68BB60FB7903F01F0310339B00FA6813443A681A60BB6818461037BD4680BD08ED00E0A9
:4048800080B582B000AF03460A46FB711346BB71BB79072B02D90020FFF788FFFB791F2B02D90020FFF782FFFB7903F01F0303F1604303F56443BA795201D2B21A7000BF38
:4048C0000837BD4680BD00BF80B483B000AF7860264B1B78DBB21A467B681A60244B1B78DBB21B027A6812681A437B681A60214B1B78DBB21B047A6812681A437B681A60BB
:404900001D4B1B78DBB21B067A6812681A437B681A607B680433194A1278D2B21A60184B1B78DBB21A027B6804337968043109680A431A60134B1B78DBB21A047B680433F6
:404940007968043109680A431A600F4B1B78DBB21A067B6804337968043109680A431A6000BF0C37BD4680BC704700BF0301004904010049EC46004002010049010100498C
:4049800000010049050100490601004980B500AF924B1B78DBB203F00F03DAB2904B1A70904B1B78DAB28E4B5A708C4A8B4B1B78DBB223F00F03DBB213708A4B1B78894B5D
:4049C00000221A70884B1B78DBB223F03F03DAB2834B5A71372003F09BFD844B1B78DBB203F00703DAB27E4BDA70804B1B78DBB203F04003DAB27A4B1A717C4B1B78DBB24D
:404A000003F01003002B03D0754B01225A7202E0734B00225A72764B1B78DBB203F00303DAB26F4B9A706E4B9B78012B1CD14FF040231B78DBB203F00303012B08D0012B3B
:404A400002D3022B08D00BE00020FFF757FD0BE00220FFF753FD07E00320FFF74FFD03E00020FFF7A3FE00BF624B1B78DBB203F00103002B05D05A4B01229A73FFF7D8FAAE
:404A800002E0574B00229A730420FFF7F9FB5A4B1B78DBB203F01003DBB2002B03D0504B01229A7108E04E4B00229A710020FFF7CFFA0620FFF7A8FE4C4B1B78DBB203F01D
:404AC0002003002B10D04FF040231B78DBB203F04003002B01D1022200E00122404BDA710020FFF7A5FC02E03D4B0022DA714FF040231B78DBB203F03003DAB2384B1A7285
:404B0000374B1B7A002B09D04FF040224FF040231B78DBB223F03003DBB21370334B1B78DBB203F01003002B01D0FFF7D7FC334B1B78DAB22A4B9A72294B9B7A002B02D094
:404B40000020FFF7F5FC264B9B78002B02D00020FFF7D4FC2A4B1B78DBB29BB21B029AB21F4B9A81274B1B78D9B21D4B9A898BB213439AB21A4B9A81194B9B89002B02D0F8
:404B80000020FFF721FD194B1B78DBB203F007031D4AD35C184603F0BBFC1C4B1B78DBB203F00103002B05D00D4B0122DA73FFF7EDFD02E00A4B0022DA73154B1B78DBB256
:404BC00003F00403002B03D0054B01221A7402E0034B00221A7400BF80BD00BFA14300409C8CFF1FA243004000480040004200400540004020420040A043004004400040BA
:404C00000740004006400040BC760100104200400B40004080B586B000AF10233B61AB4A3B1D106818609188927999809A71A84B1B7C012B17D1A74B1B78DBB203F00703FC
:404C4000A54AD35C1A4613469B0013441A01D31A184603F04DFCA14AA04B1B78DBB243F00403DBB213709A4BDB7B012B24D10020FFF724FD9A4B1B780523FB8219E0954B00
:404C80001B78DBB203F00703934AD35C1A46C82303FB02F3184603F02BFC914B1B78DBB25BB2002B02DB00233B6105E0FB8A013BFB82FB8A002BE2D1372003F029FC844B81
:404CC0009B78022B03D0824B9B78032B10D1854B1B78DAB27E4B9B7A9A4204D07C4B9B7A1846FFF725FC7A4B9B781846FFF706FC774B1B7903F04003002B0CD0744BDB7811
:404D000007F11802134413F8143C032B03D10820FFF7B6FA20E06E4BDB7807F11802134413F8143C1846FFF7ABFA694B1B7903F04003002B08D0674A664B1B78DBB243F0E0
:404D40004003DBB2137007E0624A624B1B78DBB223F04003DBB213705D4B9B79012B0AD1614B1B78DBB203F01003DBB2002B02D10020FFF76DF9564BDB791846FFF758FBE2
:404D8000534B5B7A012B01D1FFF798FB504B1B7A1A464FF040231B78DBB203F030039A4210D04FF040214FF040231B78DBB25BB223F030035AB2464B1B7A5BB213435BB26E
:404DC000DBB20B70424B9B7B012B26D110233B610020FFF7D5F85020FFF716FD434B1B78AB23FB8216E00120FFF70EFD3F4B1B78DBB203F00103002B09D03C4B1B78DBB2EA
:404E000003F00103002B02D000233B6105E0FB8A013BFB82FB8A002BE5D12D4B9B78002B03D02B4B9B78012B10D12E4B1B78DAB2274B9B7A9A4204D0254B9B7A1846FFF76F
:404E400077FB234B9B781846FFF758FB204B9B79002B09D1244B1B78DBB203F01003DBB2002B01D0FFF73EF9214B1B78DBB29BB21B02FB811F4B1B78DBB29AB2FB891343A7
:404E8000FB81134B9B89FA899A4204D0104B9B891846FFF799FB1849174B1B78DBB25BB203F03F035AB20A4B5B795BB213435BB2DBB20B70114B064A12781A70104B044A1F
:404EC00052781A7000BF1837BD4680BDC47601009C8CFF1F00420040BC7601000B4000401042004004400040A043004025420040074000400640004000480040A1430040B6
:404F0000A243004080B584B000AF03460A46FB711346BB8003F0F4FA0346FB734E4B1B78DBB203F00803002B0BD14C4A4B4B1B78DBB203F01F03DBB21370FB79002B08D05D
:404F400004E0FB7B184603F0DFFA81E00020FFF72DFC00F007F9424B1B78DAB2414B1A713F4ABB881B099BB2DBB213703E4B1B78DAB23C4B5A713C4ABB88DBB203F00F03B8
:404F8000DBB21370394B1B78DAB2364B9A71374ABB881B0B9BB2DBB203F00103DBB21370334B1B78DBB203F00703002B04D12D4B012283F82E2014E02A4B002283F82E2094
:404FC0002B4B1B78DBB203F00703DAB2254B83F82D20274A264B1B78DBB223F00703DBB213701D4A1C4B1B78DBB223F00703DBB243F00303DBB21370174B1B7800BF00BFD7
:4050000030BF184B93F82E30012B0FD01849184B1B78DBB25BB223F007035AB2114B93F82D305BB213435BB2DBB20B7000F0DAF90B4B0C4A12791A700B4B0A4A52791A70D1
:405040000A4B084A92791A70FB7B184603F05CFA1037BD4680BD00BF9343004083460040984300406C8CFF1F994300409A4300400042004080B584B000AF0346FB7103F0C6
:405080003FFA0346FB73104B1B78DAB20F4B1B781343DAB20D4B1A700C4B1B7803F00703BB73FB79DB43DAB2084B1B781340DAB2064B1A70FB7B184603F026FABB7B184687
:4050C0001037BD4680BD00BF90430040AE8CFF1F80B582B000AF0346FB71204A1F4B1B78DBB223F00203DBB21370FFF7C7FA1B4B1B78DBB203F00103002B19D0184B1B78DA
:40510000DBB2FA799A4224D0144A144B1B78DBB223F00103DBB21370114AFB7913700F4A0E4B1B78DBB243F00103DBB2137010E00B4B1B78DBB2FA799A4202D0084AFB79E3
:405140001370064A054B1B78DBB243F00103DBB2137000BF0837BD4680BD00BF824300408043004080B400AF804B1B78DAB2804B9A72804B1B78DAB27D4BDA727E4B1B78A2
:40518000DAB27B4B1A737D4B1B78DAB2784B5A737B4B1B78DAB2764B9A737A4B1B78DAB2734BDA73784B1B78DAB2714B1A74774B1B78DAB26E4B5A74754B1B78DAB26C4BCD
:4051C0009A74744B1B78DAB2694BDA74724B1B78DAB2674B1A75714B1B78DAB2644B5A756F4B1B78DAB2624B9A756E4B1B78DAB25F4BDA756C4B1B78DAB25D4B1A766B4B21
:405200001B78DAB25A4B5A76694B1B78DAB2584B9A76684B1B78DAB2554BDA76664B1B78DAB2534B1A77654B1B78DAB2504B5A77634B1B78DAB24E4B9A77624B1B78DAB215
:405240004B4BDA77604B1B78DAB2494B83F820205E4B1B78DAB2464B83F821205C4B1B78DAB2434B83F822205A4B1B78DAB2404B83F82320584B1B78DAB23D4B83F82420F2
:40528000564B1B78DAB23A4B83F82520374B00221A70384B00221A70374B00221A70374B00221A70364B00221A70364B00221A70354B00221A70354B00221A70344B0022DD
:4052C0001A70344B00221A70334B00221A70334B00221A70324B00221A70324B00221A70314B00221A70314B00221A70304B00221A70304B00221A702F4B00221A702F4B15
:4053000000221A702E4B00221A702E4B00221A702D4B00221A702D4B00221A702C4B00221A702C4B00221A702B4B00221A702B4B00221A702A4B1B78DBB203F00803002BE7
:405340000CD00B4B012283F82F20254A244B1B78DBB223F00803DBB2137003E0044B002283F82F2000BFBD4680BC7047005A00406C8CFF1F025A0040035A0040045A004088
:40538000065A0040085A00400A5A0040105A0040125A0040135A0040145A0040165A0040185A00401A5A0040205A0040225A0040235A0040245A0040265A0040285A0040CD
:4053C0002A5A0040305A0040325A0040335A0040345A0040365A0040385A00403A5A00402243004080B400AF434B444A927A1A70434B424AD27A1A70424B404A127B1A70EA
:40540000414B3E4A527B1A70404B3C4A927B1A703F4B3A4AD27B1A703E4B384A127C1A703D4B364A527C1A703C4B344A927C1A703B4B324AD27C1A703A4B304A127D1A7062
:40544000394B2E4A527D1A70384B2C4A927D1A70374B2A4AD27D1A70364B284A127E1A70354B264A527E1A70344B244A927E1A70334B224AD27E1A70324B204A127F1A70D2
:40548000314B1E4A527F1A70304B1C4A927F1A702F4B1A4AD27F1A702E4B184A92F820201A702D4B154A92F821201A702B4B134A92F822201A702A4B104A92F823201A70CE
:4054C000284B0E4A92F824201A70274B0B4A92F825201A70094B93F82F30012B07D1234A224B1B78DBB243F00803DBB2137000BFBD4680BC704700BF005A00406C8CFF1FBB
:40550000025A0040035A0040045A0040065A0040085A00400A5A0040105A0040125A0040135A0040145A0040165A0040185A00401A5A0040205A0040225A0040235A0040B4
:40554000245A0040265A0040285A00402A5A0040305A0040325A0040335A0040345A0040365A0040385A00403A5A00402243004080B582B000AF786000F03CF8786800F0F9
:4055800009F8072000F018F800F028F800BF0837BD4680BD80B485B000AF7860054B1B68FB60FB684C337A681A6000BF1437BD4680BC704708ED00E080B483B000AF0346E5
:4055C000FB71054AFB795B01DBB2137000BF0C37BD4680BC704700BF03E400E080B400AF034B08221A6000BFBD4680BC704700BF00E100E080B400AF034B08221A6000BFF4
:40560000BD4680BC704700BF80E100E080B500AF064B1B78002B04D100F00AF8034B01221A7000F00FF800BF80BD00BFAF8CFF1F80B500AF0A2000F05BF800F03FF800BF7D
:4056400080BD00BF80B582B000AF1A4B1B78DBB203F00203002B18D102F052FF0346FB71144A144B1B78DBB243F00203DBB21370114A114B1B78DBB243F00403DBB2137049
:40568000FB79184602F040FF0FE002F039FF0346FB71094A084B1B78DBB243F00403DBB21370FB79184602F02FFF00BF0837BD4680BD00BF004300408243004080B582B02B
:4056C00000AF02F01DFF0346FB71084A074B1B78DBB243F00803DBB21370FB79184602F013FF00BF0837BD4680BD00BF8243004080B483B000AF0346FB710D4B1B78DBB20B
:4057000003F00403002B0DD10A490A4B1B78DBB223F00F03DAB2FB7903F00F03DBB21343DBB20B7000BF0C37BD4680BC704700BF824300408143004080B500AF0220FFF7CD
:4057400099FC0346184680BD80B485B000AF0346FB710A4B1B78DBB223F00103FB730749FB7903F00103DAB2FB7B1343DBB20B7000BF1437BD4680BC704700BF205100405E
:4057800080B500AF064B1B78002B04D100F022F8034B01221A7000F033F800BF80BD00BFB08CFF1F80B400AF034B04221A6000BFBD4680BC704700BF00E100E080B400AF03
:4057C000034B04221A6000BFBD4680BC704700BF80E100E080B500AF00F0B8F8064B04221A6006490220FFF723F807210220FFF747F800BF80BD00BF80E100E0815D0000B6
:4058000080B582B000AF02F07BFE0346FB71094A084B1B78DBB243F03003DBB21370FB79184602F071FE044B04221A6000BF0837BD4680BD8243004000E100E080B400AFED
:40584000024B1846BD4680BC704700BF0881FF1F80B582B000AF7860FFF7B0FF7B681B78DAB2104B1A707B685B78DAB20D4B5A707B689B78DAB20B4B9A707B681B79DAB25E
:40588000084B1A717B681B7ADAB2064B1A727B685B899AB2034B5A81FFF784FF00BF0837BD4680BD0881FF1F80B483B000AF0346FB71044AFB79137000BF0C37BD4680BC3E
:4058C000704700BFB38CFF1F90B482B000AF0346FB710B46BB711346BB80BB79022B02D8BB88013BBB80BA88BB889B089BB21846BB881349A1FB03135B099BB2C31AB98802
:405900000F48A0FB0101C90989B20B441344BA79013A0C498A5C1146FA790A441A440A4BA2FB0334111B49080B1999080B46DB005B1AD11ACBB218460837BD4690BC70478A
:405940001F85EB51D87601002549922480B582B000AFA04B0022DA809E4B1B79D9B29D4BDB889AB28BB213449AB29A4BDA80994B5B899BB2984AA2FB0312D2094FF4C87199
:4059800001FB02F29B1A9BB2002B15D0914B5B899BB203F003039BB2002B16D18D4B5B899BB28D4AA2FB03125209642101FB02F29B1A9BB2002B08D0884B1B78DBB243F0F3
:4059C0000203DAB2854B1A7007E0844B1B78DBB223F00203DAB2814B1A700023FB710DE07C4BDB889AB2FB797D49CB5C9BB213449AB2784BDA80FB790133FB71FA79754B45
:405A00001B7ADBB2013B9A42EAD3744B1B78DBB203F00203002B0BD06E4B1B7ADBB2022B06D96C4BDB889BB201339AB2694BDA80684B1B79D8B2674B1B7AD9B2654B5B897F
:405A40009BB21A46FFF740FF03460133DAB2614BDA70604BDB78DBB2002B05D05D4BDB78DAB25C4BDA7006E05A4BDB78DBB20733DAB2584BDA70574B9B78DBB20B2B08D8CC
:405A8000564B1B78DBB223F00403DAB2534B1A7007E0524B1B78DBB243F00403DAB24F4B1A70504B1B78DBB203F00103002B18D04D4B1B78DAB2474B1B78DBB29A4208D1E6
:405AC0004A4B1B78DBB243F00103DAB2474B1A7007E0464B1B78DBB223F00103DAB2434B1A70404B1B78DBB203F00203002B18D03D4B5B78DAB2374B5B78DBB29A4208D18B
:405B00003A4B1B78DBB243F00203DAB2374B1A7007E0364B1B78DBB223F00203DAB2334B1A70304B1B78DBB203F00403002B18D02D4B9B78DAB2274B9B78DBB29A4208D136
:405B40002A4B1B78DBB243F00403DAB2274B1A7007E0264B1B78DBB223F00403DAB2234B1A70204B1B78DBB203F00803002B18D01D4BDB78DAB2174BDB78DBB29A4208D1DE
:405B80001A4B1B78DBB243F00803DAB2174B1A7007E0164B1B78DBB223F00803DAB2134B1A70104B1B78DBB203F02003002B27D00D4BDB889AB2074BDB889BB29A4217D130
:405BC0000A4B1B78DBB243F02003DAB2074B1A7016E000BF0881FF1F1F85EB51B48CFF1FCC760100B18CFF1F1481FF1FB28CFF1F424B1B78DBB223F02003DAB23F4B1A70A8
:405C00003F4B1B78DBB203F01003002B18D03D4B1B79DAB23C4B1B79DBB29A4208D1374B1B78DBB243F01003DAB2344B1A7007E0324B1B78DBB223F01003DAB22F4B1A70E5
:405C40002F4B1B78DBB203F04003002B18D02D4B1B7ADAB22C4B1B7ADBB29A4208D1274B1B78DBB243F04003DAB2244B1A7007E0224B1B78DBB223F04003DAB21F4B1A7083
:405C80001F4B1B78DBB25BB2002B18DA1D4B5B899AB21D4B5B899BB29A4208D1174B1B78DBB263F07F03DAB2144B1A7007E0134B1B78DBB203F07F03DAB2104B1A70104BD8
:405CC0001B78BB71BB79002B13D00C4B1B78DAB2BB791340DBB2BA799A420AD10B4B1B78DBB243F00803DAB2084B1A70034B00221A7000BF0837BD4680BD00BFB28CFF1FBF
:405D0000B18CFF1F1481FF1F0881FF1FB48CFF1F80B500AF0020FCF7F9FE00BF80BD00BF80B500AF0120FCF7F1FE00BF80BD00BF80B500AF0220FCF7E9FE00BF80BD00BF6A
:405D400080B500AF0320FCF7E1FE00BF80BD00BF80B500AF0420FCF7D9FE00BF80BD00BF80B500AF0520FCF7D1FE00BF80BD00BF80B500AF0620FCF7C9FE00BF80BD00BFFD
:405D800080B582B000AF0420FFF774F99E4B1B78DBB20133DAB29C4B1A709B4B1B78DBB23B2B40F2A682984B5B78DBB20133DAB2954B5A70944B00221A70934B5B78DBB2D0
:405DC0003B2B40F24682904B9B78DBB20133DAB28D4B9A708C4B00225A708B4B9B78DBB2172B40F2DD81884B1B79DBB20133DAB2854B1A71844B00229A70834BDB889BB293
:405E000001339AB2804BDA807F4BDB78DBB20133DAB27D4BDA707C4BDB78DBB2072B02D9794B0122DA70794B1B78DBB203F00203002B11D0744B1B7ADBB2022B0CD1724BCC
:405E40001B79DBB21946704B1B7ADBB2013B704AD35C013399422AD86C4B1B78DBB203F00203002B0FD0684B1B7ADBB2022B0AD0654B1B79DAB2644B1B7ADBB2013B644950
:405E8000CB5C9A4213D8614B1B78DBB203F00203002B40F0F4805C4B1B79DAB25A4B1B7ADBB2013B5A49CB5C9A4240F2E880564B1B7ADBB20133DAB2534B1A72524B0122EA
:405EC0001A71514B1B7ADBB20C2B40F285804E4B5B899BB201339AB24B4B5A814A4B01221A72494B0122DA80474B5B899BB2494AA2FB0312D2094FF4C87101FB02F29B1AD7
:405F00009BB2002B15D0404B5B899BB203F003039BB2002B16D13C4B5B899BB23D4AA2FB03125209642101FB02F29B1A9BB2002B08D0364B1B78DBB243F00203DAB2334B47
:405F40001A7007E0314B1B78DBB223F00203DAB22E4B1A70304B1B78DBB25BB2002B18DA2E4B5B899AB2284B5B899BB29A4208D12B4B1B78DBB263F07F03DAB2284B1A70B2
:405F800007E0274B1B78DBB203F07F03DAB2244B1A70214B1B78FB71FB79002B13D0204B1B78DAB2FB791340DBB2FA799A420AD1164B1B78DBB243F00803DAB2134B1A7046
:405FC000174B00221A70174B1B78DBB203F04003002B01D0FFF7CCFE0F4B1B78DBB203F04003002B28D00D4B1B7ADAB2064B1B7ADBB29A4218D10A4B1B78DBB243F04003B0
:40600000DAB2074B1A7017E00881FF1FB48CFF1FCC7601001F85EB51B18CFF1F1481FF1FB28CFF1FB38CFF1F964B1B78DBB223F04003DAB2934B1A70934B1B78FB71FB7976
:40604000002B13D08F4B1B78DAB2FB791340DBB2FA799A420AD18D4B1B78DBB243F00803DAB28A4B1A70874B00221A70884B1B78DBB203F02003002B01D0FFF771FE824BC5
:406080001B78DBB203F00803002B18D0814BDB78DAB2814BDB78DBB29A4208D1794B1B78DBB243F00803DAB2764B1A7007E0754B1B78DBB223F00803DAB2724B1A70724B35
:4060C0001B78DBB203F02003002B18D0714BDB889AB2714BDB889BB29A4208D1694B1B78DBB243F02003DAB2664B1A7007E0654B1B78DBB223F02003DAB2624B1A70624B7D
:406100001B78DBB203F01003002B18D0614B1B79DAB2614B1B79DBB29A4208D1594B1B78DBB243F01003DAB2564B1A7007E0554B1B78DBB223F01003DAB2524B1A70524BFA
:406140001B78FB71FB79002B13D04E4B1B78DAB2FB791340DBB2FA799A420AD14B4B1B78DBB243F00803DAB2484B1A70454B00221A70474B1B78DBB203F00803002B01D0E3
:40618000FFF7DEFD444BDB78DBB2012B08D1404B1B78DBB203F01003002B01D0FFF7D8FD3D4B9B78DBB20B2B08D8384B1B78DBB223F00403DAB2354B1A7007E0334B1B7899
:4061C000DBB243F00403DAB2304B1A702E4B1B78DBB203F00403002B18D02E4B9B78DAB22D4B9B78DBB29A4208D1264B1B78DBB243F00403DAB2234B1A7007E0214B1B7887
:40620000DBB223F00403DAB21E4B1A701E4B1B78FB71FB79002B13D01A4B1B78DAB2FB791340DBB2FA799A420AD1184B1B78DBB243F00803DAB2154B1A70124B00221A700C
:40624000134B1B78DBB203F00403002B01D0FFF76FFD0D4B1B78DBB203F00203002B25D00C4B5B78DAB20C4B5B78DBB29A4215D1044B1B78DBB243F00203DAB2014B1A7080
:4062800014E000BFB28CFF1FB18CFF1FB48CFF1FB38CFF1F1481FF1F0881FF1F384B1B78DBB223F00203DAB2354B1A70354B1B78FB71FB79002B13D0314B1B78DAB2FB79FE
:4062C0001340DBB2FA799A420AD12F4B1B78DBB243F00803DAB22C4B1A70294B00221A702A4B1B78DBB203F00203002B01D0FFF717FD244B1B78DBB203F00103002B18D0E3
:40630000234B1B78DAB2234B1B78DBB29A4208D11B4B1B78DBB243F00103DAB2184B1A7007E0174B1B78DBB223F00103DAB2144B1A70144B1B78FB71FB79002B13D0104B27
:406340001B78DAB2FB791340DBB2FA799A420AD10D4B1B78DBB243F00803DAB20A4B1A70074B00221A70094B1B78DBB203F00103002B01D0FFF7CCFC00BF0837BD4680BDFE
:40638000B28CFF1FB18CFF1FB48CFF1FB38CFF1F1481FF1F0881FF1F80B485B000AF0346FB710B4B1B78DBB223F00403FB730849FB799B00DBB203F00403DAB2FB7B134307
:4063C000DBB20B7000BF1437BD4680BC704700BF0051004080B485B000AF0346FB710B4B1B78DBB223F00803FB730849FB79DB00DBB203F00803DAB2FB7B1343DBB20B70EB
:4064000000BF1437BD4680BC704700BF0051004080B500AF064B1B78002B04D100F00AF8034B01221A7000F015F800BF80BD00BFB58CFF1F80B400AF044B72221A70044BA1
:4064400020221A7000BFBD4680BC7047876400408765004080B582B000AF02F051F80346FB710C4A0B4B1B78DBB243F02003DBB21370094A084B1B78DBB243F01003DBB273
:406480001370FB79184602F03FF800BF0837BD4680BD00BF976400409765004080B582B000AF02F02DF80346FB710C4A0B4B1B78DBB223F02003DBB21370094A084B1B78BD
:4064C000DBB223F01003DBB21370FB79184602F01BF800BF0837BD4680BD00BF976400409765004080B483B000AF0023FB710C4B1B78BB71BB7903F02003002B09D0094B31
:406500001B78FB71BB7903F01E03002B01D00023FB71FB7918460C37BD4680BC704700BF676500404464004080B582B000AF01F0E7FF0346FB710C4A0B4B1B78DBB243F02A
:406540000103DBB21370084A074B1B78DBB223F00103DBB21370FB79184601F0D5FF00BF0837BD4680BD00BF9464004080B582B000AF786000F048F8786800F015F807202E
:4065800000F024F800F034F800BF0837BD4680BD80B500AF00F038F8024800F005F800BF80BD00BFF13D000080B485B000AF7860054B1B68FB60FB6844337A681A6000BF3E
:4065C0001437BD4680BC704708ED00E080B483B000AF0346FB71054AFB795B01DBB2137000BF0C37BD4680BC704700BF01E400E080B400AF034B02221A6000BFBD4680BC42
:40660000704700BF00E100E080B400AF034B02221A6000BFBD4680BC704700BF80E100E080B485B000AF0346FB710B4B1B78DBB223F01003FB730849FB791B01DBB203F067
:406640001003DAB2FB7B1343DBB20B7000BF1437BD4680BC704700BFC051004080B500AF00F032F800BF80BD80B500AF00F046F800BF80BD80B485B000AF0346FB710B4B6C
:406680001B78DBB223F02003FB730849FB795B01DBB203F02003DAB2FB7B1343DBB20B7000BF1437BD4680BC704700BF2051004080B400AF00BFBD4680BC704780B400AF07
:4066C00000BFBD4680BC704780B500AF094B1B78DBB203F01003002B14BF01230023DBB21A46054B1A7001F0CFFFFFF7E1FF00BF80BD00BF946400402081FF1F80B500AF50
:40670000FFF7DCFF02F044F8034B1B78002B01D001F076FF00BF80BD2081FF1F80B485B000AF0346FB710A4B1B78DBB223F00103FB730749FB7903F00103DAB2FB7B134382
:40674000DBB20B7000BF1437BD4680BC704700BF1051004080B485B000AF0346FB710B4B1B78DBB223F00403FB730849FB799B00DBB203F00403DAB2FB7B1343DBB20B709F
:4067800000BF1437BD4680BC704700BFC051004080B485B000AF0346FB710B4B1B78DBB223F02003FB730849FB795B01DBB203F02003DAB2FB7B1343DBB20B7000BF1437B4
:4067C000BD4680BC704700BF3051004080B485B000AF0346FB710B4B1B78DBB223F01003FB730849FB791B01DBB203F01003DAB2FB7B1343DBB20B7000BF1437BD4680BC2F
:40680000704700BF2051004080B582B002AF414B01221A70404B00221A70102000F066FF102001F049F807211D20FEF729F83B4B04221A703A4B00221A703A4B00221A70AF
:40684000394A394B1B78DBB243F01803DBB21370364B00221A70364B00221A70354B00221A70354B0A221A70344B00221A70344B00221A70334B5B221A70334B5E221A7074
:40688000324B00221A70324B14221A700123009310234FF4004247F60271032000F0A6FC0223009310234FF4004249F2DA01002000F09CFC0323009310234FF4004249F2C4
:4068C000DA01002000F092FC0423009310234FF4004249F2DA01002000F088FC1D4A0D4B1B78DBB2013B1C499B000B449B7813701A4A084B1B78DBB2013B174931F8233014
:406900001380044B1B78DBB2184600F067FA00BFBD4680BD2281FF1FB88CFF1F96580040975800409E580040075B004093580040885B0040895B00408058004081580040AC
:406940008358004088580040895800408D580040014E00400E4E0040C08CFF1F0C4E004080B582B000AF01F0CBFD0346FB71444B1B78BB71434A434B1B78DBB243F0010323
:40698000DBB213703F4A3F4B1B78DBB243F01003DBB213703C4A3C4B1B78DBB243F00103DBB21370384A384B1B78DBB243F01003DBB21370354A354B1B78DBB243F00203F8
:4069C000DBB21370324A324B1B78DBB243F00203DBB213702F4A2F4B1B78DBB243F00303DBB213700320FDF70FFF284A274B1B78DBB223F00203DBB21370254A244B1B7808
:406A0000DBB223F00203DBB21370234A224B1B78DBB243F00603DBB21370204B7A221A701F4A1F4B1B78DBB243F00103DBB213701C4A1C4B1B78DBB243F00103DBB213705C
:406A4000194A194B1B78DBB243F00203DBB21370164A164B1B78DBB243F00203DBB21370134B4FF000521A60124B4FF000521A60FB79184601F048FD00BF0837BD4680BDA7
:406A80002281FF1FAA430040BA430040F8460040F9460040915800407758004082580040A1430040B1430040A2430040B243004080E200E000E100E080B500AF084B1B78DD
:406AC000002B09D1074B1B78DBB2002B01D1FFF79BFE034B01221A70FFF742FF00BF80BDBA8CFF1FBB8CFF1F80B582B000AF01F007FD0346FB714D4A4C4B1B78DBB223F07B
:406B00000103DBB213704A4A494B1B78DBB243F00403DBB21370474A464B1B78DBB243F00203DBB21370444A434B1B78DBB243F00203DBB21370414A404B1B78DBB223F058
:406B40000303DBB213703E4A3D4B1B78DBB223F00803DBB213700320FDF756FE354A354B1B78DBB223F00203DBB21370324A324B1B78DBB223F00203DBB21370314A314BB7
:406B80001B78DBB223F01003DBB213702D4A2D4B1B78DBB223F00103DBB213702A4A2A4B1B78DBB223F00103DBB21370264A264B1B78DBB223F01003DBB21370234A234B07
:406BC0001B78DBB223F00603DBB21370204A204B1B78DBB223F00103DBB213701D4A1D4B1B78DBB223F00103DBB213701A4A1A4B1B78DBB223F00803DBB21370174A174B3D
:406C00001B78DBB223F00203DBB21370144A144B1B78DBB223F00203DBB21370FB79184601F072FC00BF0837BD4680BD004E0040014E0040F8460040F94600409158004055
:406C400092580040AA430040BA43004077580040A1430040B143004082580040A2430040B243004080B400AF054A054B1B78DBB243F00103DBB2137000BFBD4680BC704707
:406C8000004E004080B400AF054A054B1B78DBB223F00103DBB2137000BFBD4680BC7047004E004080B485B000AF0346FB710D4B1B78DBB2002B03D00B4B1B78FB7305E0BB
:406CC0000A4B1B78DBB203F00103FB73FB7B012B02D0FB79002BEAD0FB7B18461437BD4680BC7047B98CFF1FB88CFF1F014E004080B483B000AF224B1B78DBB203F00303E8
:406D0000FB70FB78012B0BD81E4B1B889BB27B607B681B041C4A128892B213437B6020E0FB78022B12D1174B1B889BB27B607B681B04154A1278D2B213437B60134B1B787A
:406D4000DBB21B027A6813437B600AE00E4B1B889BB27B600B4B1B889BB21B047A6813437B600B4B1B78DBB2002B02D0094B00221A707B6818460C37BD4680BC704700BF24
:406D8000144E0040124E0040104E0040114E0040B98CFF1FB88CFF1F90B585B000AF78600C4B1B687A68D31A7B60786805F026FE0446094B1B68184605F020FE03461946D7
:406DC000204605F023FF0346FB60FB6818461437BD4690BDBC8CFF1F240B002080B582B000AF0346FB71C34B00221A70FB79012B66D1C14B30221A70C04B04221A70C04B57
:406E000006221A70BF4B00221A70BF4B00221A70BE4B3F221A70BE4B00221A70BD4B00221A70BD4B00221A70BC4B01221A70BC4B50221A70BB4B07221A70BB4B29221A70D8
:406E4000BA4B00221A70BA4B55221A70B94B5A221A70B94B00221A70B84B00221A70B84B00221A70B74B0A221A70B74B43221A70442000F073FAB54B58221A70B44B0022B4
:406E80001A70B44B02221A70B34B02221A70B34B00221A70B24B00221A70002000F054FBB04B42F6AB121A600121052000F060FB01218A2000F042FCAB491D20FDF7B8FC6E
:406EC000FB79022B66D18C4B38221A708B4B04221A708B4B06221A708A4B00221A708A4B00221A70894B3F221A70894B00221A70884B00221A70884B00221A70874B0122BD
:406F00001A70874B50221A70864B27221A70864B2C221A70854B00221A70854B55221A70844B5A221A70844B05221A70834B01221A70834B11221A70824B19221A70824BA5
:406F400097221A70442000F009FA804B58221A707F4B00221A707F4B05221A707E4B02221A707E4B00221A707D4B00221A70002000F0EAFA7B4B4FF47A421A6001210520DD
:406F800000F0F6FA0121252000F0D8FB77491D20FDF74EFCFB79032B66D1574B38221A70564B04221A70564B06221A70554B00221A70554B00221A70544B3F221A70544BC8
:406FC00000221A70534B00221A70534B00221A70524B01221A70524B50221A70514B27221A70514B2C221A70504B00221A70504B55221A704F4B5A221A704F4B05221A70BD
:407000004E4B01221A704E4B11221A704D4B19221A704D4B97221A70442000F09FF94B4B58221A704A4B00221A704A4B05221A70494B02221A70494B00221A70484B002238
:407040001A70002000F080FA464B4FF47A421A600121052000F08CFA0121252000F06EFB43491D20FDF7E4FBFB79042B40F0A980214B38221A70214B04221A70204B0622DE
:407080001A70204B00221A701F4B00221A701F4B3F221A701E4B00221A701E4B00221A701D4B00221A701D4B01221A701C4B50221A701C4B27221A701B4B2C221A701B4B30
:4070C00000221A701A4B55221A701A4B5A221A70194B05221A70194B01221A70184B11221A70184B19221A70174B97221A70442040E000BFB98CFF1F004E0040024E00403C
:40710000034E0040044E0040054E0040064E0040084E0040094E00400A4E0040144E0040845800408558004086580040875800408A5800408B5800408C5800408E58004099
:407140008F580040905800409158004094580040955800409A5800409B5800409C5800409D580040240B00204D740000597400006574000000F0F2F8144B58221A70144B1E
:4071800000221A70134B05221A70134B02221A70124B00221A70124B00221A70002000F0D3F9104B4FF47A421A600121052000F0DFF90121252000F0C1FA0B491D20FDF7A0
:4071C00037FB00BF0837BD4680BD00BF94580040955800409A5800409B5800409C5800409D580040240B00207174000090B587B000AF0446084611461A462346FB7103466D
:40720000BB800B467B801346BB7197F82830002B00F08B8097F82830042B00F28680FB79013B092B4AD801A252F823F055720000BD720000BD72000055720000BD72000006
