:400000000080002011000000753600007536000080B500AF024A034B1B68136003F05EFBBC760040FA46004010B5054C237833B9044B13B10448AFF300800123237010BD65
:40004000408AFF1F00000000705B0100084B10B51BB108490848AFF300800848036803B910BD074B002BFBD0BDE81040184700BF00000000448AFF1F705B0100C880FF1F68
:400080000000000080B500AF05F054FE4FF48072002104480CF0A6FB034B00221A7000BF80BD00BF5C8AFF1F5D8BFF1F80B582B000AF05F01DFE0346FB71FB79002B09D0C4
:4000C000114B1B785A1CD1B20F4A117019460F4AFB795354FB790D2B11D10D4B1A680D4B1B68194610460DF023FA02460A4B1A60054B1B781A46054B1344054A136000BFD7
:400100000837BD4680BD00BF5D8BFF1F5C8AFF1FCC80FF1F648BFF1F608BFF1FB0B58AB000AF7860002387F82130002387F82030FFF7A8FF012005F079FEC82003F084FF64
:40014000022007F04BFC05F069FD384805F014FE4FF4FA6003F078FF05F0A6FD05F01EFE002005F063FE0C2007F038FC002007F017FC2F492F480EF08FFA786233E00D2105
:40018000786A0CF0D1FE0346002B27D0786A0CF063F903467B847B8C002B1FD07B8C42F20F72934214D097F82030B7F922205B0007F128010B4423F8202C97F820300A2BF8
:4001C00015D897F820300133DBB287F8203005E097F821300133DBB287F82130144900200EF05AFA78627B6A002BC8D100E000BF97F8202007F108031146184600F082F86B
:4002000003461BB2FB837B681D4607F108040FCC28606960AA60EB6003CC2861696123882B8378682837BD46B0BD00BFAD000000805B01005C8AFF1FB0B5EEB004AF3B1DDB
:40024000186007F12403002283F8802007F124032A4A1C4615460FCD0FC42B68238007F108031846FFF75AFF07F108031B7E1A4607F108035B7E134407F10802127E1146AD
:4002800007F10802B2F91620144607F1240202F181000294019100930B23194A4FF480710CF0C8FD07F108031B7E0B2B05D107F12403012283F880200EE007F108031B7E9F
:4002C000002B09D007F108031B7E0A2B04D807F12403022283F880203B1D1A6807F124031046194640F281131A460CF005FA3B1D186807F5D477BD46B0BD00BF845B0100F2
:40030000985B010090B585B000AF78600B46FB700023FB81FB781BB21946786800F03AF8FB7803F00103DBB2002B25D1FB78013BDA0F13445B105B007A681344B3F90030EA
:400340001946FB785B08DBB25B007A681344B3F900300B4418460BF01DFA4FF000024FF080430BF0A7FB03460C46184621460BF027FD0346FB8107E0FB785B08DBB25B00C3
:400380007A6813441B88FB81FB8918461437BD4690BD00BF80B584B000AF78600B467B800023FB8137E00023BB8124E0B7F90C305B007A681344B3F90020B7F90C300133E8
:4003C0005B0079680B44B3F900309A420DDDB7F90C305B007A68D018B7F90C3001335B007A681344194600F021F8B7F90C309BB201339BB2BB81B7F90C20B7F90210B7F95F
:400400000E30CB1A013B9A42D0DBB7F90E309BB201339BB2FB81B7F90E20B7F90230013B9A42C0DB00BF1037BD4680BD80B485B000AF786039607B681B88FB813B68B3F90B
:4004400000207B681A803B68FA891A8000BF1437BD4680BC704700BF80B584B000AF78600923FB7300F078F8786807F0DBFE0346DBB20133FB7300F07BF8FB7B18461037D0
:40048000BD4680BD80B586B000AFF860B9607A600923FB7500F060F8B968F86807F0ACFE38613B69002B08D107F0DAFC07F052FDB968F86807F0A0FE38613B69002B10D0DF
:4004C00078680CF077FE03461A467968386908F041F8386907F0CAFD0346DBB2C3F10103FB7500F045F8FB7D18461837BD4680BD80B586B000AFF860B9607A600923FB755F
:4005000000F02AF81349F86807F076FE38613B69002B08D107F0A4FC07F01CFD0D49F86807F06AFE38613B69002B0CD07A68B968386907F0E8FE386907F098FD0346DBB2BD
:40054000C3F10103FB7500F013F8FB7D18461837BD4680BDD05B010080B500AF05F08AFC012005F08DFC07F0F5FC00BF80BD00BF80B500AF002005F083FC05F075FC07F051
:400580006FFC002005F0EEFC002005F0CDFC002005F006FD002005F021FD00BF80BD00BFF0B5EBB000AF3B1D186007F124033D4A1C4613460FCB07C4237007F12403002254
:4005C00083F8802007F11803374A07CA03C31A8007F10C03354A07CA03C31A7007F10C031846FFF739FF07F10C03314A31491846FFF748FF07F1180107F10C030A221846A8
:40060000FFF776FF07F10C031846FFF725FF03461A4607F1240383F8802007F1240393F88030012B14D107F124038133224A1D4614460FCC28606960AA60EB6007CC2861A9
:400640006961AA612388A278AB831346AB7717E007F124038133194A14469E4604F1200C754626460FCE28606960AA60EB6010340EF1100E6445F3D17346224612781A70FE
:400680003B1D1A6807F124031046194640F281131A460CF031F83B1D186807F5D677BD46F0BD00BFD45B0100385C0100445C0100E45B0100F05B0100F45B0100145C0100FE
:4006C00080B500AF06F028FD00BF80BD80B500AF06F082FD034603F00203002B02D1012003F0B2FC06F0EEFD00BF80BD80B500AF06F002FE00BF80BD0EB480B5ADF6340D17
:4007000000AF0246FB1D1A70FB1D1B78022B07D0FB1D1B78012B03D0FB1D1B78032B1DD13E4800F0FBF800F0CDF8034619463C4800F0F4F8FB1D1B78022B03D1394800F0BD
:40074000EDF820E0FB1D1B78012B03D1364800F0E5F818E0354800F0E1F814E0FB1D1B78002B52D1324B1B79002B4ED02B4800F0D5F800F0A7F803461946294800F0CEF88B
:400780002C4800F0CBF807F5046207F128031A6007F1280307F12C001B68D7F83C284FF4006110F0F5FD07F12C03184606F03AFD214800F0B3F800F085F8C7F82C0807F172
:4007C0000800D7F82C381D4A20210CF033FB1C4A1C491D48FFF756FE07F108031A4619491948FFF74FFE164A16491748FFF74AFE07F12C031A4613491348FFF743FE104ADE
:4008000010491148FFF73EFE00E000BF07F63407BD46BDE8804003B0704700BF505C0100545C0100645C0100805C01009C5C0100689CFF1FB85C0100D45C0100DC5C0100D6
:40084000E05C0100E45C0100D080FF1F84B080B500AF07F1080E8EE80F00134800F05EF800F030F803461946104800F057F8104800F054F807F108010E4800F04FF897F838
:40088000883019460C4800F049F807F1890319460A4800F043F80A4800F040F800BFBD46BDE8804004B07047505C0100545C0100E85C0100F85C0100085D0100185D01005C
:4008C000285D010080B58CB000AF04F0F9FBF862FB6A1B78DBB27B60FB6A5B78DBB2BB60FB6A9B78DBB2FB60FB6A5B899BB2A3F26C73BB61FB6A1B7ADBB27B61FB6A1B79EE
:40090000DBB23B6100237B623B1D18460CF0BCF8B862BB6A18463037BD4680BD0FB480B5ADF6080D00AF07F61403C7F80438381DD7F80438D7F810284FF4006110F028FD46
:400940003B1D184606F06EFC00BF07F60807BD46BDE8804004B07047B0B598B000AF7860012006F0C1F9012007F056F80A2003F06BFB06F08BF906F063F905F0A5FC002350
:4009800087F85F3034E097F85F30184606F098F90023A7F85C300FE0B7F85C4006F024F90246A30007F160010B4443F8582CB7F85C300133A7F85C30B7F85C300A2BEBD957
:4009C00097F85F4007F108030B21184600F0DCF90346184605F0E8FD0246A30007F160010B4443F82C2C97F85F30013387F85F3097F85F30042BC6D906F048F906F010F94E
:400A000005F07AFC002006F06FF9002007F004F87B6B18460AF0D0FE19A3D3E900230AF06BFD03460C46184621460BF0F1F90346BB65BB6B144918460BF048FB0346B96D75
:400A400018460BF039FA03467B64FB6BB96D18460BF032FA0346BB643B6C3B65012387F854307B681D4607F144040FCC0FC523682B6078686037BD46B0BD00BFAFF30080C8
:400A8000FCA9F1D24D62F03F000030410000000090B597B000AF786006F0F8F806F0D0F805F012FC032006F00BF90023A7F856300FE0B7F8564006F097F80246A30007F1C4
:400AC00058010B4443F8502CB7F856300133A7F85630B7F856300A2BEBD907F108030B21184600F051F90346184605F05DFD0346BB64BB6C484918460BF0E8FA034618461C
:400B000009F0FCFB0346444918460BF093FB0346BB64012006F080FF0A2003F095FA0023A7F854300FE0B7F8544006F05DF80246A30007F158010B4443F8502CB7F8543026
:400B40000133A7F85430B7F854300A2BEBD907F108030B21184600F017F90346184605F023FD03467B6406F091F806F059F805F0C3FB002006F050FF7B6C18460AF01CFE4A
:400B800021A3D3E900230AF095FF03460C46184621464FF00002214B0AF062FE03460C46184621460BF034F90346FB647B6C18460AF002FE4FF00002194B0AF051FE0346F7
:400BC0000C461846214612A3D3E900230AF072FF03460C46184621464FF00002114B0AF08BFC03460C46184621460BF011F903463B657B681C4607F144030FCB84E80F003A
:400C000078685C37BD4690BD0000000000C0624033333333333303400000C84200408F40000024400000044084B090B587B000AF786007F12C0080E80E00BB6B18460AF00A
:400C4000BBFD23A3D3E900230AF034FF03460C46184621464FF00002214B0AF02BFF03460C46184621460BF0D3F803463B61BB6B18460AF0A1FD4FF000021A4B0AF0F0FD05
:400C800003460C461846214613A3D3E900230AF011FF03460C46184621464FF00002124B0AF02AFC03460C46184621460BF0B0F803467B617B681C4607F108030FCB84E861
:400CC0000F0078681C37BD46BDE8904004B070470000000000C06240333333333333034000408F40000024400000044080B584B000AF786039600023FB6028E00023BB60F4
:400D00001BE0BB689B007A6813441A68BB6801339B0079680B441B689A420BDDBB689B007A68D018BB6801339B007A681344194600F016F8BB680133BB603A68FB68D31A62
:400D40005A1EBB689A42DCDCFB680133FB603B685A1EFB689A42D1DC00BF1037BD4680BD80B485B000AF786039607B681B68FB603B681A687B681A603B68FA681A6000BFFB
:400D80001437BD4680BC704790B585B000AF786039600023FB6039687868FFF7A7FF3B6803F00103002B23D13B68013BDA0F13445B109B007A6813441A683B68D90F0B444A
:400DC0005B109B0079680B441B68134418460AF0E1FC4FF000024FF080430AF06BFE03460C46184621460AF0EBFF0346FB6008E03B68DA0F13445B109B007A6813441B6893
:400E0000FB60FB6818461437BD4690BD2DE9B043EEB006AF3B1D186007F11C03002283F8802007F11C03264A1C4615460FCD0FC495E8030020600434217007F1080318465E
:400E4000FFF78AFD07F108031B6818460AF0B4FC04460D4607F108035B6818460AF0ACFC8046894607F108039B6818460AF0A4FC02460B4607F11C0101F18100CDE9042373
:400E8000CDE90289CDE900450E4A4FF480710BF0D1FF07F11C03012283F880203B1D1A6807F11C031046194640F281131A460BF023FC3B1D186807F5D077BD46BDE8B0836E
:400EC0002C5D0100445D01002DE9B043EEB006AF3B1D186007F11C03002283F8802007F11C03374A1C4615460FCD0FC495E8030020600434217007F10C031846FFF7C8FD59
:400F000007F10C031B6818460AF056FC04460D4607F10C039B6818460AF04EFC8046894607F10C03DB6818460AF046FC02460B4607F11C0101F18100CDE90423CDE902897C
:400F4000CDE900451F4A4FF480710BF073FF07F10C031B681C4918460BF0B8F80346184609F0CCF90346184918460BF063F903461A4607F10C031A6007F10C035A6807F1C5
:400F80000C031B68194610460BF034FA0346002B04D107F11C03012283F880203B1D1A6807F11C031046194640F281131A460BF0A3FB3B1D186807F5D077BD46BDE8B083C8
:400FC000645D01007C5D01000000C84298B500AF12E00D4BB3F900301C4606F0BBFA03461A460A4B1A55084BB3F900309BB201339BB21AB2044B1A8006F0CEFA0346012BCA
:40100000E7D000BF98BD00BF688BFF1F3806002080B500AF00F032F8154B00221A70154B002283F82820134B00221A75114B00221A70114B00221A600F4B00225A600E4BCA
:4010400000229A600C4B0022DA600B4B00221A61094B00225A61084B0022DA61064B00229A610021402006F02FFC00BF80BD00BF0D06002090EBFF1F1006002080B500AF1C
:40108000002006F053FC0C2006F000FC002006F095F9002006F0DCFB002006F02DFC002006F06EF9002006F0A7F900BF80BD00BF80B500AF022006F0E9FB012006F036FCC6
:4010C000012006F07BF9642002F0BEFF00BF80BD80B500AF41F288320A490B4800F0A8F800F084F84FF47A7002F0AEFF06F002FA06F032FBFFF7C2FF044B00221A7000BF71
:4011000080BD00BFAC5D0100B05D01000D06002080B582B000AFFFF7CBFF06F089F92C4806F008FB00F062F80023FB7100233B71FFF7C8FB38600023BB711CE000237B715A
:401140000EE04FF47A722349234800F071F80346002B02D00123FB7105E07B7901337B717B79132BEDD9FB79012B08D000F03EF8BB790133BB71BB79022BDFD900E000BF71
:40118000FFF7A0FB02463B68D31A3B603A6813490020FFF7B1FAFB79012B0AD13B791A460F490020FFF7A8FA0E4B01221A70012309E00D490220FFF79FFA0A4B00221A70B2
:4011C000FFF786FF002318460837BD4680BD00BFCD0F0000AC5D0100BC5D0100C45D0100D85D01000D0600200C5E010080B500AF012006F0C5F84FF4FA6002F025FF002034
:4012000006F0BEF800BF80BD80B500AF064B00221A804FF48062002104480BF0E3FA06F0D1F900BF80BD00BF688BFF1F3806002080B58AB000AFF860B9607A6000237B6258
:4012400000237B6246E00A23FB617A68FB69B2FBF3F3BB61FFF7D8FFF86806F0EFF97B68002B06D1FA681F490020FFF745FA012334E000233B6220E0F86902F0E5FEB9686C
:4012800019480CF055F978617B69002B12D07B6A002B06D1144BFA6814490020FFF72CFA06E07B6A5A1C104B11490120FFF724FA012313E03B6A01333B623A6ABB699A421C
:4012C000DAD3094BFA680B490220FFF715FA7B6A01337B627B6A022BB5D9002318462837BD4680BD245E010038060020505E0100A05E0100D85E0100B0B5E6B000AF3B1D92
:40130000186007F10C03002283F8802007F10C03364A07CA03C31A800233120C1A7007F10C038133324A1C4615460FCD20606160A260E36028682061AB88AA79A382134621
:40134000A3750023C7F894313AE000F091F800F08BFC0346002B02D1FFF7DAFE27E000F083FC0346042B22D100F0DCFBC7F89001D7F89031002B03D0D7F8900101F0DEFDDD
:4013800007F10C0381331B4A1D4614460FCC28606960AA60EB6007CC28616961AA6107F10C03012283F88020FFF792FE0CE04FF47A7002F049FED7F894310133C7F8943135
:4013C000D7F894313B2BC0DD3B1D1A6807F10C031046194640F281131A460BF08DF93B1D186807F5CC77BD46B0BD00BF085F0100145F01002C5F010080B586B000AFF860F9
:40140000B9607A603B60B968F8680CF091F878617B69002B01D1FB687B61B8680BF0CAFE02467B6913447B61796878690CF080F838613B69002B06D1F8680BF0BBFE02460C
:40144000FB6813443B613A697B69D31A1A46796938680BF0DDFE3A697B69D31A1A463B68134400221A70012318461837BD4680BD80B582B000AF464B1B78012B0BD1FFF727
:4014800021FA0246434B1A6000F098FA404B02221A70012377E03E4B1B78022B44D10023FB7110E000F000F93B4B5B691A2B03DD394B5B69FF2B0AD14FF47A7002F0C4FD29
:4014C000FB790133FB71FB791D2BEBD900E000BF00F06CF80346002B13D0FFF7F3F902462C4B1B68D31A2C4A93612B4B9B691A462A490020FFF700F900F0B4F8244B032207
:401500001A70FFF7DFF90246224B1B68D31AB42B08DD1F4B00221A70FFF7DAFD20490220FFF7EAF800232EE0194B1B78032B29D100F0A6F80346002B11D0154B04221A70E1
:40154000FFF7C0F90246134B1B68D31A124AD361114BDB691A4613490020FFF7CDF8FFF7B1F902460B4B1B68D31AE62B08DD084B00221A70FFF7ACFD0B490220FFF7BCF87D
:40158000002300E0002318460837BD4680BD00BF0D0600203406002010060020485F0100705F0100945F0100B45F010080B584B000AF20490020FFF79FF84FF4FA621E49F2
:4015C0001E48FFF735FE0346FB731D490020FFF793F81C4A1C490020FFF78EF8FB7B002B23D000233B713B1D184A19491548FFF703FF3B1D1A4617490020FFF77DF8164961
:401600000020FFF779F83B1D144918460BF090FF0346002B07D13B1D114918460BF088FF0346002B01D0012300E0002318461037BD4680BDDC5F0100AC5D0100F05F0100C1
:40164000FC5F0100380600201860010034600100386001003C6001005C6001007C6001008060010080B500AF4FF47A7202490348FFF7DEFD00BF80BDAC5D0100846001008C
:4016800080B500AF4FF4FA6205490648FFF7D0FD0346002B01D0012300E00023184680BD946001009860010080B586B004AF154BFF225A60134BFF22DA60124BFF229A60C9
:4016C000104BFF225A610F4BFF221A610D4BFF221A604FF4FA620C490C48FFF7A9FD0C4B03930C4B02930C4B01930C4B00930C4B044A0C490C480BF0E9FB786000BF083735
:40170000BD4680BD10060020AC5D0100A460010024060020200600201C0600201806002014060020B06001003806002080B400AF0A4B00221A70094B00225A70074B0A22C9
:401740009A70064B3C22DA70044B01221A71034B00225A7100BFBD4680BC7047689CFF1F90B59BB000AF002387F85C30002387F85030002387F84430002387F83830002385
:4017800087F82C30002387F8203007F15C03734A73497448FFF730FE07F150036F4A72497048FFF729FE07F144036C4A6F496D48FFF722FE07F13803684A6D496948FFF75E
:4017C0001BFE07F12C03654A6A496648FFF714FE07F12003614A68496248FFF70DFE07F11C0207F15C03654918460BF06FFB0346012B0AD1FB69DAB2614B1A70FB691A4657
:4018000060490020FEF778FF03E05F490220FEF773FF07F1180207F15003584918460BF055FB0346012B0ED1BB69002B14BF01230023DAB2524B5A70BB691A4653490020C8
:40184000FEF75AFF03E052490220FEF755FF07F1140207F14403494918460BF037FB0346012B19D17B69DAB2454B9A70444B9B7899B2484C38460723012200F09FFE22461D
:401880003B46196811609B8893807B691A4642490020FEF731FF03E040490220FEF72CFF07F1100207F13803344918460BF00EFB0346012B19D13B69DAB2314BDA70304BD1
:4018C000DB7899B2364C38460723012200F076FE22463B46196811609B8893803B691A4630490020FEF708FF03E02F490220FEF703FF07F1080207F12003204918460BF09C
:40190000E5FA0346012B0AD1BB68DAB21C4B5A71BB681A4625490020FEF7EEFE03E024490220FEF7E9FE07F10C0207F12C03134918460BF0CBFA0346012B06D1FB681A46A1
:401940001C490020FEF7D8FE03E01B490220FEF7D3FE00BF6C37BD4690BD00BF34600100D060010038060020DC600100E8600100F86001000861010018610100206101000E
:40198000689CFF1F24610100406101005C610100786101008CC3FF1F94610100B8610100709CFF1FE861010010620100406201005C62010088620100B462010080B584B014
:4019C00000AF454B1B7D002B13D14FF4FA6243494348FFF72DFC0346002B0AD0414B424A42494348FFF708FD3E4A42490020FEF783FE394B1B78002B13D14FF4FA623749C7
:401A00003D48FFF715FC0346002B0AD0324B364A36493748FFF7F0FC2F4A38490020FEF76BFE2D4B93F82830002B13D14FF4FA622A493348FFF7FCFB0346002B0AD0314BC9
:401A4000294A2A492A48FFF7D7FC2E4A2E490020FEF752FE2D4B5B7883F00103DBB2002B06D04FF4FA621D492948FFF7E1FB09E0264B5B78002B05D04FF4FA6217492548C0
:401A8000FFF7D6FB4FF4FA6214492348FFF7D0FB0346002B1BD000233B713B1D124A13491348FFF7A9FC3B1D1A461C490020FEF723FE3B1D312118460BF036FA0346002B09
:401AC00005D14FF4FA6205491548FFF7B1FB00BF1037BD4680BD00BF90EBFF1FAC5D0100E4620100A4EBFF1F346001003860010038060020F0620100006301000C630100D5
:401B000018630100B8EBFF1F24630100689CFF1F306301005C63010078630100846301009063010080B5A0B006AF444B1B78042B05D043490220FEF7DFFD00237AE0002333
:401B40007B664FF4FA623F493F48FFF771FB0346002B6ED0002387F8443007F144033B4A3B493C48FFF748FC0023BB6207F13C0107F1400207F1440007F12803049307F109
:401B80002C03039307F13003029307F13403019307F1380300930B462F490BF097F90346072B06D1BB6A4FF4617202FB03F3BB6227E007F13C0107F1400207F1440007F17C
:401BC0002803049307F12C03039307F13003029307F13403019307F1380300930B461F490BF074F90346072B05D1BB6A1C4A02FB03F3BB6205E01B490220FEF77DFD002313
:401C000018E0FB6A7B603B6BBB607B6BFB603B6C6433BB61FB6B013B7B61BB6B3B6100237B623B1D18460AF02FFF0246BB6A13447B667B6E18466837BD4680BD0D060020F4
:401C40009C630100AC5D0100D4630100E0630100E463010038060020E8630100006401007CFCFFFF1864010080B400AF024B1B781846BD4680BC70470D06002080B500AF66
:401C8000FFF7F2FF0346002B03D005F07DFE05F025FD00BF80BD00BF80B500AFFFF7E4FF0346002B0BD005F075FE05F031FDFFF7DBFF0346032B02D1642002F0C5F900BF10
:401CC00080BD00BFB0B5BEB004AFA84B4FF000029A60A64B4FF000025A60A44B4FF000021A60A24B00229A81A04B00229A73A04B1B78042B01D0002333E1FEF7E3FDC7F811
:401D0000E0004FF4FA629B499B48FFF791FA4FF4FA6298499948FFF78BFA4FF4FA6295499748FFF785FA4FF4FA6292499548FFF77FFA4FF4FA628F499348FFF779FA4FF46B
:401D4000FA628C499148FFF773FA4FF4FA6289498F48FFF76DFA42F2107286498D48FFF767FA4FF4FA6283498B48FFF761FA4FF4FA6280498948FFF75BFA002387F8E730D4
:401D80000023A7F8E43015E04FF4FA6284498548FFF74EFA03461A4697F8E730134487F8E7304FF47A7002F04FF9B7F8E4300133A7F8E430B7F8E430C72BE5D97A497B489B
:401DC0000BF0B6FBC7F8DC0007F1080107F1740207F10C0302933B1D019307F1100300930B467349D7F8DC000BF070F8C7F8D800D7F8D830022B40F3938007F1740300217B
:401E000018460CF02FFC03466A4918460AF012FA0346184608F072FA0346184609F0CCFC04460D4607F17403002118460CF01AFC0346184609F0C0FC4FF000025E4B08F06F
:401E4000A3FA4FF000025D4B09F034FE02460B462046294609F052FB03460C461846214609F0D6FF0246414B1A6007F11003002118460CF0F7FB03464E4918460AF0DAF9FE
:401E80000346184608F03AFA0346184609F094FC04460D4607F11003002118460CF0E2FB0346184609F088FC4FF00002424B08F06BFA4FF00002414B09F0FCFD02460B4678
:401EC0002046294609F01AFB03460C461846214609F09EFF0246254B5A6007F10803384918460BF089F80346002B05D11F4B1B6883F000431D4A13603B1D324918460BF046
:401F00007BF80346002B05D1184B5B6883F00043164A5360FB68154A9360144B01229A734FF4FA6213492848FFF782F94FF4FA6210492648FFF77CF9FEF7C4FC0246D7F838
:401F4000E030D31AC7F8E030D7F8E0309AB2074B9A81064B9B891A461D490020FEF7CCFB01231846E837BD46B0BD00BFFC0500200D060020AC5D0100346401004864010072
:401F800058640100646401007464010098640100A864010084600100B8640100D0640100DC640100E0640100EC64010038060020F86401000000C8420000594000004E40BE
:401FC0002C6501003065010034650100486501005465010080B584B000AFF860B9607A60234B1B881A462C2303FB02F3214A9818FB68214A14210AF01DFF1D4B1B881A4602
:402000002C2303FB02F310331A4A1344181DBB68194A14210AF00EFF154B1B881946154A2C2303FB01F3134428337A681A60104B1B8801339AB20E4B1A80104B1B880133B6
:402040009AB20E4B1A800A4B1B88952B0BD9084B00221A800A4B01221A700A490220FEF74BFB002300E0012318461037BD4680BD92C3FF1F34ECFF1FA065010094C3FF1F8C
:402080000C060020A465010080B483B000AF1CE0FB88164A2C2101FB03F3134400221A70FB88124A2C2101FB03F31344143300221A70FB880D4A2C2101FB03F3134428337A
:4020C00000221A60FB880133FB80FB88952BDFD9074B00221A80074B00221A80064B00221A7000BF0C37BD4680BC704734ECFF1F92C3FF1F94C3FF1F0C06002080B400AFCB
:40210000024B1B881846BD4680BC704794C3FF1F80B400AF024B1B881846BD4680BC704792C3FF1F80B58CB008AFF860B9607A603B60FB6A01933B680093FB692A4A42F203
:402140001071F8680AF076FE284B07933B6A0693274B0593254B0493BB690393254B02937B680193244B0093FB68244A42F21071F8680AF05FFE7B6A002B0CD07B6A1B78DB
:40218000002B08D07B6A0093FB681D4A42F21071F8680AF04FFE1B49F8690AF02DFF0346002B13D0B8680BF005F80246BB6A1344154A03920293154B0193154B0093FB688D
:4021C000144A42F21071F8680AF034FEBB680093FB68114A42F21071F8680AF02BFE00BF1037BD4680BD00BFDC6501000466010008660100186601001C660100F06501001B
:40220000246601002C6601003C6601004466010058660100306601007466010090B589B004AF78607B6800221A70334B1B7883F00103DBB2002B2DD00023FB8122E0FB8907
:402240002C2202FB03F32D4A1344FA892C2101FB02F2103229490A440432F98927482C2404FB01F10144283109680291019200937B68234A42F2107178680AF0DBFDFB8922
:402280000133FB81FFF744FF03461A46FB899342D5D328E00023BB8122E0BB892C2202FB03F3164A1344BA892C2101FB02F2103212490A440432B98910482C2404FB01F16A
:4022C0000144283109680291019200937B680C4A42F2107178680AF0ADFDBB890133BB81BB89952BD9D978680AF064FFB860BB6818461437BD4690BD0C06002034ECFF1F59
:402300007C66010080B588B004AFF860B9607A603B60FB6800221A703B6802937B680193BB680093FB68044AC821F8680AF082FD00BF1037BD4680BD9C66010080B500AFA0
:4023400002F03CFE00BF80BDB0B58AB002AF394802F050FD02F09CFDFF2002F0E7FE02F051FEFEF7ADF9FEF753FEFFF7DFF907F11403184601F0EAFE7A69BB69009313467B
:402380002D4A18212D480AF055FD2D4B2D4A1A602D4A2E4B14461D460FCD0FC40FCD0FC40FCD0FC42B682380274B41F288325A66274B9B7899B2274C38460723012200F036
:4023C000FDF822463B46196811609B889380224B01221A701E4BDB7899B2204C38460723012200F0EBF822463B46196811609B8893801B4B01221A701A4B00221A701A4B12
:4024000001221A70184B1B7807F10800174A0A210AF010FDFEF756FA024607F1080319461348FFF7D7FD0023FB7700BF2037BD46B0BD00BF3D230000AC6601009CC3FF1F88
:4024400098C3FF1F90EBFF1FCCEBFF1FB4660100689CFF1F8CC3FF1F30060020709CFF1F88C3FF1F769CFF1F8CEBFF1FE8660100EC66010080B582B000AF144B1B78002B48
:4024800006D000F07BFB03461A46104B1A7014E00F4B1B78002B06D000F092FB03461A460B4B1A7009E00B4B1B78002B05D000F03BF903461A46074B1A70FEF7D9FF0346D9
:4024C000FB71FB7918460837BD4680BD769CFF1F3006002088C3FF1F80B500AFFFF7CEFBFEF7F4F801F094FE4FF40061002002F04BF901F0D1FFFEF7F9F8FFF7CDFB00BF0B
:4025000080BD00BF80B582B000AF0346FB71FB7919460C4800F01EF80346002B02D00A4B01221A70FB791946084800F013F80346002B02D0064B01221A7000BF0837BD46FC
:4025400080BD00BF8CC3FF1F30060020709CFF1F88C3FF1F80B582B000AF78600B46FB707B681B79DBB2FA789A4212D17B685B881BB29BB2013B9BB21AB27B685A807B6855
:402580005B881BB2002B04DC786800F007F8012300E0002318460837BD4680BD80B483B000AF78607B681B889BB21AB27B685A8000BF0C37BD4680BC704700BF80B485B023
:4025C00000AF7860084611461A4603467B800B467B7013463B707B883B817B783B733B787B73B7F902307B817B681A4607F10803186810609B88938078681437BD4680BC16
:40260000704700BF90B5ADF6141D5EAF38490320FEF772F807F214631846FDF70DFE07F21464684604F1100340F2711219460AF063F894E80F00FEF709F907F592631846CD
:40264000FEF7E4FB07F59264684604F1100340F2711219460AF050F894E80F00FEF7F6F807F543731846FEF72FFC07F54374684604F1100340F2711219460AF03DF894E8C2
:402680000F00FEF7E3F807F5C4731846FDF788FF07F5C474684604F1100340F2711219460AF02AF894E80F00FEF7D0F83B1D1846FEF722FE0F4B00930F4B104A10490320E5
:4026C000FEF71AF83C1D684604F1100340F2711219460AF011F894E80F00FEF7B7F809490320FEF709F800BF07F29C77BD4690BDF46601009CC3FF1F90EBFF1FB8EBFF1FC6
:40270000206701004067010080B500AF62B6FFF71BFEFFF777FFFFF7ADFE0346002BFAD1FFF7DAFEF7E700BF90B5ADF2545D06AF012002F04BFC642001F086FC002002F0FA
:4027400045FCFFF7E5FC0346002B01D1002307E2FFF78AFA0346002B11D1C74B1B780133DAB2C54B1A70C44B1B78022B02D8FEF7CFFCF4E1C04B00221A700023F0E1FFF741
:4027800073FA0346042B40F0EA81BC490020FDF7B3FFBB4B00221A70BA4B00221A70BA4B00221A70B94B5B6907F5A260B84A14210AF040FBFEF786F8024607F5A26319466D
:4027C000B448FFF707FCAC4B1B7807F2FC40B04A14210AF02FFBFEF775F8024607F2FC431946AD48FFF7F6FBAC4B1B7883F00103DBB2002B16D0FFF78BFC0346A7F830354C
:40280000B7F8303507F2D440A14A14210AF012FBFEF758F8024607F2D4431946A048FFF7D9FB0FE007F598609623994A14210AF001FBFEF747F8024607F598631946984846
:40284000FFF7C8FBFFF75AFC0346A7F82E35B7F82E35013B07F59D608D4A14210AF0EAFAFEF730F8024607F59D6319468D48FFF7B1FB8D490020FDF73FFF8C4B8C4A8D49F5
:402880008148FFF73FFD804A8B490020FDF734FF7C48FFF7C3FC894B5B6E894A059200220492884A0392884A0292884A01920093754B824A73497248FFF734FC704A84498C
:4028C0000020FDF719FF002387F82D357B4B5A6E38467A4B009313467E4AC8210AF0AAFA3B461A467C490020FDF706FF3B4642F210727A491846FEF79BFC034687F82D35CF
:402900005F4BC7F834355E480AF054FC0246744BA3FB02235B09184608F02CFF4FF00002704B07F069FC03460C461846214607F0DBFB03460C461846214609F041FA0346C4
:4029400087F82C354E480AF035FC03461A4666490020FDF7D1FE97F92C351A4663490020FDF7CAFE002387F8333553E04FF47A725F496048FEF75CFC034687F82D3507F177
:40298000C800D7F83435544A4FF4FA710AF052FA07F1C80318460AF00DFC03461A4607F1C803134454491A460B461B88138097F9332507F1C80351490020FDF79DFE97F996
:4029C00033355A1C97F92C359A4211D007F1C80341F2883241491846FEF72AFC034687F82D35D7F8343503F2F313C7F834350AE007F1C80341F2883241491846FEF718FC88
:402A0000034687F82D3597F93335DBB20133DBB287F8333597F9332597F92C359A42A5DB41F2883237493848FEF702FC034687F82D3597F82D35012B6CD1FEF791FEFFF72C
:402A400023FBFDF73FFF0246304B1B68D31AC7F8283507F2B440D7F828350D4A0A210AF0E9F9FDF72FFF024607F2B44319462848FFF7B0FA52E000BF380A00206C67010050
:402A8000789CFF1FB4C3FF1FC4EAFF1F10060020E86601007C670100846701000C06002090670100A0670100B4670100C8670100B8EBFF1FF467010004680100CCEBFF1F51
:402AC00014680100186801001C680100246801002C680100446801006068010064680100D34D621000407F4068680100806801009468010098680100A8680100AC6801007F
:402B0000BC680100C4680100CC68010034060020E068010015490220FDF7EEFDFFF7D2F80346002B04D012490020FDF7E5FD03E010490220FDF7E0FDFEF7F4FFC7F82405B4
:402B4000D7F82435002B03D0D7F8240500F0F6F9FEF7BEFA084B00221A70002300E00123184607F23C57BD4690BD00BFF06801001C69010030690100380A002080B582B04A
:402B800000AFFFF771F80346002B02D1FEF7C0FA11E0FFF769F80346042B0CD1FEF7C2FF78607B68002B02D0786800F0C7F9FEF78FFA002300E0012318460837BD4680BDF4
:402BC00090B5A1B002AFFDF77DFE786707F154007B6FBC4A20210AF02DF9BB4B1B78002B3BD107F110031846FDF798FA97F82830002B2ED0B7F9263007F14000B34A142164
:402C00000AF018F907F140031A46B1490020FDF773FD07F140037A6F1946AE48FFF7DAF907F154031A46AC49AC48FDF72BFCAC4AA949AA48FDF726FC07F140031A46A64901
:402C4000A648FDF71FFCA74AA349A448FDF71AFC03E0A5490220FDF74FFD07F12C031846FDF77AFE97F83C30002B00F0AF80FB6A184608F0A1FD03460C4607F14000CDE939
:402C800000349A4A14210AF0D5F807F140031A4697490020FDF730FD07F140037A6F19469448FFF797F98F4A8B498C48FDF7EAFB07F154031A4688498848FDF7E3FB8E4A0B
:402CC00085498648FDF7DEFB07F140031A4682498248FDF7D7FB7C4B1B78012B7AD13C466A4607F1380393E8030082E8030007F12C030ECB2046FDF797FFBB68184608F0EB
:402D00005BFD03460C4607F14000CDE90034774A14210AF08FF807F140031A4677490020FDF7EAFC07F140037A6F19467448FFF751F96C4A68496948FDF7A4FB07F1540339
:402D40001A4665496548FDF79DFB6E4A62496348FDF798FB07F140031A465F495F48FDF791FBFB68184608F027FD03460C4607F14000CDE900345D4A14210AF05BF807F152
:402D800040031A4660490020FDF7B6FC07F140037A6F19465D48FFF71DF9524A4E494F48FDF770FB07F154031A464B494B48FDF769FB574A48494948FDF764FB07F1400325
:402DC0001A4645494548FDF75DFB03E051490220FDF792FC3C4B5B79012B6AD14E4B1B68184608F0E9FC03460C4607F14000CDE900344A4A14210AF01DF807F140031A46A2
:402E000047490020FDF778FC07F140037A6F19464448FFF7DFF807F154031A462E492F48FDF730FB404A2C492C48FDF72BFB07F140031A4628492948FDF724FB294A2649E3
:402E40002648FDF71FFB344B5B68184608F0B4FC03460C4607F14000CDE900342F4A142109F0E8FF07F140031A4630490020FDF743FC07F140037A6F19462D48FFF7AAF84C
:402E800007F154031A4614491448FDF7FBFA294A11491248FDF7F6FA07F140031A460E490E48FDF7EFFA0F4A0B490C48FDF7EAFA03E021490220FDF71FFC002318467C3706
:402EC000BD4690BD60690100689CFF1FE8660100646901007869010088690100F080FF1F8C690100A0690100A4690100D0690100D8690100E4690100EC690100F46901008B
:402F0000086A01001C6A0100306A0100446A0100546A0100686A0100FC050020906A0100946A0100A06A0100AC6A0100BC6A0100CC6A0100D86A0100E86A010080B586B01F
:402F400000AF78607B68002B05DC18490220FDF7D3FB002325E03B1D184609F087FA78617B691B68DBB23B727B695B68DBB27B727B699B68DBB2BB727B695B699BB203F218
:402F80006C739BB27B827B691B69DBB23B747B69DB68DBB23B7307F10803184602F09AF8012318461837BD4680BD00BF186B010080B582B000AF786039603A68002178687F
:402FC00009F010FC00BF0837BD4680BD80B584B000AFF860B9607A607A68B968F86809F08BFB00BF1037BD4680BD00BF80B483B000AF0346FB71FEE780B487B000AF7860A2
:40300000396000233B6100237B6127E07B699B007A6813441B68BB60BB68FB73BB6823F0FF03BB6014E03B695B003A6813441B781A46BB68134419463B695B003A68134448
:403040005B780B703B6901333B61FB7B013BFB73FB7B002BE7D17B6901337B617B69222BD4D900BF1C37BD4680BC704780B582B000AF5C4B1B78BB705B4B00221A805B4BB8
:4030800058221A705A4B00221A805A4B50221A70594B19221A80594B19221A70584B19221A80584B19221A70574B4FF49C721A80564B18221A70042255495648FFF786FF79
:4030C000554B02221A704FF0402308221A70534BF3221A70434B03221A70514B84221A70504B05221A70504B7B6006E04FF4F07004F0B2FC7B68013B7B607B68002B06D01B
:40310000484B1B78DBB203F02003002BEED0354ABB781370454B02221A70454B454A1278D2B21A70444B4FF4E1621A80434B41F251221A800023FB7019237B6014E0FB782A
:403140005B00DAB23E4B1B78DBB203F00103DBB21343DBB203F00303FB704FF4F07004F07BFC7B68013B7B607B68002B02D0FB78032BE4D17B68002B02D10320FFF736FF87
:40318000304B4FF480721A802E4B07221A702E4B00221A702D4B48221A702A4B00221A702B4B02221A702B4B04221A702A4A2A4B1B78DBB243F01F03DBB21370274A274B4C
:4031C0001B78DBB243F00103DBB21370244A244B1B78DBB263F07F03DBB2137000BF0837BD4680BD9846004080400040824000408440004086400040884000408A4000400C
:403200008C4000408E40004090400040924000404C09004800410040004300400A4300400943004008430040A086010000420040A14600400B0100492242004020420040A2
:4032400025420040044000400640004008400040014000400B400040A2430040A1430040A043004080B483B000AF114B1B78FB71104AFB7903F00703DBB213700E4AFB7985
:403280001B09DBB213700D4B02221A700C4B01221A700C4B20221A700B4B40221A700B4B66221A7000BF0C37BD4680BC704700BFCF0100496E5800406F580040405800404E
:4032C000A7430040C35A0040585B00407658004080B485B000AF0346FB71FB79012202FA03F3FB73FB79032B3BD8204B1A78FB7B1340DBB2002B34D11C4B1A78FB7B134385
:40330000DAB21A4B1A70FB79194A52F82330FA79174951F822201178FA791648825C0A43D2B21A70FB79144AD35CBB73BB7B134AD35C002B0ED1BB7B114A52F82330BA7B4F
:403340000F4951F822201178BA7B0E48825C0A43D2B21A70BB7B094AD25C0132D1B2074AD15400BF1437BD4680BC70476C8BFF1F406B0100506B0100646B0100708BFF1FD4
:40338000546B0100606B010080B485B000AF0346FB71FB79012202FA03F3FB73FB79032B41D8234B1A78FB7B1340DBB2002B3AD0FB7BDB43DAB21E4B1B781340DAB21C4B15
:4033C0001A70FB791B4A52F82330FA79194951F822201178FA791848825CD243D2B20A40D2B21A70FB79154AD35CBB73BB7B144AD25C013AD1B2124AD154BB7B104AD35C52
:40340000002B10D1BB7B0F4A52F82330BA7B0D4951F822201178BA7B0B48825CD243D2B20A40D2B21A7000BF1437BD4680BC70476C8BFF1F406B0100506B0100646B010011
:40344000708BFF1F546B0100606B010080B483B000AF0346FB71FB79012B0ED8FB79094A52F82330FA79074951F822201178FA790548825C0A43D2B21A7000BF0C37BD461D
:4034800080BC7047686B0100706B010080B483B000AF0346FB71FB79012B10D8FB790A4A52F82330FA79084951F822201178FA790648825CD243D2B20A40D2B21A7000BF8A
:4034C0000C37BD4680BC7047686B0100706B010080B586B000AF72B60023FB7513E0FA7D13465B0013445B004B4A13443B613B691A683B699B889BB219461046FFF758FD7C
:40350000FB7D0133FB75FB7D072BE8D90023FB751CE0FA7D13469B0013445B003F4A1344FB60FB681B68BB60FB685B687B60FB681A7A5B7A1B0213437B807B881A4679689D
:40354000B868FFF743FDFB7D0133FB75FB7D002BDFD033494FF09040FFF74EFD314B0A221A70314B03221A80304A304B1B78DBB243F00203DBB213702D4A2D4B1B78DBB2E2
:4035800043F00203DBB213702A4A2A4B1B78DBB243F04003DBB21370274A274B1B78DBB243F01003DBB21370082224492448FFF70DFD082223492448FFF708FD0A22234943
:4035C0002348FFF703FD082222492348FFF7FEFC082222492248FFF7F9FC224A214B1B78DBB243F00803DBB213701F4B61221A70FFF73CFD1C4B81221A701C4B01221A70FC
:40360000FFF730FE0E220B491948FFF7DFFC00BF1837BD4680BD00BF746B0100A46B01008C00004883580040485800400350014013500140A0430040C243004020090048D3
:403640000251004028090048C251004030090048F05100403C090048225100404409004832510040224300400048004004000840B043004080B500AF08F0F2FE03461B680D
:403680000C2B00D1FEE7FEE780B584B000AF7860104B1A687B6813441A460F4BD31AB3F5804F09DC0B4B1B68FB600A4B1A687B681344084A136007E008F0D2FE02460C23FE
:4036C00013604FF0FF33FB60FB6818461037BD4680BD00BF1081FF1FD00A002080B586B000AF224B7B61224B3B61204B7B6135E03B691B68FB603B695B68BB603B699B6868
:403700003B6000237B600CE0FB681A68BB681A60BB680433BB60FB680433FB607B6804337B607A683B689A42EED13B69DB683B6000237B6008E0BB6800221A60BB68043382
:40374000BB607B6804337B607A683B689A42F2D13B6910333B617B69013B7B617B69002BC6D108F06FFFFEF7CFFFFEE7010000009872010080B582B000AF184B184A1A6081
:40378000184A184B1B6843F40073136000237B600FE07B68032B04D8134A7B6852F8233000E0124B12497A6841F822307B6801337B607B682F2BECD90E4B1B78DAB20E4B23
:4037C0001A700E4B0A4A1A60FFF782FE0C4B00221A6000BF0837BD4680BD00BF0CED00E00004FA0514ED00E000000000753600000080FF1FBC760040C480FF1F08ED00E003
:40380000C080FF1F80B584B000AF0346FB710023FB60234A224B1B78DBB243F00103DBB21370FB79002B36D01E4B1B78DBB203F00403FB721C4B1B78BB721C4B1B787B72FB
:40384000182001F087F81023FB6010E0184B1B78DBB203F00103002B09D0154B1B78DBB203F00103002B02D00023FB6008E0012001F042F8034603F00103DBB2002BE5D0D1
:40388000FB7A002B01D100F04BFB074ABB7A1370064A7B7A1370FB6818461037BD4680BD204200400043004080430040824300402542004080B400AF054A054B1B78DBB2D1
:4038C00023F00103DBB2137000BFBD4680BC70472042004080B584B000AF0346FB711D4A1C4B1B78DBB243F01003DBB213701A4A194B1B78DBB243F01003DBB21370FB7987
:40390000002B23D0154B1B78DBB203F00403FB73134B1B78BB73134B1B787B73002001F019F800BF012000F0E7FF034603F00103DBB2002BF6D0FB7B002B01D100F0F0FAA0
:40394000074ABB7B1370074A7B7B137000BF1037BD4680BDA0430040B043004000430040804300408243004080B400AF094A094B1B78DBB223F01003DBB21370064A064BCB
:403980001B78DBB223F01003DBB2137000BFBD4680BC7047A0430040B043004080B483B000AF0023FB71124B1B78DBB203F00703002B06D10F4B1B78DBB203F00103002BE9
:4039C0000DD10B4B1B78DBB203F00703012B08D1094B1B78DBB203F00103002B01D00123FB71FB7918460C37BD4680BC704700BF93430040A5430040B543004080B584B0D1
:403A000000AF0346FB71FFF7C9FF0346FB73FB7B012B07D1314A314B1B78DBB223F00203DBB21370FB79082B4FD801A252F823F0553A0000613A00006D3A0000793A0000A2
:403A4000853A0000913A00009D3A0000CB3A0000A93A0000224B234A1278D2B21A7039E01F4B214A1278D2B21A7033E01C4B1F4A1278D2B21A702DE0194B1D4A1278D2B2A4
:403A80001A7027E0164B1B4A1278D2B21A7021E0134B194A1278D2B21A701BE0104B174A1278D2B21A7015E00D4B154A1278D2B21A70FB7B012B0CD1084A084B1B78DBB2E6
:403AC00043F00203DBB2137003E0002000F0B0FA00E000BF00BF1037BD4680BD09600040A146004008010049090100490A0100490B010049890100490C0100490D0100495E
:403B00000F01004980B584B000AF0346FB71684B1B78DBB203F00703FB73FB79082B01D0FB7900E00323BB73FB7B062B25D801A252F823F0513B0000573B00005D3B0000A7
:403B4000633B0000693B00006F3B0000753B00000223FB7315E00123FB7312E00323FB730FE00023FB730CE00423FB7309E00523FB7306E00623FB7303E0002000F058FAC7
:403B800000BFBA7BFB7B9A4203D3FB791846FFF735FFFB79082B72D801A252F823F000BFC53B0000DD3B0000F53B0000073C00001F3C0000373C00004F3C00007F3C00009E
:403BC000673C00003A4A3A4B1B78DBB223F04703DBB243F00303DBB2137054E0344A344B1B78DBB223F04703DBB243F00103DBB2137048E02E4A2E4B1B78DBB223F04703AE
:403C0000DBB213703FE02A4A294B1B78DBB223F04703DBB243F00203DBB2137033E0244A234B1B78DBB223F04703DBB243F00403DBB2137027E01E4A1D4B1B78DBB223F0CE
:403C40004703DBB243F00503DBB213701BE0184A174B1B78DBB223F04703DBB243F00603DBB213700FE0124A114B1B78DBB223F04703DBB243F04203DBB2137003E00020D1
:403C800000F0D6F900BFFB79082B02D100F058F801E000F065F8BA7BFB7B9A4203D2FB791846FFF7ABFE00BF1037BD4680BD00BF0042004080B582B000AF0346FB71FB790B
:403CC000012B17D0022B02D0002B26D02EE04FF040224FF040231B78DBB223F04003DBB21370164A154B1B78DBB243F02003DBB213701FE04FF040224FF040231B78DBB212
:403D000043F04003DBB213700C4A0C4B1B78DBB243F02003DBB213700CE0084A074B1B78DBB223F02003DBB2137003E0002000F07FF900BF00BF0837BD4680BD00420040EA
:403D400080B400AF054A054B1B78DBB243F01003DBB2137000BFBD4680BC70470042004080B400AF054A054B1B78DBB223F01003DBB2137000BFBD4680BC70470042004005
:403D800080B483B000AF0346FB710949084B1B78DBB223F00303DAB2FB7903F00303DBB21343DBB20B7000BF0C37BD4680BC70470540004080B483B000AF0346FB71044AE0
:403DC000FB79137000BF0C37BD4680BC704700BF0440004080B483B000AF0346FB80154A144B1B78DBB223F00F03DBB21370124B00221A70114A114B1B78DBB263F07F03EF
:403E0000DBB213700E4BFA88D2B21A700D4AFB881B0A9BB2DBB213700B4A0B4B1B78DBB243F00103DBB2137000BF0C37BD4680BC704700BF144000401040004008400040B8
:403E400002400040034000400140004080B584B000AF0346FB8003F007FE0346FB73244B1B78DBB29BB21B02BB81224B1B78DBB29AB2BB891343BB81FB88002B02D0BB8989
:403E8000002B29D11C4B1B78FB72FB7A062B02D80720FFF78FFFFB88002B0CD1174A174B1B78DBB243F04003DBB21370FB881846FFF790FF0BE0FB881846FFF78BFF0F4A4C
:403EC0000E4B1B78DBB223F04003DBB21370FB7A1846FFF76FFF03E0FB881846FFF77AFFFB7B184603F0C4FD00BF1037BD4680BD0740004006400040044000400840004092
:403F000080B400AF054A054B1B78DBB243F00403DBB2137000BFBD4680BC70470043004080B400AF054A054B1B78DBB223F00403DBB2137000BFBD4680BC70470043004059
:403F400080B586B000AF0346FB7100237B61FB793B742B4A2A4B1B78DBB243F00103DBB21370FB79002B45D0264B1B78FB74264B1B78BB74254B1B787B74182000F0EAFCA5
:403F800010237B6125E01E4B1B780423FB730EE000BF012000F0B0FC034603F00103DBB2002BF6D0FB7BDBB2013BDBB2FB73FB7BDBB2002BECD1124B1B78DBB25BB2002B5A
:403FC00002DB00237B6108E03B7CDBB2013BDBB23B743B7CDBB2002BD5D1FB7C03F00403002B01D1FFF79CFF074ABB7C1370074A7B7C13707B6918461837BD4680BD00BFC7
:404000001042004000430040804300408243004080B400AF054A054B1B78DBB223F00103DBB2137000BFBD4680BC70471042004080B483B000AF0346FB7101BE00BF0C37C7
:40404000BD4680BC704700BF80B582B000AF786008E00C4B1B68184603F0FEFC7B68A3F500437B607B68B3F5004FF2D8064B1B687A6802FB03F3184603F0EEFC00BF083771
:40408000BD4680BD2081FF1F1881FF1F80B582B000AF0346FB80FB88054A127802FB03F3184603F0D9FC00BF0837BD4680BD00BF1C81FF1F80B584B000AF03463960FB71DD
:4040C0000F4B1B68FB60FB791F2B02D90020FFF7AFFFFB7903F01F0310339B00FA6813441B68BB60FB7903F01F0310339B00FA6813443A681A60BB6818461037BD4680BD29
:4041000008ED00E080B582B000AF03460A46FB711346BB71BB79072B02D90020FFF788FFFB791F2B02D90020FFF782FFFB7903F01F0303F1604303F56443BA795201D2B233
:404140001A7000BF0837BD4680BD00BF80B483B000AF7860264B1B78DBB21A467B681A60244B1B78DBB21B027A6812681A437B681A60214B1B78DBB21B047A6812681A4356
:404180007B681A601D4B1B78DBB21B067A6812681A437B681A607B680433194A1278D2B21A60184B1B78DBB21A027B6804337968043109680A431A60134B1B78DBB21A043B
:4041C0007B6804337968043109680A431A600F4B1B78DBB21A067B6804337968043109680A431A6000BF0C37BD4680BC704700BF0301004904010049EC4600400201004945
:404200000101004900010049050100490601004980B500AF924B1B78DBB203F00F03DAB2904B1A70904B1B78DAB28E4B5A708C4A8B4B1B78DBB223F00F03DBB213708A4B00
:404240001B78894B00221A70884B1B78DBB223F03F03DAB2834B5A71372003F00DFC844B1B78DBB203F00703DAB27E4BDA70804B1B78DBB203F04003DAB27A4B1A717C4B1C
:404280001B78DBB203F01003002B03D0754B01225A7202E0734B00225A72764B1B78DBB203F00303DAB26F4B9A706E4B9B78012B1CD14FF040231B78DBB203F00303012BA7
:4042C00008D0012B02D3022B08D00BE00020FFF757FD0BE00220FFF753FD07E00320FFF74FFD03E00020FFF7A3FE00BF624B1B78DBB203F00103002B05D05A4B01229A73FA
:40430000FFF7D8FA02E0574B00229A730420FFF7F9FB5A4B1B78DBB203F01003DBB2002B03D0504B01229A7108E04E4B00229A710020FFF7CFFA0620FFF7A8FE4C4B1B785C
:40434000DBB203F02003002B10D04FF040231B78DBB203F04003002B01D1022200E00122404BDA710020FFF7A5FC02E03D4B0022DA714FF040231B78DBB203F03003DAB29B
:40438000384B1A72374B1B7A002B09D04FF040224FF040231B78DBB223F03003DBB21370334B1B78DBB203F01003002B01D0FFF7D7FC334B1B78DAB22A4B9A72294B9B7A0A
:4043C000002B02D00020FFF7F5FC264B9B78002B02D00020FFF7D4FC2A4B1B78DBB29BB21B029AB21F4B9A81274B1B78D9B21D4B9A898BB213439AB21A4B9A81194B9B8980
:40440000002B02D00020FFF721FD194B1B78DBB203F007031D4AD35C184603F02DFB1C4B1B78DBB203F00103002B05D00D4B0122DA73FFF7EDFD02E00A4B0022DA73154B8F
:404440001B78DBB203F00403002B03D0054B01221A7402E0034B00221A7400BF80BD00BFA1430040A48BFF1FA243004000480040004200400540004020420040A04300409E
:40448000044000400740004006400040B06B0100104200400B40004080B586B000AF10233B61AB4A3B1D106818609188927999809A71A84B1B7C012B17D1A74B1B78DBB214
:4044C00003F00703A54AD35C1A4613469B0013441A01D31A184603F0BFFAA14AA04B1B78DBB243F00403DBB213709A4BDB7B012B24D10020FFF724FD9A4B1B780523FB82F4
:4045000019E0954B1B78DBB203F00703934AD35C1A46C82303FB02F3184603F09DFA914B1B78DBB25BB2002B02DB00233B6105E0FB8A013BFB82FB8A002BE2D1372003F0B3
:404540009BFA844B9B78022B03D0824B9B78032B10D1854B1B78DAB27E4B9B7A9A4204D07C4B9B7A1846FFF725FC7A4B9B781846FFF706FC774B1B7903F04003002B0CD046
:40458000744BDB7807F11802134413F8143C032B03D10820FFF7B6FA20E06E4BDB7807F11802134413F8143C1846FFF7ABFA694B1B7903F04003002B08D0674A664B1B7816
:4045C000DBB243F04003DBB2137007E0624A624B1B78DBB223F04003DBB213705D4B9B79012B0AD1614B1B78DBB203F01003DBB2002B02D10020FFF76DF9564BDB791846F3
:40460000FFF758FB534B5B7A012B01D1FFF798FB504B1B7A1A464FF040231B78DBB203F030039A4210D04FF040214FF040231B78DBB25BB223F030035AB2464B1B7A5BB20F
:4046400013435BB2DBB20B70424B9B7B012B26D110233B610020FFF7D5F85020FFF716FD434B1B78AB23FB8216E00120FFF70EFD3F4B1B78DBB203F00103002B09D03C4B2E
:404680001B78DBB203F00103002B02D000233B6105E0FB8A013BFB82FB8A002BE5D12D4B9B78002B03D02B4B9B78012B10D12E4B1B78DAB2274B9B7A9A4204D0254B9B7A2B
:4046C0001846FFF777FB234B9B781846FFF758FB204B9B79002B09D1244B1B78DBB203F01003DBB2002B01D0FFF73EF9214B1B78DBB29BB21B02FB811F4B1B78DBB29AB2B5
:40470000FB891343FB81134B9B89FA899A4204D0104B9B891846FFF799FB1849174B1B78DBB25BB203F03F035AB20A4B5B795BB213435BB2DBB20B70114B064A12781A7075
:40474000104B044A52781A7000BF1837BD4680BDB86B0100A48BFF1F00420040B06B01000B4000401042004004400040A043004025420040074000400640004000480040DF
:40478000A1430040A243004080B584B000AF03460A46FB711346BB8003F066F90346FB734E4B1B78DBB203F00803002B0BD14C4A4B4B1B78DBB203F01F03DBB21370FB7953
:4047C000002B08D004E0FB7B184603F051F981E00020FFF72DFC00F007F9424B1B78DAB2414B1A713F4ABB881B099BB2DBB213703E4B1B78DAB23C4B5A713C4ABB88DBB2D1
:4048000003F00F03DBB21370394B1B78DAB2364B9A71374ABB881B0B9BB2DBB203F00103DBB21370334B1B78DBB203F00703002B04D12D4B012283F82E2014E02A4B0022DF
:4048400083F82E202B4B1B78DBB203F00703DAB2254B83F82D20274A264B1B78DBB223F00703DBB213701D4A1C4B1B78DBB223F00703DBB243F00303DBB21370174B1B7813
:4048800000BF00BF30BF184B93F82E30012B0FD01849184B1B78DBB25BB223F007035AB2114B93F82D305BB213435BB2DBB20B7000F0DAF90B4B0C4A12791A700B4B0A4A30
:4048C00052791A700A4B084A92791A70FB7B184603F0CEF81037BD4680BD00BF934300408346004098430040748BFF1F994300409A4300400042004080B584B000AF0346E1
:40490000FB7103F0B1F80346FB73104B1B78DAB20F4B1B781343DAB20D4B1A700C4B1B7803F00703BB73FB79DB43DAB2084B1B781340DAB2064B1A70FB7B184603F098F863
:40494000BB7B18461037BD4680BD00BF90430040B68BFF1F80B582B000AF0346FB71204A1F4B1B78DBB223F00203DBB21370FFF7C7FA1B4B1B78DBB203F00103002B19D0BC
:40498000184B1B78DBB2FA799A4224D0144A144B1B78DBB223F00103DBB21370114AFB7913700F4A0E4B1B78DBB243F00103DBB2137010E00B4B1B78DBB2FA799A4202D03B
:4049C000084AFB791370064A054B1B78DBB243F00103DBB2137000BF0837BD4680BD00BF824300408043004080B400AF804B1B78DAB2804B9A72804B1B78DAB27D4BDA72C0
:404A00007E4B1B78DAB27B4B1A737D4B1B78DAB2784B5A737B4B1B78DAB2764B9A737A4B1B78DAB2734BDA73784B1B78DAB2714B1A74774B1B78DAB26E4B5A74754B1B783B
:404A4000DAB26C4B9A74744B1B78DAB2694BDA74724B1B78DAB2674B1A75714B1B78DAB2644B5A756F4B1B78DAB2624B9A756E4B1B78DAB25F4BDA756C4B1B78DAB25D4BAB
:404A80001A766B4B1B78DAB25A4B5A76694B1B78DAB2584B9A76684B1B78DAB2554BDA76664B1B78DAB2534B1A77654B1B78DAB2504B5A77634B1B78DAB24E4B9A77624B76
:404AC0001B78DAB24B4BDA77604B1B78DAB2494B83F820205E4B1B78DAB2464B83F821205C4B1B78DAB2434B83F822205A4B1B78DAB2404B83F82320584B1B78DAB23D4B1A
:404B000083F82420564B1B78DAB23A4B83F82520374B00221A70384B00221A70374B00221A70374B00221A70364B00221A70364B00221A70354B00221A70354B00221A7046
:404B4000344B00221A70344B00221A70334B00221A70334B00221A70324B00221A70324B00221A70314B00221A70314B00221A70304B00221A70304B00221A702F4B0022FF
:404B80001A702F4B00221A702E4B00221A702E4B00221A702D4B00221A702D4B00221A702C4B00221A702C4B00221A702B4B00221A702B4B00221A702A4B1B78DBB203F0A1
:404BC0000803002B0CD00B4B012283F82F20254A244B1B78DBB223F00803DBB2137003E0044B002283F82F2000BFBD4680BC7047005A0040748BFF1F025A0040035A004071
:404C0000045A0040065A0040085A00400A5A0040105A0040125A0040135A0040145A0040165A0040185A00401A5A0040205A0040225A0040235A0040245A0040265A004078
:404C4000285A00402A5A0040305A0040325A0040335A0040345A0040365A0040385A00403A5A00402243004080B400AF434B444A927A1A70434B424AD27A1A70424B404AC6
:404C8000127B1A70414B3E4A527B1A70404B3C4A927B1A703F4B3A4AD27B1A703E4B384A127C1A703D4B364A527C1A703C4B344A927C1A703B4B324AD27C1A703A4B304AEC
:404CC000127D1A70394B2E4A527D1A70384B2C4A927D1A70374B2A4AD27D1A70364B284A127E1A70354B264A527E1A70344B244A927E1A70334B224AD27E1A70324B204A5C
:404D0000127F1A70314B1E4A527F1A70304B1C4A927F1A702F4B1A4AD27F1A702E4B184A92F820201A702D4B154A92F821201A702B4B134A92F822201A702A4B104A92F807
:404D400023201A70284B0E4A92F824201A70274B0B4A92F825201A70094B93F82F30012B07D1234A224B1B78DBB243F00803DBB2137000BFBD4680BC704700BF005A00408B
:404D8000748BFF1F025A0040035A0040045A0040065A0040085A00400A5A0040105A0040125A0040135A0040145A0040165A0040185A00401A5A0040205A0040225A0040DC
:404DC000235A0040245A0040265A0040285A00402A5A0040305A0040325A0040335A0040345A0040365A0040385A00403A5A00402243004080B582B000AF786000F03CF894
:404E0000786800F009F8072000F018F800F028F800BF0837BD4680BD80B485B000AF7860054B1B68FB60FB6848337A681A6000BF1437BD4680BC704708ED00E080B483B098
:404E400000AF0346FB71054AFB795B01DBB2137000BF0C37BD4680BC704700BF02E400E080B400AF034B04221A6000BFBD4680BC704700BF00E100E080B400AF034B0422C5
:404E80001A6000BFBD4680BC704700BF80E100E080B500AF064B1B78002B04D100F00AF8034B01221A7000F00FF800BF80BD00BFB78BFF1F80B500AF0A2000F05BF800F0BB
:404EC0003FF800BF80BD00BF80B582B000AF1A4B1B78DBB203F00203002B18D102F0C4FD0346FB71144A144B1B78DBB243F00203DBB21370114A114B1B78DBB243F004037B
:404F0000DBB21370FB79184602F0B2FD0FE002F0ABFD0346FB71094A084B1B78DBB243F00403DBB21370FB79184602F0A1FD00BF0837BD4680BD00BF0043004082430040B9
:404F400080B582B000AF02F08FFD0346FB71084A074B1B78DBB243F00803DBB21370FB79184602F085FD00BF0837BD4680BD00BF8243004080B483B000AF0346FB710D4B6B
:404F80001B78DBB203F00403002B0DD10A490A4B1B78DBB223F00F03DAB2FB7903F00F03DBB21343DBB20B7000BF0C37BD4680BC704700BF824300408143004080B500AF4D
:404FC0000220FFF799FC0346184680BD80B485B000AF0346FB710A4B1B78DBB223F00103FB730749FB7903F00103DAB2FB7B1343DBB20B7000BF1437BD4680BC704700BF7F
:405000002051004080B500AF064B1B78002B04D100F022F8034B01221A7000F033F800BF80BD00BFB88BFF1F80B400AF034B02221A6000BFBD4680BC704700BF00E100E0B7
:4050400080B400AF034B02221A6000BFBD4680BC704700BF80E100E080B500AF00F0B8F8064B02221A6006490120FFF723F807210120FFF747F800BF80BD00BF80E100E03E
:405080000556000080B582B000AF02F0EDFC0346FB71094A084B1B78DBB243F03003DBB21370FB79184602F0E3FC044B02221A6000BF0837BD4680BD8243004000E100E01F
:4050C00080B400AF024B1846BD4680BC704700BF2481FF1F80B582B000AF7860FFF7B0FF7B681B78DAB2104B1A707B685B78DAB20D4B5A707B689B78DAB20B4B9A707B6807
:405100001B79DAB2084B1A717B681B7ADAB2064B1A727B685B899AB2034B5A81FFF784FF00BF0837BD4680BD2481FF1F80B483B000AF0346FB71044AFB79137000BF0C37C8
:40514000BD4680BC704700BFBB8BFF1F90B482B000AF0346FB710B46BB711346BB80BB79022B02D8BB88013BBB80BA88BB889B089BB21846BB881349A1FB03135B099BB261
:40518000C31AB9880F48A0FB0101C90989B20B441344BA79013A0C498A5C1146FA790A441A440A4BA2FB0334111B49080B1999080B46DB005B1AD11ACBB218460837BD46F7
:4051C00090BC70471F85EB51CC6B01002549922480B582B000AFA04B0022DA809E4B1B79D9B29D4BDB889AB28BB213449AB29A4BDA80994B5B899BB2984AA2FB0312D209B1
:405200004FF4C87101FB02F29B1A9BB2002B15D0914B5B899BB203F003039BB2002B16D18D4B5B899BB28D4AA2FB03125209642101FB02F29B1A9BB2002B08D0884B1B78BE
:40524000DBB243F00203DAB2854B1A7007E0844B1B78DBB223F00203DAB2814B1A700023FB710DE07C4BDB889AB2FB797D49CB5C9BB213449AB2784BDA80FB790133FB713F
:40528000FA79754B1B7ADBB2013B9A42EAD3744B1B78DBB203F00203002B0BD06E4B1B7ADBB2022B06D96C4BDB889BB201339AB2694BDA80684B1B79D8B2674B1B7AD9B268
:4052C000654B5B899BB21A46FFF740FF03460133DAB2614BDA70604BDB78DBB2002B05D05D4BDB78DAB25C4BDA7006E05A4BDB78DBB20733DAB2584BDA70574B9B78DBB2D6
:405300000B2B08D8564B1B78DBB223F00403DAB2534B1A7007E0524B1B78DBB243F00403DAB24F4B1A70504B1B78DBB203F00103002B18D04D4B1B78DAB2474B1B78DBB20C
:405340009A4208D14A4B1B78DBB243F00103DAB2474B1A7007E0464B1B78DBB223F00103DAB2434B1A70404B1B78DBB203F00203002B18D03D4B5B78DAB2374B5B78DBB212
:405380009A4208D13A4B1B78DBB243F00203DAB2374B1A7007E0364B1B78DBB223F00203DAB2334B1A70304B1B78DBB203F00403002B18D02D4B9B78DAB2274B9B78DBB2BE
:4053C0009A4208D12A4B1B78DBB243F00403DAB2274B1A7007E0264B1B78DBB223F00403DAB2234B1A70204B1B78DBB203F00803002B18D01D4BDB78DAB2174BDB78DBB266
:405400009A4208D11A4B1B78DBB243F00803DAB2174B1A7007E0164B1B78DBB223F00803DAB2134B1A70104B1B78DBB203F02003002B27D00D4BDB889AB2074BDB889BB2C6
:405440009A4217D10A4B1B78DBB243F02003DAB2074B1A7016E000BF2481FF1F1F85EB51BC8BFF1FC06B0100B98BFF1F3081FF1FBA8BFF1F424B1B78DBB223F02003DAB249
:405480003F4B1A703F4B1B78DBB203F01003002B18D03D4B1B79DAB23C4B1B79DBB29A4208D1374B1B78DBB243F01003DAB2344B1A7007E0324B1B78DBB223F01003DAB25D
:4054C0002F4B1A702F4B1B78DBB203F04003002B18D02D4B1B7ADAB22C4B1B7ADBB29A4208D1274B1B78DBB243F04003DAB2244B1A7007E0224B1B78DBB223F04003DAB2FB
:405500001F4B1A701F4B1B78DBB25BB2002B18DA1D4B5B899AB21D4B5B899BB29A4208D1174B1B78DBB263F07F03DAB2144B1A7007E0134B1B78DBB203F07F03DAB2104B50
:405540001A70104B1B78BB71BB79002B13D00C4B1B78DAB2BB791340DBB2BA799A420AD10B4B1B78DBB243F00803DAB2084B1A70034B00221A7000BF0837BD4680BD00BFBD
:40558000BA8BFF1FB98BFF1F3081FF1F2481FF1FBC8BFF1F80B500AF0020FCF7B3FF00BF80BD00BF80B500AF0120FCF7ABFF00BF80BD00BF80B500AF0220FCF7A3FF00BF14
:4055C00080BD00BF80B500AF0320FCF79BFF00BF80BD00BF80B500AF0420FCF793FF00BF80BD00BF80B500AF0520FCF78BFF00BF80BD00BF80B500AF0620FCF783FF00BF99
:4056000080BD00BF80B582B000AF0420FFF774F99E4B1B78DBB20133DAB29C4B1A709B4B1B78DBB23B2B40F2A682984B5B78DBB20133DAB2954B5A70944B00221A70934BBB
:405640005B78DBB23B2B40F24682904B9B78DBB20133DAB28D4B9A708C4B00225A708B4B9B78DBB2172B40F2DD81884B1B79DBB20133DAB2854B1A71844B00229A70834B6A
:40568000DB889BB201339AB2804BDA807F4BDB78DBB20133DAB27D4BDA707C4BDB78DBB2072B02D9794B0122DA70794B1B78DBB203F00203002B11D0744B1B7ADBB2022B3E
:4056C0000CD1724B1B79DBB21946704B1B7ADBB2013B704AD35C013399422AD86C4B1B78DBB203F00203002B0FD0684B1B7ADBB2022B0AD0654B1B79DAB2644B1B7ADBB227
:40570000013B6449CB5C9A4213D8614B1B78DBB203F00203002B40F0F4805C4B1B79DAB25A4B1B7ADBB2013B5A49CB5C9A4240F2E880564B1B7ADBB20133DAB2534B1A7248
:40574000524B01221A71514B1B7ADBB20C2B40F285804E4B5B899BB201339AB24B4B5A814A4B01221A72494B0122DA80474B5B899BB2494AA2FB0312D2094FF4C87101FB47
:4057800002F29B1A9BB2002B15D0404B5B899BB203F003039BB2002B16D13C4B5B899BB23D4AA2FB03125209642101FB02F29B1A9BB2002B08D0364B1B78DBB243F0020330
:4057C000DAB2334B1A7007E0314B1B78DBB223F00203DAB22E4B1A70304B1B78DBB25BB2002B18DA2E4B5B899AB2284B5B899BB29A4208D12B4B1B78DBB263F07F03DAB22D
:40580000284B1A7007E0274B1B78DBB203F07F03DAB2244B1A70214B1B78FB71FB79002B13D0204B1B78DAB2FB791340DBB2FA799A420AD1164B1B78DBB243F00803DAB2B8
:40584000134B1A70174B00221A70174B1B78DBB203F04003002B01D0FFF7CCFE0F4B1B78DBB203F04003002B28D00D4B1B7ADAB2064B1B7ADBB29A4218D10A4B1B78DBB2C5
:4058800043F04003DAB2074B1A7017E02481FF1FBC8BFF1FC06B01001F85EB51B98BFF1F3081FF1FBA8BFF1FBB8BFF1F964B1B78DBB223F04003DAB2934B1A70934B1B782B
:4058C000FB71FB79002B13D08F4B1B78DAB2FB791340DBB2FA799A420AD18D4B1B78DBB243F00803DAB28A4B1A70874B00221A70884B1B78DBB203F02003002B01D0FFF7A9
:4059000071FE824B1B78DBB203F00803002B18D0814BDB78DAB2814BDB78DBB29A4208D1794B1B78DBB243F00803DAB2764B1A7007E0754B1B78DBB223F00803DAB2724BC7
:405940001A70724B1B78DBB203F02003002B18D0714BDB889AB2714BDB889BB29A4208D1694B1B78DBB243F02003DAB2664B1A7007E0654B1B78DBB223F02003DAB2624BF4
:405980001A70624B1B78DBB203F01003002B18D0614B1B79DAB2614B1B79DBB29A4208D1594B1B78DBB243F01003DAB2564B1A7007E0554B1B78DBB223F01003DAB2524B72
:4059C0001A70524B1B78FB71FB79002B13D04E4B1B78DAB2FB791340DBB2FA799A420AD14B4B1B78DBB243F00803DAB2484B1A70454B00221A70474B1B78DBB203F0080340
:405A0000002B01D0FFF7DEFD444BDB78DBB2012B08D1404B1B78DBB203F01003002B01D0FFF7D8FD3D4B9B78DBB20B2B08D8384B1B78DBB223F00403DAB2354B1A7007E035
:405A4000334B1B78DBB243F00403DAB2304B1A702E4B1B78DBB203F00403002B18D02E4B9B78DAB22D4B9B78DBB29A4208D1264B1B78DBB243F00403DAB2234B1A7007E0FC
:405A8000214B1B78DBB223F00403DAB21E4B1A701E4B1B78FB71FB79002B13D01A4B1B78DAB2FB791340DBB2FA799A420AD1184B1B78DBB243F00803DAB2154B1A70124B41
:405AC00000221A70134B1B78DBB203F00403002B01D0FFF76FFD0D4B1B78DBB203F00203002B25D00C4B5B78DAB20C4B5B78DBB29A4215D1044B1B78DBB243F00203DAB232
:405B0000014B1A7014E000BFBA8BFF1FB98BFF1FBC8BFF1FBB8BFF1F3081FF1F2481FF1F384B1B78DBB223F00203DAB2354B1A70354B1B78FB71FB79002B13D0314B1B785B
:405B4000DAB2FB791340DBB2FA799A420AD12F4B1B78DBB243F00803DAB22C4B1A70294B00221A702A4B1B78DBB203F00203002B01D0FFF717FD244B1B78DBB203F001037D
:405B8000002B18D0234B1B78DAB2234B1B78DBB29A4208D11B4B1B78DBB243F00103DAB2184B1A7007E0174B1B78DBB223F00103DAB2144B1A70144B1B78FB71FB79002BDA
:405BC00013D0104B1B78DAB2FB791340DBB2FA799A420AD10D4B1B78DBB243F00803DAB20A4B1A70074B00221A70094B1B78DBB203F00103002B01D0FFF7CCFC00BF083788
:405C0000BD4680BDBA8BFF1FB98BFF1FBC8BFF1FBB8BFF1F3081FF1F2481FF1F80B500AF064B1B78002B04D100F00AF8034B01221A7000F015F800BF80BD00BFBD8BFF1F31
:405C400080B400AF044B72221A70044B20221A7000BFBD4680BC7047866400408665004080B582B000AF01F0FFFE0346FB710C4A0B4B1B78DBB243F02003DBB21370094A71
:405C8000084B1B78DBB243F01003DBB21370FB79184601F0EDFE00BF0837BD4680BD00BF966400409665004080B582B000AF01F0DBFE0346FB710C4A0B4B1B78DBB223F087
:405CC0002003DBB21370094A084B1B78DBB223F01003DBB21370FB79184601F0C9FE00BF0837BD4680BD00BF966400409665004080B483B000AF0023FB710C4B1B78BB71BE
:405D0000BB7903F02003002B09D0094B1B78FB71BB7903F01E03002B01D00023FB71FB7918460C37BD4680BC704700BF666500404664004080B582B000AF01F095FE03464D
:405D4000FB710C4A0B4B1B78DBB243F00103DBB21370084A074B1B78DBB223F00103DBB21370FB79184601F083FE00BF0837BD4680BD00BF9664004080B582B000AF786050
:405D800000F048F8786800F015F8072000F024F800F034F800BF0837BD4680BD80B500AF00F038F8024800F005F800BF80BD00BF7536000080B485B000AF7860054B1B68E5
:405DC000FB60FB6840337A681A6000BF1437BD4680BC704708ED00E080B483B000AF0346FB71054AFB795B01DBB2137000BF0C37BD4680BC704700BF00E400E080B400AFE9
:405E0000034B01221A6000BFBD4680BC704700BF00E100E080B400AF034B01221A6000BFBD4680BC704700BF80E100E080B485B000AF0346FB710B4B1B78DBB223F0100356
:405E4000FB730849FB791B01DBB203F01003DAB2FB7B1343DBB20B7000BF1437BD4680BC704700BFC051004080B500AF00F032F800BF80BD80B500AF00F046F800BF80BDC8
:405E800080B485B000AF0346FB710B4B1B78DBB223F02003FB730849FB795B01DBB203F02003DAB2FB7B1343DBB20B7000BF1437BD4680BC704700BF2051004080B400AF84
:405EC00000BFBD4680BC704780B400AF00BFBD4680BC704780B500AF094B1B78DBB203F01003002B14BF01230023DBB21A46054B1A7001F07DFEFFF7E1FF00BF80BD00BFEE
:405F0000916400403C81FF1F80B500AFFFF7DCFF01F0F2FE034B1B78002B01D001F024FE00BF80BD3C81FF1F80B485B000AF0346FB710B4B1B78DBB223F01003FB730849CC
:405F4000FB791B01DBB203F01003DAB2FB7B1343DBB20B7000BF1437BD4680BC704700BF3051004080B485B000AF0346FB710B4B1B78DBB223F00203FB730849FB795B0035
:405F8000DBB203F00203DAB2FB7B1343DBB20B7000BF1437BD4680BC704700BF2051004080B485B000AF0346FB710B4B1B78DBB223F02003FB730849FB795B01DBB203F004
:405FC0002003DAB2FB7B1343DBB20B7000BF1437BD4680BC704700BF3051004080B485B000AF0346FB710B4B1B78DBB223F01003FB730849FB791B01DBB203F01003DAB2C7
:40600000FB7B1343DBB20B7000BF1437BD4680BC704700BF2051004080B582B002AF414B01221A70404B00221A70102000F066FF102001F049F807211D20FEF763F83B4B72
:4060400004221A703A4B00221A703A4B00221A70394A394B1B78DBB243F01803DBB21370364B00221A70364B00221A70354B00221A70354B0A221A70344B00221A70344B23
:4060800000221A70334B5B221A70334B5E221A70324B00221A70324B14221A700123009310234FF4004247F60271032000F0A6FC0223009310234FF4004249F2DA01002047
:4060C00000F09CFC0323009310234FF4004249F2DA01002000F092FC0423009310234FF4004249F2DA01002000F088FC1D4A0D4B1B78DBB2013B1C499B000B449B781370D7
:406100001A4A084B1B78DBB2013B174931F823301380044B1B78DBB2184600F067FA00BFBD4680BD3E81FF1FC08BFF1F96580040975800409E580040075B0040935800401A
:40614000885B0040895B004080580040815800408358004088580040895800408D580040014E00400E4E0040C88BFF1F0C4E004080B582B000AF01F077FC0346FB71444B32
:406180001B78BB71434A434B1B78DBB243F00103DBB213703F4A3F4B1B78DBB243F01003DBB213703C4A3C4B1B78DBB243F00103DBB21370384A384B1B78DBB243F0100336
:4061C000DBB21370354A354B1B78DBB243F00203DBB21370324A324B1B78DBB243F00203DBB213702F4A2F4B1B78DBB243F00303DBB213700320FDF749FF284A274B1B7895
:40620000DBB223F00203DBB21370254A244B1B78DBB223F00203DBB21370234A224B1B78DBB243F00603DBB21370204B7A221A701F4A1F4B1B78DBB243F00103DBB2137072
:406240001C4A1C4B1B78DBB243F00103DBB21370194A194B1B78DBB243F00203DBB21370164A164B1B78DBB243F00203DBB21370134B4FF000521A60124B4FF000521A60C1
:40628000FB79184601F0F4FB00BF0837BD4680BD3E81FF1FAA430040BA430040F8460040F9460040915800407758004082580040A1430040B1430040A2430040B2430040A6
:4062C00080E200E000E100E080B500AF084B1B78002B09D1074B1B78DBB2002B01D1FFF79BFE034B01221A70FFF742FF00BF80BDC28BFF1FC38BFF1F80B582B000AF01F0C2
:40630000B3FB0346FB714D4A4C4B1B78DBB223F00103DBB213704A4A494B1B78DBB243F00403DBB21370474A464B1B78DBB243F00203DBB21370444A434B1B78DBB243F0FA
:406340000203DBB21370414A404B1B78DBB223F00303DBB213703E4A3D4B1B78DBB223F00803DBB213700320FDF790FE354A354B1B78DBB223F00203DBB21370324A324B66
:406380001B78DBB223F00203DBB21370314A314B1B78DBB223F01003DBB213702D4A2D4B1B78DBB223F00103DBB213702A4A2A4B1B78DBB223F00103DBB21370264A264B01
:4063C0001B78DBB223F01003DBB21370234A234B1B78DBB223F00603DBB21370204A204B1B78DBB223F00103DBB213701D4A1D4B1B78DBB223F00103DBB213701A4A1A4B25
:406400001B78DBB223F00803DBB21370174A174B1B78DBB223F00203DBB21370144A144B1B78DBB223F00203DBB21370FB79184601F01EFB00BF0837BD4680BD004E004056
:40644000014E0040F8460040F94600409158004092580040AA430040BA43004077580040A1430040B143004082580040A2430040B243004080B400AF054A054B1B78DBB256
:4064800043F00103DBB2137000BFBD4680BC7047004E004080B400AF054A054B1B78DBB223F00103DBB2137000BFBD4680BC7047004E004080B485B000AF0346FB710D4B21
:4064C0001B78DBB2002B03D00B4B1B78FB7305E00A4B1B78DBB203F00103FB73FB7B012B02D0FB79002BEAD0FB7B18461437BD4680BC7047C18BFF1FC08BFF1F014E004024
:4065000080B483B000AF224B1B78DBB203F00303FB70FB78012B0BD81E4B1B889BB27B607B681B041C4A128892B213437B6020E0FB78022B12D1174B1B889BB27B607B6894
:406540001B04154A1278D2B213437B60134B1B78DBB21B027A6813437B600AE00E4B1B889BB27B600B4B1B889BB21B047A6813437B600B4B1B78DBB2002B02D0094B002241
:406580001A707B6818460C37BD4680BC704700BF144E0040124E0040104E0040114E0040C18BFF1FC08BFF1F90B585B000AF78600C4B1B687A68D31A7B60786805F032FD3D
:4065C0000446094B1B68184605F02CFD03461946204605F02FFE0346FB60FB6818461437BD4690BDC48BFF1F3C0A002080B582B000AF0346FB71C34B00221A70FB79012BD6
:4066000066D1C14B30221A70C04B04221A70C04B06221A70BF4B00221A70BF4B00221A70BE4B3F221A70BE4B00221A70BD4B00221A70BD4B00221A70BC4B01221A70BC4B8B
:4066400050221A70BB4B07221A70BB4B29221A70BA4B00221A70BA4B55221A70B94B5A221A70B94B00221A70B84B00221A70B84B00221A70B74B0A221A70B74B43221A7012
:40668000442000F073FAB54B58221A70B44B00221A70B44B02221A70B34B02221A70B34B00221A70B24B00221A70002000F054FBB04B42F6AB121A600121052000F060FB63
:4066C00001218A2000F042FCAB491D20FDF7F2FCFB79022B66D18C4B38221A708B4B04221A708B4B06221A708A4B00221A708A4B00221A70894B3F221A70894B00221A70AB
:40670000884B00221A70884B00221A70874B01221A70874B50221A70864B27221A70864B2C221A70854B00221A70854B55221A70844B5A221A70844B05221A70834B01222E
:406740001A70834B11221A70824B19221A70824B97221A70442000F009FA804B58221A707F4B00221A707F4B05221A707E4B02221A707E4B00221A707D4B00221A700020CB
:4067800000F0EAFA7B4B4FF47A421A600121052000F0F6FA0121252000F0D8FB77491D20FDF788FCFB79032B66D1574B38221A70564B04221A70564B06221A70554B00223B
:4067C0001A70554B00221A70544B3F221A70544B00221A70534B00221A70534B00221A70524B01221A70524B50221A70514B27221A70514B2C221A70504B00221A70504BB2
:4068000055221A704F4B5A221A704F4B05221A704E4B01221A704E4B11221A704D4B19221A704D4B97221A70442000F09FF94B4B58221A704A4B00221A704A4B05221A708B
:40684000494B02221A70494B00221A70484B00221A70002000F080FA464B4FF47A421A600121052000F08CFA0121252000F06EFB43491D20FDF71EFCFB79042B40F0A98073
:40688000214B38221A70214B04221A70204B06221A70204B00221A701F4B00221A701F4B3F221A701E4B00221A701E4B00221A701D4B00221A701D4B01221A701C4B5022A1
:4068C0001A701C4B27221A701B4B2C221A701B4B00221A701A4B55221A701A4B5A221A70194B05221A70194B01221A70184B11221A70184B19221A70174B97221A7044203C
:4069000040E000BFC18BFF1F004E0040024E0040034E0040044E0040054E0040064E0040084E0040094E00400A4E0040144E004084580040855800408658004087580040C9
:406940008A5800408B5800408C5800408E5800408F580040905800409158004094580040955800409A5800409B5800409C5800409D5800403C0A00205D6C0000696C0000E5
:40698000756C000000F0F2F8144B58221A70144B00221A70134B05221A70134B02221A70124B00221A70124B00221A70002000F0D3F9104B4FF47A421A600121052000F09A
:4069C000DFF90121252000F0C1FA0B491D20FDF771FB00BF0837BD4680BD00BF94580040955800409A5800409B5800409C5800409D5800403C0A0020816C000090B587B0C9
:406A000000AF0446084611461A462346FB710346BB800B467B801346BB7197F82830002B00F08B8097F82830042B00F28680FB79013B092B4AD801A252F823F0656A00003E
:406A4000CD6A0000CD6A0000656A0000CD6A0000CD6A00007F6A0000996A0000CD6A0000B36A0000BB790F2B04D9374B1B78DBB2FB752EE0354B1B78DBB2FB7529E0BB7973
:406A80000F2B04D9324B1B78DBB2FB7521E0314B1B78DBB2FB751CE0BB790F2B04D92E4B1B78DBB2FB7514E02C4B1B78DBB2FB750FE0BB790F2B04D9294B1B78DBB2FB751C
:406AC00007E0284B1B78DBB2FB7502E00023FB7500BFBA8897F917305B0113443B617B883A6902FB03F3FB60FB68DB0BBB82BB790D2B12D8BA8ABB79C3F10E0342FA03F3D1
:406B0000BB8297F82830013BBA790132D1B2164A9B0013440A469A7007E097F82830013B114A9B0013440F229A7097F82830013B0D49BA8A21F8232002E00020FDF778FA4D
:406B400000BF1C37BD4690BD180100491C010049190100491D0100491A0100491E0100491B0100491F010049C88BFF1F80B584B000AF0346FB7100F077FF0346FB73174ACB
:406B8000164B1B78DBB243F00303DBB21370144A134B1B78DBB243F00303DBB21370114AFB7913700320FDF771FA0C4A0B4B1B78DBB223F00303DBB21370094A084B1B78E4
:406BC000DBB223F00303DBB21370FB7B184600F04FFF00BF1037BD4680BD00BFF8460040F94600409258004080B582B000AF0B4A0A4B1B78DBB243F00403DBB21370FFF781
:406C000039FC0020FFF756FCFFF77AFC7860FFF741FC7B6818460837BD4680BD014E004080B400AF044B1B78DAB2044B5A7000BFBD4680BC704700BF004E00404081FF1FA6
:406C400080B400AF034B044A52781A7000BFBD4680BC7047004E00404081FF1F80B400AF00BFBD4680BC704780B400AF00BFBD4680BC704780B400AF00BFBD4680BC704757
:406C800080B400AF00BFBD4680BC704780B582B000AF0023FB7106E0FB791846FCF774FBFB790133FB71FB79032BF5D9034BFF221A7000BF0837BD4680BD00BF4281FF1F22
:406CC00080B582B000AF0346FB71FFF7DFFFFB791846FCF7FDFA034AFB79137000BF0837BD4680BD4281FF1F80B485B000AF0346FB710B4B1B78DBB223F00203FB730849BC
:406D0000FB795B00DBB203F00203DAB2FB7B1343DBB20B7000BF1437BD4680BC704700BFC051004080B582B000AF0023FB7106E0FB791846FCF7AAFBFB790133FB71FB7912
:406D4000012BF5D9034BFF221A7000BF0837BD4680BD00BF4381FF1F80B582B000AF0346FB71FFF7DFFFFB791846FCF76FFB034AFB79137000BF0837BD4680BD4381FF1F0F
:406D800080B584B000AF03460A46FB8013467B7100F0CEF80346FB7300F0A4F80346BB81FA88BB899A4200F08880464B1B78DBB203F00203FB72FB7B002B20D1BB89002B33
:406DC00002D0FB88002B1AD1BB89002B0BD13E4AFB8813803D4A3D4B1B78DBB223F04003DBB2137069E0394A384B1B78DBB243F04003DBB21370344AFB8813805DE0FB7A6F
:406E0000002B33D0324B00221A70324B02221A70314B00221A70314A304B1B78DBB203F07F03DBB21370294B1B78DBB203F00803002B02D0FB88002B18D1294ABB8913809D
:406E4000234B07221A7000BF214B1B78DBB203F00103002BF8D11B4A1A4B1B78DBB223F00203DBB213701A4B00221A70154B1B78DBB203F00203002B13D0194AFB88138099
:406E8000134A7B79002B01D0032300E00123137000BF0F4B1B78DBB203F00103002BF8D10BE0094AFB8813800649064B1B78DAB2FB7A1343DBB20B70FFE700BF1037BD46DF
:406EC00080BD00BFA24300408440004086400040014000401040004014400040084000400240004080B400AF034B1B889BB21846BD4680BC704700BF8440004080B483B019
:406F000000AF0346FB710949084B1B78DBB25AB297F9073023F007035BB213435BB2DBB20B7000BF0C37BD4680BC70478640004080B400AF044B1B78DBB203F00703DBB2E6
:406F40001846BD4680BC70478640004080B584B000AF03460A46FB8013467B7100F0CEF80346FB7300F0A4F80346BB81FA88BB899A4200F08880464B1B78DBB203F0010386
:406F8000FB72FB7B002B20D1BB89002B02D0FB88002B1AD1BB89002B0BD13E4AFB8813803D4A3D4B1B78DBB223F04003DBB2137069E0394A384B1B78DBB243F04003DBB208
:406FC0001370344AFB8813805DE0FB7A002B33D0324B00221A70324B01221A70314B00221A70314A304B1B78DBB203F07F03DBB21370294B1B78DBB203F00803002B02D0F5
:40700000FB88002B18D1294ABB891380234B07221A7000BF214B1B78DBB203F00103002BF8D11B4A1A4B1B78DBB223F00103DBB213701A4B00221A70154B1B78DBB203F083
:407040000103002B13D0194AFB881380134A7B79002B01D0032300E00123137000BF0F4B1B78DBB203F00103002BF8D10BE0094AFB8813800649064B1B78DAB2FB7A134389
:40708000DBB20B70FFE700BF1037BD4680BD00BFA14300400041004002410040014000401440004010400040084000400240004080B400AF034B1B889BB21846BD4680BC48
:4070C000704700BF0041004080B483B000AF0346FB710949084B1B78DBB25AB297F9073023F007035BB213435BB2DBB20B7000BF0C37BD4680BC70470241004080B400AF43
:40710000044B1B78DBB203F00703DBB21846BD4680BC70470241004080B500AF064B1B78002B04D100F00AF8034B01221A7000F01BF800BF80BD00BFD88BFF1F80B400AFA8
:40714000064B06221A70064B47221A70054B00221A7000BFBD4680BC704700BF23640040336400408564004080B582B000AF00F07BFC0346FB71094A084B1B78DBB243F066
:407180001003DBB2137000F0C7F8FB79184600F06FFC00BF0837BD4680BD00BF9564004080B582B000AF00F05FFC0346FB7100F0CDF8084A074B1B78DBB223F01003DBB258
:4071C0001370FB79184600F053FC00BF0837BD4680BD00BF9564004080B400AF034B1B78DBB21846BD4680BC704700BF6564004080B483B000AF0346FB7100BF074B1B78E9
:40720000DBB203F00403002BF8D1054AFB79137000BF0C37BD4680BC704700BF656400404564004080B584B000AF78600023FB810C4B1B78002B10D009E0FB897A681344BA
