:400000000080002011000000114B0000114B000080B500AF024A034B1B68136004F0ACFDBC760040FA46004010B5054C237833B9044B13B10448AFF300800123237010BDB2
:40004000B08AFF1F00000000A8830100084B10B51BB108490848AFF300800848036803B910BD074B002BFBD0BDE81040184700BF00000000B48AFF1FA8830100C880FF1FC8
:400080000000000080B500AF07F0ECF84FF48072002104480EF07CFF034B00221A7000BF80BD00BFCC8AFF1FCD8BFF1F80B582B000AF07F0B5F80346FB71FB79002B09D0E0
:4000C000114B1B785A1CD1B20F4A117019460F4AFB795354FB790D2B11D10D4B1A680D4B1B68194610460FF077FE02460A4B1A60054B1B781A46054B1344054A136000BF7D
:400100000837BD4680BD00BFCD8BFF1FCC8AFF1FCC80FF1FD48BFF1FD08BFF1F80B582B000AF7860796803480FF03AFC00BF0837BD4680BD88C5FF1F80B596B000AF31499B
:4001400031480FF049FE78657B6D002B01D0002353E02E492C480FF03FFE78657B6D002B4AD000F00BFC386538463B6D284A20210FF036FA07F12003184600F05DF897F88F
:400180003830002B2DD0B7F9363007F13C00214A14210FF025FA07F13C031A461E49002000F038FB07F13C033A6D19461B4802F04BF83B461A461A491A4800F0F1F91A4AAD
:4001C0001749184800F0ECF907F13C031A461449144800F0E5F9154A1149124800F0E0F908E01349022000F015FB3A6D11490B4802F02AF8002300E0002318465837BD468C
:4002000080BD00BFB883010088C5FF1FBC830100C0830100C4830100C8830100DC830100EC830100F0830100FC830100108401001484010040840100B0B58AB000AF786026
:40024000002387F82130002387F82030FFF71AFF012007F083F8C82005F044F9022008F055FE06F073FF384807F01EF84FF4FA6005F038F906F0B0FF07F028F8002007F0E5
:400280006DF80C2008F042FE002008F021FE2F492F480FF0B1FE786233E00D21786A0FF039FA0346002B27D0786A0EF091FC03467B847B8C002B1FD07B8C42F20F729342A0
:4002C00014D097F82030B7F922205B0007F128010B4423F8202C97F820300A2B15D897F820300133DBB287F8203005E097F821300133DBB287F82130144900200FF07CFE5B
:4003000078627B6A002BC8D100E000BF97F8202007F108031146184600F082F803461BB2FB837B681D4607F108040FCC28606960AA60EB6003CC2861696123882B837868F0
:400340002837BD46B0BD00BFAD00000044840100CC8AFF1FB0B5EEB004AF3B1D186007F12403002283F8802007F124032A4A1C4615460FCD0FC42B68238007F1080318468D
:40038000FFF75AFF07F108031B7E1A4607F108035B7E134407F10802127E114607F10802B2F91620144607F1240202F181000294019100930B23194A4FF480710FF010F97F
:4003C00007F108031B7E0B2B05D107F12403012283F880200EE007F108031B7E002B09D007F108031B7E0A2B04D807F12403022283F880203B1D1A6807F1240310461946B1
:4004000040F281131A460EF04DFD3B1D186807F5D477BD46B0BD00BF488401005C84010090B585B000AF78600B46FB700023FB81FB781BB21946786800F03AF8FB7803F0EF
:400440000103DBB2002B25D1FB78013BDA0F13445B105B007A681344B3F900301946FB785B08DBB25B007A681344B3F900300B4418460DF04BFD4FF000024FF080430DF09C
:40048000D5FE03460C46184621460EF055F80346FB8107E0FB785B08DBB25B007A6813441B88FB81FB8918461437BD4690BD00BF80B584B000AF78600B467B800023FB81E5
:4004C00037E00023BB8124E0B7F90C305B007A681344B3F90020B7F90C3001335B0079680B44B3F900309A420DDDB7F90C305B007A68D018B7F90C3001335B007A68134424
:40050000194600F021F8B7F90C309BB201339BB2BB81B7F90C20B7F90210B7F90E30CB1A013B9A42D0DBB7F90E309BB201339BB2FB81B7F90E20B7F90230013B9A42C0DB7E
:4005400000BF1037BD4680BD80B485B000AF786039607B681B88FB813B68B3F900207B681A803B68FA891A8000BF1437BD4680BC704700BF80B584B000AF78600923FB73B5
:4005800000F078F8786809F055FA0346DBB20133FB7300F07BF8FB7B18461037BD4680BD80B586B000AFF860B9607A600923FB7500F060F8B968F86809F026FA38613B695D
:4005C000002B08D109F054F809F0CCF8B968F86809F01AFA38613B69002B10D078680FF03DFA03461A467968386909F0BBFB386909F044F90346DBB2C3F10103FB7500F06A
:4006000045F8FB7D18461837BD4680BD80B586B000AFF860B9607A600923FB7500F02AF81349F86809F0F0F938613B69002B08D109F01EF809F096F80D49F86809F0E4F904
:4006400038613B69002B0CD07A68B968386909F062FA386909F012F90346DBB2C3F10103FB7500F013F8FB7D18461837BD4680BD9484010080B500AF06F094FE012006F09E
:4006800097FE09F06FF800BF80BD00BF80B500AF002006F08DFE06F07FFE08F0E9FF002006F0F8FE002006F0D7FE002006F010FF002006F02BFF00BF80BD00BFF0B5EBB05B
:4006C00000AF3B1D186007F124033D4A1C4613460FCB07C4237007F12403002283F8802007F11803374A07CA03C31A8007F10C03354A07CA03C31A7007F10C031846FFF7BF
:4007000039FF07F10C03314A31491846FFF748FF07F1180107F10C030A221846FFF776FF07F10C031846FFF725FF03461A4607F1240383F8802007F1240393F88030012BF5
:4007400014D107F124038133224A1D4614460FCC28606960AA60EB6007CC28616961AA612388A278AB831346AB7717E007F124038133194A14469E4604F1200C75462646C5
:400780000FCE28606960AA60EB6010340EF1100E6445F3D17346224612781A703B1D1A6807F124031046194640F281131A460EF079FB3B1D186807F5D677BD46F0BD00BFDD
:4007C00098840100FC84010008850100A8840100B4840100B8840100D884010080B500AF07F032FF00BF80BD80B500AF07F08CFF034603F00203002B02D1012004F072FE9B
:4008000007F0F8FF00BF80BD80B500AF08F00CF800BF80BD0EB480B5ADF6140D00AF0246FB1D1A70FB1D1B78022B07D0FB1D1B78012B03D0FB1D1B78032B1DD1294800F01D
:40084000C9F800F09BF803461946274800F0C2F8FB1D1B78022B03D1244800F0BBF820E0FB1D1B78012B03D1214800F0B3F818E0204800F0AFF814E0FB1D1B78002B29D14E
:400880001D4B1B79002B25D0164800F0A3F800F075F803461946144800F09CF8174800F099F807F5026207F10C031A6007F10C0307F110001B68D7F81C284FF4006112F042
:4008C00057FA07F11003184607F044FF0C4800F081F800E000BF07F61407BD46BDE8804003B070471485010018850100288501004485010060850100EC9DFF1F7C8501007F
:400900009885010084B080B500AF07F1080E8EE80F00134800F05EF800F030F803461946104800F057F8104800F054F807F108010E4800F04FF897F8883019460C4800F0EA
:4009400049F807F1890319460A4800F043F80A4800F040F800BFBD46BDE8804004B070471485010018850100A0850100B0850100C0850100D0850100E085010080B58CB0C3
:4009800000AF05F0F9FDF862FB6A1B78DBB27B60FB6A5B78DBB2BB60FB6A9B78DBB2FB60FB6A5B899BB2A3F26C73BB61FB6A1B7ADBB27B61FB6A1B79DBB23B6100237B62F8
:4009C0003B1D18460EF036FCB862BB6A18463037BD4680BD0FB480B5ADF6080D00AF07F61403C7F80438381DD7F80438D7F810284FF4006112F0BCF93B1D184607F0AAFE48
:400A000000BF07F60807BD46BDE8804004B07047B0B59AB000AF7860012007F0FDFB012008F092FA0A2004F05DFD07F0C7FB07F09FFB06F0E1FE002387F8673034E097F8BA
:400A40006730184607F0D4FB0023A7F864300FE0B7F8644007F060FB0246A30007F168010B4443F8602CB7F864300133A7F86430B7F864300A2BEBD997F8674007F1080350
:400A80000B21184600F0DCF90346184607F024F80246A30007F168010B4443F8342C97F86730013387F8673097F86730062BC6D907F084FB07F04CFB06F0B6FE002007F01C
:400AC000ABFB002008F040FA7B6B18460DF030FA19A3D3E900230DF0CBF803460C46184621460DF051FD03463B66BB6B144918460DF0A8FE0346396E18460DF099FD0346F5
:400B0000FB64FB6B396E18460DF092FD03463B653B6CBB65012387F85C307B681D4607F14C040FCC0FC523682B6078686837BD46B0BD00BFAFF30080FCA9F1D24D62F03F17
:400B4000000030410000000090B599B000AF786007F034FB07F00CFB06F04EFE032007F047FB0023A7F85E300FE0B7F85E4007F0D3FA0246A30007F160010B4443F8582C8B
:400B8000B7F85E300133A7F85E30B7F85E300A2BEBD907F108030B21184600F051F90346184606F099FF03463B653B6D484918460DF048FE034618460AF0A8FF0346444984
:400BC00018460DF0F3FE03463B65012008F0BCF90A2004F087FC0023A7F85C300FE0B7F85C4007F099FA0246A30007F160010B4443F8582CB7F85C300133A7F85C30B7F8A4
:400C00005C300A2BEBD907F108030B21184600F017F90346184606F05FFF0346FB6407F0CDFA07F095FA06F0FFFD002008F08CF9FB6C18460DF07CF921A3D3E900230DF055
:400C4000F5FA03460C46184621464FF00002214B0DF0C2F903460C46184621460DF094FC03467B65FB6C18460DF062F94FF00002194B0DF0B1F903460C461846214612A32C
:400C8000D3E900230DF0D2FA03460C46184621464FF00002114B0CF0EBFF03460C46184621460DF071FC0346BB657B681C4607F14C030FCB84E80F0078686437BD4690BDCA
:400CC0000000000000C0624033333333333303400000C84200408F40000024400000044084B090B587B000AF786007F12C0080E80E00BB6B18460DF01BF923A3D3E9002351
:400D00000DF094FA03460C46184621464FF00002214B0DF08BFA03460C46184621460DF033FC03463B61BB6B18460DF001F94FF000021A4B0DF050F903460C461846214661
:400D400013A3D3E900230DF071FA03460C46184621464FF00002124B0CF08AFF03460C46184621460DF010FC03467B617B681C4607F108030FCB84E80F0078681C37BD4692
:400D8000BDE8904004B070470000000000C06240333333333333034000408F40000024400000044080B584B000AF786039600023FB6028E00023BB601BE0BB689B007A68DD
:400DC00013441A68BB6801339B0079680B441B689A420BDDBB689B007A68D018BB6801339B007A681344194600F016F8BB680133BB603A68FB68D31A5A1EBB689A42DCDC0E
:400E0000FB680133FB603B685A1EFB689A42D1DC00BF1037BD4680BD80B485B000AF786039607B681B68FB603B681A687B681A603B68FA681A6000BF1437BD4680BC704728
:400E400090B585B000AF786039600023FB6039687868FFF7A7FF3B6803F00103002B23D13B68013BDA0F13445B109B007A6813441A683B68D90F0B445B109B0079680B4494
:400E80001B68134418460DF041F84FF000024FF080430DF0CBF903460C46184621460DF04BFB0346FB6008E03B68DA0F13445B109B007A6813441B68FB60FB681846143785
:400EC000BD4690BD2DE9B043EEB006AF3B1D186007F11C03002283F8802007F11C03264A1C4615460FCD0FC495E8030020600434217007F108031846FFF78AFD07F1080385
:400F00001B6818460DF014F804460D4607F108035B6818460DF00CF88046894607F108039B6818460DF004F802460B4607F11C0101F18100CDE90423CDE90289CDE90045D9
:400F40000E4A4FF480710EF04BFB07F11C03012283F880203B1D1A6807F11C031046194640F281131A460DF09DFF3B1D186807F5D077BD46BDE8B083E4850100FC85010005
:400F80002DE9B043EEB006AF3B1D186007F11C03002283F8802007F11C03374A1C4615460FCD0FC495E8030020600434217007F10C031846FFF7C8FD07F10C031B681846DC
:400FC0000CF0B6FF04460D4607F10C039B6818460CF0AEFF8046894607F10C03DB6818460CF0A6FF02460B4607F11C0101F18100CDE90423CDE90289CDE900451F4A4FF4CE
:4010000080710EF0EDFA07F10C031B681C4918460DF018FC034618460AF078FD0346184918460DF0C3FC03461A4607F10C031A6007F10C035A6807F10C031B681946104670
:401040000DF094FD0346002B04D107F11C03012283F880203B1D1A6807F11C031046194640F281131A460DF01DFF3B1D186807F5D077BD46BDE8B0831C860100348601000B
:401080000000C84298B500AF12E00D4BB3F900301C4607F0F7FC03461A460A4B1A55084BB3F900309BB201339BB21AB2044B1A8007F00AFD0346012BE7D000BF98BD00BF9C
:4010C000D88BFF1FE409002080B500AF00F032F8154B00221A70154B002283F82820134B00221A75114B00221A70114B00221A600F4B00225A600E4B00229A600C4B0022E0
:40110000DA600B4B00221A61094B00225A61084B0022DA61064B00229A610021402007F06BFE00BF80BD00BF490900206CEEFF1F4C09002080B500AF002007F08FFE0C2084
:4011400007F03CFE002007F0D1FB002007F018FE002007F069FE002007F0AAFB002007F0E3FB00BF80BD00BF80B500AF022007F025FE012007F072FE012007F0B7FB64204E
:4011800004F0B0F900BF80BD80B500AF41F288320A490B4800F0A8F800F084F84FF47A7004F0A0F907F03EFC07F06EFDFFF7C2FF044B00221A7000BF80BD00BF648601007E
:4011C000688601004909002080B582B000AFFFF7CBFF07F0C5FB2C4807F044FD00F062F80023FB7100233B71FFF7C8FB38600023BB711CE000237B710EE04FF47A72234979
:40120000234800F071F80346002B02D00123FB7105E07B7901337B717B79132BEDD9FB79012B08D000F03EF8BB790133BB71BB79022BDFD900E000BFFFF7A0FB02463B68BD
:40124000D31A3B603A6813490020FFF7E3FAFB79012B0AD13B791A460F490020FFF7DAFA0E4B01221A70012309E00D490220FFF7D1FA0A4B00221A70FFF786FF00231846DB
:401280000837BD4680BD00BF8510000064860100748601007C8601009086010049090020C486010080B500AF012007F001FB4FF4FA6004F017F9002007F0FAFA00BF80BDFE
:4012C00080B500AF064B00221A804FF48062002104480DF05DFE07F00DFC00BF80BD00BFD88BFF1FE409002080B58AB000AFF860B9607A6000237B6200237B6246E00A230E
:40130000FB617A68FB69B2FBF3F3BB61FFF7D8FFF86807F02BFC7B68002B06D1FA681F490020FFF777FA012334E000233B6220E0F86904F0D7F8B96819480EF04DFD78611C
:401340007B69002B12D07B6A002B06D1144BFA6814490020FFF75EFA06E07B6A5A1C104B11490120FFF756FA012313E03B6A01333B623A6ABB699A42DAD3094BFA680B49C4
:401380000220FFF747FA7B6A01337B627B6A022BB5D9002318462837BD4680BDDC860100E4090020088701005887010090870100B0B5E6B000AF3B1D186007F10C03002283
:4013C00083F8802007F10C03364A07CA03C31A800233120C1A7007F10C038133324A1C4615460FCD20606160A260E36028682061AB88AA79A3821346A3750023C7F8943143
:401400003AE000F091F800F0F1FE0346002B02D1FFF7DAFE27E000F0E9FE0346042B22D100F042FEC7F89001D7F89031002B03D0D7F8900102F0ACFF07F10C0381331B4AB1
:401440001D4614460FCC28606960AA60EB6007CC28616961AA6107F10C03012283F88020FFF792FE0CE04FF47A7004F03BF8D7F894310133C7F89431D7F894313B2BC0DD0F
:401480003B1D1A6807F10C031046194640F281131A460DF007FD3B1D186807F5CC77BD46B0BD00BFC0870100CC870100E487010080B586B000AFF860B9607A603B60B96800
:4014C000F8680EF089FC78617B69002B01D1FB687B61B8680EF0C2FA02467B6913447B61796878690EF078FC38613B69002B06D1F8680EF0B3FA0246FB6813443B613A6918
:401500007B69D31A1A46796938680EF0D5FA3A697B69D31A1A463B68134400221A70012318461837BD4680BD80B582B000AF534B1B78012B0BD1FFF721FA0246504B1A60E3
:4015400000F0FEFC4D4B02221A70012392E04B4B1B78022B5FD10023FB712BE000F01CF9484B5B7883F00103DBB2002B07D0464B5B691A2B03DD444B5B69FF2B1ED1414BA2
:401580005B78002B0FD0404B9B68242B03DD3E4B9B68FF2B13D13C4B5B691A2B03DD3A4B5B69FF2B0BD14FF47A7003F09BFFFB790133FB71FB791D2BD0D900E000BF00F076
:4015C0006DF80346002B13D0FFF7D8F902462C4B1B68D31A2C4A93612B4B9B691A462B490020FFF717F900F0B5F8244B03221A70FFF7C4F90246224B1B68D31AB42B08DD04
:401600001E4B00221A70FFF7BFFD21490220FFF701F900232EE0194B1B78032B29D100F0A7F80346002B11D0144B04221A70FFF7A5F90246124B1B68D31A134AD361124B8D
:40164000DB691A4613490020FFF7E4F8FFF796F902460B4B1B68D31AE62B08DD074B00221A70FFF791FD0C490220FFF7D3F8002300E0002318460837BD4680BD49090020C0
:40168000E0090020EC9DFF1F4C09002000880100288801004C8801006C88010080B584B000AF20490020FFF7B5F84FF4FA621E491E48FFF719FE0346FB731D490020FFF711
:4016C000A9F81C4A1C490020FFF7A4F8FB7B002B23D000233B713B1D184A19491548FFF7E7FE3B1D1A4617490020FFF793F816490020FFF78FF83B1D144918460EF06CFBE8
:401700000346002B07D13B1D114918460EF064FB0346002B01D0012300E0002318461037BD4680BD9488010064860100A8880100B4880100E4090020D0880100EC8801004E
:40174000F0880100F488010014890100348901003889010080B500AF4FF47A7202490348FFF7C2FD00BF80BD648601003C89010080B500AF4FF4FA6205490648FFF7B4FD84
:401780000346002B01D0012300E00023184680BD4C8901005089010080B586B004AF154BFF225A60134BFF22DA60124BFF229A60104BFF225A610F4BFF221A610D4BFF2242
:4017C0001A604FF4FA620C490C48FFF78DFD0C4B03930C4B02930C4B01930C4B00930C4B044A0C490C480DF047FF786000BF0837BD4680BD4C090020648601005C8901000C
:40180000600900205C09002058090020540900205009002068890100E409002080B400AF104B00221A700F4B01225A700D4B01229A700C4B0122DA700A4B01221A71094B53
:4018400078225A71074B78229A71064B7822DA71044B78221A72034B78225A7200BFBD4680BC7047EC9DFF1F90B5ADF5637D00AF002387F8E83207F5217300221A7007F5E7
:40188000087300221A7007F5DE7300221A7007F5AC7300221A7007F1900300221A70002387F87C33002387F87033002387F86433002387F85833002387F84C3307F55F731F
:4018C000B34AB449B448FFF7F3FD07F55C73B04AB249B148FFF7ECFD07F55973AC4AB049AD48FFF7E5FD07F55673A94AAD49AA48FFF7DEFD07F55373A54AAB49A648FFF7F6
:40190000D7FDAA49A4480EF067FA0346002B4FD007F190039E4AA5499F48FFF7C9FD07F19003A34918460EF057FA0346002B14BF01230023DBB21A469E4B1A7007F1900361
:401940009D4918460EF048FA0346002B14BF01230023DAB2994B1A7007F19003984918460EF03AFA0346002B14BF01230023DAB2944B1A7007F19003934918460EF02CFAF3
:401980000346002B14BF01230023DBB21A468F4B1A7007F190038E4918460EF01DFA0346002B14BF01230023DBB21A46894B1A7007F53A73764A88497748FFF779FD07F539
:4019C0003A73184600F076FE07F52173704A83497148FFF76DFD07F521731846FEF79EFB07F508736A4A7E496B48FFF761FD07F50873184600F0A4FE07F5DE73644A7949B0
:401A00006548FFF755FD07F5DE73184601F09EF807F5AC735E4A74495F48FFF749FD07F5AC73184601F0F8FD07F18C0207F55F736E4918460DF020FE0346012B0ED107F1ED
:401A40008C031B68DAB26A4B1A7007F18C031B681A4668490020FEF7DDFE03E066490220FEF7D8FE07F1880207F55C735F4918460DF002FE0346012B12D107F188031B6851
:401A8000002B14BF01230023DAB2594B5A7007F188031B681A4659490020FEF7BBFE03E057490220FEF7B6FE07F1840207F559734E4918460DF0E0FD0346012B1DD107F153
:401AC00084031B68DAB24A4B9A70494B9B7899B24C4C38460723012201F0E0FF3A4623461168196092889A8007F184031B681A4645490020FEF78EFE03E044490220FEF765
:401B000089FE07F1800207F55673384918460DF0B3FD0346012B1DD107F180031B68DAB2334BDA70324BDB7899B2394C38460723012201F0B3FF3A4623461168196092889B
:401B40009A8007F180031B681A4632490020FEF761FE03E030490220FEF75CFE07F17C0207F55373214918460DF086FD0346012B56D107F17C031B68DAB21D4B1A7107F1A4
:401B80007C031B681A4625490020FEF743FE4BE0EC88010088890100E409002094890100A0890100B0890100C0890100D0890100E089010083C5FF1FE8890100EDEDFF1FE0
:401BC000F8890100DC0900200C8A010082C5FF1F148A01005AEEFF1F208A01002C8A01003C8A0100508A0100588A0100688A0100EC9DFF1F6C8A0100888A0100A48A0100A3
:401C0000C08A01007CC5FF1FDC8A0100008B0100609EFF1F308B0100588B0100888B0100AE490220FEF7F6FDAD4B1B78042B40F0508107F1080300221A70AA4B1B78002B19
:401C40004ED007F53A73A84918460EF0C5F80346002B41D007F1080300221A7007F53A7207F10803114618460DF09AFE07F53A7307F108009D4A9C49FFF71AFC07F1780277
:401C800007F53A739A4918460DF0F6FC0346012B1DD107F178031B68DAB2914B5A71904B5B7999B2934C38460723012201F0F6FE3A4623461168196092889A8007F17803B4
:401CC0001B681A468C490020FEF7A4FD08E08B490220FEF79FFD03E089490220FEF79AFD884B1B78002B4ED007F521737E4918460EF072F80346002B41D007F1080300222E
:401D00001A7007F5217207F10803114618460DF047FE07F5217307F10800744A7249FFF7C7FB07F1740207F52173714918460DF0A3FC0346012B1DD107F174031B68DAB23C
:401D4000674B9A71664B9B7999B26F4C38460723012201F0A3FE3A4623461168196092889A8007F174031B681A4668490020FEF751FD08E066490220FEF74CFD03E0654981
:401D80000220FEF747FD644B1B78002B4ED007F50873554918460EF01FF80346002B41D007F1080300221A7007F5087207F10803114618460DF0F4FD07F5087307F10800EE
:401DC0004A4A4949FFF774FB07F1700207F50873474918460DF050FC0346012B1DD107F170031B68DAB23E4BDA713D4BDB7999B24A4C38460723012201F050FE3A462346DF
:401E00001168196092889A8007F170031B681A4643490020FEF7FEFC08E042490220FEF7F9FC03E040490220FEF7F4FC3F4B1B78002B4ED007F5AC732B4918460DF0CCFF86
:401E40000346002B41D007F1080300221A7007F5AC7207F10803114618460DF0A1FD07F5AC7307F10800214A1F49FFF721FB07F16C0207F5AC731E4918460DF0FDFB03463D
:401E8000012B1DD107F16C031B68DAB2144B5A72134B5B7A99B2264C38460723012201F0FDFD3A4623461168196092889A8007F16C031B681A461F490020FEF7ABFC08E05C
:401EC0001D490220FEF7A6FC03E01C490220FEF7A1FC00BF07F56377BD4690BDB48B0100EC9DFF1F83C5FF1FE48B0100EC880100688A01005CEEFF1FEC8B0100108C010040
:401F0000408C0100EDEDFF1F64EEFF1F688C0100908C0100C48C0100DC09002054EEFF1FF08C0100248D0100648D01005AEEFF1FDC0800209C8D0100C48D0100F88D010017
:401F400080B584B000AF454B1B7D002B13D14FF4FA6243494348FFF7C7F90346002B0AD0414B424A42494348FFF7A2FA3E4A42490020FEF74FFC394B1B78002B13D14FF4BC
:401F8000FA6237493D48FFF7AFF90346002B0AD0324B364A36493748FFF78AFA2F4A38490020FEF737FC2D4B93F82830002B13D14FF4FA622A493348FFF796F90346002B2D
:401FC0000AD0314B294A2A492A48FFF771FA2E4A2E490020FEF71EFC2D4B5B7883F00103DBB2002B06D04FF4FA621D492948FFF77BF909E0264B5B78002B05D04FF4FA62B8
:4020000017492548FFF770F94FF4FA6214492348FFF76AF90346002B1BD000233B713B1D124A13491348FFF743FA3B1D1A461C490020FEF7EFFB3B1D312118460DF06AFB62
:402040000346002B05D14FF4FA6205491548FFF74BF900BF1037BD4680BD00BF6CEEFF1F64860100248E010080EEFF1FEC880100F0880100E4090020308E0100408E010062
:402080004C8E0100588E010094EEFF1F648E0100EC9DFF1F708E01009C8E0100B88E0100C48E0100D08E010080B5A0B006AF444B1B78042B05D043490220FEF7ABFB002335
:4020C0007AE000237B664FF4FA623F493F48FFF70BF90346002B6ED0002387F8443007F144033B4A3B493C48FFF7E2F90023BB6207F13C0107F1400207F1440007F1280367
:40210000049307F12C03039307F13003029307F13403019307F1380300930B462F490DF0ABFA0346072B06D1BB6A4FF4617202FB03F3BB6227E007F13C0107F1400207F18C
:40214000440007F12803049307F12C03039307F13003029307F13403019307F1380300930B461F490DF088FA0346072B05D1BB6A1C4A02FB03F3BB6205E01B490220FEF7D7
:4021800049FB002318E0FB6A7B603B6BBB607B6BFB603B6C6433BB61FB6B013B7B61BB6B3B6100237B623B1D18460DF043F80246BB6A13447B667B6E18466837BD4680BD2B
:4021C00049090020DC8E010064860100148F0100208F0100248F0100E4090020288F0100408F01007CFCFFFF588F010080B400AF024B1B781846BD4680BC70474909002093
:4022000080B500AFFFF7F2FF0346002B03D006F053FE06F0FBFC00BF80BD00BF80B500AFFFF7E4FF0346002B0BD006F04BFE06F007FDFFF7DBFF0346032B02D1642003F0C7
:4022400051F900BF80BD00BF80B584B000AFF860B9607A60234B1B881A462C2303FB02F3214A9818FB68214A14210DF0B9F91D4B1B881A462C2303FB02F310331A4A1344CB
:40228000181DBB68194A14210DF0AAF9154B1B881946154A2C2303FB01F3134428337A681A60104B1B8801339AB20E4B1A80104B1B8801339AB20E4B1A800A4B1B88952BE4
:4022C0000BD9084B00221A800A4B01221A700A490220FEF79FFA002300E0012318461037BD4680BD84C5FF1F10EFFF1F8490010086C5FF1FE20800208890010080B483B04E
:4023000000AF1CE0FB88164A2C2101FB03F3134400221A70FB88124A2C2101FB03F31344143300221A70FB880D4A2C2101FB03F31344283300221A60FB880133FB80FB8849
:40234000952BDFD9074B00221A80074B00221A80064B00221A7000BF0C37BD4680BC704710EFFF1F84C5FF1F86C5FF1FE208002080B400AF024B1B881846BD4680BC7047B6
:4023800086C5FF1F80B400AF024B1B881846BD4680BC704784C5FF1F80B58CB008AFF860B9607A603B60FB6A01933B680093FB692A4A42F21071F8680DF012F9284B0793E7
:4023C0003B6A0693274B0593254B0493BB690393254B02937B680193244B0093FB68244A42F21071F8680DF0FBF87B6A002B0CD07B6A1B78002B08D07B6A0093FB681D4AD7
:4024000042F21071F8680DF0EBF81B49F8690DF0E9F90346002B13D0B8680DF01FFB0246BB6A1344154A03920293154B0193154B0093FB68144A42F21071F8680DF0D0F8A6
:40244000BB680093FB68114A42F21071F8680DF0C7F800BF1037BD4680BD00BFC0900100E8900100EC900100FC90010000910100D490010008910100109101002091010059
:40248000289101003C910100149101005891010090B589B004AF78607B6800221A70334B1B7883F00103DBB2002B2DD00023FB8122E0FB892C2202FB03F32D4A1344FA8978
:4024C0002C2101FB02F2103229490A440432F98927482C2404FB01F10144283109680291019200937B68234A42F2107178680DF077F8FB890133FB81FFF744FF03461A4606
:40250000FB899342D5D328E00023BB8122E0BB892C2202FB03F3164A1344BA892C2101FB02F2103212490A440432B98910482C2404FB01F1014428310968029101920093B1
:402540007B680C4A42F2107178680DF049F8BB890133BB81BB89952BD9D978680DF07EFAB860BB6818461437BD4690BDE208002010EFFF1F6091010080B588B004AFF860CB
:40258000B9607A603B60FB6800221A703B6802937B680193BB680093FB68044AC821F8680DF01EF800BF1037BD4680BD80910100B0B58CB000AF03F073FF034687F82F30D8
:4025C00097F82F3007F124010A2218460CF036FCFEF7D4F9024607F1240319462C48FFF733FE00233B713B1D18460DF037FA03461A463B1D1344274A1C4615460FCD206060
:402600006160A260E36007F124023B1D114618460DF060F83B1D19460020FEF7FBF81E491E480DF0D9FBB862BB6A002B11D0012003F01AFF194B00221A70FEF79FF9034659
:402640001A4617491248FFF7FFFD16490020FEF7E1F8154911480DF0BFFBB862BB6A002B11D0002003F000FF0C4B00221A70FEF785F903461A460D490548FFF7E5FD0C4947
:402680000020FEF7C7F8002318463037BD46B0BD90910100A0910100B0910100F89DFF1FB4910100B8910100E4910100E8910100EC91010080B582B000AF7860796803488D
:4026C0000DF06EF900BF0837BD4680BDF89DFF1F80B582B000AF06F0BFFC0346FB71FB79002B09D0114B1B785A1CD1B20F4A117019460F4AFB795354FB790D2B11D10D4B16
:402700001A680D4B1B68194610460DF065FB02460A4B1A60054B1B781A46054B1344054A136000BF0837BD4680BD00BFDD8CFF1FDC8BFF1FD080FF1FE48CFF1FE08CFF1FD8
:4027400080B582B000AF7860796803480DF028F900BF0837BD4680BDF0EDFF1F80B596B000AF314931480DF037FB78657B6D002B01D0002353E02E492C480DF02DFB786598
:402780007B6D002B4AD0FEF7F9F8386538463B6D284A20210CF024FF07F12003184600F05DF897F83830002B2DD0B7F9363007F13C00214A14210CF013FF07F13C031A4605
:4027C0001E490020FEF726F807F13C033A6D19461B48FFF739FD3B461A461A491A48FDF7DFFE1A4A17491848FDF7DAFE07F13C031A4614491448FDF7D3FE154A11491248E4
:40280000FDF7CEFE08E013490220FEF703F83A6D11490B48FFF718FD002300E0002318465837BD4680BD00BF18920100F0EDFF1F1C92010020920100249201002892010097
:40284000489201006492010068920100749201009492010098920100D0920100B0B58AB000AF7860002387F82130002387F82030FDF708FC012006F0A3FCC82002F032FE0C
:40288000022006F025FC06F07DFB384806F03EFC4FF4FA6002F026FE06F0BAFB06F048FC002006F08DFC0C2006F012FC002006F0F5FB2F492F480DF09FFB786233E00D21B3
:4028C000786A0CF027FF0346002B27D0786A0CF07FF903467B847B8C002B1FD07B8C42F20F72934214D097F82030B7F922205B0007F128010B4423F8202C97F820300A2B1E
:4029000015D897F820300133DBB287F8203005E097F821300133DBB287F82130144900200DF06AFB78627B6A002BC8D100E000BF97F8202007F1080311461846FDF770FDFC
:4029400003461BB2FB837B681D4607F108040FCC28606960AA60EB6003CC2861696123882B8378682837BD46B0BD00BFD1260000D4920100DC8BFF1FB0B5EEB004AF3B1D1E
:40298000186007F12403002283F8802007F124032B4A1C4615460FCD0FC495E80F0007C4237007F108031846FFF758FF07F108031B7E1A4607F108035B7E134407F108027A
:4029C000127E114607F10802B2F91620144607F1240202F181000294019100930B23194A4FF480710CF0FCFD07F108031B7E0B2B05D107F12403012283F880200EE007F1C1
:402A000008031B7E002B09D007F108031B7E0A2B04D807F12403022283F880203B1D1A6807F124031046194640F281131A460CF039FA3B1D186807F5D477BD46B0BD00BF92
:402A4000D8920100F892010090B593B002AFFDF795FFF863334934480DF0BEF9B863334BBB6200F0A9F97863786B0BF061FA03460C4607F11400CDE900342D4A05210CF012
:402A8000AFFD07F11403FA6B19462A48FFF7DCFBBB6B002B29D007F11C03274A21492248FEF706FD07F1280207F11C03204918460CF0E2FDBB6A184600F0F6F9034687F8B5
:402AC000333097F83330381D1C4A04210CF088FD3B1DFA6B19461A48FFF7B6FB07F11C03FA6B19461748FFF7AFFB786B00F090FBF862F86A0BF01CFA03460C4607F108005B
:402B0000CDE900340A4A0A210CF06AFD07F10803FA6B19460C48FFF797FB002318464437BD4690BD28930100780900209A99D93F30930100349301004C93010050930100E2
:402B4000549301006C9301008493010080B582B000AF7860796803480CF022FF00BF0837BD4680BD780900202DE9B04FADF5327D10AF07F13C031860012006F0E5F907F57A
:402B80008273002283F8802007F58273864A07CA03C31A800233120C1A704FF07E5000F083F900F009F9024607F1E4031A6007F1440407F120031846FDF72AFF07F1200317
:402BC0001D460FCD0FC42B6823604FF0000000F06BF903461A4607F5827383F8802000F0EBF8024607F1E4035A6007F1440407F120031846FDF70CFF07F1200314341D4633
:402C00000FCD0FC42B68236007F5827393F88030002B3AD04FF0785000F046F900F0CCF8024607F1E4039A604FF07A5000F03CF900F0C2F8024607F1E403DA604FF07B5020
:402C400000F032F900F0B8F8024607F1E4031A614FF07C5000F028F900F0AEF8024607F1E4035A61514800F01FF900F0A5F8024607F1E4039A614FF07D5000F015F900F019
:402C80009BF8024607F1E403DA6107F1E4031B6818460BF04DF982468B4607F1E4035B6818460BF045F9C7E9060107F1E4039B6818460BF03DF9C7E9040107F1E403DB684D
:402CC00018460BF035F9C7E9020107F1E4031B6918460BF02DF9C7E9000107F1E4035B6918460BF025F98046894607F1E4039B6918460BF01DF904460D4607F1E403DB6946
:402D000018460BF015F90A46014607F582738133CDE90E12CDE90C45CDE90A89D7E90012CDE90812D7E90212CDE90612D7E90412CDE90412D7E90612CDE90212CDE900ABE1
:402D40001B4A4FF4807118460CF04AFC07F5827393F88030002B10D107F582738133154A1D4614460FCC28606960AA60EB6007CC28616961AA6123782B77002006F0E4F840
:402D800007F13C031A6807F582731046194640F281131A460CF086F807F13C03186807F52277BD46BDE8B08F9C930100CDCC2C3FA8930100CC93010090B595B000AF0120B7
:402DC00006F018FA0A2002F08DFB05F0F7F905F0CFF904F011FD042387F84F3033E097F84F30184605F004FA0023A7F84C300FE0B7F84C4005F090F90246A30007F15001D2
:402E00000B4443F8502CB7F84C300133A7F84C30B7F84C300A2BEBD997F84F403B460B211846FEF70DF80346184604F055FE0246A30007F150010B4443F8242C97F84F30C1
:402E4000013387F84F3097F84F30062BC7D905F0B5F905F07DF904F0E7FC002006F0CAF9FB6B7B643B6CBB647B6CBA6C114618460BF09CFD034618460BF05AF808A3D3E9C7
:402E800000230BF0D3F903460C46184621460BF07BFB034618465437BD4690BDAFF3008014AE47E17A14EE3FF0B587B002AF7860012006F049F84FF07F53BB60FFF77CFFB4
:402EC0000346796818460BF0B3FB034623F0004318460BF02DF8C4A3D3E900230BF0EEFA0346002B01D0012378E10023FB73FFF763FF0346796818460BF060FE0346002B5B
:402F000000F0AF80012004F003F96BE0FFF754FFB8604FF47A7002F0E5FAB8680BF008F805460E46FFF748FF034618460BF000F803460C46CDE900342A463346B04902209D
:402F4000FDF768FCFFF738FF0346B96818460BF035FE0346002B02D0FB7B0133FB73FB7B052B0CD978680AF0E3FF03460C461A462346A4490220FDF74DFC00232EE1FFF759
:402F80001BFF03461946B8680BF052FB034623F0004318460AF0CCFF95A3D3E900230BF08DFA0346002B0AD1FFF706FF0346B96818460BF003FE0346002B00D112E0002027
:402FC00004F0A6F8002005F0BFFF78680AF0B0FF03460C461A4623468A490220FDF71AFC0023FBE0FFF7E8FE0346796818460BF01FFB034623F0004318460AF099FF7EA359
:40300000D3E900230BF078FA0346002B7FF47EAF002004F07DF8FFF7CFFE0346796818460BF006FB034623F0004318460AF080FF6DA3D3E900230BF05FFA0346002B00F043
:40304000C980002005F080FF78680AF071FF03460C461A4623466B490220FDF7DBFB0023BCE0FFF7A9FE0346796818460BF088FD0346002B00F0AE80012004F02BF86BE0AC
:40308000FFF79AFEB8604FF47A7002F02BFAB8680AF04EFF05460E46FFF78EFE034618460AF046FF03460C46CDE900342A46334653490220FDF7AEFBFFF77EFE0346B96813
:4030C00018460BF05DFD0346002B02D0FB7B0133FB73FB7B052B0CD978680AF029FF03460C461A46234647490220FDF793FB002374E0FFF761FE03461946B8680BF098FA79
:40310000034623F0004318460AF012FF38A3D3E900230BF0D3F90346002B0AD1FFF74CFE0346B96818460BF02BFD0346002B00D112E0002003F0CEFF002005F005FF78687C
:403140000AF0F6FE03460C461A4623462D490220FDF760FB002341E0FFF72EFE0346796818460BF065FA034623F0004318460AF0DFFE21A3D3E900230BF0BEF90346002B31
:403180007FF47EAF002003F0A5FFFFF715FE0346796818460BF04CFA034623F0004318460AF0C6FE10A3D3E900230BF0A5F90346002B0FD0002005F0C7FE78680AF0B8FE43
:4031C00003460C461A4623460F490220FDF722FB002303E0002005F0B7FE012318461437BD46F0BDAFF300809A9999999999A93F7B14AE47E17A943FB81E85EB51B89E3F14
:40320000EC930100089401003894010000000000B0B596B000AF786007F128031846FFF71DFB07F10C031846FDF706F8B7F93E301A46B7F92230D31A18460BF0AFFA0346D4
:403240007B65334B1B6818460AF072FE4FF000024FF0804308F0A0FC29A3D3E900230AF0BBFE03460C46184621460BF08DF903463B65386D0AF05CFE23A3D3E900230AF00E
:40328000ABFE03460C46184621460BF07DF903463B65786800F040F8F8641E4BBB64396DF86C0BF0CFFA034618460AF041FE04460D46BB6C194618460BF0BCF90346796DB1
:4032C00018460BF0BFFA034618460AF031FE02460B461046194608F0F7FD02460B46204629460AF079FE03460C46184621460BF04BF903467B647B6C18465837BD46B0BDC8
:403300006F1283C0CA210940E17A14AE472984405C9EFF1F00481946B0B58AB000AF7860334934480CF058FD38623B6A002B11D007F10C03304A31492E48FEF7B9F807F1BC
:40334000080207F10C032E4918460CF095F9BB682C4A13602C4927480CF03EFD38623B6A002B3AD0002387F8273004E097F82730013387F8273097F82730244A52F8333074
:4033800018460AF0D5FD4FF00002214B0AF072FC03460C4625461C461A4B1B6818460AF0C7FD02460B46204629460BF087F80346002BDBD197F82730144ADB0013445B6821
:4033C000FB61786800F028F80346F96918460BF039FA0346BB61BB6905E00E4905480CF0FBFC38627B6818462837BD46B0BD00BF90940100780900204C930100A8940100F9
:40340000309301005C9EFF1FC0940100D480FF1F0000E03FCC940100B0B584B000AF786078680AF085FD38A3D3E900230AF0D4FD03460C4625461C4678680AF079FD4FF071
:4034400000024FF0804308F0A7FB31A3D3E900230AF0C2FD02460B46204629460AF008FC03460C4625461C4678680AF061FD4FF000022D4B08F090FB27A3D3E900230AF057
:40348000ABFD02460B46204629460AF0F3FB03460C4625461C4678680AF04AFD4FF00002224B08F079FB1EA3D3E900230AF094FD02460B46204629460AF0DAFB03460C4668
:4034C000184621460BF060F80346FB604FF07E51F8680BF073FB0346002B03D04FF07E53FB600AE04FF00001F8680BF049FB0346002B02D04FF00003FB60FB6818461037D3
:40350000BD46B0BDAFF300808195438B6CE7E73FF6285C8FC2F50840713D0AD7A3701E40E17A14AE47E11040000008400000104080B586B000AFFDF721FA386100237B61A6
:403540002B492C480CF048FCF860FB68002B06D04FF47A737B6128490020FDF75BF9274924480CF039FCF860FB68002B06D041F288337B6122490020FDF74CF91D4B0022A1
:403580001A707A691F490020FDF744F900F052F87B69184601F0A6FF00F05CF87B69184601F0A0FF00F046F87B69184601F09AFF00F050F8144B1B780133DAB2124B1A70F2
:4035C000114B1B783846114A0A210CF009F83B461A460F490020FDF71DF93B463A6919460C48FEF731FE002318461837BD4680BDD8940100E4080020DC9401000C950100E1
:403600001095010040950100E88CFF1F5C950100609501007095010080B582B000AF7860796803480CF0BCF900BF0837BD4680BDE408002080B500AF012005F0F9FD4FF446
:403640007A7001F04FFF024B01221A7000BF80BDE40D002080B500AF002005F0E9FD024B00221A7000BF80BDE40D002080B500AF02F0F2FE00BF80BDB0B588B002AF554888
:4036800002F006FE02F052FEFF2002F0ABFF02F015FFFDF7A3F8FDF717FDFEF7BFF807F10C03184601F0A0FFFA683B6900931346494A182149480BF093FF494B494A1A605C
:4036C000494A4A4B14461D460FCD0FC40FCD0FC40FCD0FC42B681A46228002341B0C2370414B41F288325A66414B9B7899B2414C38460723012200F0D1F922463B461968B4
:4037000011609B8893803C4B01221A70384BDB7899B23A4C38460723012200F0BFF922463B46196811609B889380354B01221A70344B00221A702E4B5B7999B2324C384697
:403740000723012200F0AAF922463B46196811609B8893802D4B01221A70254B9B7999B22B4C38460723012200F098F922463B46196811609B889380264B01221A701C4B0B
:40378000DB7999B2244C38460723012200F086F922463B46196811609B8893801F4B01221A70134B5B7A99B21D4C38460723012200F074F922463B46196811609B88938078
:4037C000184B01221A700023FB7500BF1837BD46B0BD00BF6D360000C4950100F0C5FF1FECC5FF1F6CEEFF1FA8EEFF1FCC950100EC9DFF1F7CC5FF1F6C090020609EFF1F05
:4038000078C5FF1F669EFF1F5CEEFF1FD808002064EEFF1F6AEEFF1F54EEFF1F48090020DC080020D908002080B582B000AF374B1B78002B06D000F03BFC03461A46334B6D
:403840001A7050E0324B1B78002B06D000F052FC03461A462E4B1A7045E02E4B1B78042B41D12D4B1B78002B09D02C4B1B78002B05D0FEF79DFE03461A46284B1A70284B5F
:403880001B78002B09D0274B1B78002B05D0FCF753FC03461A46234B1A70234B1B78002B09D0224B1B78002B05D0FEF757FF03461A461E4B1A701E4B1B78002B05D0FFF7AB
:4038C000C3F803461A461A4B1A701A4B1B78002B09D0194B1B78002B05D0FFF729FE03461A46154B1A70154B1B78002B05D000F0B1F903461A46114B1A70FDF715FE034666
:40390000FB71FB7918460837BD4680BD669EFF1F6C090020EC9DFF1F83C5FF1FD8080020EDEDFF1F6AEEFF1FDC0900204809002082C5FF1F5AEEFF1FD908002078C5FF1FFB
:4039400080B500AFFEF75CFCFCF74EFF01F0AEFE4FF40061002002F065F901F0EBFFFCF753FFFEF75BFC00BF80BD00BF80B582B000AF0346FB71FB791946224800F05AF8B4
:403980000346002B02D0204B01221A70FB7919461E4800F04FF80346002B02D01C4B01221A70FB7919461B4800F044F80346002B02D0194B01221A70FB791946174800F004
:4039C00039F80346002B02D0154B01221A70FB791946144800F02EF80346002B02D0124B01221A70FB791946104800F023F80346002B02D00E4B01221A7000BF0837BD462B
:403A000080BD00BF7CC5FF1F6C090020609EFF1F78C5FF1F5CEEFF1FD808002064EEFF1F6AEEFF1F54EEFF1F48090020DC080020D908002080B582B000AF78600B46FB7051
:403A40007B681B79DBB2FA789A4212D17B685B881BB29BB2013B9BB21AB27B685A807B685B881BB2002B04DC786800F007F8012300E0002318460837BD4680BD80B483B047
:403A800000AF78607B681B889BB21AB27B685A8000BF0C37BD4680BC704700BF80B485B000AF7860084611461A4603467B800B467B7013463B707B883B817B783B733B78E0
:403AC0007B73B7F902307B817B681A4607F10803186810609B88938078681437BD4680BC704700BF90B5ADF61C4D5EAF4B490320FCF790FE07F61C131846FCF72BFC07F677
:403B00001C14684604F1100340F2711219460BF0C9F994E80F00FCF7F5FE07F5F3631846FEF72AFF07F5F364684604F1100340F2711219460BF0B6F994E80F00FCF7E2FE6A
:403B400007F214631846FFF70FF807F21464684604F1100340F2711219460BF0A3F994E80F00FCF7CFFE07F592631846FDF7AAF907F59264684604F1100340F271121946BB
:403B80000BF090F994E80F00FCF7BCFE07F543731846FDF7F5F907F54374684604F1100340F2711219460BF07DF994E80F00FCF7A9FE07F5C4731846FCF780FD07F5C4740F
:403BC000684604F1100340F2711219460BF06AF994E80F00FCF796FE3B1D1846FDF7E8FB0F4B00930F4B104A10490320FCF712FE3C1D684604F1100340F2711219460BF0C0
:403C000051F994E80F00FCF77DFE09490320FCF701FE00BF07F6A427BD4690BD00960100F0C5FF1F6CEEFF1F94EEFF1F2C9601004C96010080B500AF62B6FFF71DFDFFF7D9
:403C400051FFFFF7F1FD0346002BFAD1FFF778FEF7E700BF90B5ADF26C5D06AF012002F003FC642001F03EFC002002F0FDFBFEF789FB0346002B01D1002303E2FEF7B6FA2F
:403C80000346002B11D1AE4B1B780133DAB2AC4B1A70AB4B1B78022B02D8FDF795FAF0E1A74B00221A700023ECE1FEF79FFA0346042B40F0E681A3490020FCF7ABFDA24B3E
:403CC00000221A70A14B00221A70A14B00221A70A04B5B6907F5A5609F4A14210BF080FCFCF74CFE024607F5A56319469B48FEF7ABFA984B9B6807F21450974A14210BF0EA
:403D00006FFCFCF73BFE024607F2145319469448FEF79AFA8A4B1B7807F5A0608E4A14210BF05EFCFCF72AFE024607F5A06319468C48FEF789FA8C4B1B7883F00103DBB23F
:403D4000002B16D0FEF71EFB0346A7F84835B7F8483507F59B60804A14210BF041FCFCF70DFE024607F59B6319468048FEF76CFA0FE007F2C4409623774A14210BF030FCE1
:403D8000FCF7FCFD024607F2C44319467748FEF75BFAFEF7EDFA0346A7F84635B7F84635013B07F2EC406C4A14210BF019FCFCF7E5FD024607F2EC4319466D48FEF744FA16
:403DC0006C490020FCF726FD6B4B6C4A6C496048FEF7D2FB5E4A6B490020FCF71BFD5B48FEF756FB684B5B6E684A059200220492674A0392674A0292674A01920093544B5F
:403E0000614A52495048FEF7C7FA4F4A63490020FCF700FD002387F845355B4B5A6E381D594B009313465E4AC8210BF0D9FB3B1D1A465C490020FCF7EDFC3B1D42F2107263
:403E400059491846FDF750FA034687F845353E4BC7F84C353C480BF001FE0246534BA3FB02235B0918460AF041F84FF00002504B07F0CAFD03460C461846214607F03CFDB3
:403E800003460C46184621460AF056FB034687F844352D480BF0E2FD03461A4645490020FCF7B8FC97F944351A4643490020FCF7B1FC002387F84B359AE04FF47A723F49C1
:403EC0003F48FDF711FA034687F8453507F1CC00D7F84C35334A4FF4FA710BF081FB07F1CC0318460BF0BAFD03461A4607F1CC03134434491A460B461B88138097F94B2542
:403F000007F1CC0330490020FCF784FC97F94B355A1C97F944359A4258D007F1CC0341F2883221491846FDF7DFF9034687F84535D7F84C3503F2F313C7F84C3551E000BF16
:403F4000E50D002078960100689EFF1F14C6FF1F24EDFF1F4C090020889601008C960100949601009C960100E2080020A8960100B8960100CC960100E096010094EEFF1FAE
:403F80000C9701001C970100A8EEFF1F2C97010030970100349701003C970100449701005C970100789701007C970100D34D621000407F408097010098970100AC970100B8
:403FC000B0970100C0970100C497010007F1CC0341F288322E491846FDF786F9034687F8453597F94B35DBB20133DBB287F84B3597F94B2597F944359A42FFF65EAF41F210
:40400000883224492448FDF76FF9034687F8453597F84535012B1DD1FDF726FCFEF76EF9FCF7ACFC02461D4B1B68D31AC7F8403507F59760D7F84035194A0A210BF0D0FA41
:40404000FCF79CFC024607F5976319461548FEF7FBF803E014490220FCF7DCFBFEF724F8C7F83C05D7F83C35002B03D0D7F83C0500F08EF9FDF788F80C4B00221A70002337
:4040800000E00123184607F25457BD4690BD00BFD4970100DC970100E4970100E009002088960100F897010008980100E50D002080B582B000AFFEF799F80346002B02D141
:4040C000FDF782F811E0FEF791F80346042B0CD1FDF7EAFF78607B68002B02D0786800F057F9FDF751F8002300E0012318460837BD4680BD90B5A3B002AFFCF73FFCF867C2
:4041000007F15C00FB6F8C4A20210BF069FA8B4B1B78184607F140030A2219460AF08EFEFCF72CFC024607F1400319468448FEF78BF8824B1B78002B3BD107F110031846F8
:40414000FCF77AF897F82830002B2ED0B7F9263007F148007B4A14210BF042FA07F148031A4679490020FCF755FB07F14803FA6F19467648FEF768F807F15C031A467449F9
:404180007448FCF70DFA744A71497248FCF708FA07F148031A466E496E48FCF701FA6F4A6B496C48FCF7FCF903E06D490220FCF731FB07F12C031846FCF72AFC97F83C30A8
:4041C000002B00F0AF80FB6A184609F0B1FE03460C4607F14800CDE90034624A14210BF0FFF907F148031A465F490020FCF712FB07F14803FA6F19465C48FEF725F8574AA4
:4042000053495448FCF7CCF907F15C031A4650495048FCF7C5F9564A4D494E48FCF7C0F907F148031A464A494A48FCF7B9F9434B1B78012B7AD13C466A4607F1380393E898
:40424000030082E8030007F12C030ECB2046FCF747FDBB68184609F06BFE03460C4607F14800CDE900343F4A14210BF0B9F907F148031A463F490020FCF7CCFA07F14803D7
:40428000FA6F19463C48FDF7DFFF344A30493148FCF786F907F15C031A462D492D48FCF77FF9364A2A492B48FCF77AF907F148031A4627492748FCF773F9FB68184609F08A
:4042C00037FE03460C4607F14800CDE90034254A14210BF085F907F148031A4628490020FCF798FA07F14803FA6F19462548FDF7ABFF1A4A16491748FCF752F907F15C0321
:404300001A4613491348FCF74BF91F4A10491148FCF746F907F148031A460D490D48FCF73FF903E019490220FCF774FA002318468437BD4690BD00BF34980100EC9DFF1FE2
:4043400038980100889601004C98010060980100709801005C81FF1F74980100889801008C980100B8980100C0980100CC980100D4980100DC980100F09801000499010000
:40438000189901002C9901003C9901005099010080B586B000AF78607B68002B05DC18490220FCF737FA002325E03B1D18460AF019FC78617B691B68DBB23B727B695B682F
:4043C000DBB27B727B699B68DBB2BB727B695B699BB203F26C739BB27B827B691B69DBB23B747B69DB68DBB23B7307F10803184602F0CCF8012318461837BD4680BD00BFA2
:404400007899010080B582B000AF786039603A68002178680AF0BCFD00BF0837BD4680BD80B584B000AFF860B9607A607A68B968F8680AF037FD00BF1037BD4680BD00BF56
:4044400080B483B000AF0346FB71FEE780B487B000AF7860396000233B6100237B6127E07B699B007A6813441B68BB60BB68FB73BB6823F0FF03BB6014E03B695B003A686D
:4044800013441B781A46BB68134419463B695B003A6813445B780B703B6901333B61FB7B013BFB73FB7B002BE7D17B6901337B617B69242BD4D900BF1C37BD4680BC7047CA
:4044C00080B582B000AF644B1B78BB70634B00221A80634B58221A70624B00221A80624B50221A70614B19221A80614B19221A70604B19221A80604B19221A705F4B4FF43C
:404500009C721A805E4B18221A705E4B4FF49C721A805D4B18221A705C4B00221A805C4B1B221A705B4B09221A805B4B1B221A7004225A495A48FFF773FF5A4B02221A7097
:404540004FF0402308221A70574BF3221A70424B03221A70554B84221A70554B05221A70544B7B6006E04FF4F07004F07DFE7B68013B7B607B68002B06D04D4B1B78DBB23F
:4045800003F02003002BEED0334ABB7813704A4B02221A70494B4A4A1278D2B21A70494B4FF4E1621A80484B41F251221A800023FB7019237B6014E0FB785B00DAB2434BBE
:4045C0001B78DBB203F00103DBB21343DBB203F00303FB704FF4F07004F046FE7B68013B7B607B68002B02D0FB78032BE4D17B68002B02D10320FFF723FF354B4FF48072F4
:404600001A80334B07221A70324B00221A70324B48221A702E4B00221A70304B02221A702F4B04221A702F4B1B782E4BFF221A702D4A2D4B1B78DBB243F00103DBB2137016
:404640002A4A2A4B1B78DBB263F07F03DBB2137000BF0837BD4680BD9846004080400040824000408440004086400040884000408A4000408C4000408E40004090400040A8
:40468000924000409440004096400040984000409A4000409C4000409E400040300D004800410040004300400A4300400943004008430040A086010000420040A146004055
:4046C0000B010049224200402042004025420040044000400640004008400040014000400B400040A2430040A1430040A043004080B483B000AF114B1B78FB71104AFB792F
:4047000003F00703DBB213700E4AFB791B09DBB213700D4B02221A700C4B01221A700C4B20221A700B4B40221A700B4B66221A7000BF0C37BD4680BC704700BFCF010049C5
:404740006E5800406F58004040580040A7430040C35A0040585B00407658004080B485B000AF0346FB71FB79012202FA03F3FB73FB79052B3BD8204B1A78FB7B1340DBB2FE
:40478000002B34D11C4B1A78FB7B1343DAB21A4B1A70FB79194A52F82330FA79174951F822201178FA791648825C0A43D2B21A70FB79144AD35CBB73BB7B134AD35C002B08
:4047C0000ED1BB7B114A52F82330BA7B0F4951F822201178BA7B0E48825C0A43D2B21A70BB7B094AD25C0132D1B2074AD15400BF1437BD4680BC7047EC8CFF1FA099010094
:40480000B8990100DC990100F08CFF1FC0990100D499010080B485B000AF0346FB71FB79012202FA03F3FB73FB79052B41D8234B1A78FB7B1340DBB2002B3AD0FB7BDB43AE
:40484000DAB21E4B1B781340DAB21C4B1A70FB791B4A52F82330FA79194951F822201178FA791848825CD243D2B20A40D2B21A70FB79154AD35CBB73BB7B144AD25C013AB2
:40488000D1B2124AD154BB7B104AD35C002B10D1BB7B0F4A52F82330BA7B0D4951F822201178BA7B0B48825CD243D2B20A40D2B21A7000BF1437BD4680BC7047EC8CFF1F71
:4048C000A0990100B8990100DC990100F08CFF1FC0990100D499010080B483B000AF0346FB71FB79012B0ED8FB79094A52F82330FA79074951F822201178FA790548825C2A
:404900000A43D2B21A7000BF0C37BD4680BC7047E4990100EC99010080B483B000AF0346FB71FB79012B10D8FB790A4A52F82330FA79084951F822201178FA790648825CF1
:40494000D243D2B20A40D2B21A7000BF0C37BD4680BC7047E4990100EC99010080B586B000AF72B60023FB7513E0FA7D13465B0013445B004D4A13443B613B691A683B6951
:404980009B889BB219461046FFF73CFDFB7D0133FB75FB7D052BE8D90023FB751CE0FA7D13469B0013445B00414A1344FB60FB681B68BB60FB685B687B60FB681A7A5B7A67
:4049C0001B0213437B807B881A467968B868FFF727FDFB7D0133FB75FB7D002BDFD035494FF09040FFF732FD334B0A221A70334B03221A80324A324B1B78DBB243F00203E9
:404A0000DBB213702F4A2F4B1B78DBB243F00203DBB213702C4A2C4B1B78DBB243F04003DBB21370294A294B1B78DBB243F01003DBB21370082226492648FFF7F1FC082207
:404A400025492648FFF7ECFC0A2225492548FFF7E7FC082224492548FFF7E2FC082224492448FFF7DDFC082223492448FFF7D8FC234A234B1B78DBB243F00803DBB21370DD
:404A8000204B61221A70FFF71BFD1E4B81221A701D4B01221A70FFF72BFE0E220A491B48FFF7BEFC00BF1837BD4680BDF0990100149A0100940000488358004048580040B2
:404AC0000350014013500140A0430040C2430040FC0C004802510040040D0048C25100400C0D0048F0510040180D004812510040200D004822510040280D0048325100402D
:404B0000224300400048004004000840B043004080B500AF0AF060F803461B680C2B00D1FEE7FEE780B584B000AF7860104B1A687B6813441A460F4BD31AB3F5804F09DCEB
:404B40000B4B1B68FB600A4B1A687B681344084A136007E00AF040F802460C2313604FF0FF33FB60FB6818461037BD4680BD00BF7C81FF1F780E002080B586B000AF224B0D
:404B80007B61224B3B61204B7B6135E03B691B68FB603B695B68BB603B699B683B6000237B600CE0FB681A68BB681A60BB680433BB60FB680433FB607B6804337B607A68C1
:404BC0003B689A42EED13B69DB683B6000237B6008E0BB6800221A60BB680433BB607B6804337B607A683B689A42F2D13B6910333B617B69013B7B617B69002BC6D10AF0A3
:404C0000DDF8FFF717F8FEE7010000002CA1010080B582B000AF184B184A1A60184A184B1B6843F40073136000237B600FE07B68032B04D8134A7B6852F8233000E0124B38
:404C400012497A6841F822307B6801337B607B682F2BECD90E4B1B78DAB20E4B1A700E4B0A4A1A60FFF77AFE0C4B00221A6000BF0837BD4680BD00BF0CED00E00004FA05BC
:404C800014ED00E000000000114B00000080FF1FBC760040C480FF1F08ED00E0C080FF1F80B584B000AF0346FB710023FB60234A224B1B78DBB243F00103DBB21370FB7912
:404CC000002B36D01E4B1B78DBB203F00403FB721C4B1B78BB721C4B1B787B72182001F087F81023FB6010E0184B1B78DBB203F00103002B09D0154B1B78DBB203F001036A
:404D0000002B02D00023FB6008E0012001F042F8034603F00103DBB2002BE5D0FB7A002B01D100F04BFB074ABB7A1370064A7B7A1370FB6818461037BD4680BD20420040B4
:404D40000043004080430040824300402542004080B400AF054A054B1B78DBB223F00103DBB2137000BFBD4680BC70472042004080B584B000AF0346FB711D4A1C4B1B78B3
:404D8000DBB243F01003DBB213701A4A194B1B78DBB243F01003DBB21370FB79002B23D0154B1B78DBB203F00403FB73134B1B78BB73134B1B787B73002001F019F800BF79
:404DC000012000F0E7FF034603F00103DBB2002BF6D0FB7B002B01D100F0F0FA074ABB7B1370074A7B7B137000BF1037BD4680BDA0430040B04300400043004080430040BB
:404E00008243004080B400AF094A094B1B78DBB223F01003DBB21370064A064B1B78DBB223F01003DBB2137000BFBD4680BC7047A0430040B043004080B483B000AF002352
:404E4000FB71124B1B78DBB203F00703002B06D10F4B1B78DBB203F00103002B0DD10B4B1B78DBB203F00703012B08D1094B1B78DBB203F00103002B01D00123FB71FB79ED
:404E800018460C37BD4680BC704700BF93430040A5430040B543004080B584B000AF0346FB71FFF7C9FF0346FB73FB7B012B07D1314A314B1B78DBB223F00203DBB213702B
:404EC000FB79082B4FD801A252F823F0F14E0000FD4E0000094F0000154F0000214F00002D4F0000394F0000674F0000454F0000224B234A1278D2B21A7039E01F4B214A80
:404F00001278D2B21A7033E01C4B1F4A1278D2B21A702DE0194B1D4A1278D2B21A7027E0164B1B4A1278D2B21A7021E0134B194A1278D2B21A701BE0104B174A1278D2B26A
:404F40001A7015E00D4B154A1278D2B21A70FB7B012B0CD1084A084B1B78DBB243F00203DBB2137003E0002000F0B0FA00E000BF00BF1037BD4680BD09600040A146004085
:404F800008010049090100490A0100490B010049890100490C0100490D0100490F01004980B584B000AF0346FB71684B1B78DBB203F00703FB73FB79082B01D0FB7900E0F3
:404FC0000323BB73FB7B062B25D801A252F823F0ED4F0000F34F0000F94F0000FF4F0000055000000B500000115000000223FB7315E00123FB7312E00323FB730FE00023E2
:40500000FB730CE00423FB7309E00523FB7306E00623FB7303E0002000F058FA00BFBA7BFB7B9A4203D3FB791846FFF735FFFB79082B72D801A252F823F000BF61500000C7
:405040007950000091500000A3500000BB500000D3500000EB5000001B510000035100003A4A3A4B1B78DBB223F04703DBB243F00303DBB2137054E0344A344B1B78DBB2BD
:4050800023F04703DBB243F00103DBB2137048E02E4A2E4B1B78DBB223F04703DBB213703FE02A4A294B1B78DBB223F04703DBB243F00203DBB2137033E0244A234B1B783E
:4050C000DBB223F04703DBB243F00403DBB2137027E01E4A1D4B1B78DBB223F04703DBB243F00503DBB213701BE0184A174B1B78DBB223F04703DBB243F00603DBB21370AE
:405100000FE0124A114B1B78DBB223F04703DBB243F04203DBB2137003E0002000F0D6F900BFFB79082B02D100F058F801E000F065F8BA7BFB7B9A4203D2FB791846FFF7A9
:40514000ABFE00BF1037BD4680BD00BF0042004080B582B000AF0346FB71FB79012B17D0022B02D0002B26D02EE04FF040224FF040231B78DBB223F04003DBB21370164A56
:40518000154B1B78DBB243F02003DBB213701FE04FF040224FF040231B78DBB243F04003DBB213700C4A0C4B1B78DBB243F02003DBB213700CE0084A074B1B78DBB223F02B
:4051C0002003DBB2137003E0002000F07FF900BF00BF0837BD4680BD0042004080B400AF054A054B1B78DBB243F01003DBB2137000BFBD4680BC70470042004080B400AF80
:40520000054A054B1B78DBB223F01003DBB2137000BFBD4680BC70470042004080B483B000AF0346FB710949084B1B78DBB223F00303DAB2FB7903F00303DBB21343DBB230
:405240000B7000BF0C37BD4680BC70470540004080B483B000AF0346FB71044AFB79137000BF0C37BD4680BC704700BF0440004080B483B000AF0346FB80154A144B1B78C0
:40528000DBB223F00F03DBB21370124B00221A70114A114B1B78DBB263F07F03DBB213700E4BFA88D2B21A700D4AFB881B0A9BB2DBB213700B4A0B4B1B78DBB243F0010320
:4052C000DBB2137000BF0C37BD4680BC704700BF14400040104000400840004002400040034000400140004080B584B000AF0346FB8003F0C1FF0346FB73244B1B78DBB2E0
:405300009BB21B02BB81224B1B78DBB29AB2BB891343BB81FB88002B02D0BB89002B29D11C4B1B78FB72FB7A062B02D80720FFF78FFFFB88002B0CD1174A174B1B78DBB22F
:4053400043F04003DBB21370FB881846FFF790FF0BE0FB881846FFF78BFF0F4A0E4B1B78DBB223F04003DBB21370FB7A1846FFF76FFF03E0FB881846FFF77AFFFB7B18467F
:4053800003F07EFF00BF1037BD4680BD0740004006400040044000400840004080B400AF054A054B1B78DBB243F00403DBB2137000BFBD4680BC70470043004080B400AF17
:4053C000054A054B1B78DBB223F00403DBB2137000BFBD4680BC70470043004080B586B000AF0346FB7100237B61FB793B742B4A2A4B1B78DBB243F00103DBB21370FB79D6
:40540000002B45D0264B1B78FB74264B1B78BB74254B1B787B74182000F0EAFC10237B6125E01E4B1B780423FB730EE000BF012000F0B0FC034603F00103DBB2002BF6D0B9
:40544000FB7BDBB2013BDBB2FB73FB7BDBB2002BECD1124B1B78DBB25BB2002B02DB00237B6108E03B7CDBB2013BDBB23B743B7CDBB2002BD5D1FB7C03F00403002B01D14F
:40548000FFF79CFF074ABB7C1370074A7B7C13707B6918461837BD4680BD00BF1042004000430040804300408243004080B400AF054A054B1B78DBB223F00103DBB213700F
:4054C00000BFBD4680BC70471042004080B483B000AF0346FB7101BE00BF0C37BD4680BC704700BF80B582B000AF786008E00C4B1B68184603F0B8FE7B68A3F500437B60D4
:405500007B68B3F5004FF2D8064B1B687A6802FB03F3184603F0A8FE00BF0837BD4680BD8C81FF1F8481FF1F80B582B000AF0346FB80FB88054A127802FB03F3184603F021
:4055400093FE00BF0837BD4680BD00BF8881FF1F80B584B000AF03463960FB710F4B1B68FB60FB791F2B02D90020FFF7AFFFFB7903F01F0310339B00FA6813441B68BB60BD
:40558000FB7903F01F0310339B00FA6813443A681A60BB6818461037BD4680BD08ED00E080B582B000AF03460A46FB711346BB71BB79072B02D90020FFF788FFFB791F2B96
:4055C00002D90020FFF782FFFB7903F01F0303F1604303F56443BA795201D2B21A7000BF0837BD4680BD00BF80B483B000AF7860264B1B78DBB21A467B681A60244B1B78AB
:40560000DBB21B027A6812681A437B681A60214B1B78DBB21B047A6812681A437B681A601D4B1B78DBB21B067A6812681A437B681A607B680433194A1278D2B21A60184BC2
:405640001B78DBB21A027B6804337968043109680A431A60134B1B78DBB21A047B6804337968043109680A431A600F4B1B78DBB21A067B6804337968043109680A431A6080
:4056800000BF0C37BD4680BC704700BF0301004904010049EC460040020100490101004900010049050100490601004980B500AF924B1B78DBB203F00F03DAB2904B1A70CF
:4056C000904B1B78DAB28E4B5A708C4A8B4B1B78DBB223F00F03DBB213708A4B1B78894B00221A70884B1B78DBB223F03F03DAB2834B5A71372003F0C7FD844B1B78DBB2BA
:4057000003F00703DAB27E4BDA70804B1B78DBB203F04003DAB27A4B1A717C4B1B78DBB203F01003002B03D0754B01225A7202E0734B00225A72764B1B78DBB203F00303CE
:40574000DAB26F4B9A706E4B9B78012B1CD14FF040231B78DBB203F00303012B08D0012B02D3022B08D00BE00020FFF757FD0BE00220FFF753FD07E00320FFF74FFD03E058
:405780000020FFF7A3FE00BF624B1B78DBB203F00103002B05D05A4B01229A73FFF7D8FA02E0574B00229A730420FFF7F9FB5A4B1B78DBB203F01003DBB2002B03D0504B60
:4057C00001229A7108E04E4B00229A710020FFF7CFFA0620FFF7A8FE4C4B1B78DBB203F02003002B10D04FF040231B78DBB203F04003002B01D1022200E00122404BDA7162
:405800000020FFF7A5FC02E03D4B0022DA714FF040231B78DBB203F03003DAB2384B1A72374B1B7A002B09D04FF040224FF040231B78DBB223F03003DBB21370334B1B7872
:40584000DBB203F01003002B01D0FFF7D7FC334B1B78DAB22A4B9A72294B9B7A002B02D00020FFF7F5FC264B9B78002B02D00020FFF7D4FC2A4B1B78DBB29BB21B029AB273
:405880001F4B9A81274B1B78D9B21D4B9A898BB213439AB21A4B9A81194B9B89002B02D00020FFF721FD194B1B78DBB203F007031D4AD35C184603F0E7FC1C4B1B78DBB25E
:4058C00003F00103002B05D00D4B0122DA73FFF7EDFD02E00A4B0022DA73154B1B78DBB203F00403002B03D0054B01221A7402E0034B00221A7400BF80BD00BFA14300402B
:40590000288DFF1FA243004000480040004200400540004020420040A0430040044000400740004006400040209A0100104200400B40004080B586B000AF10233B61AB4AD4
:405940003B1D106818609188927999809A71A84B1B7C012B17D1A74B1B78DBB203F00703A54AD35C1A4613469B0013441A01D31A184603F079FCA14AA04B1B78DBB243F02A
:405980000403DBB213709A4BDB7B012B24D10020FFF724FD9A4B1B780523FB8219E0954B1B78DBB203F00703934AD35C1A46C82303FB02F3184603F057FC914B1B78DBB240
:4059C0005BB2002B02DB00233B6105E0FB8A013BFB82FB8A002BE2D1372003F055FC844B9B78022B03D0824B9B78032B10D1854B1B78DAB27E4B9B7A9A4204D07C4B9B7A88
:405A00001846FFF725FC7A4B9B781846FFF706FC774B1B7903F04003002B0CD0744BDB7807F11802134413F8143C032B03D10820FFF7B6FA20E06E4BDB7807F11802134415
:405A400013F8143C1846FFF7ABFA694B1B7903F04003002B08D0674A664B1B78DBB243F04003DBB2137007E0624A624B1B78DBB223F04003DBB213705D4B9B79012B0AD1C0
:405A8000614B1B78DBB203F01003DBB2002B02D10020FFF76DF9564BDB791846FFF758FB534B5B7A012B01D1FFF798FB504B1B7A1A464FF040231B78DBB203F030039A4223
:405AC00010D04FF040214FF040231B78DBB25BB223F030035AB2464B1B7A5BB213435BB2DBB20B70424B9B7B012B26D110233B610020FFF7D5F85020FFF716FD434B1B7855
:405B0000AB23FB8216E00120FFF70EFD3F4B1B78DBB203F00103002B09D03C4B1B78DBB203F00103002B02D000233B6105E0FB8A013BFB82FB8A002BE5D12D4B9B78002BC4
:405B400003D02B4B9B78012B10D12E4B1B78DAB2274B9B7A9A4204D0254B9B7A1846FFF777FB234B9B781846FFF758FB204B9B79002B09D1244B1B78DBB203F01003DBB2D4
:405B8000002B01D0FFF73EF9214B1B78DBB29BB21B02FB811F4B1B78DBB29AB2FB891343FB81134B9B89FA899A4204D0104B9B891846FFF799FB1849174B1B78DBB25BB212
:405BC00003F03F035AB20A4B5B795BB213435BB2DBB20B70114B064A12781A70104B044A52781A7000BF1837BD4680BD289A0100288DFF1F00420040209A01000B4000405A
:405C00001042004004400040A043004025420040074000400640004000480040A1430040A243004080B584B000AF03460A46FB711346BB8003F020FB0346FB734E4B1B7804
:405C4000DBB203F00803002B0BD14C4A4B4B1B78DBB203F01F03DBB21370FB79002B08D004E0FB7B184603F00BFB81E00020FFF72DFC00F007F9424B1B78DAB2414B1A71A6
:405C80003F4ABB881B099BB2DBB213703E4B1B78DAB23C4B5A713C4ABB88DBB203F00F03DBB21370394B1B78DAB2364B9A71374ABB881B0B9BB2DBB203F00103DBB2137038
:405CC000334B1B78DBB203F00703002B04D12D4B012283F82E2014E02A4B002283F82E202B4B1B78DBB203F00703DAB2254B83F82D20274A264B1B78DBB223F00703DBB24E
:405D000013701D4A1C4B1B78DBB223F00703DBB243F00303DBB21370174B1B7800BF00BF30BF184B93F82E30012B0FD01849184B1B78DBB25BB223F007035AB2114B93F845
:405D40002D305BB213435BB2DBB20B7000F0DAF90B4B0C4A12791A700B4B0A4A52791A700A4B084A92791A70FB7B184603F088FA1037BD4680BD00BF9343004083460040E1
:405D800098430040F88CFF1F994300409A4300400042004080B584B000AF0346FB7103F06BFA0346FB73104B1B78DAB20F4B1B781343DAB20D4B1A700C4B1B7803F007037D
:405DC000BB73FB79DB43DAB2084B1B781340DAB2064B1A70FB7B184603F052FABB7B18461037BD4680BD00BF904300403A8DFF1F80B582B000AF0346FB71204A1F4B1B78A0
:405E0000DBB223F00203DBB21370FFF7C7FA1B4B1B78DBB203F00103002B19D0184B1B78DBB2FA799A4224D0144A144B1B78DBB223F00103DBB21370114AFB7913700F4AF0
:405E40000E4B1B78DBB243F00103DBB2137010E00B4B1B78DBB2FA799A4202D0084AFB791370064A054B1B78DBB243F00103DBB2137000BF0837BD4680BD00BF8243004089
:405E80008043004080B400AF804B1B78DAB2804B9A72804B1B78DAB27D4BDA727E4B1B78DAB27B4B1A737D4B1B78DAB2784B5A737B4B1B78DAB2764B9A737A4B1B78DAB2F4
:405EC000734BDA73784B1B78DAB2714B1A74774B1B78DAB26E4B5A74754B1B78DAB26C4B9A74744B1B78DAB2694BDA74724B1B78DAB2674B1A75714B1B78DAB2644B5A7509
:405F00006F4B1B78DAB2624B9A756E4B1B78DAB25F4BDA756C4B1B78DAB25D4B1A766B4B1B78DAB25A4B5A76694B1B78DAB2584B9A76684B1B78DAB2554BDA76664B1B7817
:405F4000DAB2534B1A77654B1B78DAB2504B5A77634B1B78DAB24E4B9A77624B1B78DAB24B4BDA77604B1B78DAB2494B83F820205E4B1B78DAB2464B83F821205C4B1B7899
:405F8000DAB2434B83F822205A4B1B78DAB2404B83F82320584B1B78DAB23D4B83F82420564B1B78DAB23A4B83F82520374B00221A70384B00221A70374B00221A70374BE2
:405FC00000221A70364B00221A70364B00221A70354B00221A70354B00221A70344B00221A70344B00221A70334B00221A70334B00221A70324B00221A70324B00221A7047
:40600000314B00221A70314B00221A70304B00221A70304B00221A702F4B00221A702F4B00221A702E4B00221A702E4B00221A702D4B00221A702D4B00221A702C4B00224B
:406040001A702C4B00221A702B4B00221A702B4B00221A702A4B1B78DBB203F00803002B0CD00B4B012283F82F20254A244B1B78DBB223F00803DBB2137003E0044B0022D2
:4060800083F82F2000BFBD4680BC7047005A0040F88CFF1F025A0040035A0040045A0040065A0040085A00400A5A0040105A0040125A0040135A0040145A0040165A004007
:4060C000185A00401A5A0040205A0040225A0040235A0040245A0040265A0040285A00402A5A0040305A0040325A0040335A0040345A0040365A0040385A00403A5A00405C
:406100002243004080B400AF434B444A927A1A70434B424AD27A1A70424B404A127B1A70414B3E4A527B1A70404B3C4A927B1A703F4B3A4AD27B1A703E4B384A127C1A70EC
:406140003D4B364A527C1A703C4B344A927C1A703B4B324AD27C1A703A4B304A127D1A70394B2E4A527D1A70384B2C4A927D1A70374B2A4AD27D1A70364B284A127E1A706D
:40618000354B264A527E1A70344B244A927E1A70334B224AD27E1A70324B204A127F1A70314B1E4A527F1A70304B1C4A927F1A702F4B1A4AD27F1A702E4B184A92F820202F
:4061C0001A702D4B154A92F821201A702B4B134A92F822201A702A4B104A92F823201A70284B0E4A92F824201A70274B0B4A92F825201A70094B93F82F30012B07D1234AA8
:40620000224B1B78DBB243F00803DBB2137000BFBD4680BC704700BF005A0040F88CFF1F025A0040035A0040045A0040065A0040085A00400A5A0040105A0040125A0040C0
:40624000135A0040145A0040165A0040185A00401A5A0040205A0040225A0040235A0040245A0040265A0040285A00402A5A0040305A0040325A0040335A0040345A004045
:40628000365A0040385A00403A5A00402243004080B582B000AF786000F03CF8786800F009F8072000F018F800F028F800BF0837BD4680BD80B485B000AF7860054B1B68A8
:4062C000FB60FB6850337A681A6000BF1437BD4680BC704708ED00E080B483B000AF0346FB71054AFB795B01DBB2137000BF0C37BD4680BC704700BF04E400E080B400AFD0
:40630000034B10221A6000BFBD4680BC704700BF00E100E080B400AF034B10221A6000BFBD4680BC704700BF80E100E080B500AF064B1B78002B04D100F00AF8034B012271
:406340001A7000F00FF800BF80BD00BF3B8DFF1F80B500AF0A2000F05BF800F03FF800BF80BD00BF80B582B000AF1A4B1B78DBB203F00203002B18D102F07EFF0346FB71FD
:40638000144A144B1B78DBB243F00203DBB21370114A114B1B78DBB243F00403DBB21370FB79184602F06CFF0FE002F065FF0346FB71094A084B1B78DBB243F00403DBB2E1
:4063C0001370FB79184602F05BFF00BF0837BD4680BD00BF004300408243004080B582B000AF02F049FF0346FB71084A074B1B78DBB243F00803DBB21370FB79184602F09C
:406400003FFF00BF0837BD4680BD00BF8243004080B483B000AF0346FB710D4B1B78DBB203F00403002B0DD10A490A4B1B78DBB223F00F03DAB2FB7903F00F03DBB2134301
:40644000DBB20B7000BF0C37BD4680BC704700BF824300408143004080B500AF0220FFF799FC0346184680BD80B485B000AF0346FB710A4B1B78DBB223F00103FB730749C8
:40648000FB7903F00103DAB2FB7B1343DBB20B7000BF1437BD4680BC704700BF2051004080B400AF044B1B78DBB203F00103DBB21846BD4680BC70472151004080B500AFE1
:4064C000064B1B78002B04D100F022F8034B01221A7000F033F800BF80BD00BF3C8DFF1F80B400AF034B04221A6000BFBD4680BC704700BF00E100E080B400AF034B042299
:406500001A6000BFBD4680BC704700BF80E100E080B500AF00F0B8F8064B04221A6006490220FFF715F807210220FFF739F800BF80BD00BF80E100E0BD6A000080B582B048
:4065400000AF02F099FE0346FB71094A084B1B78DBB243F03003DBB21370FB79184602F08FFE044B04221A6000BF0837BD4680BD8243004000E100E080B400AF024B184620
:40658000BD4680BC704700BF9081FF1F80B582B000AF7860FFF7B0FF7B681B78DAB2104B1A707B685B78DAB20D4B5A707B689B78DAB20B4B9A707B681B79DAB2084B1A7156
:4065C0007B681B7ADAB2064B1A727B685B899AB2034B5A81FFF784FF00BF0837BD4680BD9081FF1F80B483B000AF0346FB71044AFB79137000BF0C37BD4680BC704700BFD1
:406600003F8DFF1F90B482B000AF0346FB710B46BB711346BB80BB79022B02D8BB88013BBB80BA88BB889B089BB21846BB881349A1FB03135B099BB2C31AB9880F48A0FBAB
:406640000101C90989B20B441344BA79013A0C498A5C1146FA790A441A440A4BA2FB0334111B49080B1999080B46DB005B1AD11ACBB218460837BD4690BC70471F85EB514F
:406680003C9A01002549922480B582B000AFA04B0022DA809E4B1B79D9B29D4BDB889AB28BB213449AB29A4BDA80994B5B899BB2984AA2FB0312D2094FF4C87101FB02F2B4
:4066C0009B1A9BB2002B15D0914B5B899BB203F003039BB2002B16D18D4B5B899BB28D4AA2FB03125209642101FB02F29B1A9BB2002B08D0884B1B78DBB243F00203DAB205
:40670000854B1A7007E0844B1B78DBB223F00203DAB2814B1A700023FB710DE07C4BDB889AB2FB797D49CB5C9BB213449AB2784BDA80FB790133FB71FA79754B1B7ADBB266
:40674000013B9A42EAD3744B1B78DBB203F00203002B0BD06E4B1B7ADBB2022B06D96C4BDB889BB201339AB2694BDA80684B1B79D8B2674B1B7AD9B2654B5B899BB21A46A7
:40678000FFF740FF03460133DAB2614BDA70604BDB78DBB2002B05D05D4BDB78DAB25C4BDA7006E05A4BDB78DBB20733DAB2584BDA70574B9B78DBB20B2B08D8564B1B78F8
:4067C000DBB223F00403DAB2534B1A7007E0524B1B78DBB243F00403DAB24F4B1A70504B1B78DBB203F00103002B18D04D4B1B78DAB2474B1B78DBB29A4208D14A4B1B78A5
:40680000DBB243F00103DAB2474B1A7007E0464B1B78DBB223F00103DAB2434B1A70404B1B78DBB203F00203002B18D03D4B5B78DAB2374B5B78DBB29A4208D13A4B1B784D
:40684000DBB243F00203DAB2374B1A7007E0364B1B78DBB223F00203DAB2334B1A70304B1B78DBB203F00403002B18D02D4B9B78DAB2274B9B78DBB29A4208D12A4B1B78F9
:40688000DBB243F00403DAB2274B1A7007E0264B1B78DBB223F00403DAB2234B1A70204B1B78DBB203F00803002B18D01D4BDB78DAB2174BDB78DBB29A4208D11A4B1B78A1
:4068C000DBB243F00803DAB2174B1A7007E0164B1B78DBB223F00803DAB2134B1A70104B1B78DBB203F02003002B27D00D4BDB889AB2074BDB889BB29A4217D10A4B1B78F3
:40690000DBB243F02003DAB2074B1A7016E000BF9081FF1F1F85EB51408DFF1F309A01003D8DFF1F9C81FF1F3E8DFF1F424B1B78DBB223F02003DAB23F4B1A703F4B1B78E6
:40694000DBB203F01003002B18D03D4B1B79DAB23C4B1B79DBB29A4208D1374B1B78DBB243F01003DAB2344B1A7007E0324B1B78DBB223F01003DAB22F4B1A702F4B1B78A8
:40698000DBB203F04003002B18D02D4B1B7ADAB22C4B1B7ADBB29A4208D1274B1B78DBB243F04003DAB2244B1A7007E0224B1B78DBB223F04003DAB21F4B1A701F4B1B7846
:4069C000DBB25BB2002B18DA1D4B5B899AB21D4B5B899BB29A4208D1174B1B78DBB263F07F03DAB2144B1A7007E0134B1B78DBB203F07F03DAB2104B1A70104B1B78BB71C9
:406A0000BB79002B13D00C4B1B78DAB2BB791340DBB2BA799A420AD10B4B1B78DBB243F00803DAB2084B1A70034B00221A7000BF0837BD4680BD00BF3E8DFF1F3D8DFF1FBB
:406A40009C81FF1F9081FF1F408DFF1F80B500AF0020FCF78BFF00BF80BD00BF80B500AF0120FCF783FF00BF80BD00BF80B500AF0220FCF77BFF00BF80BD00BF80B500AF3E
:406A80000320FCF773FF00BF80BD00BF80B500AF0420FCF76BFF00BF80BD00BF80B500AF0520FCF763FF00BF80BD00BF80B500AF0620FCF75BFF00BF80BD00BF80B582B0E1
:406AC00000AF0420FFF766F99E4B1B78DBB20133DAB29C4B1A709B4B1B78DBB23B2B40F2A682984B5B78DBB20133DAB2954B5A70944B00221A70934B5B78DBB23B2B40F260
:406B00004682904B9B78DBB20133DAB28D4B9A708C4B00225A708B4B9B78DBB2172B40F2DD81884B1B79DBB20133DAB2854B1A71844B00229A70834BDB889BB201339AB25D
:406B4000804BDA807F4BDB78DBB20133DAB27D4BDA707C4BDB78DBB2072B02D9794B0122DA70794B1B78DBB203F00203002B11D0744B1B7ADBB2022B0CD1724B1B79DBB2DE
:406B80001946704B1B7ADBB2013B704AD35C013399422AD86C4B1B78DBB203F00203002B0FD0684B1B7ADBB2022B0AD0654B1B79DAB2644B1B7ADBB2013B6449CB5C9A4221
:406BC00013D8614B1B78DBB203F00203002B40F0F4805C4B1B79DAB25A4B1B7ADBB2013B5A49CB5C9A4240F2E880564B1B7ADBB20133DAB2534B1A72524B01221A71514B79
:406C00001B7ADBB20C2B40F285804E4B5B899BB201339AB24B4B5A814A4B01221A72494B0122DA80474B5B899BB2494AA2FB0312D2094FF4C87101FB02F29B1A9BB2002B38
:406C400015D0404B5B899BB203F003039BB2002B16D13C4B5B899BB23D4AA2FB03125209642101FB02F29B1A9BB2002B08D0364B1B78DBB243F00203DAB2334B1A7007E001
:406C8000314B1B78DBB223F00203DAB22E4B1A70304B1B78DBB25BB2002B18DA2E4B5B899AB2284B5B899BB29A4208D12B4B1B78DBB263F07F03DAB2284B1A7007E0274B7D
:406CC0001B78DBB203F07F03DAB2244B1A70214B1B78FB71FB79002B13D0204B1B78DAB2FB791340DBB2FA799A420AD1164B1B78DBB243F00803DAB2134B1A70174B0022CE
:406D00001A70174B1B78DBB203F04003002B01D0FFF7CCFE0F4B1B78DBB203F04003002B28D00D4B1B7ADAB2064B1B7ADBB29A4218D10A4B1B78DBB243F04003DAB2074B08
:406D40001A7017E09081FF1F408DFF1F309A01001F85EB513D8DFF1F9C81FF1F3E8DFF1F3F8DFF1F964B1B78DBB223F04003DAB2934B1A70934B1B78FB71FB79002B13D02D
:406D80008F4B1B78DAB2FB791340DBB2FA799A420AD18D4B1B78DBB243F00803DAB28A4B1A70874B00221A70884B1B78DBB203F02003002B01D0FFF771FE824B1B78DBB266
:406DC00003F00803002B18D0814BDB78DAB2814BDB78DBB29A4208D1794B1B78DBB243F00803DAB2764B1A7007E0754B1B78DBB223F00803DAB2724B1A70724B1B78DBB2E8
:406E000003F02003002B18D0714BDB889AB2714BDB889BB29A4208D1694B1B78DBB243F02003DAB2664B1A7007E0654B1B78DBB223F02003DAB2624B1A70624B1B78DBB22F
:406E400003F01003002B18D0614B1B79DAB2614B1B79DBB29A4208D1594B1B78DBB243F01003DAB2564B1A7007E0554B1B78DBB223F01003DAB2524B1A70524B1B78FB71CE
:406E8000FB79002B13D04E4B1B78DAB2FB791340DBB2FA799A420AD14B4B1B78DBB243F00803DAB2484B1A70454B00221A70474B1B78DBB203F00803002B01D0FFF7DEFDC4
:406EC000444BDB78DBB2012B08D1404B1B78DBB203F01003002B01D0FFF7D8FD3D4B9B78DBB20B2B08D8384B1B78DBB223F00403DAB2354B1A7007E0334B1B78DBB243F05D
:406F00000403DAB2304B1A702E4B1B78DBB203F00403002B18D02E4B9B78DAB22D4B9B78DBB29A4208D1264B1B78DBB243F00403DAB2234B1A7007E0214B1B78DBB223F059
:406F40000403DAB21E4B1A701E4B1B78FB71FB79002B13D01A4B1B78DAB2FB791340DBB2FA799A420AD1184B1B78DBB243F00803DAB2154B1A70124B00221A70134B1B786E
:406F8000DBB203F00403002B01D0FFF76FFD0D4B1B78DBB203F00203002B25D00C4B5B78DAB20C4B5B78DBB29A4215D1044B1B78DBB243F00203DAB2014B1A7014E000BF71
:406FC0003E8DFF1F3D8DFF1F408DFF1F3F8DFF1F9C81FF1F9081FF1F384B1B78DBB223F00203DAB2354B1A70354B1B78FB71FB79002B13D0314B1B78DAB2FB791340DBB240
:40700000FA799A420AD12F4B1B78DBB243F00803DAB22C4B1A70294B00221A702A4B1B78DBB203F00203002B01D0FFF717FD244B1B78DBB203F00103002B18D0234B1B7874
:40704000DAB2234B1B78DBB29A4208D11B4B1B78DBB243F00103DAB2184B1A7007E0174B1B78DBB223F00103DAB2144B1A70144B1B78FB71FB79002B13D0104B1B78DAB2BC
:40708000FB791340DBB2FA799A420AD10D4B1B78DBB243F00803DAB20A4B1A70074B00221A70094B1B78DBB203F00103002B01D0FFF7CCFC00BF0837BD4680BD3E8DFF1FE7
:4070C0003D8DFF1F408DFF1F3F8DFF1F9C81FF1F9081FF1F80B485B000AF0346FB710B4B1B78DBB223F00403FB730849FB799B00DBB203F00403DAB2FB7B1343DBB20B7057
:4071000000BF1437BD4680BC704700BF0051004080B485B000AF0346FB710B4B1B78DBB223F00803FB730849FB79DB00DBB203F00803DAB2FB7B1343DBB20B7000BF14379B
:40714000BD4680BC704700BF0051004080B500AF064B1B78002B04D100F00AF8034B01221A7000F015F800BF80BD00BF418DFF1F80B400AF044B72221A70044B20221A7005
:4071800000BFBD4680BC7047826400408A64004080B582B000AF02F06FF80346FB710C4A0B4B1B78DBB243F02003DBB21370094A084B1B78DBB243F01003DBB21370FB79E0
:4071C000184602F05DF800BF0837BD4680BD00BF926400409A64004080B582B000AF02F04BF80346FB710C4A0B4B1B78DBB223F02003DBB21370094A084B1B78DBB223F08E
:407200001003DBB21370FB79184602F039F800BF0837BD4680BD00BF926400409A64004080B483B000AF0023FB710C4B1B78BB71BB7903F02003002B09D0094B1B78FB7169
