:400000000080002011000000F1320000F132000080B500AF024A034B1B68136003F09CF9BC760040FA46004010B5054C237833B9044B13B10448AFF300800123237010BD39
:40004000208AFF1F00000000B0540100084B10B51BB108490848AFF300800848036803B910BD074B002BFBD0BDE81040184700BF00000000248AFF1FB0540100C880FF1F36
:400080000000000080B500AF05F092FC4FF48072002104480CF060F8034B00221A7000BF80BD00BF3C8AFF1F3D8BFF1F80B582B000AF05F05BFC0346FB71FB79002B09D0D5
:4000C000114B1B785A1CD1B20F4A117019460F4AFB795354FB790D2B11D10D4B1A680D4B1B68194610460CF03BFF02460A4B1A60054B1B781A46054B1344054A136000BFBB
:400100000837BD4680BD00BF3D8BFF1F3C8AFF1FCC80FF1F448BFF1F408BFF1FB0B58AB000AF7860002387F82130002387F82030FFF7A8FF012005F0B7FCC82003F0C2FD6C
:40014000022007F089FA05F0A7FB384805F052FC4FF4FA6003F0B6FD05F0E4FB05F05CFC002005F0A1FC0C2007F076FA002007F055FA2F492F480DF003F8786233E00D2178
:40018000786A0CF08BFB0346002B27D0786A0BF01DFE03467B847B8C002B1FD07B8C42F20F72934214D097F82030B7F922205B0007F128010B4423F8202C97F820300A2B83
:4001C00015D897F820300133DBB287F8203005E097F821300133DBB287F82130144900200CF0CEFF78627B6A002BC8D100E000BF97F8202007F108031146184600F082F8F4
:4002000003461BB2FB837B681D4607F108040FCC28606960AA60EB6003CC2861696123882B8378682837BD46B0BD00BFAD000000C05401003C8AFF1FB0B5EEB004AF3B1DC2
:40024000186007F12403002283F8802007F124032A4A1C4615460FCD0FC42B68238007F108031846FFF75AFF07F108031B7E1A4607F108035B7E134407F10802127E1146AD
:4002800007F10802B2F91620144607F1240202F181000294019100930B23194A4FF480710CF082FA07F108031B7E0B2B05D107F12403012283F880200EE007F108031B7EE8
:4002C000002B09D007F108031B7E0A2B04D807F12403022283F880203B1D1A6807F124031046194640F281131A460BF0BFFE3B1D186807F5D477BD46B0BD00BFC4540100FC
:40030000D854010090B585B000AF78600B46FB700023FB81FB781BB21946786800F03AF8FB7803F00103DBB2002B25D1FB78013BDA0F13445B105B007A681344B3F90030B1
:400340001946FB785B08DBB25B007A681344B3F900300B4418460AF0D7FE4FF000024FF080430BF061F803460C46184621460BF0E1F90346FB8107E0FB785B08DBB25B0099
:400380007A6813441B88FB81FB8918461437BD4690BD00BF80B584B000AF78600B467B800023FB8137E00023BB8124E0B7F90C305B007A681344B3F90020B7F90C300133E8
:4003C0005B0079680B44B3F900309A420DDDB7F90C305B007A68D018B7F90C3001335B007A681344194600F021F8B7F90C309BB201339BB2BB81B7F90C20B7F90210B7F95F
:400400000E30CB1A013B9A42D0DBB7F90E309BB201339BB2FB81B7F90E20B7F90230013B9A42C0DB00BF1037BD4680BD80B485B000AF786039607B681B88FB813B68B3F90B
:4004400000207B681A803B68FA891A8000BF1437BD4680BC704700BF80B584B000AF78600923FB7300F078F8786807F017FD0346DBB20133FB7300F07BF8FB7B1846103795
:40048000BD4680BD80B586B000AFF860B9607A600923FB7500F060F8B968F86807F0E8FC38613B69002B08D107F016FB07F08EFBB968F86807F0DCFC38613B69002B10D0F6
:4004C00078680CF08FFB03461A467968386907F07DFE386907F006FC0346DBB2C3F10103FB7500F045F8FB7D18461837BD4680BD80B586B000AFF860B9607A600923FB75CE
:4005000000F02AF81349F86807F0B2FC38613B69002B08D107F0E0FA07F058FB0D49F86807F0A6FC38613B69002B0CD07A68B968386907F024FD386907F0D4FB0346DBB260
:40054000C3F10103FB7500F013F8FB7D18461837BD4680BD1055010080B500AF05F0C8FA012005F0CBFA07F031FB00BF80BD00BF80B500AF002005F0C1FA05F0B3FA07F0EC
:40058000ABFA002005F02CFB002005F00BFB002005F044FB002005F05FFB00BF80BD00BFF0B5EBB000AF3B1D186007F124033D4A1C4613460FCB07C4237007F12403002228
:4005C00083F8802007F11803374A07CA03C31A8007F10C03354A07CA03C31A7007F10C031846FFF739FF07F10C03314A31491846FFF748FF07F1180107F10C030A221846A8
:40060000FFF776FF07F10C031846FFF725FF03461A4607F1240383F8802007F1240393F88030012B14D107F124038133224A1D4614460FCC28606960AA60EB6007CC2861A9
:400640006961AA612388A278AB831346AB7717E007F124038133194A14469E4604F1200C754626460FCE28606960AA60EB6010340EF1100E6445F3D17346224612781A70FE
:400680003B1D1A6807F124031046194640F281131A460BF0EBFC3B1D186807F5D677BD46F0BD00BF14550100785501008455010024550100305501003455010054550100AE
:4006C00080B500AF06F066FB00BF80BD80B500AF06F0C0FB034603F00203002B02D1012003F0F0FA06F02CFC00BF80BD80B500AF06F040FC00BF80BD0EB480B5ADF6140D0A
:4007000000AF0246FB1D1A70FB1D1B78022B07D0FB1D1B78012B03D0FB1D1B78032B1DD1294800F0C9F800F09BF803461946274800F0C2F8FB1D1B78022B03D1244800F092
:40074000BBF820E0FB1D1B78012B03D1214800F0B3F818E0204800F0AFF814E0FB1D1B78002B29D11D4B1B79002B25D0164800F0A3F800F075F803461946144800F09CF872
:40078000174800F099F807F5026207F10C031A6007F10C0307F110001B68D7F81C284FF400610FF069FB07F11003184606F078FB0C4800F081F800E000BF07F61407BD4683
:4007C000BDE8804003B070479055010094550100A4550100C0550100DC550100489CFF1FF85501001456010084B080B500AF07F1080E8EE80F00134800F05EF800F030F8F9
:4008000003461946104800F057F8104800F054F807F108010E4800F04FF897F8883019460C4800F049F807F1890319460A4800F043F80A4800F040F800BFBD46BDE880402B
:4008400004B0704790550100945501001C5601002C5601003C5601004C5601005C56010080B58CB000AF04F069FAF862FB6A1B78DBB27B60FB6A5B78DBB2BB60FB6A9B78D5
:40088000DBB2FB60FB6A5B899BB2A3F26C73BB61FB6A1B7ADBB27B61FB6A1B79DBB23B6100237B623B1D18460BF0A8FDB862BB6A18463037BD4680BD0FB480B5ADF6080D5B
:4008C00000AF07F61403C7F80438381DD7F80438D7F810284FF400610FF0CEFA3B1D184606F0DEFA00BF07F60807BD46BDE8804004B0704700000000B0B598B000AF786012
:40090000012006F02FF8012006F0C4FE0A2003F0D9F905F0F9FF05F0D1FF05F013FB002387F85F3034E097F85F30184606F006F80023A7F85C300FE0B7F85C4005F092FF39
:400940000246A30007F160010B4443F8582CB7F85C300133A7F85C30B7F85C300A2BEBD997F85F4007F108030B21184600F0DCF90346184605F056FC0246A30007F16001A5
:400980000B4443F82C2C97F85F30013387F85F3097F85F30042BC6D905F0B6FF05F07EFF05F0E8FA002005F0DDFF002006F072FE7B6B18460AF0BAFB19A3D3E900230AF017
:4009C00055FA03460C46184621460AF0DBFE0346BB65BB6B144918460BF032F80346B96D18460AF023FF03467B64FB6BB96D18460AF01CFF0346BB643B6C3B65012387F8A4
:400A000054307B681D4607F144040FCC0FC523682B6078686037BD46B0BD00BFAFF30080FCA9F1D24D62F03F000030410000000090B597B000AF786005F066FF05F03EFFC9
:400A400005F080FA032005F079FF0023A7F856300FE0B7F8564005F005FF0246A30007F158010B4443F8502CB7F856300133A7F85630B7F856300A2BEBD907F108030B21D5
:400A8000184600F051F90346184605F0CBFB0346BB64BB6C484918460AF0D2FF0346184609F068FA0346444918460BF07DF80346BB64012006F0EEFD0A2003F003F90023A7
:400AC000A7F854300FE0B7F8544005F0CBFE0246A30007F158010B4443F8502CB7F854300133A7F85430B7F854300A2BEBD907F108030B21184600F017F90346184605F0C2
:400B000091FB03467B6405F0FFFE05F0C7FE05F031FA002006F0BEFD7B6C18460AF006FB21A3D3E900230AF07FFC03460C46184621464FF00002214B0AF04CFB03460C4623
:400B4000184621460AF01EFE0346FB647B6C18460AF0ECFA4FF00002194B0AF03BFB03460C461846214612A3D3E900230AF05CFC03460C46184621464FF00002114B0AF0BB
:400B800075F903460C46184621460AF0FBFD03463B657B681C4607F144030FCB84E80F0078685C37BD4690BD0000000000C0624033333333333303400000C84200408F4000
:400BC000000024400000044084B090B587B000AF786007F12C0080E80E00BB6B18460AF0A5FA23A3D3E900230AF01EFC03460C46184621464FF00002214B0AF015FC034645
:400C00000C46184621460AF0BDFD03463B61BB6B18460AF08BFA4FF000021A4B0AF0DAFA03460C461846214613A3D3E900230AF0FBFB03460C46184621464FF00002124BAA
:400C40000AF014F903460C46184621460AF09AFD03467B617B681C4607F108030FCB84E80F0078681C37BD46BDE8904004B070470000000000C062403333333333330340CD
:400C800000408F40000024400000044080B584B000AF786039600023FB6028E00023BB601BE0BB689B007A6813441A68BB6801339B0079680B441B689A420BDDBB689B0095
:400CC0007A68D018BB6801339B007A681344194600F016F8BB680133BB603A68FB68D31A5A1EBB689A42DCDCFB680133FB603B685A1EFB689A42D1DC00BF1037BD4680BDD0
:400D000080B485B000AF786039607B681B68FB603B681A687B681A603B68FA681A6000BF1437BD4680BC704790B585B000AF786039600023FB6039687868FFF7A7FF3B6890
:400D400003F00103002B23D13B68013BDA0F13445B109B007A6813441A683B68D90F0B445B109B0079680B441B68134418460AF0CBF94FF000024FF080430AF055FB0346A1
:400D80000C46184621460AF0D5FC0346FB6008E03B68DA0F13445B109B007A6813441B68FB60FB6818461437BD4690BD2DE9B043EEB006AF3B1D186007F11C03002283F889
:400DC000802007F11C03264A1C4615460FCD0FC495E8030020600434217007F108031846FFF78AFD07F108031B6818460AF09EF904460D4607F108035B6818460AF096F9FA
:400E00008046894607F108039B6818460AF08EF902460B4607F11C0101F18100CDE90423CDE90289CDE900450E4A4FF480710BF0BBFC07F11C03012283F880203B1D1A6891
:400E400007F11C031046194640F281131A460BF00DF93B1D186807F5D077BD46BDE8B08360560100785601002DE9B043EEB006AF3B1D186007F11C03002283F8802007F18B
:400E80001C03374A1C4615460FCD0FC495E8030020600434217007F10C031846FFF7C8FD07F10C031B6818460AF040F904460D4607F10C039B6818460AF038F9804689465D
:400EC00007F10C03DB6818460AF030F902460B4607F11C0101F18100CDE90423CDE90289CDE900451F4A4FF480710BF05DFC07F10C031B681C4918460AF0A2FD034618466F
:400F000009F038F80346184918460AF04DFE03461A4607F10C031A6007F10C035A6807F10C031B68194610460AF01EFF0346002B04D107F11C03012283F880203B1D1A687A
:400F400007F11C031046194640F281131A460BF08DF83B1D186807F5D077BD46BDE8B08398560100B05601000000C84298B500AF12E00D4BB3F900301C4606F029F9034624
:400F80001A460A4B1A55084BB3F900309BB201339BB21AB2044B1A8006F03CF90346012BE7D000BF98BD00BF488BFF1F7006002080B500AF00F032F8154B00221A70154B40
:400FC000002283F82820134B00221A75114B00221A70114B00221A600F4B00225A600E4B00229A600C4B0022DA600B4B00221A61094B00225A61084B0022DA61064B002258
:401000009A610021402006F09DFA00BF80BD00BFE205002074EBFF1FE405002080B500AF002006F0C1FA0C2006F06EFA002006F003F8002006F04AFA002006F09BFA0020EA
:4010400005F0DCFF002006F015F800BF80BD00BF80B500AF022006F057FA012006F0A4FA012005F0E9FF642002F02CFE00BF80BD80B500AF41F288320A490B4800F0A8F81F
:4010800000F084F84FF47A7002F01CFE06F070F806F0A0F9FFF7C2FF044B00221A7000BF80BD00BFE0560100E4560100E205002080B582B000AFFFF7CBFF05F0F7FF2C4883
:4010C00006F076F900F062F80023FB7100233B71FFF7C6FB38600023BB711CE000237B710EE04FF47A722349234800F071F80346002B02D00123FB7105E07B7901337B711E
:401100007B79132BEDD9FB79012B08D000F03EF8BB790133BB71BB79022BDFD900E000BFFFF79EFB02463B68D31A3B603A6813490020FFF7E1FAFB79012B0AD13B791A464D
:401140000F490020FFF7D8FA0E4B01221A70012309E00D490220FFF7CFFA0A4B00221A70FFF786FF002318460837BD4680BD00BF6D0F0000E0560100F0560100F856010061
:401180000C570100E20500204057010080B500AF012005F033FF4FF4FA6002F093FD002005F02CFF00BF80BD80B500AF064B00221A804FF48062002104480AF0CDFF06F066
:4011C0003FF800BF80BD00BF488BFF1F7006002080B58AB000AFF860B9607A6000237B6200237B6246E00A23FB617A68FB69B2FBF3F3BB61FFF7D8FFF86806F05DF87B680E
:40120000002B06D1FA681F490020FFF775FA012334E000233B6220E0F86902F053FDB96819480BF09DFE78617B69002B12D07B6A002B06D1144BFA6814490020FFF75CFA6F
:4012400006E07B6A5A1C104B11490120FFF754FA012313E03B6A01333B623A6ABB699A42DAD3094BFA680B490220FFF745FA7B6A01337B627B6A022BB5D90023184628375E
:40128000BD4680BD585701007006002084570100D45701000C580100B0B5E6B000AF3B1D186007F10C03002283F8802007F10C03364A07CA03C31A800233120C1A7007F1F0
:4012C0000C038133324A1C4615460FCD20606160A260E36028682061AB88AA79A3821346A3750023C7F894313AE000F091F800F08FFC0346002B02D1FFF7DAFE27E000F0D2
:4013000087FC0346042B22D100F0E0FBC7F89001D7F89031002B03D0D7F8900101F04CFC07F10C0381331B4A1D4614460FCC28606960AA60EB6007CC28616961AA6107F1F6
:401340000C03012283F88020FFF792FE0CE04FF47A7002F0B7FCD7F894310133C7F89431D7F894313B2BC0DD3B1D1A6807F10C031046194640F281131A460AF077FE3B1D76
:40138000186807F5CC77BD46B0BD00BF3C580100485801006058010080B586B000AFF860B9607A603B60B968F8680BF0D9FD78617B69002B01D1FB687B61B8680BF012FCDC
:4013C00002467B6913447B61796878690BF0C8FD38613B69002B06D1F8680BF003FC0246FB6813443B613A697B69D31A1A46796938680BF025FC3A697B69D31A1A463B68EC
:40140000134400221A70012318461837BD4680BD80B582B000AF534B1B78012B0BD1FFF71FFA0246504B1A6000F09CFA4D4B02221A70012392E04B4B1B78022B5FD10023D2
:40144000FB712BE000F01CF9484B5B7883F00103DBB2002B07D0464B5B691A2B03DD444B5B69FF2B1ED1414B5B78002B0FD0404B9B68242B03DD3E4B9B68FF2B13D13C4B57
:401480005B691A2B03DD3A4B5B69FF2B0BD14FF47A7002F017FCFB790133FB71FB791D2BD0D900E000BF00F06DF80346002B13D0FFF7D6F902462C4B1B68D31A2C4A9361A0
:4014C0002B4B9B691A462B490020FFF715F900F0B5F8244B03221A70FFF7C2F90246224B1B68D31AB42B08DD1E4B00221A70FFF7BFFD21490220FFF7FFF800232EE0194B50
:401500001B78032B29D100F0A7F80346002B11D0144B04221A70FFF7A3F90246124B1B68D31A134AD361124BDB691A4613490020FFF7E2F8FFF794F902460B4B1B68D31AE7
:40154000E62B08DD074B00221A70FFF791FD0C490220FFF7D1F8002300E0002318460837BD4680BDE20500206C060020489CFF1FE40500207C580100A4580100C858010023
:40158000E858010080B584B000AF20490020FFF7B3F84FF4FA621E491E48FFF719FE0346FB731D490020FFF7A7F81C4A1C490020FFF7A2F8FB7B002B23D000233B713B1D27
:4015C000184A19491548FFF7E7FE3B1D1A4617490020FFF791F816490020FFF78DF83B1D144918460BF0BCFC0346002B07D13B1D114918460BF0B4FC0346002B01D0012308
:4016000000E0002318461037BD4680BD10590100E05601002459010030590100700600204C590100685901006C5901007059010090590100B0590100B459010080B500AFA5
:401640004FF47A7202490348FFF7C2FD00BF80BDE0560100B859010080B500AF4FF4FA6205490648FFF7B4FD0346002B01D0012300E00023184680BDC8590100CC59010096
:4016800080B586B004AF154BFF225A60134BFF22DA60124BFF229A60104BFF225A610F4BFF221A610D4BFF221A604FF4FA620C490C48FFF78DFD0C4B03930C4B02930C4B88
:4016C00001930C4B00930C4B044A0C490C480BF0B7F8786000BF0837BD4680BDE4050020E0560100D8590100F8050020F4050020F0050020EC050020E8050020E459010045
:401700007006002080B400AF094B00221A70084B01225A70064B0A229A70054B3C22DA70034B01221A7100BFBD4680BC704700BF489CFF1F90B5B1B000AF002387F82030B8
:40174000002387F8B430002387F8A830002387F89C30002387F89030002387F8843007F1B4036A4A6A496B48FFF716FE07F1A803664A69496748FFF70FFE07F19C03634A75
:4017800066496448FFF708FE07F190035F4A64496048FFF701FE07F184035C4A61495D48FFF7FAFD07F12003584A5F495948FFF7F3FD07F12003184600F058FC07F11C0234
:4017C00007F1B403594918460BF03AF80346012B0AD1FB69DAB2564B1A70FB691A4655490020FEF789FF03E053490220FEF784FF07F1180207F1A8034C4918460BF020F8CF
:401800000346012B0ED1BB69002B14BF01230023DAB2474B5A70BB691A4648490020FEF76BFF03E046490220FEF766FF07F1140207F19C033D4918460BF002F80346012B8E
:4018400019D17B69DAB23A4B9A70394B9B7899B23C4C38460723012200F06EFD22463B46196811609B8893807B691A4636490020FEF742FF03E035490220FEF73DFF07F119
:40188000100207F19003294918460AF0D9FF0346012B19D13B69DAB2254BDA70244BDB7899B22B4C38460723012200F045FD22463B46196811609B8893803B691A4625499C
:4018C0000020FEF719FF03E023490220FEF714FF07F10C0207F18403144918460AF0B0FF0346012B0AD1FB68DAB2114B1A71FB681A461A490020FEF7FFFE03E01849022095
:40190000FEF7FAFE00BFC437BD4690BD68590100045A010070060020105A01001C5A01002C5A01003C5A01004C5A0100585A0100489CFF1F5C5A0100785A0100945A010024
:40194000B05A01006CC3FF1FCC5A0100F05A0100509CFF1F205B0100485B0100785B0100A45B010080B584B000AF454B1B7D002B13D14FF4FA6243494348FFF729FC034636
:40198000002B0AD0414B424A42494348FFF704FD3E4A42490020FEF7AFFE394B1B78002B13D14FF4FA6237493D48FFF711FC0346002B0AD0324B364A36493748FFF7ECFC34
:4019C0002F4A38490020FEF797FE2D4B93F82830002B13D14FF4FA622A493348FFF7F8FB0346002B0AD0314B294A2A492A48FFF7D3FC2E4A2E490020FEF77EFE2D4B5B78B1
:401A000083F00103DBB2002B06D04FF4FA621D492948FFF7DDFB09E0264B5B78002B05D04FF4FA6217492548FFF7D2FB4FF4FA6214492348FFF7CCFB0346002B1BD000235B
:401A40003B713B1D124A13491348FFF7A5FC3B1D1A461C490020FEF74FFE3B1D312118460AF01CFF0346002B05D14FF4FA6205491548FFF7ADFB00BF1037BD4680BD00BFE5
:401A800074EBFF1FE0560100D45B010088EBFF1F685901006C59010070060020E05B0100F05B0100FC5B0100085C01009CEBFF1F145C0100489CFF1F205C01004C5C010010
:401AC000685C0100745C0100805C010080B5A0B006AF444B1B78042B05D043490220FEF70BFE00237AE000237B664FF4FA623F493F48FFF76DFB0346002B6ED0002387F886
:401B0000443007F144033B4A3B493C48FFF744FC0023BB6207F13C0107F1400207F1440007F12803049307F12C03039307F13003029307F13403019307F1380300930B4633
:401B40002F490AF07DFE0346072B06D1BB6A4FF4617202FB03F3BB6227E007F13C0107F1400207F1440007F12803049307F12C03039307F13003029307F13403019307F137
:401B8000380300930B461F490AF05AFE0346072B05D1BB6A1C4A02FB03F3BB6205E01B490220FEF7A9FD002318E0FB6A7B603B6BBB607B6BFB603B6C6433BB61FB6B013B01
:401BC0007B61BB6B3B6100237B623B1D18460AF015FC0246BB6A13447B667B6E18466837BD4680BDE20500208C5C0100E0560100C45C0100D05C0100D45C0100700600207F
:401C0000D85C0100F05C01007CFCFFFF085D010080B400AF024B1B781846BD4680BC7047E205002080B500AFFFF7F2FF0346002B03D005F0E7FC05F08FFB00BF80BD00BF04
:401C400080B500AFFFF7E4FF0346002B0BD005F0DFFC05F09BFBFFF7DBFF0346032B02D1642002F02FF800BF80BD00BF80B584B000AFF860B9607A60234B1B881A462C2368
:401C800003FB02F3214A9818FB68214A14210AF08BFD1D4B1B881A462C2303FB02F310331A4A1344181DBB68194A14210AF07CFD154B1B881946154A2C2303FB01F313442A
:401CC00028337A681A60104B1B8801339AB20E4B1A80104B1B8801339AB20E4B1A800A4B1B88952B0BD9084B00221A800A4B01221A700A490220FEF7FFFC002300E0012312
:401D000018461037BD4680BD72C3FF1F18ECFF1F345E010074C3FF1FE1050020385E010080B483B000AF1CE0FB88164A2C2101FB03F3134400221A70FB88124A2C2101FB65
:401D400003F31344143300221A70FB880D4A2C2101FB03F31344283300221A60FB880133FB80FB88952BDFD9074B00221A80074B00221A80064B00221A7000BF0C37BD4671
:401D800080BC704718ECFF1F72C3FF1F74C3FF1FE105002080B400AF024B1B881846BD4680BC704774C3FF1F80B400AF024B1B881846BD4680BC704772C3FF1F80B58CB0F9
:401DC00008AFF860B9607A603B60FB6A01933B680093FB692A4A42F21071F8680AF0E4FC284B07933B6A0693274B0593254B0493BB690393254B02937B680193244B0093BC
:401E0000FB68244A42F21071F8680AF0CDFC7B6A002B0CD07B6A1B78002B08D07B6A0093FB681D4A42F21071F8680AF0BDFC1B49F8690AF09BFD0346002B13D0B8680AF0C0
:401E4000D1FE0246BB6A1344154A03920293154B0193154B0093FB68144A42F21071F8680AF0A2FCBB680093FB68114A42F21071F8680AF099FC00BF1037BD4680BD00BFD4
:401E8000705E0100985E01009C5E0100AC5E0100B05E0100845E0100B85E0100C05E0100D05E0100D85E0100EC5E0100C45E0100085F010090B589B004AF78607B680022E4
:401EC0001A70334B1B7883F00103DBB2002B2DD00023FB8122E0FB892C2202FB03F32D4A1344FA892C2101FB02F2103229490A440432F98927482C2404FB01F1014428311F
:401F000009680291019200937B68234A42F2107178680AF049FCFB890133FB81FFF744FF03461A46FB899342D5D328E00023BB8122E0BB892C2202FB03F3164A1344BA8954
:401F40002C2101FB02F2103212490A440432B98910482C2404FB01F10144283109680291019200937B680C4A42F2107178680AF01BFCBB890133BB81BB89952BD9D9786837
:401F80000AF030FEB860BB6818461437BD4690BDE105002018ECFF1F105F010080B588B004AFF860B9607A603B60FB6800221A703B6802937B680193BB680093FB68044A02
:401FC000C821F8680AF0F0FB00BF1037BD4680BD305F010080B582B000AF1C491C480AF0BFFF78607B68002B11D0012002F02CFE174B00221A70FEF733FC03461A46154909
:402000001548FFF733FE15490020FEF775FB14490F480AF0A5FF78607B68002B11D0002002F012FE0A4B00221A70FEF719FC03461A460C490848FFF719FE0B490020FEF72F
:402040005BFB002318460837BD4680BD405F010008060020445F0100485F0100585F0100845F0100885F01008C5F010080B582B000AF7860796803480AF056FD00BF08371B
:40208000BD4680BD0806002080B500AF02F0D4FD00BF80BDB0B588B002AF394802F0E8FC02F034FDFF2002F07FFE02F0E9FDFEF707FBFEF77DFFFFF725FB07F10C031846FE
:4020C00001F082FEFA683B69009313462D4A18212D480AF069FB2D4B2D4A1A602D4A2E4B14461D460FCD0FC40FCD0FC40FCD0FC42B681A46228002341B0C2370254B41F2AF
:4021000088325A66254B9B7899B2254C38460723012200F011F922463B46196811609B889380204B01221A701C4BDB7899B21E4C38460723012200F0FFF822463B4619686D
:4021400011609B889380194B01221A70184B00221A70184C3846072300220A2100F0ECF822463B46196811609B889380124B01221A700023FB7500BF1837BD46B0BD00BF80
:4021800089200000B85F01007CC3FF1F78C3FF1F74EBFF1FB0EBFF1FC05F0100489CFF1F6CC3FF1F04060020509CFF1F68C3FF1F569CFF1F6CEBFF1FE005002080B582B095
:4021C00000AF194B1B78002B06D000F099FB03461A46154B1A7014E0144B1B78002B06D000F0B0FB03461A46104B1A7009E0104B1B78002B05D000F055F903461A460C4BFC
:402200001A700C4B1B78002B05D0FFF7E3FE03461A46084B1A70FFF7FBF80346FB71FB7918460837BD4680BD569CFF1F0406002068C3FF1FE005002080B500AFFFF7F2FC8E
:40224000FEF744FA01F022FE4FF40061002002F0D9F801F05FFFFEF749FAFFF7F1FC00BF80BD00BF80B582B000AF0346FB71FB791946114800F02CF80346002B02D00F4BC3
:4022800001221A70FB7919460D4800F021F80346002B02D00B4B01221A70FB7919460A4800F016F80346002B02D0084B01221A7000BF0837BD4680BD6CC3FF1F04060020D9
:4022C000509CFF1F68C3FF1F6CEBFF1FE005002080B582B000AF78600B46FB707B681B79DBB2FA789A4212D17B685B881BB29BB2013B9BB21AB27B685A807B685B881BB2AD
:40230000002B04DC786800F007F8012300E0002318460837BD4680BD80B483B000AF78607B681B889BB21AB27B685A8000BF0C37BD4680BC704700BF80B485B000AF7860CE
:40234000084611461A4603467B800B467B7013463B707B883B817B783B733B787B73B7F902307B817B681A4607F10803186810609B88938078681437BD4680BC704700BFA9
:4023800090B5ADF6141D5EAF38490320FEF7B4F907F214631846FDF74FFF07F21464684604F1100340F27112194609F05FFE94E80F00FEF719FA07F592631846FEF7F6FC47
:4023C00007F59264684604F1100340F27112194609F04CFE94E80F00FEF706FA07F543731846FEF741FD07F54374684604F1100340F27112194609F039FE94E80F00FEF7EE
:40240000F3F907F5C4731846FEF7CAF807F5C474684604F1100340F27112194609F026FE94E80F00FEF7E0F93B1D1846FEF734FF0F4B00930F4B104A10490320FEF75CF9AF
:402440003C1D684604F1100340F27112194609F00DFE94E80F00FEF7C7F909490320FEF74BF900BF07F29C77BD4690BDF45F01007CC3FF1F74EBFF1F9CEBFF1F20600100D8
:402480004060010080B500AF62B6FFF703FEFFF777FFFFF793FE0346002BFAD1FFF7CCFEF7E700BF90B5ADF26C5D06AF012002F0CBFB642001F006FC002002F0C5FBFFF77F
:4024C00073FC0346002B01D1002303E2FFF7A0FB0346002B11D1AE4B1B780133DAB2AC4B1A70AB4B1B78022B02D8FEF7E1FDF0E1A74B00221A700023ECE1FFF789FB0346E6
:40250000042B40F0E681A3490020FEF7F5F8A24B00221A70A14B00221A70A14B00221A70A04B5B6907F5A5609F4A14210AF03CF9FEF796F9024607F5A56319469B48FFF719
:4025400095FB984B9B6807F21450974A14210AF02BF9FEF785F9024607F2145319469448FFF784FB8A4B1B7807F5A0608E4A14210AF01AF9FEF774F9024607F5A063194603
:402580008C48FFF773FB8C4B1B7883F00103DBB2002B16D0FFF708FC0346A7F84835B7F8483507F59B60804A14210AF0FDF8FEF757F9024607F59B6319468048FFF756FBFF
:4025C0000FE007F2C4409623774A14210AF0ECF8FEF746F9024607F2C44319467748FFF745FBFFF7D7FB0346A7F84635B7F84635013B07F2EC406C4A14210AF0D5F8FEF735
:402600002FF9024607F2EC4319466D48FFF72EFB6C490020FEF770F86B4B6C4A6C496048FFF7BCFC5E4A6B490020FEF765F85B48FFF740FC684B5B6E684A05920022049206
:40264000674A0392674A0292674A01920093544B614A52495048FFF7B1FB4F4A63490020FEF74AF8002387F845355B4B5A6E381D594B009313465E4AC8210AF095F83B1D5E
:402680001A465C490020FEF737F83B1D42F2107259491846FEF79CFD034687F845353E4BC7F84C353C480AF09DFA0246534BA3FB02235B09184608F017FD4FF00002504BC2
:4026C00007F0D6FB03460C461846214607F048FB03460C461846214609F02CF8034687F844352D480AF07EFA03461A4645490020FEF702F897F944351A4643490020FDF784
:40270000FBFF002387F84B359AE04FF47A723F493F48FEF75DFD034687F8453507F1CC00D7F84C35334A4FF4FA710AF03DF807F1CC0318460AF056FA03461A4607F1CC03E7
:40274000134434491A460B461B88138097F94B2507F1CC0330490020FDF7CEFF97F94B355A1C97F944359A4258D007F1CC0341F2883221491846FEF72BFD034687F845350F
:40278000D7F84C3503F2F313C7F84C3551E000BF700A00206C600100589CFF1F94C3FF1FA4EAFF1FE40500207C600100806001008860010090600100E10500209C60010060
:4027C000AC600100C0600100D46001009CEBFF1F0061010010610100B0EBFF1F2061010024610100286101003061010038610100506101006C61010070610100D34D6210A2
:4028000000407F40746101008C610100A0610100A4610100B4610100B861010007F1CC0341F288322E491846FEF7D2FC034687F8453597F94B35DBB20133DBB287F84B35B2
:4028400097F94B2597F944359A42FFF65EAF41F2883224492448FEF7BBFC034687F8453597F84535012B1DD1FEF764FFFFF758FAFDF7F6FF02461D4B1B68D31AC7F84035BD
:4028800007F59760D7F84035194A0A2109F08CFFFDF7E6FF024607F5976319461548FFF7E5F903E014490220FDF726FFFFF70EF9C7F83C05D7F83C35002B03D0D7F83C0562
:4028C00000F07AF9FEF7D4FB0C4B00221A70002300E00123184607F25457BD4690BD00BFC8610100D0610100D86101006C0600207C600100EC610100FC610100700A00202B
:4029000080B582B000AFFFF783F90346002B02D1FEF7CEFB11E0FFF77BF90346042B0CD1FFF7D4F878607B68002B02D0786800F043F9FEF79DFB002300E001231846083783
:40294000BD4680BD90B5A1B002AFFDF789FF786707F154007B6F834A202109F025FF824B1B78002B3BD107F110031846FDF7D6FB97F82830002B2ED0B7F9263007F1400001
:402980007A4A142109F010FF07F140031A4678490020FDF7B1FE07F140037A6F19467548FFF764F907F154031A4673497348FDF769FD734A70497148FDF764FD07F1400325
:4029C0001A466D496D48FDF75DFD6E4A6A496B48FDF758FD03E06C490220FDF78DFE07F12C031846FDF788FF97F83C30002B00F0AF80FB6A184608F099FB03460C4607F1F7
:402A00004000CDE90034614A142109F0CDFE07F140031A465E490020FDF76EFE07F140037A6F19465B48FFF721F9564A52495348FDF728FD07F154031A464F494F48FDF70F
:402A400021FD554A4C494D48FDF71CFD07F140031A4649494948FDF715FD434B1B78012B7AD13C466A4607F1380393E8030082E8030007F12C030ECB2046FEF7A5F8BB689B
:402A8000184608F053FB03460C4607F14000CDE900343E4A142109F087FE07F140031A463E490020FDF728FE07F140037A6F19463B48FFF7DBF8334A2F493048FDF7E2FC10
:402AC00007F154031A462C492C48FDF7DBFC354A29492A48FDF7D6FC07F140031A4626492648FDF7CFFCFB68184608F01FFB03460C4607F14000CDE90034244A142109F0E7
:402B000053FE07F140031A4627490020FDF7F4FD07F140037A6F19462448FFF7A7F8194A15491648FDF7AEFC07F154031A4612491248FDF7A7FC1E4A0F491048FDF7A2FC4E
:402B400007F140031A460C490C48FDF79BFC03E018490220FDF7D0FD002318467C37BD4690BD00BF28620100489CFF1F7C6001002C6201004062010050620100D080FF1F5F
:402B800054620100686201006C62010098620100A0620100AC620100B4620100BC620100D0620100E4620100F86201000C6301001C6301003063010080B586B000AF786036
:402BC0007B68002B05DC18490220FDF795FD002325E03B1D184609F003F978617B691B68DBB23B727B695B68DBB27B727B699B68DBB2BB727B695B699BB203F26C739BB2B8
:402C00007B827B691B69DBB23B747B69DB68DBB23B7307F10803184602F09AF8012318461837BD4680BD00BF5863010080B582B000AF786039603A680021786809F08CFA77
:402C400000BF0837BD4680BD80B584B000AFF860B9607A607A68B968F86809F007FA00BF1037BD4680BD00BF80B483B000AF0346FB71FEE780B487B000AF786039600023F3
:402C80003B6100237B6127E07B699B007A6813441B68BB60BB68FB73BB6823F0FF03BB6014E03B695B003A6813441B781A46BB68134419463B695B003A6813445B780B703A
:402CC0003B6901333B61FB7B013BFB73FB7B002BE7D17B6901337B617B69222BD4D900BF1C37BD4680BC704780B582B000AF5C4B1B78BB705B4B00221A805B4B58221A7086
:402D00005A4B00221A805A4B50221A70594B19221A80594B19221A70584B19221A80584B19221A70574B4FF49C721A80564B18221A70042255495648FFF786FF554B02223C
:402D40001A704FF0402308221A70534BF3221A70434B03221A70514B84221A70504B05221A70504B7B6006E04FF4F07004F0B0FC7B68013B7B607B68002B06D0484B1B783E
:402D8000DBB203F02003002BEED0354ABB781370454B02221A70454B454A1278D2B21A70444B4FF4E1621A80434B41F251221A800023FB7019237B6014E0FB785B00DAB2ED
:402DC0003E4B1B78DBB203F00103DBB21343DBB203F00303FB704FF4F07004F079FC7B68013B7B607B68002B02D0FB78032BE4D17B68002B02D10320FFF736FF304B4FF436
:402E000080721A802E4B07221A702E4B00221A702D4B48221A702A4B00221A702B4B02221A702B4B04221A702A4A2A4B1B78DBB243F01F03DBB21370274A274B1B78DBB26D
:402E400043F00103DBB21370244A244B1B78DBB263F07F03DBB2137000BF0837BD4680BD9846004080400040824000408440004086400040884000408A4000408C400040A3
:402E80008E40004090400040924000404C09004800410040004300400A4300400943004008430040A086010000420040A14600400B0100492242004020420040254200408B
:402EC000044000400640004008400040014000400B400040A2430040A1430040A043004080B483B000AF114B1B78FB71104AFB7903F00703DBB213700E4AFB791B09DBB2FF
:402F000013700D4B02221A700C4B01221A700C4B20221A700B4B40221A700B4B66221A7000BF0C37BD4680BC704700BFCF0100496E5800406F58004040580040A743004058
:402F4000C35A0040585B00407658004080B485B000AF0346FB71FB79012202FA03F3FB73FB79032B3BD8204B1A78FB7B1340DBB2002B34D11C4B1A78FB7B1343DAB21A4B41
:402F80001A70FB79194A52F82330FA79174951F822201178FA791648825C0A43D2B21A70FB79144AD35CBB73BB7B134AD35C002B0ED1BB7B114A52F82330BA7B0F4951F823
:402FC00022201178BA7B0E48825C0A43D2B21A70BB7B094AD25C0132D1B2074AD15400BF1437BD4680BC70474C8BFF1F8063010090630100A4630100508BFF1F9463010099
:40300000A063010080B485B000AF0346FB71FB79012202FA03F3FB73FB79032B41D8234B1A78FB7B1340DBB2002B3AD0FB7BDB43DAB21E4B1B781340DAB21C4B1A70FB7922
:403040001B4A52F82330FA79194951F822201178FA791848825CD243D2B20A40D2B21A70FB79154AD35CBB73BB7B144AD25C013AD1B2124AD154BB7B104AD35C002B10D1C7
:40308000BB7B0F4A52F82330BA7B0D4951F822201178BA7B0B48825CD243D2B20A40D2B21A7000BF1437BD4680BC70474C8BFF1F8063010090630100A4630100508BFF1F20
:4030C00094630100A063010080B483B000AF0346FB71FB79012B0ED8FB79094A52F82330FA79074951F822201178FA790548825C0A43D2B21A7000BF0C37BD4680BC704757
:40310000A8630100B063010080B483B000AF0346FB71FB79012B10D8FB790A4A52F82330FA79084951F822201178FA790648825CD243D2B20A40D2B21A7000BF0C37BD464A
:4031400080BC7047A8630100B063010080B586B000AF72B60023FB7513E0FA7D13465B0013445B004B4A13443B613B691A683B699B889BB219461046FFF758FDFB7D013329
:40318000FB75FB7D072BE8D90023FB751CE0FA7D13469B0013445B003F4A1344FB60FB681B68BB60FB685B687B60FB681A7A5B7A1B0213437B807B881A467968B868FFF7B7
:4031C00043FDFB7D0133FB75FB7D002BDFD033494FF09040FFF74EFD314B0A221A70314B03221A80304A304B1B78DBB243F00203DBB213702D4A2D4B1B78DBB243F0020344
:40320000DBB213702A4A2A4B1B78DBB243F04003DBB21370274A274B1B78DBB243F01003DBB21370082224492448FFF70DFD082223492448FFF708FD0A2223492348FFF79D
:4032400003FD082222492348FFF7FEFC082222492248FFF7F9FC224A214B1B78DBB243F00803DBB213701F4B61221A70FFF73CFD1C4B81221A701C4B01221A70FFF730FEBC
:403280000E220B491948FFF7DFFC00BF1837BD4680BD00BFB4630100E46301008C00004883580040485800400350014013500140A0430040C2430040200900480251004078
:4032C00028090048C251004030090048F05100403C090048225100404409004832510040224300400048004004000840B043004080B500AF08F06EFD03461B680C2B00D1A1
:40330000FEE7FEE780B584B000AF7860104B1A687B6813441A460F4BD31AB3F5804F09DC0B4B1B68FB600A4B1A687B681344084A136007E008F04EFD02460C2313604FF05C
:40334000FF33FB60FB6818461037BD4680BD00BFF080FF1F080B002080B586B000AF224B7B61224B3B61204B7B6135E03B691B68FB603B695B68BB603B699B683B600023C7
:403380007B600CE0FB681A68BB681A60BB680433BB60FB680433FB607B6804337B607A683B689A42EED13B69DB683B6000237B6008E0BB6800221A60BB680433BB607B68C6
:4033C00004337B607A683B689A42F2D13B6910333B617B69013B7B617B69002BC6D108F0EBFDFFF74FF8FEE701000000BC6A010080B582B000AF184B184A1A60184A184B2E
:403400001B6843F40073136000237B600FE07B68032B04D8134A7B6852F8233000E0124B12497A6841F822307B6801337B607B682F2BECD90E4B1B78DAB20E4B1A700E4B88
:403440000A4A1A60FFF782FE0C4B00221A6000BF0837BD4680BD00BF0CED00E00004FA0514ED00E000000000F13200000080FF1FBC760040C480FF1F08ED00E0C080FF1F93
:4034800080B584B000AF0346FB710023FB60234A224B1B78DBB243F00103DBB21370FB79002B36D01E4B1B78DBB203F00403FB721C4B1B78BB721C4B1B787B72182001F0B4
:4034C00087F81023FB6010E0184B1B78DBB203F00103002B09D0154B1B78DBB203F00103002B02D00023FB6008E0012001F042F8034603F00103DBB2002BE5D0FB7A002BDE
:4035000001D100F04BFB074ABB7A1370064A7B7A1370FB6818461037BD4680BD204200400043004080430040824300402542004080B400AF054A054B1B78DBB223F00103DD
:40354000DBB2137000BFBD4680BC70472042004080B584B000AF0346FB711D4A1C4B1B78DBB243F01003DBB213701A4A194B1B78DBB243F01003DBB21370FB79002B23D003
:40358000154B1B78DBB203F00403FB73134B1B78BB73134B1B787B73002001F019F800BF012000F0E7FF034603F00103DBB2002BF6D0FB7B002B01D100F0F0FA074ABB7BBB
:4035C0001370074A7B7B137000BF1037BD4680BDA0430040B043004000430040804300408243004080B400AF094A094B1B78DBB223F01003DBB21370064A064B1B78DBB2B6
:4036000023F01003DBB2137000BFBD4680BC7047A0430040B043004080B483B000AF0023FB71124B1B78DBB203F00703002B06D10F4B1B78DBB203F00103002B0DD10B4B58
:403640001B78DBB203F00703012B08D1094B1B78DBB203F00103002B01D00123FB71FB7918460C37BD4680BC704700BF93430040A5430040B543004080B584B000AF034690
:40368000FB71FFF7C9FF0346FB73FB7B012B07D1314A314B1B78DBB223F00203DBB21370FB79082B4FD801A252F823F0D1360000DD360000E9360000F53600000137000006
:4036C0000D370000193700004737000025370000224B234A1278D2B21A7039E01F4B214A1278D2B21A7033E01C4B1F4A1278D2B21A702DE0194B1D4A1278D2B21A7027E072
:40370000164B1B4A1278D2B21A7021E0134B194A1278D2B21A701BE0104B174A1278D2B21A7015E00D4B154A1278D2B21A70FB7B012B0CD1084A084B1B78DBB243F00203C2
:40374000DBB2137003E0002000F0B0FA00E000BF00BF1037BD4680BD09600040A146004008010049090100490A0100490B010049890100490C0100490D0100490F010049C0
:4037800080B584B000AF0346FB71684B1B78DBB203F00703FB73FB79082B01D0FB7900E00323BB73FB7B062B25D801A252F823F0CD370000D3370000D9370000DF37000006
:4037C000E5370000EB370000F13700000223FB7315E00123FB7312E00323FB730FE00023FB730CE00423FB7309E00523FB7306E00623FB7303E0002000F058FA00BFBA7B8D
:40380000FB7B9A4203D3FB791846FFF735FFFB79082B72D801A252F823F000BF413800005938000071380000833800009B380000B3380000CB380000FB380000E338000037
:403840003A4A3A4B1B78DBB223F04703DBB243F00303DBB2137054E0344A344B1B78DBB223F04703DBB243F00103DBB2137048E02E4A2E4B1B78DBB223F04703DBB21370C4
:403880003FE02A4A294B1B78DBB223F04703DBB243F00203DBB2137033E0244A234B1B78DBB223F04703DBB243F00403DBB2137027E01E4A1D4B1B78DBB223F04703DBB28B
:4038C00043F00503DBB213701BE0184A174B1B78DBB223F04703DBB243F00603DBB213700FE0124A114B1B78DBB223F04703DBB243F04203DBB2137003E0002000F0D6F96D
:4039000000BFFB79082B02D100F058F801E000F065F8BA7BFB7B9A4203D2FB791846FFF7ABFE00BF1037BD4680BD00BF0042004080B582B000AF0346FB71FB79012B17D03A
:40394000022B02D0002B26D02EE04FF040224FF040231B78DBB223F04003DBB21370164A154B1B78DBB243F02003DBB213701FE04FF040224FF040231B78DBB243F0400332
:40398000DBB213700C4A0C4B1B78DBB243F02003DBB213700CE0084A074B1B78DBB223F02003DBB2137003E0002000F07FF900BF00BF0837BD4680BD0042004080B400AF01
:4039C000054A054B1B78DBB243F01003DBB2137000BFBD4680BC70470042004080B400AF054A054B1B78DBB223F01003DBB2137000BFBD4680BC70470042004080B483B005
:403A000000AF0346FB710949084B1B78DBB223F00303DAB2FB7903F00303DBB21343DBB20B7000BF0C37BD4680BC70470540004080B483B000AF0346FB71044AFB791370D3
:403A400000BF0C37BD4680BC704700BF0440004080B483B000AF0346FB80154A144B1B78DBB223F00F03DBB21370124B00221A70114A114B1B78DBB263F07F03DBB2137059
:403A80000E4BFA88D2B21A700D4AFB881B0A9BB2DBB213700B4A0B4B1B78DBB243F00103DBB2137000BF0C37BD4680BC704700BF14400040104000400840004002400040CA
:403AC000034000400140004080B584B000AF0346FB8003F005FE0346FB73244B1B78DBB29BB21B02BB81224B1B78DBB29AB2BB891343BB81FB88002B02D0BB89002B29D16C
:403B00001C4B1B78FB72FB7A062B02D80720FFF78FFFFB88002B0CD1174A174B1B78DBB243F04003DBB21370FB881846FFF790FF0BE0FB881846FFF78BFF0F4A0E4B1B7808
:403B4000DBB223F04003DBB21370FB7A1846FFF76FFF03E0FB881846FFF77AFFFB7B184603F0C2FD00BF1037BD4680BD0740004006400040044000400840004080B400AF20
:403B8000054A054B1B78DBB243F00403DBB2137000BFBD4680BC70470043004080B400AF054A054B1B78DBB223F00403DBB2137000BFBD4680BC70470043004080B586B055
:403BC00000AF0346FB7100237B61FB793B742B4A2A4B1B78DBB243F00103DBB21370FB79002B45D0264B1B78FB74264B1B78BB74254B1B787B74182000F0EAFC10237B6185
:403C000025E01E4B1B780423FB730EE000BF012000F0B0FC034603F00103DBB2002BF6D0FB7BDBB2013BDBB2FB73FB7BDBB2002BECD1124B1B78DBB25BB2002B02DB0023EC
:403C40007B6108E03B7CDBB2013BDBB23B743B7CDBB2002BD5D1FB7C03F00403002B01D1FFF79CFF074ABB7C1370074A7B7C13707B6918461837BD4680BD00BF10420040B8
:403C800000430040804300408243004080B400AF054A054B1B78DBB223F00103DBB2137000BFBD4680BC70471042004080B483B000AF0346FB7101BE00BF0C37BD4680BC9E
:403CC000704700BF80B582B000AF786008E00C4B1B68184603F0FCFC7B68A3F500437B607B68B3F5004FF2D8064B1B687A6802FB03F3184603F0ECFC00BF0837BD4680BDF8
:403D00000081FF1FF880FF1F80B582B000AF0346FB80FB88054A127802FB03F3184603F0D7FC00BF0837BD4680BD00BFFC80FF1F80B584B000AF03463960FB710F4B1B6827
:403D4000FB60FB791F2B02D90020FFF7AFFFFB7903F01F0310339B00FA6813441B68BB60FB7903F01F0310339B00FA6813443A681A60BB6818461037BD4680BD08ED00E0B4
:403D800080B582B000AF03460A46FB711346BB71BB79072B02D90020FFF788FFFB791F2B02D90020FFF782FFFB7903F01F0303F1604303F56443BA795201D2B21A7000BF43
:403DC0000837BD4680BD00BF80B483B000AF7860264B1B78DBB21A467B681A60244B1B78DBB21B027A6812681A437B681A60214B1B78DBB21B047A6812681A437B681A60C6
:403E00001D4B1B78DBB21B067A6812681A437B681A607B680433194A1278D2B21A60184B1B78DBB21A027B6804337968043109680A431A60134B1B78DBB21A047B68043301
:403E40007968043109680A431A600F4B1B78DBB21A067B6804337968043109680A431A6000BF0C37BD4680BC704700BF0301004904010049EC460040020100490101004997
:403E800000010049050100490601004980B500AF924B1B78DBB203F00F03DAB2904B1A70904B1B78DAB28E4B5A708C4A8B4B1B78DBB223F00F03DBB213708A4B1B78894B68
:403EC00000221A70884B1B78DBB223F03F03DAB2834B5A71372003F00BFC844B1B78DBB203F00703DAB27E4BDA70804B1B78DBB203F04003DAB27A4B1A717C4B1B78DBB2E9
:403F000003F01003002B03D0754B01225A7202E0734B00225A72764B1B78DBB203F00303DAB26F4B9A706E4B9B78012B1CD14FF040231B78DBB203F00303012B08D0012B46
:403F400002D3022B08D00BE00020FFF757FD0BE00220FFF753FD07E00320FFF74FFD03E00020FFF7A3FE00BF624B1B78DBB203F00103002B05D05A4B01229A73FFF7D8FAB9
:403F800002E0574B00229A730420FFF7F9FB5A4B1B78DBB203F01003DBB2002B03D0504B01229A7108E04E4B00229A710020FFF7CFFA0620FFF7A8FE4C4B1B78DBB203F028
:403FC0002003002B10D04FF040231B78DBB203F04003002B01D1022200E00122404BDA710020FFF7A5FC02E03D4B0022DA714FF040231B78DBB203F03003DAB2384B1A7290
:40400000374B1B7A002B09D04FF040224FF040231B78DBB223F03003DBB21370334B1B78DBB203F01003002B01D0FFF7D7FC334B1B78DAB22A4B9A72294B9B7A002B02D09F
:404040000020FFF7F5FC264B9B78002B02D00020FFF7D4FC2A4B1B78DBB29BB21B029AB21F4B9A81274B1B78D9B21D4B9A898BB213439AB21A4B9A81194B9B89002B02D003
:404080000020FFF721FD194B1B78DBB203F007031D4AD35C184603F02BFB1C4B1B78DBB203F00103002B05D00D4B0122DA73FFF7EDFD02E00A4B0022DA73154B1B78DBB2F2
:4040C00003F00403002B03D0054B01221A7402E0034B00221A7400BF80BD00BFA1430040848BFF1FA243004000480040004200400540004020420040A043004004400040DE
:404100000740004006400040F0630100104200400B40004080B586B000AF10233B61AB4A3B1D106818609188927999809A71A84B1B7C012B17D1A74B1B78DBB203F00703E6
:40414000A54AD35C1A4613469B0013441A01D31A184603F0BDFAA14AA04B1B78DBB243F00403DBB213709A4BDB7B012B24D10020FFF724FD9A4B1B780523FB8219E0954B9D
:404180001B78DBB203F00703934AD35C1A46C82303FB02F3184603F09BFA914B1B78DBB25BB2002B02DB00233B6105E0FB8A013BFB82FB8A002BE2D1372003F099FA844BB0
:4041C0009B78022B03D0824B9B78032B10D1854B1B78DAB27E4B9B7A9A4204D07C4B9B7A1846FFF725FC7A4B9B781846FFF706FC774B1B7903F04003002B0CD0744BDB781C
:4042000007F11802134413F8143C032B03D10820FFF7B6FA20E06E4BDB7807F11802134413F8143C1846FFF7ABFA694B1B7903F04003002B08D0674A664B1B78DBB243F0EB
:404240004003DBB2137007E0624A624B1B78DBB223F04003DBB213705D4B9B79012B0AD1614B1B78DBB203F01003DBB2002B02D10020FFF76DF9564BDB791846FFF758FBED
:40428000534B5B7A012B01D1FFF798FB504B1B7A1A464FF040231B78DBB203F030039A4210D04FF040214FF040231B78DBB25BB223F030035AB2464B1B7A5BB213435BB279
:4042C000DBB20B70424B9B7B012B26D110233B610020FFF7D5F85020FFF716FD434B1B78AB23FB8216E00120FFF70EFD3F4B1B78DBB203F00103002B09D03C4B1B78DBB2F5
:4043000003F00103002B02D000233B6105E0FB8A013BFB82FB8A002BE5D12D4B9B78002B03D02B4B9B78012B10D12E4B1B78DAB2274B9B7A9A4204D0254B9B7A1846FFF77A
:4043400077FB234B9B781846FFF758FB204B9B79002B09D1244B1B78DBB203F01003DBB2002B01D0FFF73EF9214B1B78DBB29BB21B02FB811F4B1B78DBB29AB2FB891343B2
:40438000FB81134B9B89FA899A4204D0104B9B891846FFF799FB1849174B1B78DBB25BB203F03F035AB20A4B5B795BB213435BB2DBB20B70114B064A12781A70104B044A2A
:4043C00052781A7000BF1837BD4680BDF8630100848BFF1F00420040F06301000B4000401042004004400040A043004025420040074000400640004000480040A143004098
:40440000A243004080B584B000AF03460A46FB711346BB8003F064F90346FB734E4B1B78DBB203F00803002B0BD14C4A4B4B1B78DBB203F01F03DBB21370FB79002B08D0F9
:4044400004E0FB7B184603F04FF981E00020FFF72DFC00F007F9424B1B78DAB2414B1A713F4ABB881B099BB2DBB213703E4B1B78DAB23C4B5A713C4ABB88DBB203F00F0354
:40448000DBB21370394B1B78DAB2364B9A71374ABB881B0B9BB2DBB203F00103DBB21370334B1B78DBB203F00703002B04D12D4B012283F82E2014E02A4B002283F82E209F
:4044C0002B4B1B78DBB203F00703DAB2254B83F82D20274A264B1B78DBB223F00703DBB213701D4A1C4B1B78DBB223F00703DBB243F00303DBB21370174B1B7800BF00BFE2
:4045000030BF184B93F82E30012B0FD01849184B1B78DBB25BB223F007035AB2114B93F82D305BB213435BB2DBB20B7000F0DAF90B4B0C4A12791A700B4B0A4A52791A70DC
:404540000A4B084A92791A70FB7B184603F0CCF81037BD4680BD00BF934300408346004098430040548BFF1F994300409A4300400042004080B584B000AF0346FB7103F07C
:40458000AFF80346FB73104B1B78DAB20F4B1B781343DAB20D4B1A700C4B1B7803F00703BB73FB79DB43DAB2084B1B781340DAB2064B1A70FB7B184603F096F8BB7B1846B6
:4045C0001037BD4680BD00BF90430040968BFF1F80B582B000AF0346FB71204A1F4B1B78DBB223F00203DBB21370FFF7C7FA1B4B1B78DBB203F00103002B19D0184B1B78FE
:40460000DBB2FA799A4224D0144A144B1B78DBB223F00103DBB21370114AFB7913700F4A0E4B1B78DBB243F00103DBB2137010E00B4B1B78DBB2FA799A4202D0084AFB79EE
:404640001370064A054B1B78DBB243F00103DBB2137000BF0837BD4680BD00BF824300408043004080B400AF804B1B78DAB2804B9A72804B1B78DAB27D4BDA727E4B1B78AD
:40468000DAB27B4B1A737D4B1B78DAB2784B5A737B4B1B78DAB2764B9A737A4B1B78DAB2734BDA73784B1B78DAB2714B1A74774B1B78DAB26E4B5A74754B1B78DAB26C4BD8
:4046C0009A74744B1B78DAB2694BDA74724B1B78DAB2674B1A75714B1B78DAB2644B5A756F4B1B78DAB2624B9A756E4B1B78DAB25F4BDA756C4B1B78DAB25D4B1A766B4B2C
:404700001B78DAB25A4B5A76694B1B78DAB2584B9A76684B1B78DAB2554BDA76664B1B78DAB2534B1A77654B1B78DAB2504B5A77634B1B78DAB24E4B9A77624B1B78DAB220
:404740004B4BDA77604B1B78DAB2494B83F820205E4B1B78DAB2464B83F821205C4B1B78DAB2434B83F822205A4B1B78DAB2404B83F82320584B1B78DAB23D4B83F82420FD
:40478000564B1B78DAB23A4B83F82520374B00221A70384B00221A70374B00221A70374B00221A70364B00221A70364B00221A70354B00221A70354B00221A70344B0022E8
:4047C0001A70344B00221A70334B00221A70334B00221A70324B00221A70324B00221A70314B00221A70314B00221A70304B00221A70304B00221A702F4B00221A702F4B20
:4048000000221A702E4B00221A702E4B00221A702D4B00221A702D4B00221A702C4B00221A702C4B00221A702B4B00221A702B4B00221A702A4B1B78DBB203F00803002BF2
:404840000CD00B4B012283F82F20254A244B1B78DBB223F00803DBB2137003E0044B002283F82F2000BFBD4680BC7047005A0040548BFF1F025A0040035A0040045A0040AC
:40488000065A0040085A00400A5A0040105A0040125A0040135A0040145A0040165A0040185A00401A5A0040205A0040225A0040235A0040245A0040265A0040285A0040D8
:4048C0002A5A0040305A0040325A0040335A0040345A0040365A0040385A00403A5A00402243004080B400AF434B444A927A1A70434B424AD27A1A70424B404A127B1A70F5
:40490000414B3E4A527B1A70404B3C4A927B1A703F4B3A4AD27B1A703E4B384A127C1A703D4B364A527C1A703C4B344A927C1A703B4B324AD27C1A703A4B304A127D1A706D
:40494000394B2E4A527D1A70384B2C4A927D1A70374B2A4AD27D1A70364B284A127E1A70354B264A527E1A70344B244A927E1A70334B224AD27E1A70324B204A127F1A70DD
:40498000314B1E4A527F1A70304B1C4A927F1A702F4B1A4AD27F1A702E4B184A92F820201A702D4B154A92F821201A702B4B134A92F822201A702A4B104A92F823201A70D9
:4049C000284B0E4A92F824201A70274B0B4A92F825201A70094B93F82F30012B07D1234A224B1B78DBB243F00803DBB2137000BFBD4680BC704700BF005A0040548BFF1FDF
:404A0000025A0040035A0040045A0040065A0040085A00400A5A0040105A0040125A0040135A0040145A0040165A0040185A00401A5A0040205A0040225A0040235A0040BF
:404A4000245A0040265A0040285A00402A5A0040305A0040325A0040335A0040345A0040365A0040385A00403A5A00402243004080B582B000AF786000F03CF8786800F004
:404A800009F8072000F018F800F028F800BF0837BD4680BD80B485B000AF7860054B1B68FB60FB6848337A681A6000BF1437BD4680BC704708ED00E080B483B000AF0346F4
:404AC000FB71054AFB795B01DBB2137000BF0C37BD4680BC704700BF02E400E080B400AF034B04221A6000BFBD4680BC704700BF00E100E080B400AF034B04221A6000BF08
:404B0000BD4680BC704700BF80E100E080B500AF064B1B78002B04D100F00AF8034B01221A7000F00FF800BF80BD00BF978BFF1F80B500AF0A2000F05BF800F03FF800BFA1
:404B400080BD00BF80B582B000AF1A4B1B78DBB203F00203002B18D102F0C2FD0346FB71144A144B1B78DBB243F00203DBB21370114A114B1B78DBB243F00403DBB21370E6
:404B8000FB79184602F0B0FD0FE002F0A9FD0346FB71094A084B1B78DBB243F00403DBB21370FB79184602F09FFD00BF0837BD4680BD00BF004300408243004080B582B0EC
:404BC00000AF02F08DFD0346FB71084A074B1B78DBB243F00803DBB21370FB79184602F083FD00BF0837BD4680BD00BF8243004080B483B000AF0346FB710D4B1B78DBB23A
:404C000003F00403002B0DD10A490A4B1B78DBB223F00F03DAB2FB7903F00F03DBB21343DBB20B7000BF0C37BD4680BC704700BF824300408143004080B500AF0220FFF7D8
:404C400099FC0346184680BD80B485B000AF0346FB710A4B1B78DBB223F00103FB730749FB7903F00103DAB2FB7B1343DBB20B7000BF1437BD4680BC704700BF2051004069
:404C800080B500AF064B1B78002B04D100F022F8034B01221A7000F033F800BF80BD00BF988BFF1F80B400AF034B02221A6000BFBD4680BC704700BF00E100E080B400AF29
:404CC000034B02221A6000BFBD4680BC704700BF80E100E080B500AF00F0B8F8064B02221A6006490120FFF723F807210120FFF747F800BF80BD00BF80E100E081520000D2
:404D000080B582B000AF02F0EBFC0346FB71094A084B1B78DBB243F03003DBB21370FB79184602F0E1FC044B02221A6000BF0837BD4680BD8243004000E100E080B400AF1E
:404D4000024B1846BD4680BC704700BF0481FF1F80B582B000AF7860FFF7B0FF7B681B78DAB2104B1A707B685B78DAB20D4B5A707B689B78DAB20B4B9A707B681B79DAB26D
:404D8000084B1A717B681B7ADAB2064B1A727B685B899AB2034B5A81FFF784FF00BF0837BD4680BD0481FF1F80B483B000AF0346FB71044AFB79137000BF0C37BD4680BC4D
:404DC000704700BF9B8BFF1F90B482B000AF0346FB710B46BB711346BB80BB79022B02D8BB88013BBB80BA88BB889B089BB21846BB881349A1FB03135B099BB2C31AB98826
:404E00000F48A0FB0101C90989B20B441344BA79013A0C498A5C1146FA790A441A440A4BA2FB0334111B49080B1999080B46DB005B1AD11ACBB218460837BD4690BC704795
:404E40001F85EB510C6401002549922480B582B000AFA04B0022DA809E4B1B79D9B29D4BDB889AB28BB213449AB29A4BDA80994B5B899BB2984AA2FB0312D2094FF4C87182
:404E800001FB02F29B1A9BB2002B15D0914B5B899BB203F003039BB2002B16D18D4B5B899BB28D4AA2FB03125209642101FB02F29B1A9BB2002B08D0884B1B78DBB243F0FE
:404EC0000203DAB2854B1A7007E0844B1B78DBB223F00203DAB2814B1A700023FB710DE07C4BDB889AB2FB797D49CB5C9BB213449AB2784BDA80FB790133FB71FA79754B50
:404F00001B7ADBB2013B9A42EAD3744B1B78DBB203F00203002B0BD06E4B1B7ADBB2022B06D96C4BDB889BB201339AB2694BDA80684B1B79D8B2674B1B7AD9B2654B5B898A
:404F40009BB21A46FFF740FF03460133DAB2614BDA70604BDB78DBB2002B05D05D4BDB78DAB25C4BDA7006E05A4BDB78DBB20733DAB2584BDA70574B9B78DBB20B2B08D8D7
:404F8000564B1B78DBB223F00403DAB2534B1A7007E0524B1B78DBB243F00403DAB24F4B1A70504B1B78DBB203F00103002B18D04D4B1B78DAB2474B1B78DBB29A4208D1F1
:404FC0004A4B1B78DBB243F00103DAB2474B1A7007E0464B1B78DBB223F00103DAB2434B1A70404B1B78DBB203F00203002B18D03D4B5B78DAB2374B5B78DBB29A4208D196
:405000003A4B1B78DBB243F00203DAB2374B1A7007E0364B1B78DBB223F00203DAB2334B1A70304B1B78DBB203F00403002B18D02D4B9B78DAB2274B9B78DBB29A4208D141
:405040002A4B1B78DBB243F00403DAB2274B1A7007E0264B1B78DBB223F00403DAB2234B1A70204B1B78DBB203F00803002B18D01D4BDB78DAB2174BDB78DBB29A4208D1E9
:405080001A4B1B78DBB243F00803DAB2174B1A7007E0164B1B78DBB223F00803DAB2134B1A70104B1B78DBB203F02003002B27D00D4BDB889AB2074BDB889BB29A4217D13B
:4050C0000A4B1B78DBB243F02003DAB2074B1A7016E000BF0481FF1F1F85EB519C8BFF1F00640100998BFF1F1081FF1F9A8BFF1F424B1B78DBB223F02003DAB23F4B1A70E4
:405100003F4B1B78DBB203F01003002B18D03D4B1B79DAB23C4B1B79DBB29A4208D1374B1B78DBB243F01003DAB2344B1A7007E0324B1B78DBB223F01003DAB22F4B1A70F0
:405140002F4B1B78DBB203F04003002B18D02D4B1B7ADAB22C4B1B7ADBB29A4208D1274B1B78DBB243F04003DAB2244B1A7007E0224B1B78DBB223F04003DAB21F4B1A708E
:405180001F4B1B78DBB25BB2002B18DA1D4B5B899AB21D4B5B899BB29A4208D1174B1B78DBB263F07F03DAB2144B1A7007E0134B1B78DBB203F07F03DAB2104B1A70104BE3
:4051C0001B78BB71BB79002B13D00C4B1B78DAB2BB791340DBB2BA799A420AD10B4B1B78DBB243F00803DAB2084B1A70034B00221A7000BF0837BD4680BD00BF9A8BFF1FE3
:40520000998BFF1F1081FF1F0481FF1F9C8BFF1F80B500AF0020FDF725F800BF80BD00BF80B500AF0120FDF71DF800BF80BD00BF80B500AF0220FDF715F800BF80BD00BF3A
:4052400080B500AF0320FDF70DF800BF80BD00BF80B500AF0420FDF705F800BF80BD00BF80B500AF0520FCF7FDFF00BF80BD00BF80B500AF0620FCF7F5FF00BF80BD00BF60
:4052800080B582B000AF0420FFF774F99E4B1B78DBB20133DAB29C4B1A709B4B1B78DBB23B2B40F2A682984B5B78DBB20133DAB2954B5A70944B00221A70934B5B78DBB2DB
:4052C0003B2B40F24682904B9B78DBB20133DAB28D4B9A708C4B00225A708B4B9B78DBB2172B40F2DD81884B1B79DBB20133DAB2854B1A71844B00229A70834BDB889BB29E
:4053000001339AB2804BDA807F4BDB78DBB20133DAB27D4BDA707C4BDB78DBB2072B02D9794B0122DA70794B1B78DBB203F00203002B11D0744B1B7ADBB2022B0CD1724BD7
:405340001B79DBB21946704B1B7ADBB2013B704AD35C013399422AD86C4B1B78DBB203F00203002B0FD0684B1B7ADBB2022B0AD0654B1B79DAB2644B1B7ADBB2013B64495B
:40538000CB5C9A4213D8614B1B78DBB203F00203002B40F0F4805C4B1B79DAB25A4B1B7ADBB2013B5A49CB5C9A4240F2E880564B1B7ADBB20133DAB2534B1A72524B0122F5
:4053C0001A71514B1B7ADBB20C2B40F285804E4B5B899BB201339AB24B4B5A814A4B01221A72494B0122DA80474B5B899BB2494AA2FB0312D2094FF4C87101FB02F29B1AE2
:405400009BB2002B15D0404B5B899BB203F003039BB2002B16D13C4B5B899BB23D4AA2FB03125209642101FB02F29B1A9BB2002B08D0364B1B78DBB243F00203DAB2334B52
:405440001A7007E0314B1B78DBB223F00203DAB22E4B1A70304B1B78DBB25BB2002B18DA2E4B5B899AB2284B5B899BB29A4208D12B4B1B78DBB263F07F03DAB2284B1A70BD
:4054800007E0274B1B78DBB203F07F03DAB2244B1A70214B1B78FB71FB79002B13D0204B1B78DAB2FB791340DBB2FA799A420AD1164B1B78DBB243F00803DAB2134B1A7051
:4054C000174B00221A70174B1B78DBB203F04003002B01D0FFF7CCFE0F4B1B78DBB203F04003002B28D00D4B1B7ADAB2064B1B7ADBB29A4218D10A4B1B78DBB243F04003BB
:40550000DAB2074B1A7017E00481FF1F9C8BFF1F006401001F85EB51998BFF1F1081FF1F9A8BFF1F9B8BFF1F964B1B78DBB223F04003DAB2934B1A70934B1B78FB71FB79CB
:40554000002B13D08F4B1B78DAB2FB791340DBB2FA799A420AD18D4B1B78DBB243F00803DAB28A4B1A70874B00221A70884B1B78DBB203F02003002B01D0FFF771FE824BD0
:405580001B78DBB203F00803002B18D0814BDB78DAB2814BDB78DBB29A4208D1794B1B78DBB243F00803DAB2764B1A7007E0754B1B78DBB223F00803DAB2724B1A70724B40
:4055C0001B78DBB203F02003002B18D0714BDB889AB2714BDB889BB29A4208D1694B1B78DBB243F02003DAB2664B1A7007E0654B1B78DBB223F02003DAB2624B1A70624B88
:405600001B78DBB203F01003002B18D0614B1B79DAB2614B1B79DBB29A4208D1594B1B78DBB243F01003DAB2564B1A7007E0554B1B78DBB223F01003DAB2524B1A70524B05
:405640001B78FB71FB79002B13D04E4B1B78DAB2FB791340DBB2FA799A420AD14B4B1B78DBB243F00803DAB2484B1A70454B00221A70474B1B78DBB203F00803002B01D0EE
:40568000FFF7DEFD444BDB78DBB2012B08D1404B1B78DBB203F01003002B01D0FFF7D8FD3D4B9B78DBB20B2B08D8384B1B78DBB223F00403DAB2354B1A7007E0334B1B78A4
:4056C000DBB243F00403DAB2304B1A702E4B1B78DBB203F00403002B18D02E4B9B78DAB22D4B9B78DBB29A4208D1264B1B78DBB243F00403DAB2234B1A7007E0214B1B7892
:40570000DBB223F00403DAB21E4B1A701E4B1B78FB71FB79002B13D01A4B1B78DAB2FB791340DBB2FA799A420AD1184B1B78DBB243F00803DAB2154B1A70124B00221A7017
:40574000134B1B78DBB203F00403002B01D0FFF76FFD0D4B1B78DBB203F00203002B25D00C4B5B78DAB20C4B5B78DBB29A4215D1044B1B78DBB243F00203DAB2014B1A708B
:4057800014E000BF9A8BFF1F998BFF1F9C8BFF1F9B8BFF1F1081FF1F0481FF1F384B1B78DBB223F00203DAB2354B1A70354B1B78FB71FB79002B13D0314B1B78DAB2FB7975
:4057C0001340DBB2FA799A420AD12F4B1B78DBB243F00803DAB22C4B1A70294B00221A702A4B1B78DBB203F00203002B01D0FFF717FD244B1B78DBB203F00103002B18D0EE
:40580000234B1B78DAB2234B1B78DBB29A4208D11B4B1B78DBB243F00103DAB2184B1A7007E0174B1B78DBB223F00103DAB2144B1A70144B1B78FB71FB79002B13D0104B32
:405840001B78DAB2FB791340DBB2FA799A420AD10D4B1B78DBB243F00803DAB20A4B1A70074B00221A70094B1B78DBB203F00103002B01D0FFF7CCFC00BF0837BD4680BD09
:405880009A8BFF1F998BFF1F9C8BFF1F9B8BFF1F1081FF1F0481FF1F80B500AF064B1B78002B04D100F00AF8034B01221A7000F015F800BF80BD00BF9D8BFF1F80B400AFF2
:4058C000044B72221A70044B20221A7000BFBD4680BC7047866400408665004080B582B000AF01F0FDFE0346FB710C4A0B4B1B78DBB243F02003DBB21370094A084B1B78F4
:40590000DBB243F01003DBB21370FB79184601F0EBFE00BF0837BD4680BD00BF966400409665004080B582B000AF01F0D9FE0346FB710C4A0B4B1B78DBB223F02003DBB244
:405940001370094A084B1B78DBB223F01003DBB21370FB79184601F0C7FE00BF0837BD4680BD00BF966400409665004080B483B000AF0023FB710C4B1B78BB71BB7903F0CC
:405980002003002B09D0094B1B78FB71BB7903F01E03002B01D00023FB71FB7918460C37BD4680BC704700BF666500404664004080B582B000AF01F093FE0346FB710C4A38
:4059C0000B4B1B78DBB243F00103DBB21370084A074B1B78DBB223F00103DBB21370FB79184601F081FE00BF0837BD4680BD00BF9664004080B582B000AF786000F048F868
:405A0000786800F015F8072000F024F800F034F800BF0837BD4680BD80B500AF00F038F8024800F005F800BF80BD00BFF132000080B485B000AF7860054B1B68FB60FB6862
:405A400040337A681A6000BF1437BD4680BC704708ED00E080B483B000AF0346FB71054AFB795B01DBB2137000BF0C37BD4680BC704700BF00E400E080B400AF034B0122B9
:405A80001A6000BFBD4680BC704700BF00E100E080B400AF034B01221A6000BFBD4680BC704700BF80E100E080B485B000AF0346FB710B4B1B78DBB223F01003FB7308498C
:405AC000FB791B01DBB203F01003DAB2FB7B1343DBB20B7000BF1437BD4680BC704700BFC051004080B500AF00F032F800BF80BD80B500AF00F046F800BF80BD80B485B0A2
:405B000000AF0346FB710B4B1B78DBB223F02003FB730849FB795B01DBB203F02003DAB2FB7B1343DBB20B7000BF1437BD4680BC704700BF2051004080B400AF00BFBD46AE
:405B400080BC704780B400AF00BFBD4680BC704780B500AF094B1B78DBB203F01003002B14BF01230023DBB21A46054B1A7001F07BFEFFF7E1FF00BF80BD00BF9164004000
:405B80001C81FF1F80B500AFFFF7DCFF01F0F0FE034B1B78002B01D001F022FE00BF80BD1C81FF1F80B485B000AF0346FB710B4B1B78DBB223F01003FB730849FB791B0139
:405BC000DBB203F01003DAB2FB7B1343DBB20B7000BF1437BD4680BC704700BF3051004080B485B000AF0346FB710B4B1B78DBB223F00203FB730849FB795B00DBB203F0C9
:405C00000203DAB2FB7B1343DBB20B7000BF1437BD4680BC704700BF2051004080B485B000AF0346FB710B4B1B78DBB223F02003FB730849FB795B01DBB203F02003DAB258
:405C4000FB7B1343DBB20B7000BF1437BD4680BC704700BF3051004080B485B000AF0346FB710B4B1B78DBB223F01003FB730849FB791B01DBB203F01003DAB2FB7B13432D
:405C8000DBB20B7000BF1437BD4680BC704700BF2051004080B582B002AF414B01221A70404B00221A70102000F066FF102001F049F807211D20FEF763F83B4B04221A7012
:405CC0003A4B00221A703A4B00221A70394A394B1B78DBB243F01803DBB21370364B00221A70364B00221A70354B00221A70354B0A221A70344B00221A70344B00221A70AB
:405D0000334B5B221A70334B5E221A70324B00221A70324B14221A700123009310234FF4004247F60271032000F0A6FC0223009310234FF4004249F2DA01002000F09CFCEE
:405D40000323009310234FF4004249F2DA01002000F092FC0423009310234FF4004249F2DA01002000F088FC1D4A0D4B1B78DBB2013B1C499B000B449B7813701A4A084B2B
:405D80001B78DBB2013B174931F823301380044B1B78DBB2184600F067FA00BFBD4680BD1E81FF1FA08BFF1F96580040975800409E580040075B004093580040885B004072
:405DC000895B004080580040815800408358004088580040895800408D580040014E00400E4E0040A88BFF1F0C4E004080B582B000AF01F075FC0346FB71444B1B78BB713C
:405E0000434A434B1B78DBB243F00103DBB213703F4A3F4B1B78DBB243F01003DBB213703C4A3C4B1B78DBB243F00103DBB21370384A384B1B78DBB243F01003DBB2137068
:405E4000354A354B1B78DBB243F00203DBB21370324A324B1B78DBB243F00203DBB213702F4A2F4B1B78DBB243F00303DBB213700320FDF749FF284A274B1B78DBB223F088
:405E80000203DBB21370254A244B1B78DBB223F00203DBB21370234A224B1B78DBB243F00603DBB21370204B7A221A701F4A1F4B1B78DBB243F00103DBB213701C4A1C4BC9
:405EC0001B78DBB243F00103DBB21370194A194B1B78DBB243F00203DBB21370164A164B1B78DBB243F00203DBB21370134B4FF000521A60124B4FF000521A60FB79184640
:405F000001F0F2FB00BF0837BD4680BD1E81FF1FAA430040BA430040F8460040F9460040915800407758004082580040A1430040B1430040A2430040B243004080E200E0DB
:405F400000E100E080B500AF084B1B78002B09D1074B1B78DBB2002B01D1FFF79BFE034B01221A70FFF742FF00BF80BDA28BFF1FA38BFF1F80B582B000AF01F0B1FB0346D2
:405F8000FB714D4A4C4B1B78DBB223F00103DBB213704A4A494B1B78DBB243F00403DBB21370474A464B1B78DBB243F00203DBB21370444A434B1B78DBB243F00203DBB2E3
:405FC0001370414A404B1B78DBB223F00303DBB213703E4A3D4B1B78DBB223F00803DBB213700320FDF790FE354A354B1B78DBB223F00203DBB21370324A324B1B78DBB25C
:4060000023F00203DBB21370314A314B1B78DBB223F01003DBB213702D4A2D4B1B78DBB223F00103DBB213702A4A2A4B1B78DBB223F00103DBB21370264A264B1B78DBB284
:4060400023F01003DBB21370234A234B1B78DBB223F00603DBB21370204A204B1B78DBB223F00103DBB213701D4A1D4B1B78DBB223F00103DBB213701A4A1A4B1B78DBB2A8
:4060800023F00803DBB21370174A174B1B78DBB223F00203DBB21370144A144B1B78DBB223F00203DBB21370FB79184601F01CFB00BF0837BD4680BD004E0040014E00406D
:4060C000F8460040F94600409158004092580040AA430040BA43004077580040A1430040B143004082580040A2430040B243004080B400AF054A054B1B78DBB243F0010332
:40610000DBB2137000BFBD4680BC7047004E004080B400AF054A054B1B78DBB223F00103DBB2137000BFBD4680BC7047004E004080B485B000AF0346FB710D4B1B78DBB2BB
:40614000002B03D00B4B1B78FB7305E00A4B1B78DBB203F00103FB73FB7B012B02D0FB79002BEAD0FB7B18461437BD4680BC7047A18BFF1FA08BFF1F014E004080B483B0A0
:4061800000AF224B1B78DBB203F00303FB70FB78012B0BD81E4B1B889BB27B607B681B041C4A128892B213437B6020E0FB78022B12D1174B1B889BB27B607B681B04154A01
:4061C0001278D2B213437B60134B1B78DBB21B027A6813437B600AE00E4B1B889BB27B600B4B1B889BB21B047A6813437B600B4B1B78DBB2002B02D0094B00221A707B68D6
:4062000018460C37BD4680BC704700BF144E0040124E0040104E0040114E0040A18BFF1FA08BFF1F90B585B000AF78600C4B1B687A68D31A7B60786805F0AEFB0446094B55
:406240001B68184605F0A8FB03461946204605F0ABFC0346FB60FB6818461437BD4690BDA48BFF1F740A002080B582B000AF0346FB71C34B00221A70FB79012B66D1C14BA8
:4062800030221A70C04B04221A70C04B06221A70BF4B00221A70BF4B00221A70BE4B3F221A70BE4B00221A70BD4B00221A70BD4B00221A70BC4B01221A70BC4B50221A7056
:4062C000BB4B07221A70BB4B29221A70BA4B00221A70BA4B55221A70B94B5A221A70B94B00221A70B84B00221A70B84B00221A70B74B0A221A70B74B43221A70442000F03E
:4063000073FAB54B58221A70B44B00221A70B44B02221A70B34B02221A70B34B00221A70B24B00221A70002000F054FBB04B42F6AB121A600121052000F060FB01218A206E
:4063400000F042FCAB491D20FDF7F2FCFB79022B66D18C4B38221A708B4B04221A708B4B06221A708A4B00221A708A4B00221A70894B3F221A70894B00221A70884B002205
:406380001A70884B00221A70874B01221A70874B50221A70864B27221A70864B2C221A70854B00221A70854B55221A70844B5A221A70844B05221A70834B01221A70834B4F
:4063C00011221A70824B19221A70824B97221A70442000F009FA804B58221A707F4B00221A707F4B05221A707E4B02221A707E4B00221A707D4B00221A70002000F0EAFAD3
:406400007B4B4FF47A421A600121052000F0F6FA0121252000F0D8FB77491D20FDF788FCFB79032B66D1574B38221A70564B04221A70564B06221A70554B00221A70554B68
:4064400000221A70544B3F221A70544B00221A70534B00221A70534B00221A70524B01221A70524B50221A70514B27221A70514B2C221A70504B00221A70504B55221A705E
:406480004F4B5A221A704F4B05221A704E4B01221A704E4B11221A704D4B19221A704D4B97221A70442000F09FF94B4B58221A704A4B00221A704A4B05221A70494B022258
:4064C0001A70494B00221A70484B00221A70002000F080FA464B4FF47A421A600121052000F08CFA0121252000F06EFB43491D20FDF71EFCFB79042B40F0A980214B3822E9
:406500001A70214B04221A70204B06221A70204B00221A701F4B00221A701F4B3F221A701E4B00221A701E4B00221A701D4B00221A701D4B01221A701C4B50221A701C4BF9
:4065400027221A701B4B2C221A701B4B00221A701A4B55221A701A4B5A221A70194B05221A70194B01221A70184B11221A70184B19221A70174B97221A70442040E000BFD1
:40658000A18BFF1F004E0040024E0040034E0040044E0040054E0040064E0040084E0040094E00400A4E0040144E0040845800408558004086580040875800408A5800402A
:4065C0008B5800408C5800408E5800408F580040905800409158004094580040955800409A5800409B5800409C5800409D580040740A0020D9680000E5680000F16800000A
:4066000000F0F2F8144B58221A70144B00221A70134B05221A70134B02221A70124B00221A70124B00221A70002000F0D3F9104B4FF47A421A600121052000F0DFF9012104
:40664000252000F0C1FA0B491D20FDF771FB00BF0837BD4680BD00BF94580040955800409A5800409B5800409C5800409D580040740A0020FD68000090B587B000AF04469D
:40668000084611461A462346FB710346BB800B467B801346BB7197F82830002B00F08B8097F82830042B00F28680FB79013B092B4AD801A252F823F0E16600004967000093
:4066C00049670000E16600004967000049670000FB66000015670000496700002F670000BB790F2B04D9374B1B78DBB2FB752EE0354B1B78DBB2FB7529E0BB790F2B04D951
:40670000324B1B78DBB2FB7521E0314B1B78DBB2FB751CE0BB790F2B04D92E4B1B78DBB2FB7514E02C4B1B78DBB2FB750FE0BB790F2B04D9294B1B78DBB2FB7507E0284B5C
:406740001B78DBB2FB7502E00023FB7500BFBA8897F917305B0113443B617B883A6902FB03F3FB60FB68DB0BBB82BB790D2B12D8BA8ABB79C3F10E0342FA03F3BB8297F8E2
:406780002830013BBA790132D1B2164A9B0013440A469A7007E097F82830013B114A9B0013440F229A7097F82830013B0D49BA8A21F8232002E00020FDF778FA00BF1C378B
:4067C000BD4690BD180100491C010049190100491D0100491A0100491E0100491B0100491F010049A88BFF1F80B584B000AF0346FB7100F075FF0346FB73174A164B1B788F
:40680000DBB243F00303DBB21370144A134B1B78DBB243F00303DBB21370114AFB7913700320FDF771FA0C4A0B4B1B78DBB223F00303DBB21370094A084B1B78DBB223F0BB
:406840000303DBB21370FB7B184600F04DFF00BF1037BD4680BD00BFF8460040F94600409258004080B582B000AF0B4A0A4B1B78DBB243F00403DBB21370FFF739FC002051
:40688000FFF756FCFFF77AFC7860FFF741FC7B6818460837BD4680BD014E004080B400AF044B1B78DAB2044B5A7000BFBD4680BC704700BF004E00402081FF1F80B400AFBC
:4068C000034B044A52781A7000BFBD4680BC7047004E00402081FF1F80B400AF00BFBD4680BC704780B400AF00BFBD4680BC704780B400AF00BFBD4680BC704780B400AFFB
:4069000000BFBD4680BC704780B582B000AF0023FB7106E0FB791846FCF774FBFB790133FB71FB79032BF5D9034BFF221A7000BF0837BD4680BD00BF2281FF1F80B582B041
:4069400000AF0346FB71FFF7DFFFFB791846FCF7FDFA034AFB79137000BF0837BD4680BD2281FF1F80B485B000AF0346FB710B4B1B78DBB223F00203FB730849FB795B00F7
:40698000DBB203F00203DAB2FB7B1343DBB20B7000BF1437BD4680BC704700BFC051004080B582B000AF0023FB7106E0FB791846FCF7AAFBFB790133FB71FB79012BF5D96B
:4069C000034BFF221A7000BF0837BD4680BD00BF2381FF1F80B582B000AF0346FB71FFF7DFFFFB791846FCF76FFB034AFB79137000BF0837BD4680BD2381FF1F80B584B064
:406A000000AF03460A46FB8013467B7100F0CEF80346FB7300F0A4F80346BB81FA88BB899A4200F08880464B1B78DBB203F00203FB72FB7B002B20D1BB89002B02D0FB88CA
:406A4000002B1AD1BB89002B0BD13E4AFB8813803D4A3D4B1B78DBB223F04003DBB2137069E0394A384B1B78DBB243F04003DBB21370344AFB8813805DE0FB7A002B33D019
:406A8000324B00221A70324B02221A70314B00221A70314A304B1B78DBB203F07F03DBB21370294B1B78DBB203F00803002B02D0FB88002B18D1294ABB891380234B0722B8
:406AC0001A7000BF214B1B78DBB203F00103002BF8D11B4A1A4B1B78DBB223F00203DBB213701A4B00221A70154B1B78DBB203F00203002B13D0194AFB881380134A7B7963
:406B0000002B01D0032300E00123137000BF0F4B1B78DBB203F00103002BF8D10BE0094AFB8813800649064B1B78DAB2FB7A1343DBB20B70FFE700BF1037BD4680BD00BFB7
:406B4000A24300408440004086400040014000401040004014400040084000400240004080B400AF034B1B889BB21846BD4680BC704700BF8440004080B483B000AF0346A0
:406B8000FB710949084B1B78DBB25AB297F9073023F007035BB213435BB2DBB20B7000BF0C37BD4680BC70478640004080B400AF044B1B78DBB203F00703DBB21846BD4601
:406BC00080BC70478640004080B584B000AF03460A46FB8013467B7100F0CEF80346FB7300F0A4F80346BB81FA88BB899A4200F08880464B1B78DBB203F00103FB72FB7B88
:406C0000002B20D1BB89002B02D0FB88002B1AD1BB89002B0BD13E4AFB8813803D4A3D4B1B78DBB223F04003DBB2137069E0394A384B1B78DBB243F04003DBB21370344A6D
:406C4000FB8813805DE0FB7A002B33D0324B00221A70324B01221A70314B00221A70314A304B1B78DBB203F07F03DBB21370294B1B78DBB203F00803002B02D0FB88002BCB
:406C800018D1294ABB891380234B07221A7000BF214B1B78DBB203F00103002BF8D11B4A1A4B1B78DBB223F00103DBB213701A4B00221A70154B1B78DBB203F00103002B86
:406CC00013D0194AFB881380134A7B79002B01D0032300E00123137000BF0F4B1B78DBB203F00103002BF8D10BE0094AFB8813800649064B1B78DAB2FB7A1343DBB20B7034
:406D0000FFE700BF1037BD4680BD00BFA14300400041004002410040014000401440004010400040084000400240004080B400AF034B1B889BB21846BD4680BC704700BF5D
:406D40000041004080B483B000AF0346FB710949084B1B78DBB25AB297F9073023F007035BB213435BB2DBB20B7000BF0C37BD4680BC70470241004080B400AF044B1B785A
:406D8000DBB203F00703DBB21846BD4680BC70470241004080B500AF064B1B78002B04D100F00AF8034B01221A7000F01BF800BF80BD00BFB88BFF1F80B400AF064B0622B5
:406DC0001A70064B47221A70054B00221A7000BFBD4680BC704700BF23640040336400408564004080B582B000AF00F079FC0346FB71094A084B1B78DBB243F01003DBB2C5
:406E0000137000F0C7F8FB79184600F06DFC00BF0837BD4680BD00BF9564004080B582B000AF00F05DFC0346FB7100F0CDF8084A074B1B78DBB223F01003DBB21370FB7988
:406E4000184600F051FC00BF0837BD4680BD00BF9564004080B400AF034B1B78DBB21846BD4680BC704700BF6564004080B483B000AF0346FB7100BF074B1B78DBB203F0E5
:406E80000403002BF8D1054AFB79137000BF0C37BD4680BC704700BF656400404564004080B584B000AF78600023FB810C4B1B78002B10D009E0FB897A6813441B781846CD
:406EC000FFF7D4FFFB890133FB81FB897A6813441B78002BEFD100BF1037BD4680BD00BFB88BFF1F80B582B000AF00F0F9FB0346FB710C4A0B4B1B78DBB243F00103DBB2B5
:406F00001370084A074B1B78DBB223F00103DBB21370FB79184600F0E7FB00BF0837BD4680BD00BF9564004080B400AF00BFBD4680BC704780B400AF00BFBD4680BC7047D9
:406F400080B500AF094B1B78DBB203F01003002B03D0074B01221A7002E0054B00221A70FFF75CFFFFF7E0FF00BF80BD95640040BC8BFF1F80B500AFFFF7DCFFFFF7B2FFBC
:406F8000034B1B78002B01D0FFF72CFF00BF80BDBC8BFF1F80B400AF094A094B1B78DBB243F00403DBB21370064A064B1B78DBB243F00403DBB2137000BFBD4680BC7047BE
:406FC000A2430040B243004080B400AF094A094B1B78DBB223F00403DBB21370064A064B1B78DBB223F00403DBB2137000BFBD4680BC7047A2430040B243004080B485B000
:4070000000AF0346FB710B4B1B78DBB223F00203FB730849FB795B00DBB203F00203DAB2FB7B1343DBB20B7000BF1437BD4680BC704700BFF051004080B485B000AF03464A
:40704000FB710B4B1B78DBB223F01003FB730849FB791B01DBB203F01003DAB2FB7B1343DBB20B7000BF1437BD4680BC704700BF0051004080B485B000AF0346FB710A4B54
:407080001B78DBB223F00103FB730749FB7903F00103DAB2FB7B1343DBB20B7000BF1437BD4680BC704700BFF051004080B500AF064B1B78002B04D100F00AF8034B0122A5
:4070C0001A7000F025F800BF80BD00BFBD8BFF1F80B400AF094B72221A70094B20221A70084B06221A70084B47221A70074B00221A7000BFBD4680BC704700BF876500407A
:407100008565004027650040376500408464004080B582B000AF00F0E3FA0346FB71114A104B1B78DBB243F02003DBB213700E4A0D4B1B78DBB243F01003DBB213700B4A06
:407140000A4B1B78DBB243F01003DBB2137000F089F9FB79184600F0C7FA00BF0837BD4680BD00BF97650040956500409464004080B582B000AF00F0B3FA0346FB71114AE1
:40718000104B1B78DBB223F02003DBB2137000F083F90D4A0C4B1B78DBB223F01003DBB213700A4A094B1B78DBB223F01003DBB21370FB79184600F097FA00BF0837BD464C
:4071C00080BD00BF97650040956500409464004080B483B000AF0023FB710C4B1B78BB71BB7903F02003002B09D0094B1B78FB71BB7903F01E03002B01D00023FB71FB7942
:4072000018460C37BD4680BC704700BF656500404565004080B483B000AF084B1B78DBB203F02003002B01D0012300E00023FB71FB7918460C37BD4680BC704765650040C1
