:4000000000800020110000006D4800006D48000080B500AF024A034B1B68136004F05AFCBC760040FA46004010B5054C237833B9044B13B10448AFF300800123237010BD53
:40004000B08AFF1F00000000C8800100084B10B51BB108490848AFF300800848036803B910BD074B002BFBD0BDE81040184700BF00000000B48AFF1FC8800100C880FF1F8E
:400080000000000080B500AF06F09AFF4FF48072002104480EF00CFE034B00221A7000BF80BD00BFCC8AFF1FCD8BFF1F80B582B000AF06F063FF0346FB71FB79002B09D0E9
:4000C000114B1B785A1CD1B20F4A117019460F4AFB795354FB790D2B11D10D4B1A680D4B1B68194610460FF007FD02460A4B1A60054B1B781A46054B1344054A136000BFEE
:400100000837BD4680BD00BFCD8BFF1FCC8AFF1FCC80FF1FD48BFF1FD08BFF1F80B582B000AF7860796803480FF0CAFA00BF0837BD4680BD88C5FF1F80B596B000AF31490D
:4001400031480FF0D9FC78657B6D002B01D0002353E02E492C480FF0CFFC78657B6D002B4AD000F00BFC386538463B6D284A20210FF0C6F807F12003184600F05DF897F8E5
:400180003830002B2DD0B7F9363007F13C00214A14210FF0B5F807F13C031A461E49002000F038FB07F13C033A6D19461B4801F0DFFF3B461A461A491A4800F0F1F91A4A85
:4001C0001749184800F0ECF907F13C031A461449144800F0E5F9154A1149124800F0E0F908E01349022000F015FB3A6D11490B4801F0BEFF002300E0002318465837BD46F2
:4002000080BD00BFD880010088C5FF1FDC800100E0800100E4800100E8800100FC8001000C810100108101001C810100308101003481010060810100B0B58AB000AF7860C7
:40024000002387F82130002387F82030FFF71AFF012006F031FFC82004F0F2FF022008F001FD06F021FE384806F0CCFE4FF4FA6004F0E6FF06F05EFE06F0D6FE002006F061
:400280001BFF0C2008F0EEFC002008F0CDFC2F492F480FF041FD786233E00D21786A0FF0C9F80346002B27D0786A0EF021FB03467B847B8C002B1FD07B8C42F20F729342EB
:4002C00014D097F82030B7F922205B0007F128010B4423F8202C97F820300A2B15D897F820300133DBB287F8203005E097F821300133DBB287F82130144900200FF00CFDCC
:4003000078627B6A002BC8D100E000BF97F8202007F108031146184600F082F803461BB2FB837B681D4607F108040FCC28606960AA60EB6003CC2861696123882B837868F0
:400340002837BD46B0BD00BFAD00000064810100CC8AFF1FB0B5EEB004AF3B1D186007F12403002283F8802007F124032A4A1C4615460FCD0FC42B68238007F10803184670
:40038000FFF75AFF07F108031B7E1A4607F108035B7E134407F10802127E114607F10802B2F91620144607F1240202F181000294019100930B23194A4FF480710EF0A0FFEA
:4003C00007F108031B7E0B2B05D107F12403012283F880200EE007F108031B7E002B09D007F108031B7E0A2B04D807F12403022283F880203B1D1A6807F1240310461946B1
:4004000040F281131A460EF0DDFB3B1D186807F5D477BD46B0BD00BF688101007C81010090B585B000AF78600B46FB700023FB81FB781BB21946786800F03AF8FB7803F027
:400440000103DBB2002B25D1FB78013BDA0F13445B105B007A681344B3F900301946FB785B08DBB25B007A681344B3F900300B4418460DF0DBFB4FF000024FF080430DF00E
:4004800065FD03460C46184621460DF0E5FE0346FB8107E0FB785B08DBB25B007A6813441B88FB81FB8918461437BD4690BD00BF80B584B000AF78600B467B800023FB81C1
:4004C00037E00023BB8124E0B7F90C305B007A681344B3F90020B7F90C3001335B0079680B44B3F900309A420DDDB7F90C305B007A68D018B7F90C3001335B007A68134424
:40050000194600F021F8B7F90C309BB201339BB2BB81B7F90C20B7F90210B7F90E30CB1A013B9A42D0DBB7F90E309BB201339BB2FB81B7F90E20B7F90230013B9A42C0DB7E
:4005400000BF1037BD4680BD80B485B000AF786039607B681B88FB813B68B3F900207B681A803B68FA891A8000BF1437BD4680BC704700BF80B584B000AF78600923FB73B5
:4005800000F078F8786809F0E5F80346DBB20133FB7300F07BF8FB7B18461037BD4680BD80B586B000AFF860B9607A600923FB7500F060F8B968F86809F0B6F838613B6941
:4005C000002B08D108F0E4FE08F05CFFB968F86809F0AAF838613B69002B10D078680FF0CDF803461A467968386909F04BFA386908F0D4FF0346DBB2C3F10103FB7500F0FF
:4006000045F8FB7D18461837BD4680BD80B586B000AFF860B9607A600923FB7500F02AF81349F86809F080F838613B69002B08D108F0AEFE08F026FF0D49F86809F074F8BB
:4006400038613B69002B0CD07A68B968386909F0F2F8386908F0A2FF0346DBB2C3F10103FB7500F013F8FB7D18461837BD4680BDB481010080B500AF06F042FD012006F0B1
:4006800045FD08F0FFFE00BF80BD00BF80B500AF002006F03BFD06F02DFD08F079FE002006F0A6FD002006F085FD002006F0BCFD002006F0D7FD00BF80BD00BFF0B5EBB082
:4006C00000AF3B1D186007F124033D4A1C4613460FCB07C4237007F12403002283F8802007F11803374A07CA03C31A8007F10C03354A07CA03C31A7007F10C031846FFF7BF
:4007000039FF07F10C03314A31491846FFF748FF07F1180107F10C030A221846FFF776FF07F10C031846FFF725FF03461A4607F1240383F8802007F1240393F88030012BF5
:4007400014D107F124038133224A1D4614460FCC28606960AA60EB6007CC28616961AA612388A278AB831346AB7717E007F124038133194A14469E4604F1200C75462646C5
:400780000FCE28606960AA60EB6010340EF1100E6445F3D17346224612781A703B1D1A6807F124031046194640F281131A460EF009FA3B1D186807F5D677BD46F0BD00BF4E
:4007C000B88101001C82010028820100C8810100D4810100D8810100F881010080B500AF07F0DEFD00BF80BD80B500AF07F038FE034603F00203002B02D1012004F020FDCD
:4008000007F0A4FE00BF80BD80B500AF07F0B8FE00BF80BD0EB480B5ADF6140D00AF0246FB1D1A70FB1D1B78022B07D0FB1D1B78012B03D0FB1D1B78032B1DD1294800F0C1
:40084000C9F800F09BF803461946274800F0C2F8FB1D1B78022B03D1244800F0BBF820E0FB1D1B78012B03D1214800F0B3F818E0204800F0AFF814E0FB1D1B78002B29D14E
:400880001D4B1B79002B25D0164800F0A3F800F075F803461946144800F09CF8174800F099F807F5026207F10C031A6007F10C0307F110001B68D7F81C284FF4006112F042
:4008C000E7F807F11003184607F0F0FD0C4800F081F800E000BF07F61407BD46BDE8804003B070473482010038820100488201006482010080820100E89DFF1F9C8201009D
:40090000B882010084B080B500AF07F1080E8EE80F00134800F05EF800F030F803461946104800F057F8104800F054F807F108010E4800F04FF897F8883019460C4800F0CD
:4009400049F807F1890319460A4800F043F80A4800F040F800BFBD46BDE8804004B070473482010038820100C0820100D0820100E0820100F08201000083010080B58CB0F7
:4009800000AF05F0A7FCF862FB6A1B78DBB27B60FB6A5B78DBB2BB60FB6A9B78DBB2FB60FB6A5B899BB2A3F26C73BB61FB6A1B7ADBB27B61FB6A1B79DBB23B6100237B624B
:4009C0003B1D18460EF0C6FAB862BB6A18463037BD4680BD0FB480B5ADF6080D00AF07F61403C7F80438381DD7F80438D7F810284FF4006112F04CF83B1D184607F056FD80
:400A000000BF07F60807BD46BDE8804004B07047B0B59AB000AF7860012007F0A9FA012008F03EF90A2004F00BFC07F073FA07F04BFA06F08DFD002387F8673034E097F8B6
:400A40006730184607F080FA0023A7F864300FE0B7F8644007F00CFA0246A30007F168010B4443F8602CB7F864300133A7F86430B7F864300A2BEBD997F8674007F10803FA
:400A80000B21184600F0DCF90346184606F0D0FE0246A30007F168010B4443F8342C97F86730013387F8673097F86730062BC6D907F030FA07F0F8F906F062FD002007F06B
:400AC00057FA002008F0ECF87B6B18460DF0C0F819A3D3E900230CF05BFF03460C46184621460DF0E1FB03463B66BB6B144918460DF038FD0346396E18460DF029FC0346D0
:400B0000FB64FB6B396E18460DF022FC03463B653B6CBB65012387F85C307B681D4607F14C040FCC0FC523682B6078686837BD46B0BD00BFAFF30080FCA9F1D24D62F03F88
:400B4000000030410000000090B599B000AF786007F0E0F907F0B8F906F0FAFC032007F0F3F90023A7F85E300FE0B7F85E4007F07FF90246A30007F160010B4443F8582C38
:400B8000B7F85E300133A7F85E30B7F85E300A2BEBD907F108030B21184600F051F90346184606F045FE03463B653B6D484918460DF0D8FC034618460AF038FE03464449BC
:400BC00018460DF083FD03463B65012008F068F80A2004F035FB0023A7F85C300FE0B7F85C4007F045F90246A30007F160010B4443F8582CB7F85C300133A7F85C30B7F812
:400C00005C300A2BEBD907F108030B21184600F017F90346184606F00BFE0346FB6407F079F907F041F906F0ABFC002008F038F8FB6C18460DF00CF821A3D3E900230DF06F
:400C400085F903460C46184621464FF00002214B0DF052F803460C46184621460DF024FB03467B65FB6C18460CF0F2FF4FF00002194B0DF041F803460C461846214612A35B
:400C8000D3E900230DF062F903460C46184621464FF00002114B0CF07BFE03460C46184621460DF001FB0346BB657B681C4607F14C030FCB84E80F0078686437BD4690BD1D
:400CC0000000000000C0624033333333333303400000C84200408F40000024400000044084B090B587B000AF786007F12C0080E80E00BB6B18460CF0ABFF23A3D3E90023BC
:400D00000DF024F903460C46184621464FF00002214B0DF01BF903460C46184621460DF0C3FA03463B61BB6B18460CF091FF4FF000021A4B0CF0E0FF03460C46184621468B
:400D400013A3D3E900230DF001F903460C46184621464FF00002124B0CF01AFE03460C46184621460DF0A0FA03467B617B681C4607F108030FCB84E80F0078681C37BD46E6
:400D8000BDE8904004B070470000000000C06240333333333333034000408F40000024400000044080B584B000AF786039600023FB6028E00023BB601BE0BB689B007A68DD
:400DC00013441A68BB6801339B0079680B441B689A420BDDBB689B007A68D018BB6801339B007A681344194600F016F8BB680133BB603A68FB68D31A5A1EBB689A42DCDC0E
:400E0000FB680133FB603B685A1EFB689A42D1DC00BF1037BD4680BD80B485B000AF786039607B681B68FB603B681A687B681A603B68FA681A6000BF1437BD4680BC704728
:400E400090B585B000AF786039600023FB6039687868FFF7A7FF3B6803F00103002B23D13B68013BDA0F13445B109B007A6813441A683B68D90F0B445B109B0079680B4494
:400E80001B68134418460CF0D1FE4FF000024FF080430DF05BF803460C46184621460DF0DBF90346FB6008E03B68DA0F13445B109B007A6813441B68FB60FB6818461437D3
:400EC000BD4690BD2DE9B043EEB006AF3B1D186007F11C03002283F8802007F11C03264A1C4615460FCD0FC495E8030020600434217007F108031846FFF78AFD07F1080385
:400F00001B6818460CF0A4FE04460D4607F108035B6818460CF09CFE8046894607F108039B6818460CF094FE02460B4607F11C0101F18100CDE90423CDE90289CDE900451A
:400F40000E4A4FF480710EF0DBF907F11C03012283F880203B1D1A6807F11C031046194640F281131A460DF02DFE3B1D186807F5D077BD46BDE8B083048301001C830100AC
:400F80002DE9B043EEB006AF3B1D186007F11C03002283F8802007F11C03374A1C4615460FCD0FC495E8030020600434217007F10C031846FFF7C8FD07F10C031B681846DC
:400FC0000CF046FE04460D4607F10C039B6818460CF03EFE8046894607F10C03DB6818460CF036FE02460B4607F11C0101F18100CDE90423CDE90289CDE900451F4A4FF421
:4010000080710EF07DF907F10C031B681C4918460DF0A8FA034618460AF008FC0346184918460DF053FB03461A4607F10C031A6007F10C035A6807F10C031B681946104635
:401040000DF024FC0346002B04D107F11C03012283F880203B1D1A6807F11C031046194640F281131A460DF0ADFD3B1D186807F5D077BD46BDE8B0833C83010054830100B4
:401080000000C84298B500AF12E00D4BB3F900301C4607F0A3FB03461A460A4B1A55084BB3F900309BB201339BB21AB2044B1A8007F0B6FB0346012BE7D000BF98BD00BF47
:4010C000D88BFF1F7409002080B500AF00F032F8154B00221A70154B002283F82820134B00221A75114B00221A70114B00221A600F4B00225A600E4B00229A600C4B002250
:40110000DA600B4B00221A61094B00225A61084B0022DA61064B00229A610021402007F017FD00BF80BD00BFDA0800206CEEFF1FDC08002080B500AF002007F03BFD0C200F
:4011400007F0E8FC002007F07DFA002007F0C4FC002007F015FD002007F056FA002007F08FFA00BF80BD00BF80B500AF022007F0D1FC012007F01EFD012007F063FA64204E
:4011800004F05EF800BF80BD80B500AF41F288320A490B4800F0A8F800F084F84FF47A7004F04EF807F0EAFA07F01AFCFFF7C2FF044B00221A7000BF80BD00BF84830100B2
:4011C00088830100DA08002080B582B000AFFFF7CBFF07F071FA2C4807F0F0FB00F062F80023FB7100233B71FFF7C8FB38600023BB711CE000237B710EE04FF47A72234977
:40120000234800F071F80346002B02D00123FB7105E07B7901337B717B79132BEDD9FB79012B08D000F03EF8BB790133BB71BB79022BDFD900E000BFFFF7A0FB02463B68BD
:40124000D31A3B603A6813490020FFF7E3FAFB79012B0AD13B791A460F490020FFF7DAFA0E4B01221A70012309E00D490220FFF7D1FA0A4B00221A70FFF786FF00231846DB
:401280000837BD4680BD00BF8510000084830100948301009C830100B0830100DA080020E483010080B500AF012007F0ADF94FF4FA6003F0C5FF002007F0A6F900BF80BDD5
:4012C00080B500AF064B00221A804FF48062002104480DF0EDFC07F0B9FA00BF80BD00BFD88BFF1F7409002080B58AB000AFF860B9607A6000237B6200237B6246E00A2346
:40130000FB617A68FB69B2FBF3F3BB61FFF7D8FFF86807F0D7FA7B68002B06D1FA681F490020FFF777FA012334E000233B6220E0F86903F085FFB96819480EF0DDFB786130
:401340007B69002B12D07B6A002B06D1144BFA6814490020FFF75EFA06E07B6A5A1C104B11490120FFF756FA012313E03B6A01333B623A6ABB699A42DAD3094BFA680B49C4
:401380000220FFF747FA7B6A01337B627B6A022BB5D9002318462837BD4680BDFC830100740900202884010078840100B0840100B0B5E6B000AF3B1D186007F10C0300227F
:4013C00083F8802007F10C03364A07CA03C31A800233120C1A7007F10C038133324A1C4615460FCD20606160A260E36028682061AB88AA79A3821346A3750023C7F8943143
:401400003AE000F091F800F085FE0346002B02D1FFF7DAFE27E000F07DFE0346042B22D100F0D6FDC7F89001D7F89031002B03D0D7F8900102F06AFE07F10C0381331B4A39
:401440001D4614460FCC28606960AA60EB6007CC28616961AA6107F10C03012283F88020FFF792FE0CE04FF47A7003F0E9FED7F894310133C7F89431D7F894313B2BC0DD5C
:401480003B1D1A6807F10C031046194640F281131A460DF097FB3B1D186807F5CC77BD46B0BD00BFE0840100EC8401000485010080B586B000AFF860B9607A603B60B9681A
:4014C000F8680EF019FB78617B69002B01D1FB687B61B8680EF052F902467B6913447B61796878690EF008FB38613B69002B06D1F8680EF043F90246FB6813443B613A69DC
:401500007B69D31A1A46796938680EF065F93A697B69D31A1A463B68134400221A70012318461837BD4680BD80B582B000AF534B1B78012B0BD1FFF721FA0246504B1A6054
:4015400000F092FC4D4B02221A70012392E04B4B1B78022B5FD10023FB712BE000F01CF9484B5B7883F00103DBB2002B07D0464B5B691A2B03DD444B5B69FF2B1ED1414B0E
:401580005B78002B0FD0404B9B68242B03DD3E4B9B68FF2B13D13C4B5B691A2B03DD3A4B5B69FF2B0BD14FF47A7003F049FEFB790133FB71FB791D2BD0D900E000BF00F0C9
:4015C0006DF80346002B13D0FFF7D8F902462C4B1B68D31A2C4A93612B4B9B691A462B490020FFF717F900F0B5F8244B03221A70FFF7C4F90246224B1B68D31AB42B08DD04
:401600001E4B00221A70FFF7BFFD21490220FFF701F900232EE0194B1B78032B29D100F0A7F80346002B11D0144B04221A70FFF7A5F90246124B1B68D31A134AD361124B8D
:40164000DB691A4613490020FFF7E4F8FFF796F902460B4B1B68D31AE62B08DD074B00221A70FFF791FD0C490220FFF7D3F8002300E0002318460837BD4680BDDA08002030
:4016800070090020E89DFF1FDC08002020850100488501006C8501008C85010080B584B000AF20490020FFF7B5F84FF4FA621E491E48FFF719FE0346FB731D490020FFF782
:4016C000A9F81C4A1C490020FFF7A4F8FB7B002B23D000233B713B1D184A19491548FFF7E7FE3B1D1A4617490020FFF793F816490020FFF78FF83B1D144918460EF0FCF95A
:401700000346002B07D13B1D114918460EF0F4F90346002B01D0012300E0002318461037BD4680BDB485010084830100C8850100D485010074090020F08501000C86010081
:40174000108601001486010034860100548601005886010080B500AF4FF47A7202490348FFF7C2FD00BF80BD848301005C86010080B500AF4FF4FA6205490648FFF7B4FDB7
:401780000346002B01D0012300E00023184680BD6C8601007086010080B586B004AF154BFF225A60134BFF22DA60124BFF229A60104BFF225A610F4BFF221A610D4BFF2208
:4017C0001A604FF4FA620C490C48FFF78DFD0C4B03930C4B02930C4B01930C4B00930C4B044A0C490C480DF0D7FD786000BF0837BD4680BDDC080020848301007C860100B5
:40180000F0080020EC080020E8080020E4080020E0080020888601007409002080B400AF0F4B00221A700E4B01225A700C4B01229A700B4B0122DA70094B01221A71084BE1
:4018400078225A71064B78229A71054B7822DA71034B78221A7200BFBD4680BC704700BFE89DFF1F90B5ADF5497D00AF002387F8803207F5077300221A7007F5DC7300220E
:401880001A7007F5AA7300221A7007F18C0300221A70002387F81433002387F80833002387F8FC32002387F8F032002387F8E43207F54573B14AB249B248FFF7F9FD07F508
:4018C0004273AE4AB049AF48FFF7F2FD07F53F73AA4AAE49AB48FFF7EBFD07F53C73A74AAB49A848FFF7E4FD07F53973A34AA949A448FFF7DDFDA849A2480EF0FDF803464B
:40190000002B56D007F18C039C4AA3499D48FFF7CFFD07F18C03A14918460EF0EDF80346002B03D09E4B01221A7006E09C4B1B78002B02D09A4B00221A7007F18C03994970
:4019400018460EF0D9F80346002B03D0964B01221A7006E0944B1B78002B02D0924B00221A7007F18C03914918460EF0C5F80346002B03D08E4B01221A7006E08C4B1B78F0
:40198000002B02D08A4B00221A7007F18C03894918460EF0B1F80346002B03D0864B01221A7006E0844B1B78002B02D0824B00221A7007F52073714A80497248FFF778FD90
:4019C00007F52073184600F009FE07F507736B4A7B496C48FFF76CFD07F507731846FEF79DFB07F5DC73654A76496648FFF760FD07F5DC73184600F037FE07F5AA735F4A56
:401A000071496048FFF754FD07F5AA73184601F031F807F1880207F545736C4918460DF0BBFC0346012B0ED107F188031B68DAB2674B1A7007F188031B681A466549002019
:401A4000FEF7E8FE03E064490220FEF7E3FE07F1840207F542735D4918460DF09DFC0346012B12D107F184031B68002B14BF01230023DAB2564B5A7007F184031B681A4642
:401A800056490020FEF7C6FE03E055490220FEF7C1FE07F1800207F53F734C4918460DF07BFC0346012B1DD107F180031B68DAB2474B9A70464B9B7899B24A4C3846072312
:401AC000012201F0A9FE3A4623461168196092889A8007F180031B681A4643490020FEF799FE03E041490220FEF794FE07F17C0207F53C73354918460DF04EFC0346012BB7
:401B00001DD107F17C031B68DAB2314BDA70304BDB7899B2364C38460723012201F07CFE3A4623461168196092889A8007F17C031B681A462F490020FEF76CFE03E02E49E0
:401B40000220FEF767FE07F1780207F539731F4918460DF021FC0346012B51D107F178031B68DAB21A4B1A7107F178031B681A4622490020FEF74EFE46E000BF0C8601004C
:401B8000A886010074090020B4860100C0860100D0860100E0860100F086010000870100EDEDFF1F1087010083C5FF1F188701006C0900202C87010082C5FF1F348701001A
:401BC0004087010050870100648701006C870100E89DFF1F708701008C870100A8870100C48701007CC5FF1FE087010004880100609EFF1F348801005C8801008C88010013
:401C000085490220FEF706FE844B1B78042B40F0FD8007F1080300221A70814B1B78002B4ED007F520737F4918460DF065FF0346002B41D007F1080300221A7007F520724E
:401C400007F10803114618460DF03AFD07F5207307F10800744A7349FFF72AFC07F1740207F52073714918460DF096FB0346012B1DD107F174031B68DAB2684B5A71674B9F
:401C80005B7999B26A4C38460723012201F0C4FD3A4623461168196092889A8007F174031B681A4663490020FEF7B4FD08E062490220FEF7AFFD03E060490220FEF7AAFD5F
:401CC0005F4B1B78002B4ED007F50773554918460DF012FF0346002B41D007F1080300221A7007F5077207F10803114618460DF0E7FC07F5077307F108004B4A4949FFF70A
:401D0000D7FB07F1700207F50773484918460DF043FB0346012B1DD107F170031B68DAB23E4B9A713D4B9B7999B2464C38460723012201F071FD3A462346116819609288BE
:401D40009A8007F174031B681A463F490020FEF761FD08E03D490220FEF75CFD03E03C490220FEF757FD3B4B1B78002B4ED007F5DC732C4918460DF0BFFE0346002B41D08C
:401D800007F1080300221A7007F5DC7207F10803114618460DF094FC07F5DC7307F10800214A2049FFF784FB07F16C0207F5DC731E4918460DF0F0FA0346012B1DD107F199
:401DC0006C031B68DAB2154BDA71144BDB7999B2214C38460723012201F01EFD3A4623461168196092889A8007F174031B681A461A490020FEF70EFD08E019490220FEF733
:401E000009FD03E017490220FEF704FD00BF07F54977BD4690BD00BFB8880100E89DFF1F83C5FF1FE88801000C8601006C8701005CEEFF1FF0880100148901004489010028
:401E4000EDEDFF1F64EEFF1F6C89010094890100C88901006C09002054EEFF1FF4890100288A0100688A010080B584B000AF454B1B7D002B13D14FF4FA6243494348FFF780
:401E800033FA0346002B0AD0414B424A42494348FFF70EFB3E4A42490020FEF7BBFC394B1B78002B13D14FF4FA6237493D48FFF71BFA0346002B0AD0324B364A364937487D
:401EC000FFF7F6FA2F4A38490020FEF7A3FC2D4B93F82830002B13D14FF4FA622A493348FFF702FA0346002B0AD0314B294A2A492A48FFF7DDFA2E4A2E490020FEF78AFCEC
:401F00002D4B5B7883F00103DBB2002B06D04FF4FA621D492948FFF7E7F909E0264B5B78002B05D04FF4FA6217492548FFF7DCF94FF4FA6214492348FFF7D6F90346002B01
:401F40001BD000233B713B1D124A13491348FFF7AFFA3B1D1A461C490020FEF75BFC3B1D312118460DF066FA0346002B05D14FF4FA6205491548FFF7B7F900BF1037BD466C
:401F800080BD00BF6CEEFF1F84830100A08A010080EEFF1F0C8601001086010074090020AC8A0100BC8A0100C88A0100D48A010094EEFF1FE08A0100E89DFF1FEC8A0100D2
:401FC000188B0100348B0100408B01004C8B010080B5A0B006AF444B1B78042B05D043490220FEF717FC00237AE000237B664FF4FA623F493F48FFF777F90346002B6ED07C
:40200000002387F8443007F144033B4A3B493C48FFF74EFA0023BB6207F13C0107F1400207F1440007F12803049307F12C03039307F13003029307F13403019307F1380368
:4020400000930B462F490DF0A7F90346072B06D1BB6A4FF4617202FB03F3BB6227E007F13C0107F1400207F1440007F12803049307F12C03039307F13003029307F13403B2
:40208000019307F1380300930B461F490DF084F90346072B05D1BB6A1C4A02FB03F3BB6205E01B490220FEF7B5FB002318E0FB6A7B603B6BBB607B6BFB603B6C6433BB61E0
:4020C000FB6B013B7B61BB6B3B6100237B623B1D18460CF03FFF0246BB6A13447B667B6E18466837BD4680BDDA080020588B010084830100908B01009C8B0100A08B010087
:4021000074090020A48B0100BC8B01007CFCFFFFD48B010080B400AF024B1B781846BD4680BC7047DA08002080B500AFFFF7F2FF0346002B03D006F06BFD06F013FC00BF67
:4021400080BD00BF80B500AFFFF7E4FF0346002B0BD006F063FD06F01FFCFFF7DBFF0346032B02D1642003F06BF800BF80BD00BF80B584B000AFF860B9607A60234B1B88CD
:402180001A462C2303FB02F3214A9818FB68214A14210DF0B5F81D4B1B881A462C2303FB02F310331A4A1344181DBB68194A14210DF0A6F8154B1B881946154A2C2303FB71
:4021C00001F3134428337A681A60104B1B8801339AB20E4B1A80104B1B8801339AB20E4B1A800A4B1B88952B0BD9084B00221A800A4B01221A700A490220FEF70BFB0023BB
:4022000000E0012318461037BD4680BD84C5FF1F10EFFF1F008D010086C5FF1FD9080020048D010080B483B000AF1CE0FB88164A2C2101FB03F3134400221A70FB88124A91
:402240002C2101FB03F31344143300221A70FB880D4A2C2101FB03F31344283300221A60FB880133FB80FB88952BDFD9074B00221A80074B00221A80064B00221A7000BF69
:402280000C37BD4680BC704710EFFF1F84C5FF1F86C5FF1FD908002080B400AF024B1B881846BD4680BC704786C5FF1F80B400AF024B1B881846BD4680BC704784C5FF1FD9
:4022C00080B58CB008AFF860B9607A603B60FB6A01933B680093FB692A4A42F21071F8680DF00EF8284B07933B6A0693274B0593254B0493BB690393254B02937B6801931F
:40230000244B0093FB68244A42F21071F8680CF0F7FF7B6A002B0CD07B6A1B78002B08D07B6A0093FB681D4A42F21071F8680CF0E7FF1B49F8690DF0E5F80346002B13D02D
:40234000B8680DF01BFA0246BB6A1344154A03920293154B0193154B0093FB68144A42F21071F8680CF0CCFFBB680093FB68114A42F21071F8680CF0C3FF00BF1037BD460A
:4023800080BD00BF3C8D0100648D0100688D0100788D01007C8D0100508D0100848D01008C8D01009C8D0100A48D0100B88D0100908D0100D48D010090B589B004AF78602A
:4023C0007B6800221A70334B1B7883F00103DBB2002B2DD00023FB8122E0FB892C2202FB03F32D4A1344FA892C2101FB02F2103229490A440432F98927482C2404FB01F1B3
:402400000144283109680291019200937B68234A42F2107178680CF073FFFB890133FB81FFF744FF03461A46FB899342D5D328E00023BB8122E0BB892C2202FB03F3164A1C
:402440001344BA892C2101FB02F2103212490A440432B98910482C2404FB01F10144283109680291019200937B680C4A42F2107178680CF045FFBB890133BB81BB89952BFB
:40248000D9D978680DF07AF9B860BB6818461437BD4690BDD908002010EFFF1FDC8D010080B588B004AFF860B9607A603B60FB6800221A703B6802937B680193BB680093E4
:4024C000FB68044AC821F8680CF01AFF00BF1037BD4680BDFC8D0100B0B58CB000AF03F08DFE034687F82F3097F82F3007F124010A2218460CF032FBFEF740FA024607F1DB
:40250000240319462C48FFF733FE00233B713B1D18460DF033F903461A463B1D1344274A1C4615460FCD20606160A260E36007F124023B1D114618460CF05CFF3B1D1946AB
:402540000020FEF767F91E491E480DF0D5FAB862BB6A002B11D0012003F034FE194B00221A70FEF70BFA03461A4617491248FFF7FFFD16490020FEF74DF9154911480DF0EF
:40258000BBFAB862BB6A002B11D0002003F01AFE0C4B00221A70FEF7F1F903461A460D490548FFF7E5FD0C490020FEF733F9002318463037BD46B0BD0C8E01001C8E0100B6
:4025C0002C8E0100F49DFF1F308E0100348E0100608E0100648E0100688E010080B582B000AF7860796803480DF06AF800BF0837BD4680BDF49DFF1F80B582B000AF06F0A4
:40260000D7FB0346FB71FB79002B09D0114B1B785A1CD1B20F4A117019460F4AFB795354FB790D2B11D10D4B1A680D4B1B68194610460DF061FA02460A4B1A60054B1B78BC
:402640001A46054B1344054A136000BF0837BD4680BD00BFDD8CFF1FDC8BFF1FD080FF1FE48CFF1FE08CFF1F80B582B000AF7860796803480DF024F800BF0837BD4680BD91
:40268000F0EDFF1F80B596B000AF314931480DF033FA78657B6D002B01D0002353E02E492C480DF029FA78657B6D002B4AD0FEF765F9386538463B6D284A20210CF020FEC9
:4026C00007F12003184600F05DF897F83830002B2DD0B7F9363007F13C00214A14210CF00FFE07F13C031A461E490020FEF792F807F13C033A6D19461B48FFF739FD3B4620
:402700001A461A491A48FDF74BFF1A4A17491848FDF746FF07F13C031A4614491448FDF73FFF154A11491248FDF73AFF08E013490220FEF76FF83A6D11490B48FFF718FDF6
:40274000002300E0002318465837BD4680BD00BF948E0100F0EDFF1F988E01009C8E0100A08E0100A48E0100C48E0100E08E0100E48E0100F08E0100108F0100148F01007D
:402780004C8F0100B0B58AB000AF7860002387F82130002387F82030FDF774FC012006F0BBFBC82002F04CFD022006F03DFB06F095FA384806F056FB4FF4FA6002F040FD76
:4027C00006F0D2FA06F060FB002006F0A5FB0C2006F02AFB002006F00DFB2F492F480DF09BFA786233E00D21786A0CF023FE0346002B27D0786A0CF07BF803467B847B8C05
:40280000002B1FD07B8C42F20F72934214D097F82030B7F922205B0007F128010B4423F8202C97F820300A2B15D897F820300133DBB287F8203005E097F821300133DBB210
:4028400087F82130144900200DF066FA78627B6A002BC8D100E000BF97F8202007F1080311461846FDF7DCFD03461BB2FB837B681D4607F108040FCC28606960AA60EB60D9
:4028800003CC2861696123882B8378682837BD46B0BD00BFF9250000508F0100DC8BFF1FB0B5EEB004AF3B1D186007F12403002283F8802007F124032B4A1C4615460FCD9D
:4028C0000FC495E80F0007C4237007F108031846FFF758FF07F108031B7E1A4607F108035B7E134407F10802127E114607F10802B2F91620144607F1240202F181000294F0
:40290000019100930B23194A4FF480710CF0F8FC07F108031B7E0B2B05D107F12403012283F880200EE007F108031B7E002B09D007F108031B7E0A2B04D807F1240302223A
:4029400083F880203B1D1A6807F124031046194640F281131A460CF035F93B1D186807F5D477BD46B0BD00BF548F0100748F010090B593B002AFFEF701F8F863334934488E
:402980000DF0BAF8B863334BBB6200F0A9F97863786B0BF05DF903460C4607F11400CDE900342D4A05210CF0ABFC07F11403FA6B19462A48FFF7DCFBBB6B002B29D007F1EC
:4029C0001C03274A21492248FEF772FD07F1280207F11C03204918460CF0DEFCBB6A184600F0F6F9034687F8333097F83330381D1C4A04210CF084FC3B1DFA6B19461A48E0
:402A0000FFF7B6FB07F11C03FA6B19461748FFF7AFFB786B00F090FBF862F86A0BF018F903460C4607F10800CDE900340A4A0A210CF066FC07F10803FA6B19460C48FFF77C
:402A400097FB002318464437BD4690BDA48F0100080900209A99D93FAC8F0100B08F0100C88F0100CC8F0100D08F0100E88F01000090010080B582B000AF78607968034815
:402A80000CF01EFE00BF0837BD4680BD080900202DE9B04FADF5327D10AF07F13C031860012006F0FDF807F58273002283F8802007F58273864A07CA03C31A800233120C3C
:402AC0001A704FF07E5000F083F900F009F9024607F1E4031A6007F1440407F120031846FDF796FF07F120031D460FCD0FC42B6823604FF0000000F06BF903461A4607F583
:402B0000827383F8802000F0EBF8024607F1E4035A6007F1440407F120031846FDF778FF07F1200314341D460FCD0FC42B68236007F5827393F88030002B3AD04FF07850BA
:402B400000F046F900F0CCF8024607F1E4039A604FF07A5000F03CF900F0C2F8024607F1E403DA604FF07B5000F032F900F0B8F8024607F1E4031A614FF07C5000F028F995
:402B800000F0AEF8024607F1E4035A61514800F01FF900F0A5F8024607F1E4039A614FF07D5000F015F900F09BF8024607F1E403DA6107F1E4031B6818460BF049F882469A
:402BC0008B4607F1E4035B6818460BF041F8C7E9060107F1E4039B6818460BF039F8C7E9040107F1E403DB6818460BF031F8C7E9020107F1E4031B6918460BF029F8C7E914
:402C0000000107F1E4035B6918460BF021F88046894607F1E4039B6918460BF019F804460D4607F1E403DB6918460BF011F80A46014607F582738133CDE90E12CDE90C4561
:402C4000CDE90A89D7E90012CDE90812D7E90212CDE90612D7E90412CDE90412D7E90612CDE90212CDE900AB1B4A4FF4807118460CF046FB07F5827393F88030002B10D1B6
:402C800007F582738133154A1D4614460FCC28606960AA60EB6007CC28616961AA6123782B77002005F0FCFF07F13C031A6807F582731046194640F281131A460BF082FF53
:402CC00007F13C03186807F52277BD46BDE8B08F18900100CDCC2C3F249001004890010090B595B000AF012006F030F90A2002F0A7FA05F00FF905F0E7F804F029FC04231F
:402D000087F84F3033E097F84F30184605F01CF90023A7F84C300FE0B7F84C4005F0A8F80246A30007F150010B4443F8502CB7F84C300133A7F84C30B7F84C300A2BEBD937
:402D400097F84F403B460B211846FEF779F80346184604F06DFD0246A30007F150010B4443F8242C97F84F30013387F84F3097F84F30062BC7D905F0CDF805F095F804F062
:402D8000FFFB002006F0E2F8FB6B7B643B6CBB647B6CBA6C114618460BF098FC034618460AF056FF08A3D3E900230BF0CFF803460C46184621460BF077FA0346184654378D
:402DC000BD4690BDAFF3008014AE47E17A14EE3FF0B587B002AF7860012005F061FF4FF07F53BB60FFF77CFF0346796818460BF0AFFA034623F0004318460AF029FFC4A392
:402E0000D3E900230BF0EAF90346002B01D0012378E10023FB73FFF763FF0346796818460BF05CFD0346002B00F0AF80012004F01DF86BE0FFF754FFB8604FF47A7002F0C6
:402E4000FFF9B8680AF004FF05460E46FFF748FF034618460AF0FCFE03460C46CDE900342A463346B0490220FDF7D4FCFFF738FF0346B96818460BF031FD0346002B02D015
:402E8000FB7B0133FB73FB7B052B0CD978680AF0DFFE03460C461A462346A4490220FDF7B9FC00232EE1FFF71BFF03461946B8680BF04EFA034623F0004318460AF0C8FE92
:402EC00095A3D3E900230BF089F90346002B0AD1FFF706FF0346B96818460BF0FFFC0346002B00D112E0002003F0C0FF002005F0D7FE78680AF0ACFE03460C461A4623465B
:402F00008A490220FDF786FC0023FBE0FFF7E8FE0346796818460BF01BFA034623F0004318460AF095FE7EA3D3E900230BF074F90346002B7FF47EAF002003F097FFFFF70F
:402F4000CFFE0346796818460BF002FA034623F0004318460AF07CFE6DA3D3E900230BF05BF90346002B00F0C980002005F098FE78680AF06DFE03460C461A4623466B49A1
:402F80000220FDF747FC0023BCE0FFF7A9FE0346796818460BF084FC0346002B00F0AE80012003F045FF6BE0FFF79AFEB8604FF47A7002F045F9B8680AF04AFE05460E4620
:402FC000FFF78EFE034618460AF042FE03460C46CDE900342A46334653490220FDF71AFCFFF77EFE0346B96818460BF059FC0346002B02D0FB7B0133FB73FB7B052B0CD9C5
:4030000078680AF025FE03460C461A46234647490220FDF7FFFB002374E0FFF761FE03461946B8680BF094F9034623F0004318460AF00EFE38A3D3E900230BF0CFF80346AB
:40304000002B0AD1FFF74CFE0346B96818460BF027FC0346002B00D112E0002003F0E8FE002005F01DFE78680AF0F2FD03460C461A4623462D490220FDF7CCFB002341E000
:40308000FFF72EFE0346796818460BF061F9034623F0004318460AF0DBFD21A3D3E900230BF0BAF80346002B7FF47EAF002003F0BFFEFFF715FE0346796818460BF048F941
:4030C000034623F0004318460AF0C2FD10A3D3E900230BF0A1F80346002B0FD0002005F0DFFD78680AF0B4FD03460C461A4623460F490220FDF78EFB002303E0002005F0AF
:40310000CFFD012318461437BD46F0BDAFF300809A9999999999A93F7B14AE47E17A943FB81E85EB51B89E3F6890010084900100B490010000000000B0B596B000AF786042
:4031400007F128031846FFF71DFB07F10C031846FDF772F8B7F93E301A46B7F92230D31A18460BF0ABF903467B65334B1B6818460AF06EFD4FF000024FF0804308F09CFBD4
:4031800029A3D3E900230AF0B7FD03460C46184621460BF089F803463B65386D0AF058FD23A3D3E900230AF0A7FD03460C46184621460BF079F803463B65786800F040F8FD
:4031C000F8641E4BBB64396DF86C0BF0CBF9034618460AF03DFD04460D46BB6C194618460BF0B8F80346796D18460BF0BBF9034618460AF02DFD02460B461046194608F0CE
:40320000F3FC02460B46204629460AF075FD03460C46184621460BF047F803467B647B6C18465837BD46B0BD6F1283C0CA210940E17A14AE472984405C9EFF1F00481946B7
:40324000B0B58AB000AF7860334934480CF054FC38623B6A002B11D007F10C03304A31492E48FEF725F907F1080207F10C032E4918460CF091F8BB682C4A13602C492748C2
:403280000CF03AFC38623B6A002B3AD0002387F8273004E097F82730013387F8273097F82730244A52F8333018460AF0D1FC4FF00002214B0AF06EFB03460C4625461C46FD
:4032C0001A4B1B6818460AF0C3FC02460B46204629460AF083FF0346002BDBD197F82730144ADB0013445B68FB61786800F028F80346F96918460BF035F90346BB61BB6985
:4033000005E00E4905480CF0F7FB38627B6818462837BD46B0BD00BF0C91010008090020C88F010024910100AC8F01005C9EFF1F3C910100D480FF1F0000E03F4891010043
:40334000B0B584B000AF786078680AF081FC38A3D3E900230AF0D0FC03460C4625461C4678680AF075FC4FF000024FF0804308F0A3FA31A3D3E900230AF0BEFC02460B46CB
:40338000204629460AF004FB03460C4625461C4678680AF05DFC4FF000022D4B08F08CFA27A3D3E900230AF0A7FC02460B46204629460AF0EFFA03460C4625461C4678688E
:4033C0000AF046FC4FF00002224B08F075FA1EA3D3E900230AF090FC02460B46204629460AF0D6FA03460C46184621460AF05CFF0346FB604FF07E51F8680BF06FFA0346AA
:40340000002B03D04FF07E53FB600AE04FF00001F8680BF045FA0346002B02D04FF00003FB60FB6818461037BD46B0BDAFF300808195438B6CE7E73FF6285C8FC2F508407D
:40344000713D0AD7A3701E40E17A14AE47E11040000008400000104080B500AF02F0AAFE00BF80BDB0B588B002AF4C4802F0BEFD02F00AFEFF2002F063FF02F0CDFEFDF7F8
:40348000ADF9FDF721FEFEF7C9F907F10C03184601F058FFFA683B6900931346404A182140480BF02DFF404B404A1A60404A414B14461D460FCD0FC40FCD0FC40FCD0FC41C
:4034C0002B681A46228002341B0C2370384B41F288325A66384B9B7899B2384C38460723012200F099F922463B46196811609B889380334B01221A702F4BDB7899B2314C94
:4035000038460723012200F087F922463B46196811609B8893802C4B01221A702B4B00221A70254B5B7999B2294C38460723012200F072F922463B46196811609B889380BE
:40354000244B01221A701C4B9B7999B2224C38460723012200F060F922463B46196811609B8893801D4B01221A70134BDB7999B21B4C38460723012200F04EF922463B4672
:40358000196811609B889380164B01221A700023FB7500BF1837BD46B0BD00BF5934000054910100F0C5FF1FECC5FF1F6CEEFF1FA8EEFF1F5C910100E89DFF1F7CC5FF1FD4
:4035C000FC080020609EFF1F78C5FF1F669EFF1F5CEEFF1FD808002064EEFF1F6BEEFF1F54EEFF1F589EFF1F80B582B000AF304B1B78002B06D000F019FC03461A462C4B01
:403600001A7042E02B4B1B78002B06D000F030FC03461A46274B1A7037E0274B1B78042B33D1264B1B78002B09D0254B1B78002B05D0FEF751FF03461A46214B1A70214B69
:403640001B78002B09D0204B1B78002B05D0FCF773FD03461A461C4B1A701C4B1B78002B09D01B4B1B78002B05D0FFF70BF803461A46174B1A70174B1B78002B05D0FFF748
:4036800077F903461A46134B1A70134B1B78002B05D000F09DF903461A460F4B1A70FDF743FF0346FB71FB7918460837BD4680BD669EFF1FFC080020E89DFF1F83C5FF1F7A
:4036C000D8080020EDEDFF1F6BEEFF1F6C090020589EFF1F82C5FF1F78C5FF1F80B500AFFEF722FDFDF780F801F08EFE4FF40061002002F045F901F0CBFFFDF785F8FEF7FC
:4037000021FD00BF80BD00BF80B582B000AF0346FB71FB7919461C4800F04AF80346002B02D01A4B01221A70FB791946184800F03FF80346002B02D0164B01221A70FB7902
:403740001946154800F034F80346002B02D0134B01221A70FB791946114800F029F80346002B02D00F4B01221A70FB7919460E4800F01EF80346002B02D00C4B01221A701D
:4037800000BF0837BD4680BD7CC5FF1FFC080020609EFF1F78C5FF1F5CEEFF1FD808002064EEFF1F6BEEFF1F54EEFF1F589EFF1F80B582B000AF78600B46FB707B681B79ED
:4037C000DBB2FA789A4212D17B685B881BB29BB2013B9BB21AB27B685A807B685B881BB2002B04DC786800F007F8012300E0002318460837BD4680BD80B483B000AF7860BA
:403800007B681B889BB21AB27B685A8000BF0C37BD4680BC704700BF80B485B000AF7860084611461A4603467B800B467B7013463B707B883B817B783B733B787B73B7F94B
:4038400002307B817B681A4607F10803186810609B88938078681437BD4680BC704700BF90B5ADF61C4D5EAF4B490320FCF7D2FF07F61C131846FCF76DFD07F61C14684633
:4038800004F1100340F2711219460BF09BF994E80F00FDF737F807F5F3631846FFF700F807F5F364684604F1100340F2711219460BF088F994E80F00FDF724F807F214636D
:4038C0001846FFF7E5F807F21464684604F1100340F2711219460BF075F994E80F00FDF711F807F592631846FDF7ECFA07F59264684604F1100340F2711219460BF062F930
:4039000094E80F00FCF7FEFF07F543731846FDF737FB07F54374684604F1100340F2711219460BF04FF994E80F00FCF7EBFF07F5C4731846FCF7C2FE07F5C474684604F193
:40394000100340F2711219460BF03CF994E80F00FCF7D8FF3B1D1846FDF72AFD0F4B00930F4B104A10490320FCF754FF3C1D684604F1100340F2711219460BF023F994E8B1
:403980000F00FCF7BFFF09490320FCF743FF00BF07F6A427BD4690BD90910100F0C5FF1F6CEEFF1F94EEFF1FBC910100DC91010080B500AF62B6FFF755FDFFF751FFFFF77D
:4039C00013FE0346002BFAD1FFF788FEF7E700BF90B5ADF26C5D06AF012002F0F3FB642001F02EFC002002F0EDFBFEF75FFC0346002B01D1002303E2FEF78CFB0346002BD4
:403A000011D1AE4B1B780133DAB2AC4B1A70AB4B1B78022B02D8FDF7D7FBF0E1A74B00221A700023ECE1FEF775FB0346042B40F0E681A3490020FCF7EDFEA24B00221A702B
:403A4000A14B00221A70A14B00221A70A04B5B6907F5A5609F4A14210BF052FCFCF78EFF024607F5A56319469B48FEF781FB984B9B6807F21450974A14210BF041FCFCF7FC
:403A80007DFF024607F2145319469448FEF770FB8A4B1B7807F5A0608E4A14210BF030FCFCF76CFF024607F5A06319468C48FEF75FFB8C4B1B7883F00103DBB2002B16D009
:403AC000FEF7F4FB0346A7F84835B7F8483507F59B60804A14210BF013FCFCF74FFF024607F59B6319468048FEF742FB0FE007F2C4409623774A14210BF002FCFCF73EFFB1
:403B0000024607F2C44319467748FEF731FBFEF7C3FB0346A7F84635B7F84635013B07F2EC406C4A14210BF0EBFBFCF727FF024607F2EC4319466D48FEF71AFB6C49002015
:403B4000FCF768FE6B4B6C4A6C496048FEF7A8FC5E4A6B490020FCF75DFE5B48FEF72CFC684B5B6E684A059200220492674A0392674A0292674A01920093544B614A52493C
:403B80005048FEF79DFB4F4A63490020FCF742FE002387F845355B4B5A6E381D594B009313465E4AC8210BF0ABFB3B1D1A465C490020FCF72FFE3B1D42F2107259491846FC
:403BC000FDF792FB034687F845353E4BC7F84C353C480BF0D3FD0246534BA3FB02235B0918460AF013F84FF00002504B07F09CFD03460C461846214607F00EFD03460C4611
:403C0000184621460AF028FB034687F844352D480BF0B4FD03461A4645490020FCF7FAFD97F944351A4643490020FCF7F3FD002387F84B359AE04FF47A723F493F48FDF739
:403C400053FB034687F8453507F1CC00D7F84C35334A4FF4FA710BF053FB07F1CC0318460BF08CFD03461A4607F1CC03134434491A460B461B88138097F94B2507F1CC0391
:403C800030490020FCF7C6FD97F94B355A1C97F944359A4258D007F1CC0341F2883221491846FDF721FB034687F84535D7F84C3503F2F313C7F84C3551E000BF740D002038
:403CC00008920100689EFF1F14C6FF1F24EDFF1FDC080020189201001C920100249201002C920100D908002038920100489201005C9201007092010094EEFF1F9C920100A2
:403D0000AC920100A8EEFF1FBC920100C0920100C4920100CC920100D4920100EC920100089301000C930100D34D621000407F4010930100289301003C9301004093010081
:403D4000509301005493010007F1CC0341F288322E491846FDF7C8FA034687F8453597F94B35DBB20133DBB287F84B3597F94B2597F944359A42FFF65EAF41F28832244958
:403D80002448FDF7B1FA034687F8453597F84535012B1DD1FDF766FDFEF744FAFCF7EEFD02461D4B1B68D31AC7F8403507F59760D7F84035194A0A210BF0A2FAFCF7DEFDAD
:403DC000024607F5976319461548FEF7D1F903E014490220FCF71EFDFEF7FAF8C7F83C05D7F83C35002B03D0D7F83C0500F08EF9FDF7CAF90C4B00221A70002300E001230D
:403E0000184607F25457BD4690BD00BF649301006C9301007493010070090020189201008893010098930100740D002080B582B000AFFEF76FF90346002B02D1FDF7C4F9D9
:403E400011E0FEF767F90346042B0CD1FEF7C0F878607B68002B02D0786800F057F9FDF793F9002300E0012318460837BD4680BD90B5A3B002AFFCF781FDF86707F15C0031
:403E8000FB6F8C4A20210BF03BFA8B4B1B78184607F140030A2219460AF060FEFCF76EFD024607F1400319468448FEF761F9824B1B78002B3BD107F110031846FCF7BCF969
:403EC00097F82830002B2ED0B7F9263007F148007B4A14210BF014FA07F148031A4679490020FCF797FC07F14803FA6F19467648FEF73EF907F15C031A4674497448FCF746
:403F00004FFB744A71497248FCF74AFB07F148031A466E496E48FCF743FB6F4A6B496C48FCF73EFB03E06D490220FCF773FC07F12C031846FCF76CFD97F83C30002B00F02B
:403F4000AF80FB6A184609F083FE03460C4607F14800CDE90034624A14210BF0D1F907F148031A465F490020FCF754FC07F14803FA6F19465C48FEF7FBF8574A534954484C
:403F8000FCF70EFB07F15C031A4650495048FCF707FB564A4D494E48FCF702FB07F148031A464A494A48FCF7FBFA434B1B78012B7AD13C466A4607F1380393E8030082E8D7
:403FC000030007F12C030ECB2046FCF789FEBB68184609F03DFE03460C4607F14800CDE900343F4A14210BF08BF907F148031A463F490020FCF70EFC07F14803FA6F1946D4
:404000003C48FEF7B5F8344A30493148FCF7C8FA07F15C031A462D492D48FCF7C1FA364A2A492B48FCF7BCFA07F148031A4627492748FCF7B5FAFB68184609F009FE0346A8
:404040000C4607F14800CDE90034254A14210BF057F907F148031A4628490020FCF7DAFB07F14803FA6F19462548FEF781F81A4A16491748FCF794FA07F15C031A4613493D
:404080001348FCF78DFA1F4A10491148FCF788FA07F148031A460D490D48FCF781FA03E019490220FCF7B6FB002318468437BD4690BD00BFC4930100E89DFF1FC893010032
:4040C00018920100DC930100F0930100009401005C81FF1F04940100189401001C94010048940100509401005C940100649401006C9401008094010094940100A894010072
:40410000BC940100CC940100E094010080B586B000AF78607B68002B05DC18490220FCF779FB002325E03B1D18460AF0EBFB78617B691B68DBB23B727B695B68DBB27B7234
:404140007B699B68DBB2BB727B695B699BB203F26C739BB27B827B691B69DBB23B747B69DB68DBB23B7307F10803184602F0BCF8012318461837BD4680BD00BF0895010010
:4041800080B582B000AF786039603A68002178680AF08EFD00BF0837BD4680BD80B584B000AFF860B9607A607A68B968F8680AF009FD00BF1037BD4680BD00BF80B483B0E0
:4041C00000AF0346FB71FEE780B487B000AF7860396000233B6100237B6127E07B699B007A6813441B68BB60BB68FB73BB6823F0FF03BB6014E03B695B003A6813441B786D
:404200001A46BB68134419463B695B003A6813445B780B703B6901333B61FB7B013BFB73FB7B002BE7D17B6901337B617B69262BD4D900BF1C37BD4680BC704780B582B0CD
:4042400000AF604B1B78BB705F4B00221A805F4B58221A705E4B00221A805E4B50221A705D4B19221A805D4B19221A705C4B19221A805C4B19221A705B4B4FF49C721A80A5
:404280005A4B18221A705A4B4FF49C721A80594B18221A70042258495848FFF77FFF584B02221A704FF0402308221A70554BF3221A70444B03221A70534B84221A70534B32
:4042C00005221A70524B7B6006E04FF4F07004F05BFE7B68013B7B607B68002B06D04B4B1B78DBB203F02003002BEED0354ABB781370484B02221A70474B484A1278D2B284
:404300001A70474B4FF4E1621A80464B41F251221A800023FB7019237B6014E0FB785B00DAB2414B1B78DBB203F00103DBB21343DBB203F00303FB704FF4F07004F024FE4D
:404340007B68013B7B607B68002B02D0FB78032BE4D17B68002B02D10320FFF72FFF334B4FF480721A80314B07221A70304B00221A70304B48221A702C4B00221A702E4B37
:4043800002221A702D4B04221A702D4A2C4B1B78DBB243F03F03DBB213702A4A294B1B78DBB243F00103DBB21370274A264B1B78DBB263F07F03DBB2137000BF0837BD465D
:4043C00080BD00BF9846004080400040824000408440004086400040884000408A4000408C4000408E40004090400040924000409440004096400040840B004800410040C7
:40440000004300400A4300400943004008430040A086010000420040A14600400B010049224200402042004025420040044000400640004008400040014000400B400040A5
:40444000A2430040A1430040A043004080B483B000AF114B1B78FB71104AFB7903F00703DBB213700E4AFB791B09DBB213700D4B02221A700C4B01221A700C4B20221A7057
:404480000B4B40221A700B4B66221A7000BF0C37BD4680BC704700BFCF0100496E5800406F58004040580040A7430040C35A0040585B00407658004080B485B000AF0346B4
:4044C000FB71FB79012202FA03F3FB73FB79052B3BD8204B1A78FB7B1340DBB2002B34D11C4B1A78FB7B1343DAB21A4B1A70FB79194A52F82330FA79174951F82220117884
:40450000FA791648825C0A43D2B21A70FB79144AD35CBB73BB7B134AD35C002B0ED1BB7B114A52F82330BA7B0F4951F822201178BA7B0E48825C0A43D2B21A70BB7B094A5A
:40454000D25C0132D1B2074AD15400BF1437BD4680BC7047E88CFF1F30950100489501006C950100EC8CFF1F509501006495010080B485B000AF0346FB71FB79012202FAD3
:4045800003F3FB73FB79052B41D8234B1A78FB7B1340DBB2002B3AD0FB7BDB43DAB21E4B1B781340DAB21C4B1A70FB791B4A52F82330FA79194951F822201178FA79184831
:4045C000825CD243D2B20A40D2B21A70FB79154AD35CBB73BB7B144AD25C013AD1B2124AD154BB7B104AD35C002B10D1BB7B0F4A52F82330BA7B0D4951F822201178BA7BF0
:404600000B48825CD243D2B20A40D2B21A7000BF1437BD4680BC7047E88CFF1F30950100489501006C950100EC8CFF1F509501006495010080B483B000AF0346FB71FB796B
:40464000012B0ED8FB79094A52F82330FA79074951F822201178FA790548825C0A43D2B21A7000BF0C37BD4680BC7047749501007C95010080B483B000AF0346FB71FB79A1
:40468000012B10D8FB790A4A52F82330FA79084951F822201178FA790648825CD243D2B20A40D2B21A7000BF0C37BD4680BC7047749501007C95010080B586B000AF72B6C3
:4046C0000023FB7513E0FA7D13465B0013445B004D4A13443B613B691A683B699B889BB219461046FFF74CFDFB7D0133FB75FB7D072BE8D90023FB751CE0FA7D13469B001E
:4047000013445B00414A1344FB60FB681B68BB60FB685B687B60FB681A7A5B7A1B0213437B807B881A467968B868FFF737FDFB7D0133FB75FB7D022BDFD935494FF09040BA
:40474000FFF742FD334B0A221A70334B03221A80324A324B1B78DBB243F00203DBB213702F4A2F4B1B78DBB243F00203DBB213702C4A2C4B1B78DBB243F04003DBB2137044
:40478000294A294B1B78DBB243F01003DBB21370082226492648FFF701FD082225492648FFF7FCFC0A2225492548FFF7F7FC082224492548FFF7F2FC082224492448FFF7DC
:4047C000EDFC082223492448FFF7E8FC234A234B1B78DBB243F00803DBB21370204B61221A70FFF72BFD1E4B81221A701D4B01221A70FFF72BFE0E220A491B48FFF7CEFCA5
:4048000000BF1837BD4680BD80950100B09501009C00004883580040485800400350014013500140A0430040C2430040500B004802510040580B0048C2510040600B004868
:40484000F05100406C0B004812510040740B0048225100407C0B004832510040224300400048004004000840B043004080B500AF0AF042F803461B680C2B00D1FEE7FEE7E7
:4048800080B584B000AF7860104B1A687B6813441A460F4BD31AB3F5804F09DC0B4B1B68FB600A4B1A687B681344084A136007E00AF022F802460C2313604FF0FF33FB6033
:4048C000FB6818461037BD4680BD00BF7C81FF1F080E002080B586B000AF224B7B61224B3B61204B7B6135E03B691B68FB603B695B68BB603B699B683B6000237B600CE068
:40490000FB681A68BB681A60BB680433BB60FB680433FB607B6804337B607A683B689A42EED13B69DB683B6000237B6008E0BB6800221A60BB680433BB607B6804337B60E5
:404940007A683B689A42F2D13B6910333B617B69013B7B617B69002BC6D10AF0BFF8FFF727F8FEE701000000DC9C010080B582B000AF184B184A1A60184A184B1B6843F4F5
:404980000073136000237B600FE07B68032B04D8134A7B6852F8233000E0124B12497A6841F822307B6801337B607B682F2BECD90E4B1B78DAB20E4B1A700E4B0A4A1A60DF
:4049C000FFF77AFE0C4B00221A6000BF0837BD4680BD00BF0CED00E00004FA0514ED00E0000000006D4800000080FF1FBC760040C480FF1F08ED00E0C080FF1F80B584B0D9
:404A000000AF0346FB710023FB60234A224B1B78DBB243F00103DBB21370FB79002B36D01E4B1B78DBB203F00403FB721C4B1B78BB721C4B1B787B72182001F087F81023D5
:404A4000FB6010E0184B1B78DBB203F00103002B09D0154B1B78DBB203F00103002B02D00023FB6008E0012001F042F8034603F00103DBB2002BE5D0FB7A002B01D100F038
:404A80004BFB074ABB7A1370064A7B7A1370FB6818461037BD4680BD204200400043004080430040824300402542004080B400AF054A054B1B78DBB223F00103DBB21370FA
:404AC00000BFBD4680BC70472042004080B584B000AF0346FB711D4A1C4B1B78DBB243F01003DBB213701A4A194B1B78DBB243F01003DBB21370FB79002B23D0154B1B788B
:404B0000DBB203F00403FB73134B1B78BB73134B1B787B73002001F019F800BF012000F0E7FF034603F00103DBB2002BF6D0FB7B002B01D100F0F0FA074ABB7B1370074A44
:404B40007B7B137000BF1037BD4680BDA0430040B043004000430040804300408243004080B400AF094A094B1B78DBB223F01003DBB21370064A064B1B78DBB223F01003CE
:404B8000DBB2137000BFBD4680BC7047A0430040B043004080B483B000AF0023FB71124B1B78DBB203F00703002B06D10F4B1B78DBB203F00103002B0DD10B4B1B78DBB2C9
:404BC00003F00703012B08D1094B1B78DBB203F00103002B01D00123FB71FB7918460C37BD4680BC704700BF93430040A5430040B543004080B584B000AF0346FB71FFF7B9
:404C0000C9FF0346FB73FB7B012B07D1314A314B1B78DBB223F00203DBB21370FB79082B4FD801A252F823F04D4C0000594C0000654C0000714C00007D4C0000894C000024
:404C4000954C0000C34C0000A14C0000224B234A1278D2B21A7039E01F4B214A1278D2B21A7033E01C4B1F4A1278D2B21A702DE0194B1D4A1278D2B21A7027E0164B1B4AA7
:404C80001278D2B21A7021E0134B194A1278D2B21A701BE0104B174A1278D2B21A7015E00D4B154A1278D2B21A70FB7B012B0CD1084A084B1B78DBB243F00203DBB21370E3
:404CC00003E0002000F0B0FA00E000BF00BF1037BD4680BD09600040A146004008010049090100490A0100490B010049890100490C0100490D0100490F01004980B584B0D2
:404D000000AF0346FB71684B1B78DBB203F00703FB73FB79082B01D0FB7900E00323BB73FB7B062B25D801A252F823F0494D00004F4D0000554D00005B4D0000614D0000E3
:404D4000674D00006D4D00000223FB7315E00123FB7312E00323FB730FE00023FB730CE00423FB7309E00523FB7306E00623FB7303E0002000F058FA00BFBA7BFB7B9A429D
:404D800003D3FB791846FFF735FFFB79082B72D801A252F823F000BFBD4D0000D54D0000ED4D0000FF4D0000174E00002F4E0000474E0000774E00005F4E00003A4A3A4BCD
:404DC0001B78DBB223F04703DBB243F00303DBB2137054E0344A344B1B78DBB223F04703DBB243F00103DBB2137048E02E4A2E4B1B78DBB223F04703DBB213703FE02A4AA5
:404E0000294B1B78DBB223F04703DBB243F00203DBB2137033E0244A234B1B78DBB223F04703DBB243F00403DBB2137027E01E4A1D4B1B78DBB223F04703DBB243F005034D
:404E4000DBB213701BE0184A174B1B78DBB223F04703DBB243F00603DBB213700FE0124A114B1B78DBB223F04703DBB243F04203DBB2137003E0002000F0D6F900BFFB79DF
:404E8000082B02D100F058F801E000F065F8BA7BFB7B9A4203D2FB791846FFF7ABFE00BF1037BD4680BD00BF0042004080B582B000AF0346FB71FB79012B17D0022B02D0D9
:404EC000002B26D02EE04FF040224FF040231B78DBB223F04003DBB21370164A154B1B78DBB243F02003DBB213701FE04FF040224FF040231B78DBB243F04003DBB213708C
:404F00000C4A0C4B1B78DBB243F02003DBB213700CE0084A074B1B78DBB223F02003DBB2137003E0002000F07FF900BF00BF0837BD4680BD0042004080B400AF054A054BDC
:404F40001B78DBB243F01003DBB2137000BFBD4680BC70470042004080B400AF054A054B1B78DBB223F01003DBB2137000BFBD4680BC70470042004080B483B000AF034616
:404F8000FB710949084B1B78DBB223F00303DAB2FB7903F00303DBB21343DBB20B7000BF0C37BD4680BC70470540004080B483B000AF0346FB71044AFB79137000BF0C3734
:404FC000BD4680BC704700BF0440004080B483B000AF0346FB80154A144B1B78DBB223F00F03DBB21370124B00221A70114A114B1B78DBB263F07F03DBB213700E4BFA88EB
:40500000D2B21A700D4AFB881B0A9BB2DBB213700B4A0B4B1B78DBB243F00103DBB2137000BF0C37BD4680BC704700BF14400040104000400840004002400040034000408C
:405040000140004080B584B000AF0346FB8003F0A3FF0346FB73244B1B78DBB29BB21B02BB81224B1B78DBB29AB2BB891343BB81FB88002B02D0BB89002B29D11C4B1B78C0
:40508000FB72FB7A062B02D80720FFF78FFFFB88002B0CD1174A174B1B78DBB243F04003DBB21370FB881846FFF790FF0BE0FB881846FFF78BFF0F4A0E4B1B78DBB223F0CD
:4050C0004003DBB21370FB7A1846FFF76FFF03E0FB881846FFF77AFFFB7B184603F060FF00BF1037BD4680BD0740004006400040044000400840004080B400AF054A054BEC
:405100001B78DBB243F00403DBB2137000BFBD4680BC70470043004080B400AF054A054B1B78DBB223F00403DBB2137000BFBD4680BC70470043004080B586B000AF034666
:40514000FB7100237B61FB793B742B4A2A4B1B78DBB243F00103DBB21370FB79002B45D0264B1B78FB74264B1B78BB74254B1B787B74182000F0EAFC10237B6125E01E4B79
:405180001B780423FB730EE000BF012000F0B0FC034603F00103DBB2002BF6D0FB7BDBB2013BDBB2FB73FB7BDBB2002BECD1124B1B78DBB25BB2002B02DB00237B6108E001
:4051C0003B7CDBB2013BDBB23B743B7CDBB2002BD5D1FB7C03F00403002B01D1FFF79CFF074ABB7C1370074A7B7C13707B6918461837BD4680BD00BF104200400043004064
:40520000804300408243004080B400AF054A054B1B78DBB223F00103DBB2137000BFBD4680BC70471042004080B483B000AF0346FB7101BE00BF0C37BD4680BC704700BF15
:4052400080B582B000AF786008E00C4B1B68184603F09AFE7B68A3F500437B607B68B3F5004FF2D8064B1B687A6802FB03F3184603F08AFE00BF0837BD4680BD8C81FF1F6D
:405280008481FF1F80B582B000AF0346FB80FB88054A127802FB03F3184603F075FE00BF0837BD4680BD00BF8881FF1F80B584B000AF03463960FB710F4B1B68FB60FB79A8
:4052C0001F2B02D90020FFF7AFFFFB7903F01F0310339B00FA6813441B68BB60FB7903F01F0310339B00FA6813443A681A60BB6818461037BD4680BD08ED00E080B582B087
:4053000000AF03460A46FB711346BB71BB79072B02D90020FFF788FFFB791F2B02D90020FFF782FFFB7903F01F0303F1604303F56443BA795201D2B21A7000BF0837BD46D2
:4053400080BD00BF80B483B000AF7860264B1B78DBB21A467B681A60244B1B78DBB21B027A6812681A437B681A60214B1B78DBB21B047A6812681A437B681A601D4B1B7877
:40538000DBB21B067A6812681A437B681A607B680433194A1278D2B21A60184B1B78DBB21A027B6804337968043109680A431A60134B1B78DBB21A047B6804337968043151
:4053C00009680A431A600F4B1B78DBB21A067B6804337968043109680A431A6000BF0C37BD4680BC704700BF0301004904010049EC460040020100490101004900010049CE
:40540000050100490601004980B500AF924B1B78DBB203F00F03DAB2904B1A70904B1B78DAB28E4B5A708C4A8B4B1B78DBB223F00F03DBB213708A4B1B78894B00221A7070
:40544000884B1B78DBB223F03F03DAB2834B5A71372003F0A9FD844B1B78DBB203F00703DAB27E4BDA70804B1B78DBB203F04003DAB27A4B1A717C4B1B78DBB203F010035A
:40548000002B03D0754B01225A7202E0734B00225A72764B1B78DBB203F00303DAB26F4B9A706E4B9B78012B1CD14FF040231B78DBB203F00303012B08D0012B02D3022BB5
:4054C00008D00BE00020FFF757FD0BE00220FFF753FD07E00320FFF74FFD03E00020FFF7A3FE00BF624B1B78DBB203F00103002B05D05A4B01229A73FFF7D8FA02E0574BA2
:4055000000229A730420FFF7F9FB5A4B1B78DBB203F01003DBB2002B03D0504B01229A7108E04E4B00229A710020FFF7CFFA0620FFF7A8FE4C4B1B78DBB203F02003002BC8
:4055400010D04FF040231B78DBB203F04003002B01D1022200E00122404BDA710020FFF7A5FC02E03D4B0022DA714FF040231B78DBB203F03003DAB2384B1A72374B1B7A31
:40558000002B09D04FF040224FF040231B78DBB223F03003DBB21370334B1B78DBB203F01003002B01D0FFF7D7FC334B1B78DAB22A4B9A72294B9B7A002B02D00020FFF70B
:4055C000F5FC264B9B78002B02D00020FFF7D4FC2A4B1B78DBB29BB21B029AB21F4B9A81274B1B78D9B21D4B9A898BB213439AB21A4B9A81194B9B89002B02D00020FFF76E
:4056000021FD194B1B78DBB203F007031D4AD35C184603F0C9FC1C4B1B78DBB203F00103002B05D00D4B0122DA73FFF7EDFD02E00A4B0022DA73154B1B78DBB203F00403D9
:40564000002B03D0054B01221A7402E0034B00221A7400BF80BD00BFA1430040248DFF1FA243004000480040004200400540004020420040A0430040044000400740004019
:4056800006400040D0950100104200400B40004080B586B000AF10233B61AB4A3B1D106818609188927999809A71A84B1B7C012B17D1A74B1B78DBB203F00703A54AD35CA8
:4056C0001A4613469B0013441A01D31A184603F05BFCA14AA04B1B78DBB243F00403DBB213709A4BDB7B012B24D10020FFF724FD9A4B1B780523FB8219E0954B1B78DBB266
:4057000003F00703934AD35C1A46C82303FB02F3184603F039FC914B1B78DBB25BB2002B02DB00233B6105E0FB8A013BFB82FB8A002BE2D1372003F037FC844B9B78022BBA
:4057400003D0824B9B78032B10D1854B1B78DAB27E4B9B7A9A4204D07C4B9B7A1846FFF725FC7A4B9B781846FFF706FC774B1B7903F04003002B0CD0744BDB7807F11802B4
:40578000134413F8143C032B03D10820FFF7B6FA20E06E4BDB7807F11802134413F8143C1846FFF7ABFA694B1B7903F04003002B08D0674A664B1B78DBB243F04003DBB298
:4057C000137007E0624A624B1B78DBB223F04003DBB213705D4B9B79012B0AD1614B1B78DBB203F01003DBB2002B02D10020FFF76DF9564BDB791846FFF758FB534B5B7AB5
:40580000012B01D1FFF798FB504B1B7A1A464FF040231B78DBB203F030039A4210D04FF040214FF040231B78DBB25BB223F030035AB2464B1B7A5BB213435BB2DBB20B704E
:40584000424B9B7B012B26D110233B610020FFF7D5F85020FFF716FD434B1B78AB23FB8216E00120FFF70EFD3F4B1B78DBB203F00103002B09D03C4B1B78DBB203F0010370
:40588000002B02D000233B6105E0FB8A013BFB82FB8A002BE5D12D4B9B78002B03D02B4B9B78012B10D12E4B1B78DAB2274B9B7A9A4204D0254B9B7A1846FFF777FB234BFC
:4058C0009B781846FFF758FB204B9B79002B09D1244B1B78DBB203F01003DBB2002B01D0FFF73EF9214B1B78DBB29BB21B02FB811F4B1B78DBB29AB2FB891343FB81134B23
:405900009B89FA899A4204D0104B9B891846FFF799FB1849174B1B78DBB25BB203F03F035AB20A4B5B795BB213435BB2DBB20B70114B064A12781A70104B044A52781A701A
:4059400000BF1837BD4680BDD8950100248DFF1F00420040D09501000B4000401042004004400040A043004025420040074000400640004000480040A1430040A24300406B
:4059800080B584B000AF03460A46FB711346BB8003F002FB0346FB734E4B1B78DBB203F00803002B0BD14C4A4B4B1B78DBB203F01F03DBB21370FB79002B08D004E0FB7B8F
:4059C000184603F0EDFA81E00020FFF72DFC00F007F9424B1B78DAB2414B1A713F4ABB881B099BB2DBB213703E4B1B78DAB23C4B5A713C4ABB88DBB203F00F03DBB213706A
:405A0000394B1B78DAB2364B9A71374ABB881B0B9BB2DBB203F00103DBB21370334B1B78DBB203F00703002B04D12D4B012283F82E2014E02A4B002283F82E202B4B1B7810
:405A4000DBB203F00703DAB2254B83F82D20274A264B1B78DBB223F00703DBB213701D4A1C4B1B78DBB223F00703DBB243F00303DBB21370174B1B7800BF00BF30BF184B03
:405A800093F82E30012B0FD01849184B1B78DBB25BB223F007035AB2114B93F82D305BB213435BB2DBB20B7000F0DAF90B4B0C4A12791A700B4B0A4A52791A700A4B084AF2
:405AC00092791A70FB7B184603F06AFA1037BD4680BD00BF934300408346004098430040F48CFF1F994300409A4300400042004080B584B000AF0346FB7103F04DFA0346BD
:405B0000FB73104B1B78DAB20F4B1B781343DAB20D4B1A700C4B1B7803F00703BB73FB79DB43DAB2084B1B781340DAB2064B1A70FB7B184603F034FABB7B18461037BD4626
:405B400080BD00BF90430040368DFF1F80B582B000AF0346FB71204A1F4B1B78DBB223F00203DBB21370FFF7C7FA1B4B1B78DBB203F00103002B19D0184B1B78DBB2FA7910
:405B80009A4224D0144A144B1B78DBB223F00103DBB21370114AFB7913700F4A0E4B1B78DBB243F00103DBB2137010E00B4B1B78DBB2FA799A4202D0084AFB791370064A86
:405BC000054B1B78DBB243F00103DBB2137000BF0837BD4680BD00BF824300408043004080B400AF804B1B78DAB2804B9A72804B1B78DAB27D4BDA727E4B1B78DAB27B4B99
:405C00001A737D4B1B78DAB2784B5A737B4B1B78DAB2764B9A737A4B1B78DAB2734BDA73784B1B78DAB2714B1A74774B1B78DAB26E4B5A74754B1B78DAB26C4B9A74744BC7
:405C40001B78DAB2694BDA74724B1B78DAB2674B1A75714B1B78DAB2644B5A756F4B1B78DAB2624B9A756E4B1B78DAB25F4BDA756C4B1B78DAB25D4B1A766B4B1B78DAB244
:405C80005A4B5A76694B1B78DAB2584B9A76684B1B78DAB2554BDA76664B1B78DAB2534B1A77654B1B78DAB2504B5A77634B1B78DAB24E4B9A77624B1B78DAB24B4BDA77C3
:405CC000604B1B78DAB2494B83F820205E4B1B78DAB2464B83F821205C4B1B78DAB2434B83F822205A4B1B78DAB2404B83F82320584B1B78DAB23D4B83F82420564B1B781B
:405D0000DAB23A4B83F82520374B00221A70384B00221A70374B00221A70374B00221A70364B00221A70364B00221A70354B00221A70354B00221A70344B00221A70344B7D
:405D400000221A70334B00221A70334B00221A70324B00221A70324B00221A70314B00221A70314B00221A70304B00221A70304B00221A702F4B00221A702F4B00221A70E7
:405D80002E4B00221A702E4B00221A702D4B00221A702D4B00221A702C4B00221A702C4B00221A702B4B00221A702B4B00221A702A4B1B78DBB203F00803002B0CD00B4BD7
:405DC000012283F82F20254A244B1B78DBB223F00803DBB2137003E0044B002283F82F2000BFBD4680BC7047005A0040F48CFF1F025A0040035A0040045A0040065A004008
:405E0000085A00400A5A0040105A0040125A0040135A0040145A0040165A0040185A00401A5A0040205A0040225A0040235A0040245A0040265A0040285A00402A5A00401E
:405E4000305A0040325A0040335A0040345A0040365A0040385A00403A5A00402243004080B400AF434B444A927A1A70434B424AD27A1A70424B404A127B1A70414B3E4A0F
:405E8000527B1A70404B3C4A927B1A703F4B3A4AD27B1A703E4B384A127C1A703D4B364A527C1A703C4B344A927C1A703B4B324AD27C1A703A4B304A127D1A70394B2E4AF0
:405EC000527D1A70384B2C4A927D1A70374B2A4AD27D1A70364B284A127E1A70354B264A527E1A70344B244A927E1A70334B224AD27E1A70324B204A127F1A70314B1E4A60
:405F0000527F1A70304B1C4A927F1A702F4B1A4AD27F1A702E4B184A92F820201A702D4B154A92F821201A702B4B134A92F822201A702A4B104A92F823201A70284B0E4A5C
:405F400092F824201A70274B0B4A92F825201A70094B93F82F30012B07D1234A224B1B78DBB243F00803DBB2137000BFBD4680BC704700BF005A0040F48CFF1F025A0040D7
:405F8000035A0040045A0040065A0040085A00400A5A0040105A0040125A0040135A0040145A0040165A0040185A00401A5A0040205A0040225A0040235A0040245A004008
:405FC000265A0040285A00402A5A0040305A0040325A0040335A0040345A0040365A0040385A00403A5A00402243004080B582B000AF786000F03CF8786800F009F8072005
:4060000000F018F800F028F800BF0837BD4680BD80B485B000AF7860054B1B68FB60FB684C337A681A6000BF1437BD4680BC704708ED00E080B483B000AF0346FB71054AC7
:40604000FB795B01DBB2137000BF0C37BD4680BC704700BF03E400E080B400AF034B08221A6000BFBD4680BC704700BF00E100E080B400AF034B08221A6000BFBD4680BCE5
:40608000704700BF80E100E080B500AF064B1B78002B04D100F00AF8034B01221A7000F00FF800BF80BD00BF378DFF1F80B500AF0A2000F05BF800F03FF800BF80BD00BFAD
:4060C00080B582B000AF1A4B1B78DBB203F00203002B18D102F060FF0346FB71144A144B1B78DBB243F00203DBB21370114A114B1B78DBB243F00403DBB21370FB791846DB
:4061000002F04EFF0FE002F047FF0346FB71094A084B1B78DBB243F00403DBB21370FB79184602F03DFF00BF0837BD4680BD00BF004300408243004080B582B000AF02F0A7
:406140002BFF0346FB71084A074B1B78DBB243F00803DBB21370FB79184602F021FF00BF0837BD4680BD00BF8243004080B483B000AF0346FB710D4B1B78DBB203F004030B
:40618000002B0DD10A490A4B1B78DBB223F00F03DAB2FB7903F00F03DBB21343DBB20B7000BF0C37BD4680BC704700BF824300408143004080B500AF0220FFF799FC03465F
:4061C000184680BD80B485B000AF0346FB710A4B1B78DBB223F00103FB730749FB7903F00103DAB2FB7B1343DBB20B7000BF1437BD4680BC704700BF2051004080B400AFCF
:40620000044B1B78DBB203F00103DBB21846BD4680BC70472151004080B500AF064B1B78002B04D100F022F8034B01221A7000F033F800BF80BD00BF388DFF1F80B400AFFC
:40624000034B04221A6000BFBD4680BC704700BF00E100E080B400AF034B04221A6000BFBD4680BC704700BF80E100E080B500AF00F0B8F8064B04221A6006490220FFF799
:4062800015F807210220FFF739F800BF80BD00BF80E100E01968000080B582B000AF02F07BFE0346FB71094A084B1B78DBB243F03003DBB21370FB79184602F071FE044BEF
:4062C00004221A6000BF0837BD4680BD8243004000E100E080B400AF024B1846BD4680BC704700BF9081FF1F80B582B000AF7860FFF7B0FF7B681B78DAB2104B1A707B682B
:406300005B78DAB20D4B5A707B689B78DAB20B4B9A707B681B79DAB2084B1A717B681B7ADAB2064B1A727B685B899AB2034B5A81FFF784FF00BF0837BD4680BD9081FF1F16
:4063400080B483B000AF0346FB71044AFB79137000BF0C37BD4680BC704700BF3B8DFF1F90B482B000AF0346FB710B46BB711346BB80BB79022B02D8BB88013BBB80BA884E
:40638000BB889B089BB21846BB881349A1FB03135B099BB2C31AB9880F48A0FB0101C90989B20B441344BA79013A0C498A5C1146FA790A441A440A4BA2FB0334111B4908C0
:4063C0000B1999080B46DB005B1AD11ACBB218460837BD4690BC70471F85EB51EC9501002549922480B582B000AFA04B0022DA809E4B1B79D9B29D4BDB889AB28BB21344F6
:406400009AB29A4BDA80994B5B899BB2984AA2FB0312D2094FF4C87101FB02F29B1A9BB2002B15D0914B5B899BB203F003039BB2002B16D18D4B5B899BB28D4AA2FB0312D8
:406440005209642101FB02F29B1A9BB2002B08D0884B1B78DBB243F00203DAB2854B1A7007E0844B1B78DBB223F00203DAB2814B1A700023FB710DE07C4BDB889AB2FB7900
:406480007D49CB5C9BB213449AB2784BDA80FB790133FB71FA79754B1B7ADBB2013B9A42EAD3744B1B78DBB203F00203002B0BD06E4B1B7ADBB2022B06D96C4BDB889BB279
:4064C00001339AB2694BDA80684B1B79D8B2674B1B7AD9B2654B5B899BB21A46FFF740FF03460133DAB2614BDA70604BDB78DBB2002B05D05D4BDB78DAB25C4BDA7006E00D
:406500005A4BDB78DBB20733DAB2584BDA70574B9B78DBB20B2B08D8564B1B78DBB223F00403DAB2534B1A7007E0524B1B78DBB243F00403DAB24F4B1A70504B1B78DBB2F3
:4065400003F00103002B18D04D4B1B78DAB2474B1B78DBB29A4208D14A4B1B78DBB243F00103DAB2474B1A7007E0464B1B78DBB223F00103DAB2434B1A70404B1B78DBB261
:4065800003F00203002B18D03D4B5B78DAB2374B5B78DBB29A4208D13A4B1B78DBB243F00203DAB2374B1A7007E0364B1B78DBB223F00203DAB2334B1A70304B1B78DBB20E
:4065C00003F00403002B18D02D4B9B78DAB2274B9B78DBB29A4208D12A4B1B78DBB243F00403DAB2274B1A7007E0264B1B78DBB223F00403DAB2234B1A70204B1B78DBB2B8
:4066000003F00803002B18D01D4BDB78DAB2174BDB78DBB29A4208D11A4B1B78DBB243F00803DAB2174B1A7007E0164B1B78DBB223F00803DAB2134B1A70104B1B78DBB25B
:4066400003F02003002B27D00D4BDB889AB2074BDB889BB29A4217D10A4B1B78DBB243F02003DAB2074B1A7016E000BF9081FF1F1F85EB513C8DFF1FE0950100398DFF1FDD
:406680009C81FF1F3A8DFF1F424B1B78DBB223F02003DAB23F4B1A703F4B1B78DBB203F01003002B18D03D4B1B79DAB23C4B1B79DBB29A4208D1374B1B78DBB243F0100387
:4066C000DAB2344B1A7007E0324B1B78DBB223F01003DAB22F4B1A702F4B1B78DBB203F04003002B18D02D4B1B7ADAB22C4B1B7ADBB29A4208D1274B1B78DBB243F04003F9
:40670000DAB2244B1A7007E0224B1B78DBB223F04003DAB21F4B1A701F4B1B78DBB25BB2002B18DA1D4B5B899AB21D4B5B899BB29A4208D1174B1B78DBB263F07F03DAB20D
:40674000144B1A7007E0134B1B78DBB203F07F03DAB2104B1A70104B1B78BB71BB79002B13D00C4B1B78DAB2BB791340DBB2BA799A420AD10B4B1B78DBB243F00803DAB2D5
:40678000084B1A70034B00221A7000BF0837BD4680BD00BF3A8DFF1F398DFF1F9C81FF1F9081FF1F3C8DFF1F80B500AF0020FCF7ABFF00BF80BD00BF80B500AF0120FCF797
:4067C000A3FF00BF80BD00BF80B500AF0220FCF79BFF00BF80BD00BF80B500AF0320FCF793FF00BF80BD00BF80B500AF0420FCF78BFF00BF80BD00BF80B500AF0520FCF76B
:4068000083FF00BF80BD00BF80B500AF0620FCF77BFF00BF80BD00BF80B582B000AF0420FFF766F99E4B1B78DBB20133DAB29C4B1A709B4B1B78DBB23B2B40F2A682984B77
:406840005B78DBB20133DAB2954B5A70944B00221A70934B5B78DBB23B2B40F24682904B9B78DBB20133DAB28D4B9A708C4B00225A708B4B9B78DBB2172B40F2DD81884B2A
:406880001B79DBB20133DAB2854B1A71844B00229A70834BDB889BB201339AB2804BDA807F4BDB78DBB20133DAB27D4BDA707C4BDB78DBB2072B02D9794B0122DA70794B59
:4068C0001B78DBB203F00203002B11D0744B1B7ADBB2022B0CD1724B1B79DBB21946704B1B7ADBB2013B704AD35C013399422AD86C4B1B78DBB203F00203002B0FD0684BAD
:406900001B7ADBB2022B0AD0654B1B79DAB2644B1B7ADBB2013B6449CB5C9A4213D8614B1B78DBB203F00203002B40F0F4805C4B1B79DAB25A4B1B7ADBB2013B5A49CB5C8F
:406940009A4240F2E880564B1B7ADBB20133DAB2534B1A72524B01221A71514B1B7ADBB20C2B40F285804E4B5B899BB201339AB24B4B5A814A4B01221A72494B0122DA806D
:40698000474B5B899BB2494AA2FB0312D2094FF4C87101FB02F29B1A9BB2002B15D0404B5B899BB203F003039BB2002B16D13C4B5B899BB23D4AA2FB03125209642101FB95
:4069C00002F29B1A9BB2002B08D0364B1B78DBB243F00203DAB2334B1A7007E0314B1B78DBB223F00203DAB22E4B1A70304B1B78DBB25BB2002B18DA2E4B5B899AB2284B26
:406A00005B899BB29A4208D12B4B1B78DBB263F07F03DAB2284B1A7007E0274B1B78DBB203F07F03DAB2244B1A70214B1B78FB71FB79002B13D0204B1B78DAB2FB791340CB
:406A4000DBB2FA799A420AD1164B1B78DBB243F00803DAB2134B1A70174B00221A70174B1B78DBB203F04003002B01D0FFF7CCFE0F4B1B78DBB203F04003002B28D00D4B7F
:406A80001B7ADAB2064B1B7ADBB29A4218D10A4B1B78DBB243F04003DAB2074B1A7017E09081FF1F3C8DFF1FE09501001F85EB51398DFF1F9C81FF1F3A8DFF1F3B8DFF1FDD
:406AC000964B1B78DBB223F04003DAB2934B1A70934B1B78FB71FB79002B13D08F4B1B78DAB2FB791340DBB2FA799A420AD18D4B1B78DBB243F00803DAB28A4B1A70874B82
:406B000000221A70884B1B78DBB203F02003002B01D0FFF771FE824B1B78DBB203F00803002B18D0814BDB78DAB2814BDB78DBB29A4208D1794B1B78DBB243F00803DAB287
:406B4000764B1A7007E0754B1B78DBB223F00803DAB2724B1A70724B1B78DBB203F02003002B18D0714BDB889AB2714BDB889BB29A4208D1694B1B78DBB243F02003DAB2CA
:406B8000664B1A7007E0654B1B78DBB223F02003DAB2624B1A70624B1B78DBB203F01003002B18D0614B1B79DAB2614B1B79DBB29A4208D1594B1B78DBB243F01003DAB220
:406BC000564B1A7007E0554B1B78DBB223F01003DAB2524B1A70524B1B78FB71FB79002B13D04E4B1B78DAB2FB791340DBB2FA799A420AD14B4B1B78DBB243F00803DAB216
:406C0000484B1A70454B00221A70474B1B78DBB203F00803002B01D0FFF7DEFD444BDB78DBB2012B08D1404B1B78DBB203F01003002B01D0FFF7D8FD3D4B9B78DBB20B2B34
:406C400008D8384B1B78DBB223F00403DAB2354B1A7007E0334B1B78DBB243F00403DAB2304B1A702E4B1B78DBB203F00403002B18D02E4B9B78DAB22D4B9B78DBB29A42DF
:406C800008D1264B1B78DBB243F00403DAB2234B1A7007E0214B1B78DBB223F00403DAB21E4B1A701E4B1B78FB71FB79002B13D01A4B1B78DAB2FB791340DBB2FA799A428F
:406CC0000AD1184B1B78DBB243F00803DAB2154B1A70124B00221A70134B1B78DBB203F00403002B01D0FFF76FFD0D4B1B78DBB203F00203002B25D00C4B5B78DAB20C4B06
:406D00005B78DBB29A4215D1044B1B78DBB243F00203DAB2014B1A7014E000BF3A8DFF1F398DFF1F3C8DFF1F3B8DFF1F9C81FF1F9081FF1F384B1B78DBB223F00203DAB22E
:406D4000354B1A70354B1B78FB71FB79002B13D0314B1B78DAB2FB791340DBB2FA799A420AD12F4B1B78DBB243F00803DAB22C4B1A70294B00221A702A4B1B78DBB203F0E2
:406D80000203002B01D0FFF717FD244B1B78DBB203F00103002B18D0234B1B78DAB2234B1B78DBB29A4208D11B4B1B78DBB243F00103DAB2184B1A7007E0174B1B78DBB2C0
:406DC00023F00103DAB2144B1A70144B1B78FB71FB79002B13D0104B1B78DAB2FB791340DBB2FA799A420AD10D4B1B78DBB243F00803DAB20A4B1A70074B00221A70094BBC
:406E00001B78DBB203F00103002B01D0FFF7CCFC00BF0837BD4680BD3A8DFF1F398DFF1F3C8DFF1F3B8DFF1F9C81FF1F9081FF1F80B485B000AF0346FB710B4B1B78DBB200
:406E400023F00403FB730849FB799B00DBB203F00403DAB2FB7B1343DBB20B7000BF1437BD4680BC704700BF0051004080B485B000AF0346FB710B4B1B78DBB223F0080392
:406E8000FB730849FB79DB00DBB203F00803DAB2FB7B1343DBB20B7000BF1437BD4680BC704700BF0051004080B500AF064B1B78002B04D100F00AF8034B01221A7000F0E4
:406EC00015F800BF80BD00BF3D8DFF1F80B400AF044B72221A70044B20221A7000BFBD4680BC7047866400408665004080B582B000AF02F051F80346FB710C4A0B4B1B7828
:406F0000DBB243F02003DBB21370094A084B1B78DBB243F01003DBB21370FB79184602F03FF800BF0837BD4680BD00BF966400409665004080B582B000AF02F02DF803465F
:406F4000FB710C4A0B4B1B78DBB223F02003DBB21370094A084B1B78DBB223F01003DBB21370FB79184602F01BF800BF0837BD4680BD00BF966400409665004080B483B0E7
:406F800000AF0023FB710C4B1B78BB71BB7903F02003002B09D0094B1B78FB71BB7903F01E03002B01D00023FB71FB7918460C37BD4680BC704700BF66650040456400404B
:406FC00080B582B000AF01F0E7FF0346FB710C4A0B4B1B78DBB243F00103DBB21370084A074B1B78DBB223F00103DBB21370FB79184601F0D5FF00BF0837BD4680BD00BF5D
:407000009564004080B582B000AF786000F048F8786800F015F8072000F024F800F034F800BF0837BD4680BD80B500AF00F038F8024800F005F800BF80BD00BF6D480000E4
:4070400080B485B000AF7860054B1B68FB60FB6844337A681A6000BF1437BD4680BC704708ED00E080B483B000AF0346FB71054AFB795B01DBB2137000BF0C37BD4680BCAC
:40708000704700BF01E400E080B400AF034B02221A6000BFBD4680BC704700BF00E100E080B400AF034B02221A6000BFBD4680BC704700BF80E100E080B485B000AF0346AC
:4070C000FB710B4B1B78DBB223F01003FB730849FB791B01DBB203F01003DAB2FB7B1343DBB20B7000BF1437BD4680BC704700BFC051004080B500AF00F032F800BF80BD3C
:4071000080B500AF00F046F800BF80BD80B485B000AF0346FB710B4B1B78DBB223F02003FB730849FB795B01DBB203F02003DAB2FB7B1343DBB20B7000BF1437BD4680BCED
:40714000704700BF2051004080B400AF00BFBD4680BC704780B400AF00BFBD4680BC704780B500AF094B1B78DBB203F01003002B14BF01230023DBB21A46054B1A7001F05D
:40718000CFFFFFF7E1FF00BF80BD00BF92640040A881FF1F80B500AFFFF7DCFF02F044F8034B1B78002B01D001F076FF00BF80BDA881FF1F80B485B000AF0346FB710B4B67
:4071C0001B78DBB223F01003FB730849FB791B01DBB203F01003DAB2FB7B1343DBB20B7000BF1437BD4680BC704700BF3051004080B485B000AF0346FB710A4B1B78DBB245
:4072000023F00103FB730749FB7903F00103DAB2FB7B1343DBB20B7000BF1437BD4680BC704700BF3051004080B485B000AF0346FB710B4B1B78DBB223F02003FB730849F6
