:400000000080002011000000013D0000013D000080B500AF024A034B1B68136003F0A4FEBC760040FA46004010B5054C237833B9044B13B10448AFF300800123237010BDF6
:40004000208AFF1F0000000040620100084B10B51BB108490848AFF300800848036803B910BD074B002BFBD0BDE81040184700BF00000000248AFF1F40620100C880FF1FFA
:400080000000000080B500AF06F0A8F94FF48072002104480CF0CAFE034B00221A7000BF80BD00BF3C8AFF1F3D8BFF1F80B582B000AF06F071F90346FB71FB79002B09D03D
:4000C000114B1B785A1CD1B20F4A117019460F4AFB795354FB790D2B11D10D4B1A680D4B1B68194610460DF0C5FD02460A4B1A60054B1B781A46054B1344054A136000BF32
:400100000837BD4680BD00BF3D8BFF1F3C8AFF1FCC80FF1F448BFF1F408BFF1F80B582B000AF7860796803480DF088FB00BF0837BD4680BDECC4FF1F80B596B000AF31492D
:4001400031480DF097FD78657B6D002B01D0002353E02E492C480DF08DFD78657B6D002B4AD000F00BFC386538463B6D284A20210DF084F907F12003184600F05DF897F8AE
:400180003830002B2DD0B7F9363007F13C00214A14210DF073F907F13C031A461E49002000F038FB07F13C033A6D19461B4801F0BBFF3B461A461A491A4800F0F1F91A4AEC
:4001C0001749184800F0ECF907F13C031A461449144800F0E5F9154A1149124800F0E0F908E01349022000F015FB3A6D11490B4801F09AFF002300E0002318465837BD4616
:4002000080BD00BF50620100ECC4FF1F54620100586201005C6201006062010074620100846201008862010094620100A8620100AC620100D8620100B0B58AB000AF786032
:40024000002387F82130002387F82030FFF71AFF012006F03FF9C82004F03CFA022007F011FF06F02FF8384806F0DAF84FF4FA6004F030FA06F06CF806F0E4F8002006F09E
:4002800029F90C2007F0FEFE002007F0DDFE2F492F480DF0FFFD786233E00D21786A0DF087F90346002B27D0786A0CF0DFFB03467B847B8C002B1FD07B8C42F20F7293428C
:4002C00014D097F82030B7F922205B0007F128010B4423F8202C97F820300A2B15D897F820300133DBB287F8203005E097F821300133DBB287F82130144900200DF0CAFD10
:4003000078627B6A002BC8D100E000BF97F8202007F108031146184600F082F803461BB2FB837B681D4607F108040FCC28606960AA60EB6003CC2861696123882B837868F0
:400340002837BD46B0BD00BFAD000000DC6201003C8AFF1FB0B5EEB004AF3B1D186007F12403002283F8802007F124032A4A1C4615460FCD0FC42B68238007F108031846A7
:40038000FFF75AFF07F108031B7E1A4607F108035B7E134407F10802127E114607F10802B2F91620144607F1240202F181000294019100930B23194A4FF480710DF05EF834
:4003C00007F108031B7E0B2B05D107F12403012283F880200EE007F108031B7E002B09D007F108031B7E0A2B04D807F12403022283F880203B1D1A6807F1240310461946B1
:4004000040F281131A460CF09BFC3B1D186807F5D477BD46B0BD00BFE0620100F462010090B585B000AF78600B46FB700023FB81FB781BB21946786800F03AF8FB7803F0B8
:400440000103DBB2002B25D1FB78013BDA0F13445B105B007A681344B3F900301946FB785B08DBB25B007A681344B3F900300B4418460BF099FC4FF000024FF080430BF053
:4004800023FE03460C46184621460BF0A3FF0346FB8107E0FB785B08DBB25B007A6813441B88FB81FB8918461437BD4690BD00BF80B584B000AF78600B467B800023FB8145
:4004C00037E00023BB8124E0B7F90C305B007A681344B3F90020B7F90C3001335B0079680B44B3F900309A420DDDB7F90C305B007A68D018B7F90C3001335B007A68134424
:40050000194600F021F8B7F90C309BB201339BB2BB81B7F90C20B7F90210B7F90E30CB1A013B9A42D0DBB7F90E309BB201339BB2FB81B7F90E20B7F90230013B9A42C0DB7E
:4005400000BF1037BD4680BD80B485B000AF786039607B681B88FB813B68B3F900207B681A803B68FA891A8000BF1437BD4680BC704700BF80B584B000AF78600923FB73B5
:4005800000F078F8786808F0D9FA0346DBB20133FB7300F07BF8FB7B18461037BD4680BD80B586B000AFF860B9607A600923FB7500F060F8B968F86808F0AAFA38613B6957
:4005C000002B08D108F0D8F808F050F9B968F86808F09EFA38613B69002B10D078680DF08BF903461A467968386908F03FFC386908F0C8F90346DBB2C3F10103FB7500F08E
:4006000045F8FB7D18461837BD4680BD80B586B000AFF860B9607A600923FB7500F02AF81349F86808F074FA38613B69002B08D108F0A2F808F01AF90D49F86808F068FAF5
:4006400038613B69002B0CD07A68B968386908F0E6FA386908F096F90346DBB2C3F10103FB7500F013F8FB7D18461837BD4680BD2C63010080B500AF05F050FF012005F066
:4006800053FF08F0F3F800BF80BD00BF80B500AF002005F049FF05F03BFF08F06DF8002005F0B4FF002005F093FF002005F0CCFF002005F0E7FF00BF80BD00BFF0B5EBB038
:4006C00000AF3B1D186007F124033D4A1C4613460FCB07C4237007F12403002283F8802007F11803374A07CA03C31A8007F10C03354A07CA03C31A7007F10C031846FFF7BF
:4007000039FF07F10C03314A31491846FFF748FF07F1180107F10C030A221846FFF776FF07F10C031846FFF725FF03461A4607F1240383F8802007F1240393F88030012BF5
:4007400014D107F124038133224A1D4614460FCC28606960AA60EB6007CC28616961AA612388A278AB831346AB7717E007F124038133194A14469E4604F1200C75462646C5
:400780000FCE28606960AA60EB6010340EF1100E6445F3D17346224612781A703B1D1A6807F124031046194640F281131A460CF0C7FA3B1D186807F5D677BD46F0BD00BF92
:4007C0003063010094630100A0630100406301004C630100506301007063010080B500AF06F0EEFF00BF80BD80B500AF07F048F8034603F00203002B02D1012003F06AFFF3
:4008000007F0B4F800BF80BD80B500AF07F0C8F800BF80BD0EB480B5ADF6140D00AF0246FB1D1A70FB1D1B78022B07D0FB1D1B78012B03D0FB1D1B78032B1DD1294800F0AD
:40084000C9F800F09BF803461946274800F0C2F8FB1D1B78022B03D1244800F0BBF820E0FB1D1B78012B03D1214800F0B3F818E0204800F0AFF814E0FB1D1B78002B29D14E
:400880001D4B1B79002B25D0164800F0A3F800F075F803461946144800F09CF8174800F099F807F5026207F10C031A6007F10C0307F110001B68D7F81C284FF4006110F044
:4008C000A5F907F11003184607F000F80C4800F081F800E000BF07F61407BD46BDE8804003B07047AC630100B0630100C0630100DC630100F8630100549DFF1F1464010050
:400900003064010084B080B500AF07F1080E8EE80F00134800F05EF800F030F803461946104800F057F8104800F054F807F108010E4800F04FF897F8883019460C4800F073
:4009400049F807F1890319460A4800F043F80A4800F040F800BFBD46BDE8804004B07047AC630100B0630100386401004864010058640100686401007864010080B58CB084
:4009800000AF04F0F1FEF862FB6A1B78DBB27B60FB6A5B78DBB2BB60FB6A9B78DBB2FB60FB6A5B899BB2A3F26C73BB61FB6A1B7ADBB27B61FB6A1B79DBB23B6100237B6200
:4009C0003B1D18460CF084FBB862BB6A18463037BD4680BD0FB480B5ADF6080D00AF07F61403C7F80438381DD7F80438D7F810284FF4006110F00AF93B1D184606F066FFF5
:400A000000BF07F60807BD46BDE8804004B07047B0B598B000AF7860012006F0B9FC012007F04EFB0A2003F055FE06F083FC06F05BFC05F09DFF002387F85F3034E097F820
:400A40005F30184606F090FC0023A7F85C300FE0B7F85C4006F01CFC0246A30007F160010B4443F8582CB7F85C300133A7F85C30B7F85C300A2BEBD997F85F4007F1080320
:400A80000B21184600F0DCF90346184606F0E0F80246A30007F160010B4443F82C2C97F85F30013387F85F3097F85F30042BC6D906F040FC06F008FC05F072FF002006F058
:400AC00067FC002007F0FCFA7B6B18460BF07EF919A3D3E900230BF019F803460C46184621460BF09FFC0346BB65BB6B144918460BF0F6FD0346B96D18460BF0E7FC034607
:400B00007B64FB6BB96D18460BF0E0FC0346BB643B6C3B65012387F854307B681D4607F144040FCC0FC523682B6078686037BD46B0BD00BFAFF30080FCA9F1D24D62F03FE6
:400B4000000030410000000090B597B000AF786006F0F0FB06F0C8FB05F00AFF032006F003FC0023A7F856300FE0B7F8564006F08FFB0246A30007F158010B4443F8502C03
:400B8000B7F856300133A7F85630B7F856300A2BEBD907F108030B21184600F051F90346184606F055F80346BB64BB6C484918460BF096FD034618460AF02CF80346444921
:400BC00018460BF041FE0346BB64012007F078FA0A2003F07FFD0023A7F854300FE0B7F8544006F055FB0246A30007F158010B4443F8502CB7F854300133A7F85430B7F899
:400C000054300A2BEBD907F108030B21184600F017F90346184606F01BF803467B6406F089FB06F051FB05F0BBFE002007F048FA7B6C18460BF0CAF821A3D3E900230BF06F
:400C400043FA03460C46184621464FF00002214B0BF010F903460C46184621460BF0E2FB0346FB647B6C18460BF0B0F84FF00002194B0BF0FFF803460C461846214612A3B2
:400C8000D3E900230BF020FA03460C46184621464FF00002114B0AF039FF03460C46184621460BF0BFFB03463B657B681C4607F144030FCB84E80F0078685C37BD4690BD77
:400CC0000000000000C0624033333333333303400000C84200408F40000024400000044084B090B587B000AF786007F12C0080E80E00BB6B18460BF069F823A3D3E9002306
:400D00000BF0E2F903460C46184621464FF00002214B0BF0D9F903460C46184621460BF081FB03463B61BB6B18460BF04FF84FF000021A4B0BF09EF803460C4618462146EA
:400D400013A3D3E900230BF0BFF903460C46184621464FF00002124B0AF0D8FE03460C46184621460BF05EFB03467B617B681C4607F108030FCB84E80F0078681C37BD46B1
:400D8000BDE8904004B070470000000000C06240333333333333034000408F40000024400000044080B584B000AF786039600023FB6028E00023BB601BE0BB689B007A68DD
:400DC00013441A68BB6801339B0079680B441B689A420BDDBB689B007A68D018BB6801339B007A681344194600F016F8BB680133BB603A68FB68D31A5A1EBB689A42DCDC0E
:400E0000FB680133FB603B685A1EFB689A42D1DC00BF1037BD4680BD80B485B000AF786039607B681B68FB603B681A687B681A603B68FA681A6000BF1437BD4680BC704728
:400E400090B585B000AF786039600023FB6039687868FFF7A7FF3B6803F00103002B23D13B68013BDA0F13445B109B007A6813441A683B68D90F0B445B109B0079680B4494
:400E80001B68134418460AF08FFF4FF000024FF080430BF019F903460C46184621460BF099FA0346FB6008E03B68DA0F13445B109B007A6813441B68FB60FB68184614379C
:400EC000BD4690BD2DE9B043EEB006AF3B1D186007F11C03002283F8802007F11C03264A1C4615460FCD0FC495E8030020600434217007F108031846FFF78AFD07F1080385
:400F00001B6818460AF062FF04460D4607F108035B6818460AF05AFF8046894607F108039B6818460AF052FF02460B4607F11C0101F18100CDE90423CDE90289CDE90045E3
:400F40000E4A4FF480710CF099FA07F11C03012283F880203B1D1A6807F11C031046194640F281131A460BF0EBFE3B1D186807F5D077BD46BDE8B0837C6401009464010081
:400F80002DE9B043EEB006AF3B1D186007F11C03002283F8802007F11C03374A1C4615460FCD0FC495E8030020600434217007F10C031846FFF7C8FD07F10C031B681846DC
:400FC0000AF004FF04460D4607F10C039B6818460AF0FCFE8046894607F10C03DB6818460AF0F4FE02460B4607F11C0101F18100CDE90423CDE90289CDE900451F4A4FF4EC
:4010000080710CF03BFA07F10C031B681C4918460BF066FB0346184609F0FCFD0346184918460BF011FC03461A4607F10C031A6007F10C035A6807F10C031B68194610460A
:401040000BF0E2FC0346002B04D107F11C03012283F880203B1D1A6807F11C031046194640F281131A460BF06BFE3B1D186807F5D077BD46BDE8B083B4640100CC64010089
:401080000000C84298B500AF12E00D4BB3F900301C4606F0B3FD03461A460A4B1A55084BB3F900309BB201339BB21AB2044B1A8006F0C6FD0346012BE7D000BF98BD00BF25
:4010C000488BFF1F5C08002080B500AF00F032F8154B00221A70154B002283F82820134B00221A75114B00221A70114B00221A600F4B00225A600E4B00229A600C4B0022F9
:40110000DA600B4B00221A61094B00225A61084B0022DA61064B00229A610021402006F027FF00BF80BD00BF32080020C4EDFF1F3408002080B500AF002006F04BFF0C20E6
:4011400006F0F8FE002006F08DFC002006F0D4FE002006F025FF002006F066FC002006F09FFC00BF80BD00BF80B500AF022006F0E1FE012006F02EFF012006F073FC6420B5
:4011800003F0A8FA00BF80BD80B500AF41F288320A490B4800F0A8F800F084F84FF47A7003F098FA06F0FAFC06F02AFEFFF7C2FF044B00221A7000BF80BD00BFFC640100A1
:4011C000006501003208002080B582B000AFFFF7CBFF06F081FC2C4806F000FE00F062F80023FB7100233B71FFF7C8FB38600023BB711CE000237B710EE04FF47A722349A2
:40120000234800F071F80346002B02D00123FB7105E07B7901337B717B79132BEDD9FB79012B08D000F03EF8BB790133BB71BB79022BDFD900E000BFFFF7A0FB02463B68BD
:40124000D31A3B603A6813490020FFF7E3FAFB79012B0AD13B791A460F490020FFF7DAFA0E4B01221A70012309E00D490220FFF7D1FA0A4B00221A70FFF786FF00231846DB
:401280000837BD4680BD00BF85100000FC6401000C6501001465010028650100320800205C65010080B500AF012006F0BDFB4FF4FA6003F00FFA002006F0B6FB00BF80BD55
:4012C00080B500AF064B00221A804FF48062002104480BF0ABFD06F0C9FC00BF80BD00BF488BFF1F5C08002080B58AB000AFF860B9607A6000237B6200237B6246E00A2321
:40130000FB617A68FB69B2FBF3F3BB61FFF7D8FFF86806F0E7FC7B68002B06D1FA681F490020FFF777FA012334E000233B6220E0F86903F0CFF9B96819480CF09BFC78611E
:401340007B69002B12D07B6A002B06D1144BFA6814490020FFF75EFA06E07B6A5A1C104B11490120FFF756FA012313E03B6A01333B623A6ABB699A42DAD3094BFA680B49C4
:401380000220FFF747FA7B6A01337B627B6A022BB5D9002318462837BD4680BD746501005C080020A0650100F065010028660100B0B5E6B000AF3B1D186007F10C03002232
:4013C00083F8802007F10C03364A07CA03C31A800233120C1A7007F10C038133324A1C4615460FCD20606160A260E36028682061AB88AA79A3821346A3750023C7F8943143
:401400003AE000F091F800F061FE0346002B02D1FFF7DAFE27E000F059FE0346042B22D100F0B2FDC7F89001D7F89031002B03D0D7F8900102F0B4F807F10C0381331B4A61
:401440001D4614460FCC28606960AA60EB6007CC28616961AA6107F10C03012283F88020FFF792FE0CE04FF47A7003F033F9D7F894310133C7F89431D7F894313B2BC0DD17
:401480003B1D1A6807F10C031046194640F281131A460BF055FC3B1D186807F5CC77BD46B0BD00BF58660100646601007C66010080B586B000AFF860B9607A603B60B96850
:4014C000F8680CF0D7FB78617B69002B01D1FB687B61B8680CF010FA02467B6913447B61796878690CF0C6FB38613B69002B06D1F8680CF001FA0246FB6813443B613A69EA
:401500007B69D31A1A46796938680CF023FA3A697B69D31A1A463B68134400221A70012318461837BD4680BD80B582B000AF534B1B78012B0BD1FFF721FA0246504B1A6097
:4015400000F06EFC4D4B02221A70012392E04B4B1B78022B5FD10023FB712BE000F01CF9484B5B7883F00103DBB2002B07D0464B5B691A2B03DD444B5B69FF2B1ED1414B32
:401580005B78002B0FD0404B9B68242B03DD3E4B9B68FF2B13D13C4B5B691A2B03DD3A4B5B69FF2B0BD14FF47A7003F093F8FB790133FB71FB791D2BD0D900E000BF00F085
:4015C0006DF80346002B13D0FFF7D8F902462C4B1B68D31A2C4A93612B4B9B691A462B490020FFF717F900F0B5F8244B03221A70FFF7C4F90246224B1B68D31AB42B08DD04
:401600001E4B00221A70FFF7BFFD21490220FFF701F900232EE0194B1B78032B29D100F0A7F80346002B11D0144B04221A70FFF7A5F90246124B1B68D31A134AD361124B8D
:40164000DB691A4613490020FFF7E4F8FFF796F902460B4B1B68D31AE62B08DD074B00221A70FFF791FD0C490220FFF7D3F8002300E0002318460837BD4680BD32080020D8
:4016800058080020549DFF1F3408002098660100C0660100E46601000467010080B584B000AF20490020FFF7B5F84FF4FA621E491E48FFF719FE0346FB731D490020FFF772
:4016C000A9F81C4A1C490020FFF7A4F8FB7B002B23D000233B713B1D184A19491548FFF7E7FE3B1D1A4617490020FFF793F816490020FFF78FF83B1D144918460CF0BAFA9D
:401700000346002B07D13B1D114918460CF0B2FA0346002B01D0012300E0002318461037BD4680BD2C670100FC640100406701004C6701005C0800206867010084670100C3
:40174000886701008C670100AC670100CC670100D067010080B500AF4FF47A7202490348FFF7C2FD00BF80BDFC640100D467010080B500AF4FF4FA6205490648FFF7B4FD48
:401780000346002B01D0012300E00023184680BDE4670100E867010080B586B004AF154BFF225A60134BFF22DA60124BFF229A60104BFF225A610F4BFF221A610D4BFF2256
:4017C0001A604FF4FA620C490C48FFF78DFD0C4B03930C4B02930C4B01930C4B00930C4B044A0C490C480BF095FE786000BF0837BD4680BD34080020FC640100F4670100EE
:401800004808002044080020400800203C08002038080020006801005C08002080B400AF0D4B00221A700C4B01225A700A4B01229A70094B0122DA70074B01221A71064BF4
:4018400078225A71044B78229A71034B7822DA7100BFBD4680BC7047549DFF1F90B5ADF5317D00AF002387F8203207F5DE7300221A7007F5AC7300221A7007F19003002273
:401880001A70002387F8B432002387F8A832002387F89C32002387F89032002387F8843207F52D73A14AA249A248FFF701FE07F52A739E4AA0499F48FFF7FAFD07F5277349
:4018C0009A4A9E499B48FFF7F3FD07F52473974A9B499848FFF7ECFD07F52173934A99499448FFF7E5FD984992480CF0C3F90346002B42D007F190038C4A93498D48FFF739
:40190000D7FD07F19003914918460CF0B3F90346002B03D08E4B01221A7006E08C4B1B78002B02D08A4B00221A7007F19003894918460CF09FF90346002B03D0864B012243
:401940001A7006E0844B1B78002B02D0824B00221A7007F19003814918460CF08BF90346002B03D07E4B01221A7006E07C4B1B78002B02D07A4B00221A7007F508736B4A55
:4019800078496C48FFF794FD07F50873184600F001FE07F5DE73654A73496648FFF788FD07F5DE731846FEF7B9FB07F5AC735F4A6E496048FFF77CFD07F5AC73184600F037
:4019C0002FFE07F18C0207F52D73694918460BF0A1FD0346012B0ED107F18C031B68DAB2644B1A7007F18C031B681A4662490020FEF710FF03E061490220FEF70BFF07F1ED
:401A0000880207F52A735A4918460BF083FD0346012B12D107F188031B68002B14BF01230023DAB2534B5A7007F188031B681A4653490020FEF7EEFE03E052490220FEF7D8
:401A4000E9FE07F1840207F52773494918460BF061FD0346012B1DD107F184031B68DAB2444B9A70434B9B7899B2474C38460723012201F02DF93A46234611681960928842
:401A80009A8007F184031B681A4640490020FEF7C1FE03E03E490220FEF7BCFE07F1800207F52473324918460BF034FD0346012B1DD107F180031B68DAB22E4BDA702D4BD8
:401AC000DB7899B2334C38460723012201F000F93A4623461168196092889A8007F180031B681A462C490020FEF794FE03E02B490220FEF78FFE07F17C0207F521731C4925
:401B000018460BF007FD0346012B4BD107F17C031B68DAB2174B1A7107F17C031B681A461F490020FEF776FE40E000BF84670100206801005C0800202C68010038680100EB
:401B40004868010058680100686801007868010044EDFF1F88680100E6C4FF1F9068010055080020A4680100B0680100C0680100D4680100549DFF1FD8680100F46801008A
:401B8000106901002C690100E0C4FF1F486901006C690100C49DFF1F9C690100C4690100F469010089490220FEF734FE884B1B78042B40F00681FEF7E1FE024607F19003AC
:401BC0001946844800F0B0FA07F10C0300221A70814B1B78002B4ED007F508737F4918460CF048F80346002B41D007F10C0300221A7007F5087207F10C03114618460BF087
:401C00001DFE07F5087307F10C00754A7349FFF74FFC07F1780207F50873724918460BF079FC0346012B1DD107F178031B68DAB2674B5A71664B5B7999B26B4C384607234F
:401C4000012201F045F83A4623461168196092889A8007F178031B681A4664490020FEF7D9FD08E062490220FEF7D4FD03E061490220FEF7CFFD604B1B78002B4ED007F5A8
:401C8000DE73564918460BF0F5FF0346002B41D007F10C0300221A7007F5DE7207F10C03114618460BF0CAFD07F5DE7307F10C004B4A4A49FFF7FCFB07F1740207F5DE73C4
:401CC000484918460BF026FC0346012B1DD107F174031B68DAB23E4B9A713D4B9B7999B2464C38460723012200F0F2FF3A4623461168196092889A8007F178031B681A46D9
:401D00003F490020FEF786FD08E03E490220FEF781FD03E03C490220FEF77CFD3B4B1B78002B4ED007F5AC732C4918460BF0A2FF0346002B41D007F10C0300221A7007F567
:401D4000AC7207F10C03114618460BF077FD07F5AC7307F10C00224A2049FFF7A9FB07F1700207F5AC731F4918460BF0D3FB0346012B1DD107F170031B68DAB2144BDA71F1
:401D8000134BDB7999B2224C38460723012200F09FFF3A4623461168196092889A8007F178031B681A461B490020FEF733FD08E019490220FEF72EFD03E018490220FEF76A
:401DC00029FD00BF07F53177BD4690BD206A0100549DFF1F506A0100E6C4FF1F606A010084670100D4680100B4EDFF1F686A01008C6A0100BC6A010044EDFF1FBCEDFF1F33
:401E0000E46A01000C6B0100406B010055080020ACEDFF1F6C6B0100A06B0100E06B010080B584B000AF454B1B7D002B13D14FF4FA6243494348FFF757FA0346002B0AD031
:401E4000414B424A42494348FFF732FB3E4A42490020FEF7DFFC394B1B78002B13D14FF4FA6237493D48FFF73FFA0346002B0AD0324B364A36493748FFF71AFB2F4A3849C7
:401E80000020FEF7C7FC2D4B93F82830002B13D14FF4FA622A493348FFF726FA0346002B0AD0314B294A2A492A48FFF701FB2E4A2E490020FEF7AEFC2D4B5B7883F00103B9
:401EC000DBB2002B06D04FF4FA621D492948FFF70BFA09E0264B5B78002B05D04FF4FA6217492548FFF700FA4FF4FA6214492348FFF7FAF90346002B1BD000233B713B1D84
:401F0000124A13491348FFF7D3FA3B1D1A461C490020FEF77FFC3B1D312118460BF048FB0346002B05D14FF4FA6205491548FFF7DBF900BF1037BD4680BD00BFC4EDFF1FA6
:401F4000FC640100186C0100D8EDFF1F84670100886701005C080020246C0100346C0100406C01004C6C0100ECEDFF1F586C0100549DFF1F646C0100906C0100AC6C0100EE
:401F8000B86C0100C46C010080B5A0B006AF444B1B78042B05D043490220FEF73BFC00237AE000237B664FF4FA623F493F48FFF79BF90346002B6ED0002387F8443007F118
:401FC00044033B4A3B493C48FFF772FA0023BB6207F13C0107F1400207F1440007F12803049307F12C03039307F13003029307F13403019307F1380300930B462F490BF03C
:4020000089FA0346072B06D1BB6A4FF4617202FB03F3BB6227E007F13C0107F1400207F1440007F12803049307F12C03039307F13003029307F13403019307F1380300930E
:402040000B461F490BF066FA0346072B05D1BB6A1C4A02FB03F3BB6205E01B490220FEF7D9FB002318E0FB6A7B603B6BBB607B6BFB603B6C6433BB61FB6B013B7B61BB6BD1
:402080003B6100237B623B1D18460BF021F80246BB6A13447B667B6E18466837BD4680BD32080020D06C0100FC640100086D0100146D0100186D01005C0800201C6D01006B
:4020C000346D01007CFCFFFF4C6D010080B400AF024B1B781846BD4680BC70473208002080B500AFFFF7F2FF0346002B03D005F09FFF05F047FE00BF80BD00BF80B500AF1F
:40210000FFF7E4FF0346002B0BD005F097FF05F053FEFFF7DBFF0346032B02D1642002F0D9FA00BF80BD00BF80B584B000AFF860B9607A60234B1B881A462C2303FB02F372
:40214000214A9818FB68214A14210BF097F91D4B1B881A462C2303FB02F310331A4A1344181DBB68194A14210BF088F9154B1B881946154A2C2303FB01F3134428337A6809
:402180001A60104B1B8801339AB20E4B1A80104B1B8801339AB20E4B1A800A4B1B88952B0BD9084B00221A800A4B01221A700A490220FEF72FFB002300E0012318461037B6
:4021C000BD4680BDE8C4FF1F68EEFF1F786E0100EAC4FF1F310800207C6E010080B483B000AF1CE0FB88164A2C2101FB03F3134400221A70FB88124A2C2101FB03F31344BE
:40220000143300221A70FB880D4A2C2101FB03F31344283300221A60FB880133FB80FB88952BDFD9074B00221A80074B00221A80064B00221A7000BF0C37BD4680BC704706
:4022400068EEFF1FE8C4FF1FEAC4FF1F3108002080B400AF024B1B881846BD4680BC7047EAC4FF1F80B400AF024B1B881846BD4680BC7047E8C4FF1F80B58CB008AFF86097
:40228000B9607A603B60FB6A01933B680093FB692A4A42F21071F8680BF0F0F8284B07933B6A0693274B0593254B0493BB690393254B02937B680193244B0093FB68244A2C
:4022C00042F21071F8680BF0D9F87B6A002B0CD07B6A1B78002B08D07B6A0093FB681D4A42F21071F8680BF0C9F81B49F8690BF0C7F90346002B13D0B8680BF0FDFA024652
:40230000BB6A1344154A03920293154B0193154B0093FB68144A42F21071F8680BF0AEF8BB680093FB68114A42F21071F8680BF0A5F800BF1037BD4680BD00BFB46E0100F1
:40234000DC6E0100E06E0100F06E0100F46E0100C86E0100FC6E0100046F0100146F01001C6F0100306F0100086F01004C6F010090B589B004AF78607B6800221A70334BF1
:402380001B7883F00103DBB2002B2DD00023FB8122E0FB892C2202FB03F32D4A1344FA892C2101FB02F2103229490A440432F98927482C2404FB01F101442831096802915E
:4023C000019200937B68234A42F2107178680BF055F8FB890133FB81FFF744FF03461A46FB899342D5D328E00023BB8122E0BB892C2202FB03F3164A1344BA892C2101FB42
:4024000002F2103212490A440432B98910482C2404FB01F10144283109680291019200937B680C4A42F2107178680BF027F8BB890133BB81BB89952BD9D978680BF05CFA61
:40244000B860BB6818461437BD4690BD3108002068EEFF1F546F010080B588B004AFF860B9607A603B60FB6800221A703B6802937B680193BB680093FB68044AC821F86823
:402480000AF0FCFF00BF1037BD4680BD746F0100B0B58CB000AF03F0FBF8034687F82F3097F82F3007F124010A2218460AF014FCFEF764FA024607F1240319462C48FFF77E
:4024C00033FE00233B713B1D18460BF015FA03461A463B1D1344274A1C4615460FCD20606160A260E36007F124023B1D114618460BF03EF83B1D19460020FEF78BF91E4921
:402500001E480BF0B7FBB862BB6A002B11D0012003F0A2F8194B00221A70FEF72FFA03461A4617491248FFF7FFFD16490020FEF771F9154911480BF09DFBB862BB6A002B7A
:4025400011D0002003F088F80C4B00221A70FEF715FA03461A460D490548FFF7E5FD0C490020FEF757F9002318463037BD46B0BD846F0100946F0100A46F01005C9DFF1F87
:40258000A86F0100AC6F0100D86F0100DC6F0100E06F010080B582B000AF7860796803480BF04CF900BF0837BD4680BD5C9DFF1F80B582B000AF05F00BFE0346FB71FB7917
:4025C000002B09D0114B1B785A1CD1B20F4A117019460F4AFB795354FB790D2B11D10D4B1A680D4B1B68194610460BF043FB02460A4B1A60054B1B781A46054B1344054AC1
:40260000136000BF0837BD4680BD00BF4D8CFF1F4C8BFF1FD080FF1F548CFF1F508CFF1F80B582B000AF7860796803480BF006F900BF0837BD4680BD48EDFF1F80B596B0B8
:4026400000AF314931480BF015FB78657B6D002B01D0002353E02E492C480BF00BFB78657B6D002B4AD0FEF789F9386538463B6D284A20210AF002FF07F12003184600F04F
:402680005DF897F83830002B2DD0B7F9363007F13C00214A14210AF0F1FE07F13C031A461E490020FEF7B6F807F13C033A6D19461B48FFF739FD3B461A461A491A48FDF7AC
:4026C0006FFF1A4A17491848FDF76AFF07F13C031A4614491448FDF763FF154A11491248FDF75EFF08E013490220FEF793F83A6D11490B48FFF718FD002300E00023184618
:402700005837BD4680BD00BF0C70010048EDFF1F1070010014700100187001001C7001003C700100587001005C70010068700100887001008C700100C4700100B0B58AB039
:4027400000AF7860002387F82130002387F82030FDF798FC012005F0EFFDC82001F0BAFF022005F071FD05F0C9FC384805F08AFD4FF4FA6001F0AEFF05F006FD05F094FDDD
:40278000002005F0D9FD0C2005F05EFD002005F041FD2F492F480BF07DFB786233E00D21786A0AF005FF0346002B27D0786A0AF05DF903467B847B8C002B1FD07B8C42F2C1
:4027C0000F72934214D097F82030B7F922205B0007F128010B4423F8202C97F820300A2B15D897F820300133DBB287F8203005E097F821300133DBB287F821301449002059
:402800000BF048FB78627B6A002BC8D100E000BF97F8202007F1080311461846FDF700FE03461BB2FB837B681D4607F108040FCC28606960AA60EB6003CC28616961238893
:402840002B8378682837BD46B0BD00BFB1250000C87001004C8BFF1FB0B5EEB004AF3B1D186007F12403002283F8802007F124032B4A1C4615460FCD0FC495E80F0007C4FF
:40288000237007F108031846FFF758FF07F108031B7E1A4607F108035B7E134407F10802127E114607F10802B2F91620144607F1240202F181000294019100930B23194AA4
:4028C0004FF480710AF0DAFD07F108031B7E0B2B05D107F12403012283F880200EE007F108031B7E002B09D007F108031B7E0A2B04D807F12403022283F880203B1D1A685B
:4029000007F124031046194640F281131A460AF017FA3B1D186807F5D477BD46B0BD00BFCC700100EC70010080B500AF02F08CFE00BF80BDB0B588B002AF4C4802F0A0FDDD
:4029400002F0ECFDFF2002F045FF02F0AFFEFDF745FFFEF7B9FBFEF761FF07F10C03184601F03AFFFA683B6900931346404A182140480AF083FD404B404A1A60404A414B67
:4029800014461D460FCD0FC40FCD0FC40FCD0FC42B681A46228002341B0C2370384B41F288325A66384B9B7899B2384C38460723012200F08DF922463B46196811609B88F4
:4029C0009380334B01221A702F4BDB7899B2314C38460723012200F07BF922463B46196811609B8893802C4B01221A702B4B00221A70254B5B7999B2294C384607230122AF
:402A000000F066F922463B46196811609B889380244B01221A701C4B9B7999B2224C38460723012200F054F922463B46196811609B8893801D4B01221A70134BDB7999B2BB
:402A40001B4C38460723012200F042F922463B46196811609B889380164B01221A700023FB7500BF1837BD46B0BD00BF292900001C71010054C5FF1F50C5FF1FC4EDFF1FF1
:402A800000EEFF1F24710100549DFF1FE0C4FF1F54080020C49DFF1FDCC4FF1FCA9DFF1FB4EDFF1F30080020BCEDFF1FC3EDFF1FACEDFF1FC09DFF1F80B582B000AF2B4BFB
:402AC0001B78002B06D000F0FBFB03461A46274B1A7038E0264B1B78002B06D000F012FC03461A46224B1A702DE0224B1B78042B29D1214B1B78002B09D0204B1B78002B9A
:402B000005D0FFF7C5FC03461A461C4B1A701C4B1B78002B09D01B4B1B78002B05D0FDF70BFB03461A46174B1A70174B1B78002B09D0164B1B78002B05D0FFF77FFD034641
:402B40001A46124B1A70124B1B78002B05D000F089F903461A460E4B1A70FEF7E5FC0346FB71FB7918460837BD4680BDCA9DFF1F54080020549DFF1FE6C4FF1F3008002014
:402B800044EDFF1FC3EDFF1F55080020C09DFF1FDCC4FF1F80B500AFFFF7A2FAFDF724FE01F07CFE4FF40061002002F033F901F0B9FFFDF729FEFFF7A1FA00BF80BD00BF59
:402BC00080B582B000AF0346FB71FB7919461C4800F04AF80346002B02D01A4B01221A70FB791946184800F03FF80346002B02D0164B01221A70FB791946154800F034F84F
:402C00000346002B02D0134B01221A70FB791946114800F029F80346002B02D00F4B01221A70FB7919460E4800F01EF80346002B02D00C4B01221A7000BF0837BD4680BD02
:402C4000E0C4FF1F54080020C49DFF1FDCC4FF1FB4EDFF1F30080020BCEDFF1FC3EDFF1FACEDFF1FC09DFF1F80B582B000AF78600B46FB707B681B79DBB2FA789A4212D11C
:402C80007B685B881BB29BB2013B9BB21AB27B685A807B685B881BB2002B04DC786800F007F8012300E0002318460837BD4680BD80B483B000AF78607B681B889BB21AB224
:402CC0007B685A8000BF0C37BD4680BC704700BF80B485B000AF7860084611461A4603467B800B467B7013463B707B883B817B783B733B787B73B7F902307B817B681A46C5
:402D000007F10803186810609B88938078681437BD4680BC704700BF90B5ADF6942D5EAF42490320FDF776FD07F294731846FDF711FB07F29474684604F1100340F27112F5
:402D4000194609F0FDFF94E80F00FDF7DBFD07F5C2631846FFF780FD07F5C264684604F1100340F27112194609F0EAFF94E80F00FDF7C8FD07F28C431846FEF7A3F807F2F5
:402D80008C44684604F1100340F27112194609F0D7FF94E80F00FDF7B5FD07F542731846FEF7EEF807F54274684604F1100340F27112194609F0C4FF94E80F00FDF7A2FD39
:402DC00007F5C2731846FDF779FC07F5C274684604F1100340F27112194609F0B1FF94E80F00FDF78FFD3B461846FEF7E1FA104B0093104B104A11490320FDF70BFD3C46DE
:402E0000684604F1100340F27112194609F098FF94E80F00FDF776FD09490320FDF7FAFC00BF07F61C17BD4690BD00BF5871010054C5FF1FC4EDFF1FECEDFF1F847101002C
:402E4000A471010080B500AF62B6FFF773FDFFF763FFFFF731FE0346002BFAD1FFF79AFEF7E700BF90B5ADF26C5D06AF012002F0F3FB642001F02EFC002002F0EDFBFFF701
:402E8000F1F90346002B01D1002303E2FFF71EF90346002B11D1AE4B1B780133DAB2AC4B1A70AB4B1B78022B02D8FEF78DF9F0E1A74B00221A700023ECE1FFF707F9034601
:402EC000042B40F0E681A3490020FDF7A3FCA24B00221A70A14B00221A70A14B00221A70A04B5B6907F5A5609F4A14210AF0C6FAFDF744FD024607F5A56319469B48FFF763
:402F000013F9984B9B6807F21450974A14210AF0B5FAFDF733FD024607F2145319469448FFF702F98A4B1B7807F5A0608E4A14210AF0A4FAFDF722FD024607F5A0631946C9
:402F40008C48FFF7F1F88C4B1B7883F00103DBB2002B16D0FFF786F90346A7F84835B7F8483507F59B60804A14210AF087FAFDF705FD024607F59B6319468048FFF7D4F887
:402F80000FE007F2C4409623774A14210AF076FAFDF7F4FC024607F2C44319467748FFF7C3F8FFF755F90346A7F84635B7F84635013B07F2EC406C4A14210AF05FFAFDF7AD
:402FC000DDFC024607F2EC4319466D48FFF7ACF86C490020FDF71EFC6B4B6C4A6C496048FFF73AFA5E4A6B490020FDF713FC5B48FFF7BEF9684B5B6E684A059200220492B8
:40300000674A0392674A0292674A01920093544B614A52495048FFF72FF94F4A63490020FDF7F8FB002387F845355B4B5A6E381D594B009313465E4AC8210AF01FFA3B1DDC
:403040001A465C490020FDF7E5FB3B1D42F2107259491846FEF748F9034687F845353E4BC7F84C353C480AF047FC0246534BA3FB02235B09184608F087FE4FF00002504B83
:4030800007F046FD03460C461846214607F0B8FC03460C461846214609F09CF9034687F844352D480AF028FC03461A4645490020FDF7B0FB97F944351A4643490020FDF70A
:4030C000A9FB002387F84B359AE04FF47A723F493F48FEF709F9034687F8453507F1CC00D7F84C35334A4FF4FA710AF0C7F907F1CC0318460AF000FC03461A4607F1CC0395
:40310000134434491A460B461B88138097F94B2507F1CC0330490020FDF77CFB97F94B355A1C97F944359A4258D007F1CC0341F2883221491846FEF7D7F8034687F84535F4
:40314000D7F84C3503F2F313C7F84C3551E000BF5C0C0020D0710100CC9DFF1F6CC5FF1F7CECFF1F34080020E0710100E4710100EC710100F471010031080020007201001A
:40318000107201002472010038720100ECEDFF1F647201007472010000EEFF1F84720100887201008C720100947201009C720100B4720100D0720100D4720100D34D62103F
:4031C00000407F40D8720100F07201000473010008730100187301001C73010007F1CC0341F288322E491846FEF77EF8034687F8453597F94B35DBB20133DBB287F84B357F
:4032000097F94B2597F944359A42FFF65EAF41F2883224492448FEF767F8034687F8453597F84535012B1DD1FEF718FBFEF7D6FFFDF7A4FB02461D4B1B68D31AC7F840356F
:4032400007F59760D7F84035194A0A210AF016F9FDF794FB024607F5976319461548FEF763FF03E014490220FDF7D4FAFEF78CFEC7F83C05D7F83C35002B03D0D7F83C05BB
:4032800000F08EF9FDF780FF0C4B00221A70002300E00123184607F25457BD4690BD00BF2C730100347301003C73010058080020E071010050730100607301005C0C0020FF
:4032C00080B582B000AFFEF701FF0346002B02D1FDF77AFF11E0FEF7F9FE0346042B0CD1FEF752FE78607B68002B02D0786800F057F9FDF749FF002300E0012318460837C0
:40330000BD4680BD90B5A3B002AFFDF737FBF86707F15C00FB6F8C4A20210AF0AFF88B4B1B78184607F140030A22194609F0D4FCFDF724FB024607F1400319468448FEF7FD
:40334000F3FE824B1B78002B3BD107F110031846FCF772FF97F82830002B2ED0B7F9263007F148007B4A14210AF088F807F148031A4679490020FDF74DFA07F14803FA6FC2
:4033800019467648FEF7D0FE07F15C031A4674497448FDF705F9744A71497248FDF700F907F148031A466E496E48FDF7F9F86F4A6B496C48FDF7F4F803E06D490220FDF747
:4033C00029FA07F12C031846FDF722FB97F83C30002B00F0AF80FB6A184608F0F7FC03460C4607F14800CDE90034624A14210AF045F807F148031A465F490020FDF70AFAE1
:4034000007F14803FA6F19465C48FEF78DFE574A53495448FDF7C4F807F15C031A4650495048FDF7BDF8564A4D494E48FDF7B8F807F148031A464A494A48FDF7B1F8434BE0
:403440001B78012B7AD13C466A4607F1380393E8030082E8030007F12C030ECB2046FDF73FFCBB68184608F0B1FC03460C4607F14800CDE900343F4A142109F0FFFF07F1C5
:4034800048031A463F490020FDF7C4F907F14803FA6F19463C48FEF747FE344A30493148FDF77EF807F15C031A462D492D48FDF777F8364A2A492B48FDF772F807F1480359
:4034C0001A4627492748FDF76BF8FB68184608F07DFC03460C4607F14800CDE90034254A142109F0CBFF07F148031A4628490020FDF790F907F14803FA6F19462548FEF7BA
:4035000013FE1A4A16491748FDF74AF807F15C031A4613491348FDF743F81F4A10491148FDF73EF807F148031A460D490D48FDF737F803E019490220FDF76CF9002318468E
:403540008437BD4690BD00BF8C730100549DFF1F90730100E0710100A4730100B8730100C8730100D480FF1FCC730100E0730100E473010010740100187401002474010093
:403580002C74010034740100487401005C740100707401008474010094740100A874010080B586B000AF78607B68002B05DC18490220FDF72FF9002325E03B1D184609F0D8
:4035C0005FFA78617B691B68DBB23B727B695B68DBB27B727B699B68DBB2BB727B695B699BB203F26C739BB27B827B691B69DBB23B747B69DB68DBB23B7307F108031846BC
:4036000002F0BCF8012318461837BD4680BD00BFD074010080B582B000AF786039603A680021786809F002FC00BF0837BD4680BD80B584B000AFF860B9607A607A68B9680A
:40364000F86809F07DFB00BF1037BD4680BD00BF80B483B000AF0346FB71FEE780B487B000AF7860396000233B6100237B6127E07B699B007A6813441B68BB60BB68FB738D
:40368000BB6823F0FF03BB6014E03B695B003A6813441B781A46BB68134419463B695B003A6813445B780B703B6901333B61FB7B013BFB73FB7B002BE7D17B6901337B61D8
:4036C0007B69262BD4D900BF1C37BD4680BC704780B582B000AF604B1B78BB705F4B00221A805F4B58221A705E4B00221A805E4B50221A705D4B19221A805D4B19221A7059
:403700005C4B19221A805C4B19221A705B4B4FF49C721A805A4B18221A705A4B4FF49C721A80594B18221A70042258495848FFF77FFF584B02221A704FF0402308221A702D
:40374000554BF3221A70444B03221A70534B84221A70534B05221A70524B7B6006E04FF4F07004F005FE7B68013B7B607B68002B06D04B4B1B78DBB203F02003002BEED024
:40378000354ABB781370484B02221A70474B484A1278D2B21A70474B4FF4E1621A80464B41F251221A800023FB7019237B6014E0FB785B00DAB2414B1B78DBB203F00103BE
:4037C000DBB21343DBB203F00303FB704FF4F07004F0CEFD7B68013B7B607B68002B02D0FB78032BE4D17B68002B02D10320FFF72FFF334B4FF480721A80314B07221A70BF
:40380000304B00221A70304B48221A702C4B00221A702E4B02221A702D4B04221A702D4A2C4B1B78DBB243F03F03DBB213702A4A294B1B78DBB243F00103DBB21370274A2D
:40384000264B1B78DBB263F07F03DBB2137000BF0837BD4680BD00BF9846004080400040824000408440004086400040884000408A4000408C4000408E400040904000406F
:40388000924000409440004096400040940B004800410040004300400A4300400943004008430040A086010000420040A14600400B0100492242004020420040254200402B
:4038C000044000400640004008400040014000400B400040A2430040A1430040A043004080B483B000AF114B1B78FB71104AFB7903F00703DBB213700E4AFB791B09DBB2F5
:4039000013700D4B02221A700C4B01221A700C4B20221A700B4B40221A700B4B66221A7000BF0C37BD4680BC704700BFCF0100496E5800406F58004040580040A74300404E
:40394000C35A0040585B00407658004080B485B000AF0346FB71FB79012202FA03F3FB73FB79032B3BD8204B1A78FB7B1340DBB2002B34D11C4B1A78FB7B1343DAB21A4B37
:403980001A70FB79194A52F82330FA79174951F822201178FA791648825C0A43D2B21A70FB79144AD35CBB73BB7B134AD35C002B0ED1BB7B114A52F82330BA7B0F4951F819
:4039C00022201178BA7B0E48825C0A43D2B21A70BB7B094AD25C0132D1B2074AD15400BF1437BD4680BC7047588CFF1FF8740100087501001C7501005C8CFF1F0C7501004E
:403A00001875010080B485B000AF0346FB71FB79012202FA03F3FB73FB79032B41D8234B1A78FB7B1340DBB2002B3AD0FB7BDB43DAB21E4B1B781340DAB21C4B1A70FB798E
:403A40001B4A52F82330FA79194951F822201178FA791848825CD243D2B20A40D2B21A70FB79154AD35CBB73BB7B144AD25C013AD1B2124AD154BB7B104AD35C002B10D1BD
:403A8000BB7B0F4A52F82330BA7B0D4951F822201178BA7B0B48825CD243D2B20A40D2B21A7000BF1437BD4680BC7047588CFF1FF8740100087501001C7501005C8CFF1F5F
:403AC0000C7501001875010080B483B000AF0346FB71FB79012B0ED8FB79094A52F82330FA79074951F822201178FA790548825C0A43D2B21A7000BF0C37BD4680BC704739
:403B0000207501002875010080B483B000AF0346FB71FB79012B10D8FB790A4A52F82330FA79084951F822201178FA790648825CD243D2B20A40D2B21A7000BF0C37BD462C
:403B400080BC7047207501002875010080B586B000AF72B60023FB7513E0FA7D13465B0013445B004D4A13443B613B691A683B699B889BB219461046FFF74CFDFB7D013315
:403B8000FB75FB7D062BE8D90023FB751CE0FA7D13469B0013445B00414A1344FB60FB681B68BB60FB685B687B60FB681A7A5B7A1B0213437B807B881A467968B868FFF7AC
:403BC00037FDFB7D0133FB75FB7D002BDFD035494FF09040FFF742FD334B0A221A70334B03221A80324A324B1B78DBB243F00203DBB213702F4A2F4B1B78DBB243F0020344
:403C0000DBB213702C4A2C4B1B78DBB243F04003DBB21370294A294B1B78DBB243F01003DBB21370082226492648FFF701FD082225492648FFF7FCFC0A2225492548FFF798
:403C4000F7FC082224492548FFF7F2FC082224492448FFF7EDFC082223492448FFF7E8FC234A234B1B78DBB243F00803DBB21370204B61221A70FFF72BFD1E4B81221A7036
:403C80001D4B01221A70FFF72BFE0E220A491B48FFF7CEFC00BF1837BD4680BD2C750100587501009C00004883580040485800400350014013500140A0430040C2430040ED
:403CC000600B004802510040680B0048C2510040700B0048F05100407C0B004812510040840B0048225100408C0B004832510040224300400048004004000840B0430040E2
:403D000080B500AF08F0B6FE03461B680C2B00D1FEE7FEE780B584B000AF7860104B1A687B6813441A460F4BD31AB3F5804F09DC0B4B1B68FB600A4B1A687B681344084AB4
:403D4000136007E008F096FE02460C2313604FF0FF33FB60FB6818461037BD4680BD00BFF480FF1FF00C002080B586B000AF224B7B61224B3B61204B7B6135E03B691B6803
:403D8000FB603B695B68BB603B699B683B6000237B600CE0FB681A68BB681A60BB680433BB60FB680433FB607B6804337B607A683B689A42EED13B69DB683B6000237B6079
:403DC00008E0BB6800221A60BB680433BB607B6804337B607A683B689A42F2D13B6910333B617B69013B7B617B69002BC6D108F033FFFFF727F8FEE701000000547C010073
:403E000080B582B000AF184B184A1A60184A184B1B6843F40073136000237B600FE07B68032B04D8134A7B6852F8233000E0124B12497A6841F822307B6801337B607B6837
:403E40002F2BECD90E4B1B78DAB20E4B1A700E4B0A4A1A60FFF77AFE0C4B00221A6000BF0837BD4680BD00BF0CED00E00004FA0514ED00E000000000013D00000080FF1FAA
:403E8000BC760040C480FF1F08ED00E0C080FF1F80B584B000AF0346FB710023FB60234A224B1B78DBB243F00103DBB21370FB79002B36D01E4B1B78DBB203F00403FB72DA
:403EC0001C4B1B78BB721C4B1B787B72182001F087F81023FB6010E0184B1B78DBB203F00103002B09D0154B1B78DBB203F00103002B02D00023FB6008E0012001F042F8EA
:403F0000034603F00103DBB2002BE5D0FB7A002B01D100F04BFB074ABB7A1370064A7B7A1370FB6818461037BD4680BD20420040004300408043004082430040254200403F
:403F400080B400AF054A054B1B78DBB223F00103DBB2137000BFBD4680BC70472042004080B584B000AF0346FB711D4A1C4B1B78DBB243F01003DBB213701A4A194B1B78B5
:403F8000DBB243F01003DBB21370FB79002B23D0154B1B78DBB203F00403FB73134B1B78BB73134B1B787B73002001F019F800BF012000F0E7FF034603F00103DBB2002BD6
:403FC000F6D0FB7B002B01D100F0F0FA074ABB7B1370074A7B7B137000BF1037BD4680BDA0430040B043004000430040804300408243004080B400AF094A094B1B78DBB209
:4040000023F01003DBB21370064A064B1B78DBB223F01003DBB2137000BFBD4680BC7047A0430040B043004080B483B000AF0023FB71124B1B78DBB203F00703002B06D127
:404040000F4B1B78DBB203F00103002B0DD10B4B1B78DBB203F00703012B08D1094B1B78DBB203F00103002B01D00123FB71FB7918460C37BD4680BC704700BF9343004077
:40408000A5430040B543004080B584B000AF0346FB71FFF7C9FF0346FB73FB7B012B07D1314A314B1B78DBB223F00203DBB21370FB79082B4FD801A252F823F0E1400000B6
:4040C000ED400000F940000005410000114100001D410000294100005741000035410000224B234A1278D2B21A7039E01F4B214A1278D2B21A7033E01C4B1F4A1278D2B203
:404100001A702DE0194B1D4A1278D2B21A7027E0164B1B4A1278D2B21A7021E0134B194A1278D2B21A701BE0104B174A1278D2B21A7015E00D4B154A1278D2B21A70FB7BBD
:40414000012B0CD1084A084B1B78DBB243F00203DBB2137003E0002000F0B0FA00E000BF00BF1037BD4680BD09600040A146004008010049090100490A0100490B01004989
:40418000890100490C0100490D0100490F01004980B584B000AF0346FB71684B1B78DBB203F00703FB73FB79082B01D0FB7900E00323BB73FB7B062B25D801A252F823F057
:4041C000DD410000E3410000E9410000EF410000F5410000FB410000014200000223FB7315E00123FB7312E00323FB730FE00023FB730CE00423FB7309E00523FB7306E068
:404200000623FB7303E0002000F058FA00BFBA7BFB7B9A4203D3FB791846FFF735FFFB79082B72D801A252F823F000BF51420000694200008142000093420000AB42000017
:40424000C3420000DB4200000B430000F34200003A4A3A4B1B78DBB223F04703DBB243F00303DBB2137054E0344A344B1B78DBB223F04703DBB243F00103DBB2137048E093
:404280002E4A2E4B1B78DBB223F04703DBB213703FE02A4A294B1B78DBB223F04703DBB243F00203DBB2137033E0244A234B1B78DBB223F04703DBB243F00403DBB21370E4
:4042C00027E01E4A1D4B1B78DBB223F04703DBB243F00503DBB213701BE0184A174B1B78DBB223F04703DBB243F00603DBB213700FE0124A114B1B78DBB223F04703DBB2CC
:4043000043F04203DBB2137003E0002000F0D6F900BFFB79082B02D100F058F801E000F065F8BA7BFB7B9A4203D2FB791846FFF7ABFE00BF1037BD4680BD00BF0042004038
:4043400080B582B000AF0346FB71FB79012B17D0022B02D0002B26D02EE04FF040224FF040231B78DBB223F04003DBB21370164A154B1B78DBB243F02003DBB213701FE0AF
:404380004FF040224FF040231B78DBB243F04003DBB213700C4A0C4B1B78DBB243F02003DBB213700CE0084A074B1B78DBB223F02003DBB2137003E0002000F07FF900BFC1
:4043C00000BF0837BD4680BD0042004080B400AF054A054B1B78DBB243F01003DBB2137000BFBD4680BC70470042004080B400AF054A054B1B78DBB223F01003DBB21370F6
:4044000000BFBD4680BC70470042004080B483B000AF0346FB710949084B1B78DBB223F00303DAB2FB7903F00303DBB21343DBB20B7000BF0C37BD4680BC7047054000403B
:4044400080B483B000AF0346FB71044AFB79137000BF0C37BD4680BC704700BF0440004080B483B000AF0346FB80154A144B1B78DBB223F00F03DBB21370124B00221A70FB
:40448000114A114B1B78DBB263F07F03DBB213700E4BFA88D2B21A700D4AFB881B0A9BB2DBB213700B4A0B4B1B78DBB243F00103DBB2137000BF0C37BD4680BC704700BF32
:4044C00014400040104000400840004002400040034000400140004080B584B000AF0346FB8003F04DFF0346FB73244B1B78DBB29BB21B02BB81224B1B78DBB29AB2BB8966
:404500001343BB81FB88002B02D0BB89002B29D11C4B1B78FB72FB7A062B02D80720FFF78FFFFB88002B0CD1174A174B1B78DBB243F04003DBB21370FB881846FFF790FF14
:404540000BE0FB881846FFF78BFF0F4A0E4B1B78DBB223F04003DBB21370FB7A1846FFF76FFF03E0FB881846FFF77AFFFB7B184603F00AFF00BF1037BD4680BD07400040B0
:4045800006400040044000400840004080B400AF054A054B1B78DBB243F00403DBB2137000BFBD4680BC70470043004080B400AF054A054B1B78DBB223F00403DBB2137079
:4045C00000BFBD4680BC70470043004080B586B000AF0346FB7100237B61FB793B742B4A2A4B1B78DBB243F00103DBB21370FB79002B45D0264B1B78FB74264B1B78BB74E7
:40460000254B1B787B74182000F0EAFC10237B6125E01E4B1B780423FB730EE000BF012000F0B0FC034603F00103DBB2002BF6D0FB7BDBB2013BDBB2FB73FB7BDBB2002B45
:40464000ECD1124B1B78DBB25BB2002B02DB00237B6108E03B7CDBB2013BDBB23B743B7CDBB2002BD5D1FB7C03F00403002B01D1FFF79CFF074ABB7C1370074A7B7C13705E
:404680007B6918461837BD4680BD00BF1042004000430040804300408243004080B400AF054A054B1B78DBB223F00103DBB2137000BFBD4680BC70471042004080B483B0D6
:4046C00000AF0346FB7101BE00BF0C37BD4680BC704700BF80B582B000AF786008E00C4B1B68184603F044FE7B68A3F500437B607B68B3F5004FF2D8064B1B687A6802FBAD
:4047000003F3184603F034FE00BF0837BD4680BD0481FF1FFC80FF1F80B582B000AF0346FB80FB88054A127802FB03F3184603F01FFE00BF0837BD4680BD00BF0081FF1F52
:4047400080B584B000AF03463960FB710F4B1B68FB60FB791F2B02D90020FFF7AFFFFB7903F01F0310339B00FA6813441B68BB60FB7903F01F0310339B00FA6813443A68BE
:404780001A60BB6818461037BD4680BD08ED00E080B582B000AF03460A46FB711346BB71BB79072B02D90020FFF788FFFB791F2B02D90020FFF782FFFB7903F01F0303F177
:4047C000604303F56443BA795201D2B21A7000BF0837BD4680BD00BF80B483B000AF7860264B1B78DBB21A467B681A60244B1B78DBB21B027A6812681A437B681A60214B7C
:404800001B78DBB21B047A6812681A437B681A601D4B1B78DBB21B067A6812681A437B681A607B680433194A1278D2B21A60184B1B78DBB21A027B6804337968043109681F
:404840000A431A60134B1B78DBB21A047B6804337968043109680A431A600F4B1B78DBB21A067B6804337968043109680A431A6000BF0C37BD4680BC704700BF0301004967
:4048800004010049EC460040020100490101004900010049050100490601004980B500AF924B1B78DBB203F00F03DAB2904B1A70904B1B78DAB28E4B5A708C4A8B4B1B7805
:4048C000DBB223F00F03DBB213708A4B1B78894B00221A70884B1B78DBB223F03F03DAB2834B5A71372003F053FD844B1B78DBB203F00703DAB27E4BDA70804B1B78DBB291
:4049000003F04003DAB27A4B1A717C4B1B78DBB203F01003002B03D0754B01225A7202E0734B00225A72764B1B78DBB203F00303DAB26F4B9A706E4B9B78012B1CD14FF0EF
:4049400040231B78DBB203F00303012B08D0012B02D3022B08D00BE00020FFF757FD0BE00220FFF753FD07E00320FFF74FFD03E00020FFF7A3FE00BF624B1B78DBB203F0A4
:404980000103002B05D05A4B01229A73FFF7D8FA02E0574B00229A730420FFF7F9FB5A4B1B78DBB203F01003DBB2002B03D0504B01229A7108E04E4B00229A710020FFF7B2
:4049C000CFFA0620FFF7A8FE4C4B1B78DBB203F02003002B10D04FF040231B78DBB203F04003002B01D1022200E00122404BDA710020FFF7A5FC02E03D4B0022DA714FF095
:404A000040231B78DBB203F03003DAB2384B1A72374B1B7A002B09D04FF040224FF040231B78DBB223F03003DBB21370334B1B78DBB203F01003002B01D0FFF7D7FC334B77
:404A40001B78DAB22A4B9A72294B9B7A002B02D00020FFF7F5FC264B9B78002B02D00020FFF7D4FC2A4B1B78DBB29BB21B029AB21F4B9A81274B1B78D9B21D4B9A898BB27A
:404A800013439AB21A4B9A81194B9B89002B02D00020FFF721FD194B1B78DBB203F007031D4AD35C184603F073FC1C4B1B78DBB203F00103002B05D00D4B0122DA73FFF708
:404AC000EDFD02E00A4B0022DA73154B1B78DBB203F00403002B03D0054B01221A7402E0034B00221A7400BF80BD00BFA1430040908CFF1FA2430040004800400042004085
:404B00000540004020420040A043004004400040074000400640004064750100104200400B40004080B586B000AF10233B61AB4A3B1D106818609188927999809A71A84B42
:404B40001B7C012B17D1A74B1B78DBB203F00703A54AD35C1A4613469B0013441A01D31A184603F005FCA14AA04B1B78DBB243F00403DBB213709A4BDB7B012B24D100209C
:404B8000FFF724FD9A4B1B780523FB8219E0954B1B78DBB203F00703934AD35C1A46C82303FB02F3184603F0E3FB914B1B78DBB25BB2002B02DB00233B6105E0FB8A013BDC
:404BC000FB82FB8A002BE2D1372003F0E1FB844B9B78022B03D0824B9B78032B10D1854B1B78DAB27E4B9B7A9A4204D07C4B9B7A1846FFF725FC7A4B9B781846FFF706FCE2
:404C0000774B1B7903F04003002B0CD0744BDB7807F11802134413F8143C032B03D10820FFF7B6FA20E06E4BDB7807F11802134413F8143C1846FFF7ABFA694B1B7903F037
:404C40004003002B08D0674A664B1B78DBB243F04003DBB2137007E0624A624B1B78DBB223F04003DBB213705D4B9B79012B0AD1614B1B78DBB203F01003DBB2002B02D100
:404C80000020FFF76DF9564BDB791846FFF758FB534B5B7A012B01D1FFF798FB504B1B7A1A464FF040231B78DBB203F030039A4210D04FF040214FF040231B78DBB25BB23F
:404CC00023F030035AB2464B1B7A5BB213435BB2DBB20B70424B9B7B012B26D110233B610020FFF7D5F85020FFF716FD434B1B78AB23FB8216E00120FFF70EFD3F4B1B7832
:404D0000DBB203F00103002B09D03C4B1B78DBB203F00103002B02D000233B6105E0FB8A013BFB82FB8A002BE5D12D4B9B78002B03D02B4B9B78012B10D12E4B1B78DAB251
:404D4000274B9B7A9A4204D0254B9B7A1846FFF777FB234B9B781846FFF758FB204B9B79002B09D1244B1B78DBB203F01003DBB2002B01D0FFF73EF9214B1B78DBB29BB2E1
:404D80001B02FB811F4B1B78DBB29AB2FB891343FB81134B9B89FA899A4204D0104B9B891846FFF799FB1849174B1B78DBB25BB203F03F035AB20A4B5B795BB213435BB248
:404DC000DBB20B70114B064A12781A70104B044A52781A7000BF1837BD4680BD6C750100908CFF1F00420040647501000B4000401042004004400040A043004025420040BD
:404E0000074000400640004000480040A1430040A243004080B584B000AF03460A46FB711346BB8003F0ACFA0346FB734E4B1B78DBB203F00803002B0BD14C4A4B4B1B7816
:404E4000DBB203F01F03DBB21370FB79002B08D004E0FB7B184603F097FA81E00020FFF72DFC00F007F9424B1B78DAB2414B1A713F4ABB881B099BB2DBB213703E4B1B7811
:404E8000DAB23C4B5A713C4ABB88DBB203F00F03DBB21370394B1B78DAB2364B9A71374ABB881B0B9BB2DBB203F00103DBB21370334B1B78DBB203F00703002B04D12D4B9C
:404EC000012283F82E2014E02A4B002283F82E202B4B1B78DBB203F00703DAB2254B83F82D20274A264B1B78DBB223F00703DBB213701D4A1C4B1B78DBB223F00703DBB254
:404F000043F00303DBB21370174B1B7800BF00BF30BF184B93F82E30012B0FD01849184B1B78DBB25BB223F007035AB2114B93F82D305BB213435BB2DBB20B7000F0DAF9D6
:404F40000B4B0C4A12791A700B4B0A4A52791A700A4B084A92791A70FB7B184603F014FA1037BD4680BD00BF934300408346004098430040608CFF1F994300409A4300409D
:404F80000042004080B584B000AF0346FB7103F0F7F90346FB73104B1B78DAB20F4B1B781343DAB20D4B1A700C4B1B7803F00703BB73FB79DB43DAB2084B1B781340DAB2E5
:404FC000064B1A70FB7B184603F0DEF9BB7B18461037BD4680BD00BF90430040A28CFF1F80B582B000AF0346FB71204A1F4B1B78DBB223F00203DBB21370FFF7C7FA1B4BFB
:405000001B78DBB203F00103002B19D0184B1B78DBB2FA799A4224D0144A144B1B78DBB223F00103DBB21370114AFB7913700F4A0E4B1B78DBB243F00103DBB2137010E020
:405040000B4B1B78DBB2FA799A4202D0084AFB791370064A054B1B78DBB243F00103DBB2137000BF0837BD4680BD00BF824300408043004080B400AF804B1B78DAB2804BAC
:405080009A72804B1B78DAB27D4BDA727E4B1B78DAB27B4B1A737D4B1B78DAB2784B5A737B4B1B78DAB2764B9A737A4B1B78DAB2734BDA73784B1B78DAB2714B1A74774BA4
:4050C0001B78DAB26E4B5A74754B1B78DAB26C4B9A74744B1B78DAB2694BDA74724B1B78DAB2674B1A75714B1B78DAB2644B5A756F4B1B78DAB2624B9A756E4B1B78DAB2A3
:405100005F4BDA756C4B1B78DAB25D4B1A766B4B1B78DAB25A4B5A76694B1B78DAB2584B9A76684B1B78DAB2554BDA76664B1B78DAB2534B1A77654B1B78DAB2504B5A779C
:40514000634B1B78DAB24E4B9A77624B1B78DAB24B4BDA77604B1B78DAB2494B83F820205E4B1B78DAB2464B83F821205C4B1B78DAB2434B83F822205A4B1B78DAB2404B77
:4051800083F82320584B1B78DAB23D4B83F82420564B1B78DAB23A4B83F82520374B00221A70384B00221A70374B00221A70374B00221A70364B00221A70364B00221A7010
:4051C000354B00221A70354B00221A70344B00221A70344B00221A70334B00221A70334B00221A70324B00221A70324B00221A70314B00221A70314B00221A70304B00226E
:405200001A70304B00221A702F4B00221A702F4B00221A702E4B00221A702E4B00221A702D4B00221A702D4B00221A702C4B00221A702C4B00221A702B4B00221A702B4B01
:4052400000221A702A4B1B78DBB203F00803002B0CD00B4B012283F82F20254A244B1B78DBB223F00803DBB2137003E0044B002283F82F2000BFBD4680BC7047005A00400C
:40528000608CFF1F025A0040035A0040045A0040065A0040085A00400A5A0040105A0040125A0040135A0040145A0040165A0040185A00401A5A0040205A0040225A0040EA
:4052C000235A0040245A0040265A0040285A00402A5A0040305A0040325A0040335A0040345A0040365A0040385A00403A5A00402243004080B400AF434B444A927A1A700C
:40530000434B424AD27A1A70424B404A127B1A70414B3E4A527B1A70404B3C4A927B1A703F4B3A4AD27B1A703E4B384A127C1A703D4B364A527C1A703C4B344A927C1A7037
:405340003B4B324AD27C1A703A4B304A127D1A70394B2E4A527D1A70384B2C4A927D1A70374B2A4AD27D1A70364B284A127E1A70354B264A527E1A70344B244A927E1A70A7
:40538000334B224AD27E1A70324B204A127F1A70314B1E4A527F1A70304B1C4A927F1A702F4B1A4AD27F1A702E4B184A92F820201A702D4B154A92F821201A702B4B134A85
:4053C00092F822201A702A4B104A92F823201A70284B0E4A92F824201A70274B0B4A92F825201A70094B93F82F30012B07D1234A224B1B78DBB243F00803DBB2137000BFA5
:40540000BD4680BC704700BF005A0040608CFF1F025A0040035A0040045A0040065A0040085A00400A5A0040105A0040125A0040135A0040145A0040165A0040185A004043
:405440001A5A0040205A0040225A0040235A0040245A0040265A0040285A00402A5A0040305A0040325A0040335A0040345A0040365A0040385A00403A5A004022430040F5
:4054800080B582B000AF786000F03CF8786800F009F8072000F018F800F028F800BF0837BD4680BD80B485B000AF7860054B1B68FB60FB684C337A681A6000BF1437BD462B
:4054C00080BC704708ED00E080B483B000AF0346FB71054AFB795B01DBB2137000BF0C37BD4680BC704700BF03E400E080B400AF034B08221A6000BFBD4680BC704700BF23
:4055000000E100E080B400AF034B08221A6000BFBD4680BC704700BF80E100E080B500AF064B1B78002B04D100F00AF8034B01221A7000F00FF800BF80BD00BFA38CFF1F6C
:4055400080B500AF0A2000F05BF800F03FF800BF80BD00BF80B582B000AF1A4B1B78DBB203F00203002B18D102F00AFF0346FB71144A144B1B78DBB243F00203DBB213707C
:40558000114A114B1B78DBB243F00403DBB21370FB79184602F0F8FE0FE002F0F1FE0346FB71094A084B1B78DBB243F00403DBB21370FB79184602F0E7FE00BF0837BD46D1
:4055C00080BD00BF004300408243004080B582B000AF02F0D5FE0346FB71084A074B1B78DBB243F00803DBB21370FB79184602F0CBFE00BF0837BD4680BD00BF82430040F6
:4056000080B483B000AF0346FB710D4B1B78DBB203F00403002B0DD10A490A4B1B78DBB223F00F03DAB2FB7903F00F03DBB21343DBB20B7000BF0C37BD4680BC704700BF90
:40564000824300408143004080B500AF0220FFF799FC0346184680BD80B485B000AF0346FB710A4B1B78DBB223F00103FB730749FB7903F00103DAB2FB7B1343DBB20B70CA
:4056800000BF1437BD4680BC704700BF2051004080B400AF044B1B78DBB203F00103DBB21846BD4680BC70472151004080B500AF064B1B78002B04D100F022F8034B01225B
:4056C0001A7000F033F800BF80BD00BFA48CFF1F80B400AF034B04221A6000BFBD4680BC704700BF00E100E080B400AF034B04221A6000BFBD4680BC704700BF80E100E070
:4057000080B500AF00F0B8F8064B04221A6006490220FFF715F807210220FFF739F800BF80BD00BF80E100E0AD5C000080B582B000AF02F025FE0346FB71094A084B1B78F1
:40574000DBB243F03003DBB21370FB79184602F01BFE044B04221A6000BF0837BD4680BD8243004000E100E080B400AF024B1846BD4680BC704700BF0881FF1F80B582B005
:4057800000AF7860FFF7B0FF7B681B78DAB2104B1A707B685B78DAB20D4B5A707B689B78DAB20B4B9A707B681B79DAB2084B1A717B681B7ADAB2064B1A727B685B899AB2BB
:4057C000034B5A81FFF784FF00BF0837BD4680BD0881FF1F80B483B000AF0346FB71044AFB79137000BF0C37BD4680BC704700BFA78CFF1F90B482B000AF0346FB710B46DF
:40580000BB711346BB80BB79022B02D8BB88013BBB80BA88BB889B089BB21846BB881349A1FB03135B099BB2C31AB9880F48A0FB0101C90989B20B441344BA79013A0C4956
:405840008A5C1146FA790A441A440A4BA2FB0334111B49080B1999080B46DB005B1AD11ACBB218460837BD4690BC70471F85EB51807501002549922480B582B000AFA04BBA
:405880000022DA809E4B1B79D9B29D4BDB889AB28BB213449AB29A4BDA80994B5B899BB2984AA2FB0312D2094FF4C87101FB02F29B1A9BB2002B15D0914B5B899BB203F0AC
:4058C00003039BB2002B16D18D4B5B899BB28D4AA2FB03125209642101FB02F29B1A9BB2002B08D0884B1B78DBB243F00203DAB2854B1A7007E0844B1B78DBB223F00203DD
:40590000DAB2814B1A700023FB710DE07C4BDB889AB2FB797D49CB5C9BB213449AB2784BDA80FB790133FB71FA79754B1B7ADBB2013B9A42EAD3744B1B78DBB203F0020310
:40594000002B0BD06E4B1B7ADBB2022B06D96C4BDB889BB201339AB2694BDA80684B1B79D8B2674B1B7AD9B2654B5B899BB21A46FFF740FF03460133DAB2614BDA70604B82
:40598000DB78DBB2002B05D05D4BDB78DAB25C4BDA7006E05A4BDB78DBB20733DAB2584BDA70574B9B78DBB20B2B08D8564B1B78DBB223F00403DAB2534B1A7007E0524B06
:4059C0001B78DBB243F00403DAB24F4B1A70504B1B78DBB203F00103002B18D04D4B1B78DAB2474B1B78DBB29A4208D14A4B1B78DBB243F00103DAB2474B1A7007E0464BAE
:405A00001B78DBB223F00103DAB2434B1A70404B1B78DBB203F00203002B18D03D4B5B78DAB2374B5B78DBB29A4208D13A4B1B78DBB243F00203DAB2374B1A7007E0364B7A
:405A40001B78DBB223F00203DAB2334B1A70304B1B78DBB203F00403002B18D02D4B9B78DAB2274B9B78DBB29A4208D12A4B1B78DBB243F00403DAB2274B1A7007E0264B25
:405A80001B78DBB223F00403DAB2234B1A70204B1B78DBB203F00803002B18D01D4BDB78DAB2174BDB78DBB29A4208D11A4B1B78DBB243F00803DAB2174B1A7007E0164BCB
:405AC0001B78DBB223F00803DAB2134B1A70104B1B78DBB203F02003002B27D00D4BDB889AB2074BDB889BB29A4217D10A4B1B78DBB243F02003DAB2074B1A7016E000BF8C
:405B00000881FF1F1F85EB51A88CFF1F74750100A58CFF1F1481FF1FA68CFF1F424B1B78DBB223F02003DAB23F4B1A703F4B1B78DBB203F01003002B18D03D4B1B79DAB262
:405B40003C4B1B79DBB29A4208D1374B1B78DBB243F01003DAB2344B1A7007E0324B1B78DBB223F01003DAB22F4B1A702F4B1B78DBB203F04003002B18D02D4B1B7ADAB295
:405B80002C4B1B7ADBB29A4208D1274B1B78DBB243F04003DAB2244B1A7007E0224B1B78DBB223F04003DAB21F4B1A701F4B1B78DBB25BB2002B18DA1D4B5B899AB21D4B0C
:405BC0005B899BB29A4208D1174B1B78DBB263F07F03DAB2144B1A7007E0134B1B78DBB203F07F03DAB2104B1A70104B1B78BB71BB79002B13D00C4B1B78DAB2BB7913404F
:405C0000DBB2BA799A420AD10B4B1B78DBB243F00803DAB2084B1A70034B00221A7000BF0837BD4680BD00BFA68CFF1FA58CFF1F1481FF1F0881FF1FA88CFF1F80B500AFAA
:405C40000020FCF7BDFF00BF80BD00BF80B500AF0120FCF7B5FF00BF80BD00BF80B500AF0220FCF7ADFF00BF80BD00BF80B500AF0320FCF7A5FF00BF80BD00BF80B500AF96
:405C80000420FCF79DFF00BF80BD00BF80B500AF0520FCF795FF00BF80BD00BF80B500AF0620FCF78DFF00BF80BD00BF80B582B000AF0420FFF766F99E4B1B78DBB201331B
:405CC000DAB29C4B1A709B4B1B78DBB23B2B40F2A682984B5B78DBB20133DAB2954B5A70944B00221A70934B5B78DBB23B2B40F24682904B9B78DBB20133DAB28D4B9A70EE
:405D00008C4B00225A708B4B9B78DBB2172B40F2DD81884B1B79DBB20133DAB2854B1A71844B00229A70834BDB889BB201339AB2804BDA807F4BDB78DBB20133DAB27D4BF9
:405D4000DA707C4BDB78DBB2072B02D9794B0122DA70794B1B78DBB203F00203002B11D0744B1B7ADBB2022B0CD1724B1B79DBB21946704B1B7ADBB2013B704AD35C0133AE
:405D800099422AD86C4B1B78DBB203F00203002B0FD0684B1B7ADBB2022B0AD0654B1B79DAB2644B1B7ADBB2013B6449CB5C9A4213D8614B1B78DBB203F00203002B40F0BA
:405DC000F4805C4B1B79DAB25A4B1B7ADBB2013B5A49CB5C9A4240F2E880564B1B7ADBB20133DAB2534B1A72524B01221A71514B1B7ADBB20C2B40F285804E4B5B899BB237
:405E000001339AB24B4B5A814A4B01221A72494B0122DA80474B5B899BB2494AA2FB0312D2094FF4C87101FB02F29B1A9BB2002B15D0404B5B899BB203F003039BB2002B8E
:405E400016D13C4B5B899BB23D4AA2FB03125209642101FB02F29B1A9BB2002B08D0364B1B78DBB243F00203DAB2334B1A7007E0314B1B78DBB223F00203DAB22E4B1A70DE
:405E8000304B1B78DBB25BB2002B18DA2E4B5B899AB2284B5B899BB29A4208D12B4B1B78DBB263F07F03DAB2284B1A7007E0274B1B78DBB203F07F03DAB2244B1A70214B48
:405EC0001B78FB71FB79002B13D0204B1B78DAB2FB791340DBB2FA799A420AD1164B1B78DBB243F00803DAB2134B1A70174B00221A70174B1B78DBB203F04003002B01D024
:405F0000FFF7CCFE0F4B1B78DBB203F04003002B28D00D4B1B7ADAB2064B1B7ADBB29A4218D10A4B1B78DBB243F04003DAB2074B1A7017E00881FF1FA88CFF1F74750100F0
:405F40001F85EB51A58CFF1F1481FF1FA68CFF1FA78CFF1F964B1B78DBB223F04003DAB2934B1A70934B1B78FB71FB79002B13D08F4B1B78DAB2FB791340DBB2FA799A4258
:405F80000AD18D4B1B78DBB243F00803DAB28A4B1A70874B00221A70884B1B78DBB203F02003002B01D0FFF771FE824B1B78DBB203F00803002B18D0814BDB78DAB2814B88
:405FC000DB78DBB29A4208D1794B1B78DBB243F00803DAB2764B1A7007E0754B1B78DBB223F00803DAB2724B1A70724B1B78DBB203F02003002B18D0714BDB889AB2714B2E
:40600000DB889BB29A4208D1694B1B78DBB243F02003DAB2664B1A7007E0654B1B78DBB223F02003DAB2624B1A70624B1B78DBB203F01003002B18D0614B1B79DAB2614BFC
:406040001B79DBB29A4208D1594B1B78DBB243F01003DAB2564B1A7007E0554B1B78DBB223F01003DAB2524B1A70524B1B78FB71FB79002B13D04E4B1B78DAB2FB7913406C
:40608000DBB2FA799A420AD14B4B1B78DBB243F00803DAB2484B1A70454B00221A70474B1B78DBB203F00803002B01D0FFF7DEFD444BDB78DBB2012B08D1404B1B78DBB2B4
:4060C00003F01003002B01D0FFF7D8FD3D4B9B78DBB20B2B08D8384B1B78DBB223F00403DAB2354B1A7007E0334B1B78DBB243F00403DAB2304B1A702E4B1B78DBB203F066
:406100000403002B18D02E4B9B78DAB22D4B9B78DBB29A4208D1264B1B78DBB243F00403DAB2234B1A7007E0214B1B78DBB223F00403DAB21E4B1A701E4B1B78FB71FB7929
:40614000002B13D01A4B1B78DAB2FB791340DBB2FA799A420AD1184B1B78DBB243F00803DAB2154B1A70124B00221A70134B1B78DBB203F00403002B01D0FFF76FFD0D4BA1
:406180001B78DBB203F00203002B25D00C4B5B78DAB20C4B5B78DBB29A4215D1044B1B78DBB243F00203DAB2014B1A7014E000BFA68CFF1FA58CFF1FA88CFF1FA78CFF1F7A
:4061C0001481FF1F0881FF1F384B1B78DBB223F00203DAB2354B1A70354B1B78FB71FB79002B13D0314B1B78DAB2FB791340DBB2FA799A420AD12F4B1B78DBB243F0080302
:40620000DAB22C4B1A70294B00221A702A4B1B78DBB203F00203002B01D0FFF717FD244B1B78DBB203F00103002B18D0234B1B78DAB2234B1B78DBB29A4208D11B4B1B78BC
:40624000DBB243F00103DAB2184B1A7007E0174B1B78DBB223F00103DAB2144B1A70144B1B78FB71FB79002B13D0104B1B78DAB2FB791340DBB2FA799A420AD10D4B1B7829
:40628000DBB243F00803DAB20A4B1A70074B00221A70094B1B78DBB203F00103002B01D0FFF7CCFC00BF0837BD4680BDA68CFF1FA58CFF1FA88CFF1FA78CFF1F1481FF1F52
:4062C0000881FF1F80B500AF064B1B78002B04D100F00AF8034B01221A7000F015F800BF80BD00BFA98CFF1F80B400AF044B72221A70044B20221A7000BFBD4680BC704717
:40630000816400408264004080B582B000AF02F037F80346FB710C4A0B4B1B78DBB243F02003DBB21370094A084B1B78DBB243F01003DBB21370FB79184602F025F800BF38
:406340000837BD4680BD00BF916400409264004080B582B000AF02F013F80346FB710C4A0B4B1B78DBB223F02003DBB21370094A084B1B78DBB223F01003DBB21370FB792A
:40638000184602F001F800BF0837BD4680BD00BF916400409264004080B483B000AF0023FB710C4B1B78BB71BB7903F02003002B09D0094B1B78FB71BB7903F01E03002B5D
:4063C00001D00023FB71FB7918460C37BD4680BC704700BF626400404264004080B582B000AF01F0CDFF0346FB710C4A0B4B1B78DBB243F00103DBB21370084A074B1B78B5
:40640000DBB223F00103DBB21370FB79184601F0BBFF00BF0837BD4680BD00BF9264004080B582B000AF786000F048F8786800F015F8072000F024F800F034F800BF0837B0
:40644000BD4680BD80B500AF00F038F8024800F005F800BF80BD00BF013D000080B485B000AF7860054B1B68FB60FB6844337A681A6000BF1437BD4680BC704708ED00E07F
:4064800080B483B000AF0346FB71054AFB795B01DBB2137000BF0C37BD4680BC704700BF01E400E080B400AF034B02221A6000BFBD4680BC704700BF00E100E080B400AF7F
:4064C000034B02221A6000BFBD4680BC704700BF80E100E080B485B000AF0346FB710B4B1B78DBB223F01003FB730849FB791B01DBB203F01003DAB2FB7B1343DBB20B7050
:4065000000BF1437BD4680BC704700BFC051004080B500AF00F032F800BF80BD80B500AF00F046F800BF80BD80B485B000AF0346FB710B4B1B78DBB223F02003FB7308490B
:40654000FB795B01DBB203F02003DAB2FB7B1343DBB20B7000BF1437BD4680BC704700BF2051004080B400AF00BFBD4680BC704780B400AF00BFBD4680BC704780B500AFC4
:40658000094B1B78DBB203F01003002B14BF01230023DBB21A46054B1A7001F0B5FFFFF7E1FF00BF80BD00BF946400402081FF1F80B500AFFFF7DCFF02F02AF8034B1B787E
:4065C000002B01D001F05CFF00BF80BD2081FF1F80B485B000AF0346FB710B4B1B78DBB223F01003FB730849FB791B01DBB203F01003DAB2FB7B1343DBB20B7000BF1437E3
:40660000BD4680BC704700BF3051004080B485B000AF0346FB710B4B1B78DBB223F00203FB730849FB795B00DBB203F00203DAB2FB7B1343DBB20B7000BF1437BD4680BCCD
:40664000704700BF2051004080B485B000AF0346FB710B4B1B78DBB223F02003FB730849FB795B01DBB203F02003DAB2FB7B1343DBB20B7000BF1437BD4680BC704700BF29
:406680003051004080B485B000AF0346FB710B4B1B78DBB223F01003FB730849FB791B01DBB203F01003DAB2FB7B1343DBB20B7000BF1437BD4680BC704700BF20510040FE
:4066C00080B582B002AF414B01221A70404B00221A70102000F066FF102001F049F807211D20FEF755F83B4B04221A703A4B00221A703A4B00221A70394A394B1B78DBB2C5
:4067000043F01803DBB21370364B00221A70364B00221A70354B00221A70354B0A221A70344B00221A70344B00221A70334B5B221A70334B5E221A70324B00221A70324B36
:4067400014221A700123009310234FF4004247F60271032000F0A6FC0223009310234FF4004249F2DA01002000F09CFC0323009310234FF4004249F2DA01002000F092FC32
:406780000423009310234FF4004249F2DA01002000F088FC1D4A0D4B1B78DBB2013B1C499B000B449B7813701A4A084B1B78DBB2013B174931F823301380044B1B78DBB2CC
:4067C000184600F067FA00BFBD4680BD2281FF1FAC8CFF1F96580040975800409E580040075B004093580040885B0040895B004080580040815800408358004088580040C1
:40680000895800408D580040014E00400E4E0040B48CFF1F0C4E004080B582B000AF01F0AFFD0346FB71444B1B78BB71434A434B1B78DBB243F00103DBB213703F4A3F4BA4
:406840001B78DBB243F01003DBB213703C4A3C4B1B78DBB243F00103DBB21370384A384B1B78DBB243F01003DBB21370354A354B1B78DBB243F00203DBB21370324A324B53
:406880001B78DBB243F00203DBB213702F4A2F4B1B78DBB243F00303DBB213700320FDF73BFF284A274B1B78DBB223F00203DBB21370254A244B1B78DBB223F00203DBB2F4
:4068C0001370234A224B1B78DBB243F00603DBB21370204B7A221A701F4A1F4B1B78DBB243F00103DBB213701C4A1C4B1B78DBB243F00103DBB21370194A194B1B78DBB2E9
:4069000043F00203DBB21370164A164B1B78DBB243F00203DBB21370134B4FF000521A60124B4FF000521A60FB79184601F02CFD00BF0837BD4680BD2281FF1FAA430040FD
:40694000BA430040F8460040F9460040915800407758004082580040A1430040B1430040A2430040B243004080E200E000E100E080B500AF084B1B78002B09D1074B1B7822
:40698000DBB2002B01D1FFF79BFE034B01221A70FFF742FF00BF80BDAE8CFF1FAF8CFF1F80B582B000AF01F0EBFC0346FB714D4A4C4B1B78DBB223F00103DBB213704A4A33
:4069C000494B1B78DBB243F00403DBB21370474A464B1B78DBB243F00203DBB21370444A434B1B78DBB243F00203DBB21370414A404B1B78DBB223F00303DBB213703E4AA4
:406A00003D4B1B78DBB223F00803DBB213700320FDF782FE354A354B1B78DBB223F00203DBB21370324A324B1B78DBB223F00203DBB21370314A314B1B78DBB223F0100324
:406A4000DBB213702D4A2D4B1B78DBB223F00103DBB213702A4A2A4B1B78DBB223F00103DBB21370264A264B1B78DBB223F01003DBB21370234A234B1B78DBB223F0060352
:406A8000DBB21370204A204B1B78DBB223F00103DBB213701D4A1D4B1B78DBB223F00103DBB213701A4A1A4B1B78DBB223F00803DBB21370174A174B1B78DBB223F0020382
:406AC000DBB21370144A144B1B78DBB223F00203DBB21370FB79184601F056FC00BF0837BD4680BD004E0040014E0040F8460040F94600409158004092580040AA43004094
:406B0000BA43004077580040A1430040B143004082580040A2430040B243004080B400AF054A054B1B78DBB243F00103DBB2137000BFBD4680BC7047004E004080B400AF2E
:406B4000054A054B1B78DBB223F00103DBB2137000BFBD4680BC7047004E004080B485B000AF0346FB710D4B1B78DBB2002B03D00B4B1B78FB7305E00A4B1B78DBB203F005
:406B80000103FB73FB7B012B02D0FB79002BEAD0FB7B18461437BD4680BC7047AD8CFF1FAC8CFF1F014E004080B483B000AF224B1B78DBB203F00303FB70FB78012B0BD8BC
:406BC0001E4B1B889BB27B607B681B041C4A128892B213437B6020E0FB78022B12D1174B1B889BB27B607B681B04154A1278D2B213437B60134B1B78DBB21B027A681343C7
:406C00007B600AE00E4B1B889BB27B600B4B1B889BB21B047A6813437B600B4B1B78DBB2002B02D0094B00221A707B6818460C37BD4680BC704700BF144E0040124E004005
:406C4000104E0040114E0040AD8CFF1FAC8CFF1F90B585B000AF78600C4B1B687A68D31A7B60786805F0E8FC0446094B1B68184605F0E2FC03461946204605F0E5FD03466C
:406C8000FB60FB6818461437BD4690BDB08CFF1F600C002080B582B000AF0346FB71C34B00221A70FB79012B66D1C14B30221A70C04B04221A70C04B06221A70BF4B00224F
:406CC0001A70BF4B00221A70BE4B3F221A70BE4B00221A70BD4B00221A70BD4B00221A70BC4B01221A70BC4B50221A70BB4B07221A70BB4B29221A70BA4B00221A70BA4B42
:406D000055221A70B94B5A221A70B94B00221A70B84B00221A70B84B00221A70B74B0A221A70B74B43221A70442000F073FAB54B58221A70B44B00221A70B44B02221A7074
:406D4000B34B02221A70B34B00221A70B24B00221A70002000F054FBB04B42F6AB121A600121052000F060FB01218A2000F042FCAB491D20FDF7E4FCFB79022B66D18C4B0B
:406D800038221A708B4B04221A708B4B06221A708A4B00221A708A4B00221A70894B3F221A70894B00221A70884B00221A70884B00221A70874B01221A70874B50221A7055
:406DC000864B27221A70864B2C221A70854B00221A70854B55221A70844B5A221A70844B05221A70834B01221A70834B11221A70824B19221A70824B97221A70442000F0A8
:406E000009FA804B58221A707F4B00221A707F4B05221A707E4B02221A707E4B00221A707D4B00221A70002000F0EAFA7B4B4FF47A421A600121052000F0F6FA012125206E
:406E400000F0D8FB77491D20FDF77AFCFB79032B66D1574B38221A70564B04221A70564B06221A70554B00221A70554B00221A70544B3F221A70544B00221A70534B0022B8
:406E80001A70534B00221A70524B01221A70524B50221A70514B27221A70514B2C221A70504B00221A70504B55221A704F4B5A221A704F4B05221A704E4B01221A704E4B8B
:406EC00011221A704D4B19221A704D4B97221A70442000F09FF94B4B58221A704A4B00221A704A4B05221A70494B02221A70494B00221A70484B00221A70002000F080FA45
:406F0000464B4FF47A421A600121052000F08CFA0121252000F06EFB43491D20FDF710FCFB79042B40F0A980214B38221A70214B04221A70204B06221A70204B00221A7065
:406F40001F4B00221A701F4B3F221A701E4B00221A701E4B00221A701D4B00221A701D4B01221A701C4B50221A701C4B27221A701B4B2C221A701B4B00221A701A4B55228A
:406F80001A701A4B5A221A70194B05221A70194B01221A70184B11221A70184B19221A70174B97221A70442040E000BFAD8CFF1F004E0040024E0040034E0040044E0040EE
:406FC000054E0040064E0040084E0040094E00400A4E0040144E0040845800408558004086580040875800408A5800408B5800408C5800408E5800408F58004090580040AF
:407000009158004094580040955800409A5800409B5800409C5800409D580040600C002005730000117300001D73000000F0F2F8144B58221A70144B00221A70134B05221B
:407040001A70134B02221A70124B00221A70124B00221A70002000F0D3F9104B4FF47A421A600121052000F0DFF90121252000F0C1FA0B491D20FDF763FB00BF0837BD46B3
:4070800080BD00BF94580040955800409A5800409B5800409C5800409D580040600C00202973000090B587B000AF0446084611461A462346FB710346BB800B467B8013460D
:4070C000BB7197F82830002B00F08B8097F82830042B00F28680FB79013B092B4AD801A252F823F00D71000075710000757100000D71000075710000757100002771000017
:4071000041710000757100005B710000BB790F2B04D9374B1B78DBB2FB752EE0354B1B78DBB2FB7529E0BB790F2B04D9324B1B78DBB2FB7521E0314B1B78DBB2FB751CE006
:40714000BB790F2B04D92E4B1B78DBB2FB7514E02C4B1B78DBB2FB750FE0BB790F2B04D9294B1B78DBB2FB7507E0284B1B78DBB2FB7502E00023FB7500BFBA8897F917304B
:407180005B0113443B617B883A6902FB03F3FB60FB68DB0BBB82BB790D2B12D8BA8ABB79C3F10E0342FA03F3BB8297F82830013BBA790132D1B2164A9B0013440A469A704C
:4071C00007E097F82830013B114A9B0013440F229A7097F82830013B0D49BA8A21F8232002E00020FDF76AFA00BF1C37BD4690BD180100491C010049190100491D01004996
:407200001A0100491E0100491B0100491F010049B48CFF1F80B584B000AF0346FB7101F0AFF80346FB73174A164B1B78DBB243F00303DBB21370144A134B1B78DBB243F000
