:400000000080002011000000E9270000E927000080B500AF024A034B1B68136002F018FCBC760040FA46004010B5054C237833B9044B13B10448AFF300800123237010BDE1
:40004000208AFF1F00000000E0450100084B10B51BB108490848AFF300800848036803B910BD074B002BFBD0BDE81040184700BF00000000248AFF1FE0450100C880FF1FF4
:400080000000000080B500AF04F00EFF4FF48072002104480BF0FAF8034B00221A7000BF80BD00BF3C8AFF1F3D8BFF1F80B582B000AF04F0D7FE0346FB71FB79002B09D041
:4000C000114B1B785A1CD1B20F4A117019460F4AFB795354FB790D2B11D10D4B1A680D4B1B68194610460BF077FF02460A4B1A60054B1B781A46054B1344054A136000BF80
:400100000837BD4680BD00BF3D8BFF1F3C8AFF1FCC80FF1F448BFF1F408BFF1FB0B58AB000AF7860002387F82130002387F82030FFF7A8FF012004F033FFC82003F03EF877
:40014000022006F005FD04F023FE384804F0CEFE4FF4FA6003F032F804F060FE04F0D8FE002004F01DFF0C2006F0F2FC002006F0D1FC2F492F480CF03FF8786233E00D21DA
:40018000786A0BF025FC0346002B27D0786A0AF0B7FE03467B847B8C002B1FD07B8C42F20F72934214D097F82030B7F922205B0007F128010B4423F8202C97F820300A2B50
:4001C00015D897F820300133DBB287F8203005E097F821300133DBB287F82130144900200CF00AF878627B6A002BC8D100E000BF97F8202007F108031146184600F082F8BF
:4002000003461BB2FB837B681D4607F108040FCC28606960AA60EB6003CC2861696123882B8378682837BD46B0BD00BFAD000000F04501003C8AFF1FB0B5EEB004AF3B1DA1
:40024000186007F12403002283F8802007F124032A4A1C4615460FCD0FC42B68238007F108031846FFF75AFF07F108031B7E1A4607F108035B7E134407F10802127E1146AD
:4002800007F10802B2F91620144607F1240202F181000294019100930B23194A4FF480710BF01CFB07F108031B7E0B2B05D107F12403012283F880200EE007F108031B7E4E
:4002C000002B09D007F108031B7E0A2B04D807F12403022283F880203B1D1A6807F124031046194640F281131A460AF059FF3B1D186807F5D477BD46B0BD00BFF445010041
:400300000846010090B585B000AF78600B46FB700023FB81FB781BB21946786800F03AF8FB7803F00103DBB2002B25D1FB78013BDA0F13445B105B007A681344B3F900308F
:400340001946FB785B08DBB25B007A681344B3F900300B44184609F0E7FF4FF000024FF080430AF071F903460C46184621460AF0F1FA0346FB8107E0FB785B08DBB25B0069
:400380007A6813441B88FB81FB8918461437BD4690BD00BF80B584B000AF78600B467B800023FB8137E00023BB8124E0B7F90C305B007A681344B3F90020B7F90C300133E8
:4003C0005B0079680B44B3F900309A420DDDB7F90C305B007A68D018B7F90C3001335B007A681344194600F021F8B7F90C309BB201339BB2BB81B7F90C20B7F90210B7F95F
:400400000E30CB1A013B9A42D0DBB7F90E309BB201339BB2FB81B7F90E20B7F90230013B9A42C0DB00BF1037BD4680BD80B485B000AF786039607B681B88FB813B68B3F90B
:4004400000207B681A803B68FA891A8000BF1437BD4680BC704700BF80B584B000AF78600923FB7300F078F8786806F077FF0346DBB20133FB7300F07BF8FB7B1846103734
:40048000BD4680BD80B586B000AFF860B9607A600923FB7500F060F8B968F86806F048FF38613B69002B08D106F076FD06F0EEFDB968F86806F03CFF38613B69002B10D070
:4004C00078680BF0CBFB03461A467968386907F0DDF8386906F066FE0346DBB2C3F10103FB7500F045F8FB7D18461837BD4680BD80B586B000AFF860B9607A600923FB75D8
:4005000000F02AF81349F86806F012FF38613B69002B08D106F040FD06F0B8FD0D49F86806F006FF38613B69002B0CD07A68B968386906F084FF386906F034FE0346DBB216
:40054000C3F10103FB7500F013F8FB7D18461837BD4680BD4046010080B500AF04F044FD012004F047FD06F091FD00BF80BD00BF80B500AF002004F03DFD04F02FFD06F073
:400580000BFD002004F0A8FD002004F087FD002004F0C0FD002004F0DBFD00BF80BD00BFF0B5EBB000AF3B1D186007F124033D4A1C4613460FCB07C4237007F124030022D1
:4005C00083F8802007F11803374A07CA03C31A8007F10C03354A07CA03C31A7007F10C031846FFF739FF07F10C03314A31491846FFF748FF07F1180107F10C030A221846A8
:40060000FFF776FF07F10C031846FFF725FF03461A4607F1240383F8802007F1240393F88030012B14D107F124038133224A1D4614460FCC28606960AA60EB6007CC2861A9
:400640006961AA612388A278AB831346AB7717E007F124038133194A14469E4604F1200C754626460FCE28606960AA60EB6010340EF1100E6445F3D17346224612781A70FE
:400680003B1D1A6807F124031046194640F281131A460AF085FD3B1D186807F5D677BD46F0BD00BF44460100A8460100B4460100544601006046010064460100844601002D
:4006C00080B500AF05F0E2FD00BF80BD80B500AF05F03CFE034603F00203002B02D1012002F06CFD05F0A8FE00BF80BD80B500AF05F0BCFE00BF80BD0EB480B5ADF6140D97
:4007000000AF0246FB1D1A70FB1D1B78022B03D0FB1D1B78012B2FD1364800F0E5F800F0B7F803461946344800F0DEF8334800F0DBF8334800F0D8F807F5026207F10C03EA
:400740001A6007F10C0307F110001B68D7F81C284FF400610EF0CCFB07F11003184605F01BFE284800F0C0F807F110031A4626492648FFF787FE35E0FB1D1B78002B30D1B3
:40078000234B1B78002B2CD01A4800F0ADF800F07FF803461946184800F0A6F81D4800F0A3F807F5026207F108031A6007F1080307F110001B68D7F81C284FF400610EF00D
:4007C00097FB07F11003184605F0E6FD0D4800F08BF807F110031A460B490C48FFF752FE00E000BF07F61407BD46BDE8804003B0704700BFC0460100C4460100D446010090
:40080000F04601000C47010014470100D080FF1FEE80FF1F1847010084B080B500AF07F1080E8EE80F00134800F05EF800F030F803461946104800F057F8104800F054F840
:4008400007F108010E4800F04FF897F8883019460C4800F049F807F1890319460A4800F043F80A4800F040F800BFBD46BDE8804004B07047C0460100C446010034470100C5
:400880004447010054470100644701007447010080B58CB000AF03F0CDFCF862FB6A1B78DBB27B60FB6A5B78DBB2BB60FB6A9B78DBB2FB60FB6A5B899BB2A3F26C73BB61AC
:4008C000FB6A1B7ADBB27B61FB6A1B79DBB23B6100237B623B1D18460AF02AFEB862BB6A18463037BD4680BD0FB480B5ADF6080D00AF07F61403C7F80438381DD7F8043889
:40090000D7F810284FF400610EF0F2FA3B1D184605F042FD00BF07F60807BD46BDE8804004B070470000000090B599B000AF7860012005F093FA0A2002F040FC05F03AFA61
:4009400004F07CFD04F050FE05F05AFA4FF00003BB65002387F85F3034E097F85F30184605F068FA0023A7F85C300FE0B7F85C4005F0F4F90246A30007F160010B4443F8CD
:40098000542CB7F85C300133A7F85C30B7F85C300A2BEBD997F85F4007F10C030B21184600F0A6F80346184604F0B8FE0246A30007F160010B4443F8282C97F85F300133D7
:4009C00087F85F3097F85F30032BC6D905F018FA04F01AFE05F0DEF904F048FD002005F03DFABB6B184609F0B1FC17A3D3E9002309F04CFB03460C461846214609F0D2FF6D
:400A000003467B65FB6B124918460AF029F90346796D18460AF01AF803467B643B6C796D18460AF013F80346BB64012387F850307B681C4607F144030FCB84E80F0078685D
:400A40006437BD4690BD00BFFCA9F1D24D62F03F0000304180B584B000AF786039600023FB6028E00023BB601BE0BB689B007A6813441A68BB6801339B0079680B441B68AF
:400A80009A420BDDBB689B007A68D018BB6801339B007A681344194600F016F8BB680133BB603A68FB68D31A5A1EBB689A42DCDCFB680133FB603B685A1EFB689A42D1DCD6
:400AC00000BF1037BD4680BD80B485B000AF786039607B681B68FB603B681A687B681A603B68FA681A6000BF1437BD4680BC704790B585B000AF786039600023FB603968AC
:400B00007868FFF7A7FF3B6803F00103002B23D13B68013BDA0F13445B109B007A6813441A683B68D90F0B445B109B0079680B441B681344184609F0F7FB4FF000024FF0ED
:400B4000804309F081FD03460C461846214609F001FF0346FB6008E03B68DA0F13445B109B007A6813441B68FB60FB6818461437BD4690BD2DE9B043EEB006AF3B1D1860CE
:400B800007F11C03002283F8802007F11C03264A1C4615460FCD0FC495E8030020600434217007F10C031846FFF7BEFE07F10C031B68184609F0CAFB04460D4607F10C03C4
:400BC0005B68184609F0C2FB8046894607F10C039B68184609F0BAFB02460B4607F11C0101F18100CDE90423CDE90289CDE900450E4A4FF480710AF071FE07F11C0301220A
:400C000083F880203B1D1A6807F11C031046194640F281131A460AF0C3FA3B1D186807F5D077BD46BDE8B083784701009047010098B500AF12E00D4BB3F900301C4605F00F
:400C400043FD03461A460A4B1A55084BB3F900309BB201339BB21AB2044B1A8005F056FD0346012BE7D000BF98BD00BF488BFF1FA806002080B500AF00F026F80F4B0022A1
:400C80001A700F4B002283F828200D4B00221A750B4B00221A700B4B00221A71094B00221A70084B0022DA60064B00229A600021402005F0C3FE00BF80BD00BF9006002099
:400CC00048EBFF1F9406002080B500AF002005F0E7FE0C2005F094FE002005F029FC002005F070FE002005F0C1FE002005F002FC002005F03BFC00BF80BD00BF80B500AFC9
:400D0000022005F07DFE012005F0CAFE012005F00FFC642002F052FA00BF80BD80B500AF41F288320A490B4800F0A8F800F084F84FF47A7002F042FA05F096FC05F0C6FD57
:400D4000FFF7C2FF044B00221A7000BF80BD00BFB0470100B44701009006002080B582B000AFFFF7CBFF05F01DFC2C4805F09CFD00F062F80023FB7100233B71FFF788FD53
:400D800038600023BB711CE000237B710EE04FF47A722349234800F071F80346002B02D00123FB7105E07B7901337B717B79132BEDD9FB79012B08D000F03EF8BB79013327
:400DC000BB71BB79022BDFD900E000BFFFF760FD02463B68D31A3B603A6813490020FFF78BFCFB79012B0AD13B791A460F490020FFF782FC0E4B01221A70012309E00D49CA
:400E00000220FFF779FC0A4B00221A70FFF786FF002318460837BD4680BD00BF310C0000B0470100C0470100C8470100DC470100900600201048010080B500AF012005F070
:400E400059FB4FF4FA6002F0B9F9002005F052FB00BF80BD80B500AF064B00221A804FF48062002104480AF011FA05F065FC00BF80BD00BF488BFF1FA806002080B58AB0B8
:400E800000AFF860B9607A6000237B6200237B6246E00A23FB617A68FB69B2FBF3F3BB61FFF7D8FFF86805F083FC7B68002B06D1FA681F490020FFF71FFC012334E00023B8
:400EC0003B6220E0F86902F079F9B96819480BF083F878617B69002B12D07B6A002B06D1144BFA6814490020FFF706FC06E07B6A5A1C104B11490120FFF7FEFB012313E094
:400F00003B6A01333B623A6ABB699A42DAD3094BFA680B490220FFF7EFFB7B6A01337B627B6A022BB5D9002318462837BD4680BD28480100A806002054480100A44801005F
:400F4000DC480100B0B5E6B000AF3B1D186007F10C03002283F8802007F10C03354A07CA03C31A800233120C1A7007F10C038133314A1C4615460FCD20606160A260E360A5
:400F800028682061AB88AA79A3821346A3750023C7F8943139E000F08FF800F067FB0346002B02D1FFF7DAFE27E000F05FFB0346042B22D100F0B8FAC7F89001D7F8903158
:400FC000002B03D0D7F8900101F0C6F807F10C0381331A4A1D4614460FCC28606960AA60EB6007CC28616961AA6107F10C03012283F88020FFF792FE0BE0642002F0DEF854
:40100000D7F894310133C7F89431D7F894313B2BC1DD3B1D1A6807F10C031046194640F281131A460AF0BCF83B1D186807F5CC77BD46B0BD0C4901001849010030490100A9
:4010400080B586B000AFF860B9607A603B60B968F8680AF0C1FF78617B69002B01D1FB687B61B8680AF0FAFD02467B6913447B61796878690AF0B0FF38613B69002B06D122
:40108000F8680AF0EBFD0246FB6813443B613A697B69D31A1A46796938680AF00DFE3A697B69D31A1A463B68134400221A70012318461837BD4680BD80B500AF394B1B786F
:4010C000012B0BD1FFF7E4FB0246374B1A6000F08FF9344B02221A70012360E0314B1B78022B2DD100F06CF80346002B15D0FFF7CFFB02462C4B1B68D31A2C4A93602B4B11
:401100009B681A462A490020FFF7F6FA00F0CAF800F0A6F8234B03221A70FFF7B9FB0246214B1B68D31AC82B08DD1E4B00221A70FFF7F4FD1F490220FFF7DEFA00232EE04B
:40114000184B1B78032B29D100F098F80346002B11D0144B04221A70FFF79AFB0246124B1B68D31A114AD360104BDB681A4612490020FFF7C1FAFFF78BFB02460A4B1B6879
:40118000D31AE62B08DD074B00221A70FFF7C6FD0A490220FFF7B0FA002300E00023184680BD00BF90060020A4060020940600204C4901007449010098490100B84901008E
:4011C00080B584B000AF1B490020FFF795FA4FF4FA6219491948FFF751FE0346FB7318490020FFF789FA174A17490020FFF784FAFB7B002B19D03B1D144A15491148FFF734
:401200001FFF3B1D1A4613490020FFF775FA12490020FFF771FA3B1D104918460AF0DCFE0346002B01D0012300E0002318461037BD4680BDE0490100B0470100F449010087
:40124000004A0100A80600201C4A0100384A01003C4A0100404A0100604A0100804A010080B500AF4FF47A7202490348FFF706FE00BF80BDB0470100844A010080B500AF99
:401280004FF4FA6205490648FFF7F8FD0346002B01D0012300E00023184680BD944A0100984A010080B586B000AF0023FB7586E04FF4FA6246494748FFF7E0FD3B1D464AB4
:4012C00046494748FFF7BCFE3B1D1A4645490020FFF712FA3B1D444918460AF08DFF38613B69002B06D0386909F00AFE0346DAB23E4B1A703C4900200AF07EFF38613B69CE
:40130000002B06D0386909F0FBFD0346DAB2374B5A70354900200AF06FFF38613B69002B06D0386909F0ECFD0346DAB22F4B9A702D4900200AF060FF38613B69002B06D0AC
:40134000386909F0DDFD0346DAB2284BDA70264900200AF051FF38613B69002B06D0386909F0CEFD0346DAB2204B1A711E4900200AF042FF38613B69002B06D0386909F086
:40138000BFFD0346DAB2194B1A71174900200AF033FF38613B69002B06D0386909F0B0FD0346DAB2114B5A71104B1B78632B0AD10E4B1B78002B06D1FB7D0133FB75FB7DA7
:4013C000092B7FF675AF00BF1837BD4680BD00BFB0470100A44A0100384A01003C4A0100A8060020B04A0100C44A01009406002080B584B000AF3B4B1B7D002B13D14FF408
:40140000FA6239493948FFF739FD0346002B0AD0374B384A38493948FFF712FE344A38490020FFF769F92F4B1B78002B13D14FF4FA622D493348FFF721FD0346002B0AD042
:40144000284B2C4A2C492D48FFF7FAFD254A2E490020FFF751F9234B93F82830002B13D14FF4FA6220492948FFF708FD0346002B0AD0274B1F4A20492048FFF7E1FD244A56
:4014800024490020FFF738F94FF4FA6216492248FFF7F4FC4FF4FA6213492048FFF7EEFC0346002B19D03B1D124A13491348FFF7C7FD3B1D1A461A490020FFF71DF93B1DC6
:4014C000312118460AF084FA0346002B05D14FF4FA6205491348FFF7D1FC00BF1037BD4680BD00BF48EBFF1FB0470100C84A01005CEBFF1F384A01003C4A0100A8060020D1
:40150000D44A0100E44A0100F04A0100FC4A010070EBFF1F084B0100144B0100404B01004C4B0100584B010080B5A0B006AF444B1B78042B05D043490220FFF7DDF80023EA
:401540007AE000237B664FF4FA623F493F48FFF795FC0346002B6ED007F144033C4A3D493D48FFF76DFD0023BB6207F13C0107F1400207F1440007F12803049307F12C032A
:40158000039307F13003029307F13403019307F1380300930B4631490AF0ECF90346072B06D1BB6A4FF4617202FB03F3BB622AE007F13C0107F1400207F1440007F128032D
:4015C000049307F12C03039307F13003029307F13403019307F1380300930B4620490AF0C9F90346072B05D1BB6A1E4A02FB03F3BB6208E007F144031A461B490220FFF7E7
:401600007BF8002318E0FB6A7B603B6BBB607B6BFB603B6C6433BB61FB6B013B7B61BB6B3B6100237B623B1D184609F081FF0246BB6A13447B667B6E18466837BD4680BD46
:4016400090060020644B0100B04701009C4B0100A84B0100AC4B0100A8060020B04B0100C84B01007CFCFFFFE04B010080B400AF024B1B781846BD4680BC704790060020EB
:4016800080B500AFFFF7F2FF0346002B03D005F035FA05F0DDF800BF80BD00BF80B500AFFFF7E4FF0346002B0BD005F02DFA05F0E9F8FFF7DBFF0346032B02D1642001F0E2
:4016C0007DFD00BF80BD00BF80B584B000AFF860B9607A60224B1B881A462C2303FB02F3204A9818FB68204A14210AF0F7F81C4B1B881A462C2303FB02F31033194A1344F2
:40170000181DBB68184A14210AF0E8F8144B1B881946144A2C2303FB01F3134428337A681A600F4B1B8801339AB20D4B1A800F4B1B8801339AB20D4B1A80094B1B88952B3D
:4017400008D9074B00221A8009490220FEF7D4FF002300E0012318461037BD4680BD00BF50C3FF1FC8ECFF1F104D010052C3FF1F144D010080B483B000AF1CE0FB88154A89
:401780002C2101FB03F3134400221A70FB88114A2C2101FB03F31344143300221A70FB880C4A2C2101FB03F31344283300221A60FB880133FB80FB88952BDFD9064B00227A
:4017C0001A80064B00221A8000BF0C37BD4680BC704700BFC8ECFF1F50C3FF1F52C3FF1F80B400AF024B1B881846BD4680BC704752C3FF1F80B400AF024B1B881846BD46C7
:4018000080BC704750C3FF1F80B58CB008AFF860B9607A603B60FB6A01933B680093FB692A4A42F21071F8680AF058F8284B07933B6A0693274B0593254B0493BB690393FA
:40184000254B02937B680193244B0093FB68244A42F21071F8680AF041F87B6A002B0CD07B6A1B78002B08D07B6A0093FB681D4A42F21071F8680AF031F81B49F8690AF031
:401880000FF90346002B13D0B8680AF0E7F90246BB6A1344154A03920293154B0193154B0093FB68144A42F21071F8680AF016F8BB680093FB68114A42F21071F8680AF03A
:4018C0000DF800BF1037BD4680BD00BF4C4D0100744D0100784D0100884D01008C4D0100604D0100944D01009C4D0100AC4D0100B44D0100C84D0100A04D0100E44D010060
:4019000090B589B004AF78607B6800221A700023FB8122E0FB892C2202FB03F3174A1344FA892C2101FB02F2103214490A440432F98912482C2404FB01F1014428310968E2
:401940000291019200937B680D4A42F21071786809F0C4FFFB890133FB81FFF74BFF03461A46FB899342D5D378680AF077F9B860BB6818461437BD4690BD00BFC8ECFF1FF6
:40198000EC4D010080B588B004AFF860B9607A603B60FB6800221A703B6802937B680193BB680093FB68044AC821F86809F096FF00BF1037BD4680BD0C4E010080B500AF66
:4019C00002F0B6FB00BF80BDB0B586B002AF3D4802F0CAFA02F016FBFF2002F061FC02F0CBFBFEF76DFEFFF745F907F10803184601F066FCBA68FB6800931346324A18212A
:401A0000324809F06BFF324B324A1A60324A334B14461D460FCD0FC40FCD0FC40FCD0FC495E80F0084E80F002D4B41F288329A672C4A2D4B14460FCB07C423702B4A2C4BB9
:401A400015461C460FCC28606960AA60EB602388A2782B821346AB74264B274A106818601F4B264A92E8030018600433198002330A0C1A70224C3846072301220A2100F0A4
:401A8000EDF822463B46196811609B8893801D4B01221A701C4C3846072301223C2100F0DDF822463B46196811609B889380174B01221A70164B00221A7000BF1037BD4690
:401AC000B0BD00BFBD1900001C4E010058C3FF1F54C3FF1F48EBFF1F98EBFF1F244E010084EBFF1F00ECFF1F644E010032ECFF1F744E010096ECFF1F884E01008C4E01000B
:401B0000B00A0020B60A0020A80A0020AF0A0020AE0A002080B582B000AF144B1B78002B06D000F093FA03461A46104B1A7014E00F4B1B78002B06D000F0AAFA03461A4635
:401B40000B4B1A7009E00B4B1B78002B05D000F029F903461A46074B1A70FFF7ADFA0346FB71FB7918460837BD4680BDAE0A0020B60A0020AF0A002080B500AFFFF780FD91
:401B8000FEF7A4FD01F0FEFB4FF40061002001F0B5FE01F03BFDFEF7A9FDFFF77FFD00BF80BD00BF80B582B000AF0346FB71FB7919460C4800F01EF80346002B02D00A4BB9
:401BC00001221A70FB791946084800F013F80346002B02D0064B01221A7000BF0837BD4680BD00BFB00A0020B60A0020A80A0020AF0A002080B582B000AF78600B46FB70CA
:401C00007B681B79DBB2FA789A4212D17B685B881BB29BB2013B9BB21AB27B685A807B685B881BB2002B04DC786800F007F8012300E0002318460837BD4680BD80B483B0A5
:401C400000AF78607B681B889BB21AB27B685A8000BF0C37BD4680BC704700BF80B485B000AF7860084611461A4603467B800B467B7013463B707B883B817B783B733B783E
:401C80007B73B7F902307B817B681A4607F10803186810609B88938078681437BD4680BC704700BF90B5ADF28C7D5EAF2F490020FEF722FD07F28C431846FFF743F92C4B97
:401CC00000932C4B2C4A2D490020FEF715FD07F28C44684604F1100340F27112194609F05FFA94E80F00FEF797FD07F542731846FEF7A2FA07F54274684604F1100340F294
:401D00007112194609F04CFA94E80F00FEF784FD07F5C2731846FEF72DFF07F5C274684604F1100340F27112194609F039FA94E80F00FEF771FD3B461846FEF731FC3C4638
:401D4000684604F1100340F27112194609F028FA94E80F00FEF760FD09490020FEF7CCFC00BF07F21467BD4690BD00BF944E010058C3FF1F48EBFF1F70EBFF1FC04E01003B
:401D8000E04E010080B500AF62B6FFF71DFEFFF789FFFFF7BFFE0346002BFAD1FFF7ECFEF7E700BF80B5D0B006AF012002F0C8F9642001F003FA002002F0C2F9FFF71AFD70
:401DC0000346002B01D10023F9E0FFF74FFC0346002B02D1FEF7C2FFF0E0FFF747FC0346042B40F0EB8078490020FEF785FC774B00221A70764B00221A70764B00221A70A8
:401E0000754BC7F82431754B5B7907F58070744A142109F063FDFEF73BFD024607F5807319467048FFF750FCFFF7E4FC0346A7F82231B7F8223107F1EC00694A142109F06D
:401E40004DFDFEF725FD024607F1EC0319466648FFF73AFCFFF7C4FC0346A7F82031B7F82031013B07F1D8005D4A142109F036FDFEF70EFD024607F1D80319465B48FFF783
:401E800023FC5B490020FEF737FC5A4B5A4A5B495048FFF777FD4F4A59490020FEF72CFC4B48FFF72DFD574B9B6F574A059200220492564A0392564A0292564A0192009332
:401EC000444B554A42494148FFF79EFC3F4A53490020FEF711FC002387F81F31494B9A6F381D4D4B009313464D4AC82109F0F6FC3B1D1A464B490020FEF7FEFB3B1D42F210
:401F0000107249491846FEF7B9FF034687F81F314FF47A7245494648FEF7B0FF034687F81F312A4809F09AFE03461A46274B134440491A460B461B88138041F288323E490A
:401F40002248FEF79BFF034687F81F3141F288323A493B48FEF792FF034687F81F3197F81F31012B1AD1FFF705FCFEF791FC0246344B1B68D31AC7F8183107F1CC00D7F87E
:401F80001831174A0A2109F0A9FCFEF781FC024607F1CC0319462C48FFF796FBFFF7C4FAC7F81401D7F81431002B03D0D7F8140100F0D2F8FEF7B2FE002300E00123184671
:401FC00007F59477BD4680BD0C4F0100409CFF1F70C3FF1F80EAFF1F1C4F010094060020244F0100284F0100304F0100404F0100544F0100684F010070EBFF1F784F0100AC
:40200000884F010084EBFF1F984F01009C4F0100A04F0100A84F010098EBFF1FB04F0100C84F0100E44F0100E84F0100EC4F0100F04F010000500100045001000C500100DB
:402040001C500100A40600203050010080B582B000AFFFF70BFB0346002B02D1FEF77EFE11E0FFF703FB0346042B0CD1FFF75CFA78607B68002B02D0786800F06DF8FEF776
:402080004DFE002300E0012318460837BD4680BD90B595B002AFFEF7FBFB786407F128031846FEF73BF897F84030002B13D0B7F93E30381D204A142109F010FC3B1D1A464A
:4020C0001E490020FEF718FB3B1D7A6C19461C48FFF7FAFA03E01B490220FEF70DFB07F118031846FEF720FC97F82430002B19D0BB69184608F02AF903460C46381DCDE944
:402100000034114A142109F0E9FB3B1D1A460F490020FEF7F1FA3B1D7A6C19460C48FFF7D3FA03E00B490220FEF7E6FA002318464C37BD4690BD00BF244F010040500100F4
:402140005450010064500100945001009C500100A8500100B050010080B586B000AF78607B68002B05DC18490220FEF7C5FA002325E03B1D184608F0CDFE78617B691B6840
:40218000DBB23B727B695B68DBB27B727B699B68DBB2BB727B695B699BB203F26C739BB27B827B691B69DBB23B747B69DB68DBB23B7307F10803184602F046F801231846F7
:4021C0001837BD4680BD00BFD850010080B582B000AF786039603A680021786809F056F800BF0837BD4680BD80B584B000AFF860B9607A607A68B968F86808F0D1FF00BF6C
:402200001037BD4680BD00BF80B483B000AF0346FB71FEE780B487B000AF7860396000233B6100237B6127E07B699B007A6813441B68BB60BB68FB73BB6823F0FF03BB601E
:4022400014E03B695B003A6813441B781A46BB68134419463B695B003A6813445B780B703B6901333B61FB7B013BFB73FB7B002BE7D17B6901337B617B69222BD4D900BFE2
:402280001C37BD4680BC704780B582B000AF5C4B1B78BB705B4B00221A805B4B58221A705A4B00221A805A4B50221A70594B19221A80594B19221A70584B19221A80584B4F
:4022C00019221A70574B4FF49C721A80564B18221A70042255495648FFF786FF554B02221A704FF0402308221A70534BF3221A70434B03221A70514B84221A70504B05229E
:402300001A70504B7B6006E04FF4F07004F040FC7B68013B7B607B68002B06D0484B1B78DBB203F02003002BEED0354ABB781370454B02221A70454B454A1278D2B21A702A
:40234000444B4FF4E1621A80434B41F251221A800023FB7019237B6014E0FB785B00DAB23E4B1B78DBB203F00103DBB21343DBB203F00303FB704FF4F07004F009FC7B68FA
:40238000013B7B607B68002B02D0FB78032BE4D17B68002B02D10320FFF736FF304B4FF480721A802E4B07221A702E4B00221A702D4B48221A702A4B00221A702B4B0222DF
:4023C0001A702B4B04221A702A4A2A4B1B78DBB243F01F03DBB21370274A274B1B78DBB243F00103DBB21370244A244B1B78DBB263F07F03DBB2137000BF0837BD4680BD55
:402400009846004080400040824000408440004086400040884000408A4000408C4000408E40004090400040924000405809004800410040004300400A430040094300405E
:4024400008430040A086010000420040A14600400B010049224200402042004025420040044000400640004008400040014000400B400040A2430040A1430040A0430040B5
:4024800080B483B000AF0F4B1B78FB710E4AFB7903F00703DBB213700C4AFB791B09DBB213700B4B02221A700A4B01221A700A4B20221A70094B66221A7000BF0C37BD4644
:4024C00080BC7047CF0100496E5800406F58004040580040A7430040C35A00407658004080B483B000AF0346FB71FB79022B24D8FA79FB791344FB71FB79124A52F82330D7
:40250000FA79104951F822201178FA790E48825C0A43D2B21A70FB790133FB71FB79094A52F82330FA79074951F822201178FA790548825C0A43D2B21A7000BF0C37BD466C
:4025400080BC7047105101002851010080B483B000AF0346FB71FB79022B28D8FA79FB791344FB71FB79144A52F82330FA79124951F822201178FA791048825CD243D2B2E3
:402580000A40D2B21A70FB790133FB71FB790A4A52F82330FA79084951F822201178FA790648825CD243D2B20A40D2B21A7000BF0C37BD4680BC704710510100285101000E
:4025C00080B483B000AF0346FB71FB79012B0ED8FB79094A52F82330FA79074951F822201178FA790548825C0A43D2B21A7000BF0C37BD4680BC7047305101003851010052
:4026000080B483B000AF0346FB71FB79012B10D8FB790A4A52F82330FA79084951F822201178FA790648825CD243D2B20A40D2B21A7000BF0C37BD4680BC70473051010000
:402640003851010080B586B000AF72B60023FB7513E0FA7D13465B0013445B004B4A13443B613B691A683B699B889BB219461046FFF7ACFDFB7D0133FB75FB7D072BE8D98E
:402680000023FB751CE0FA7D13469B0013445B003F4A1344FB60FB681B68BB60FB685B687B60FB681A7A5B7A1B0213437B807B881A467968B868FFF797FDFB7D0133FB75ED
:4026C000FB7D002BDFD033494FF09040FFF7A2FD314B0A221A70314B03221A80304A304B1B78DBB243F00203DBB213702D4A2D4B1B78DBB243F00203DBB213702A4A2A4B5E
:402700001B78DBB243F04003DBB21370274A274B1B78DBB243F01003DBB21370082224492448FFF761FD082223492448FFF75CFD0A2223492348FFF757FD082222492348A5
:40274000FFF752FD082222492248FFF74DFD224A214B1B78DBB243F00803DBB213701F4B61221A70FFF790FD1C4B81221A701C4B01221A70FFF784FE0E220B491948FFF79A
:4027800033FD00BF1837BD4680BD00BF3C5101006C5101008C00004883580040485800400350014013500140A0430040C24300402C0900480251004034090048C251004039
:4027C0003C090048F051004048090048225100405009004832510040224300400048004004000840B043004080B500AF08F08CFB03461B680C2B00D1FEE7FEE780B584B005
:4028000000AF7860104B1A687B6813441A460F4BD31AB3F5804F09DC0B4B1B68FB600A4B1A687B681344084A136007E008F06CFB02460C2313604FF0FF33FB60FB68184630
:402840001037BD4680BD00BFF080FF1F480B002080B586B000AF224B7B61224B3B61204B7B6135E03B691B68FB603B695B68BB603B699B683B6000237B600CE0FB681A6834
:40288000BB681A60BB680433BB60FB680433FB607B6804337B607A683B689A42EED13B69DB683B6000237B6008E0BB6800221A60BB680433BB607B6804337B607A683B68E6
:4028C0009A42F2D13B6910333B617B69013B7B617B69002BC6D108F009FCFFF753FAFEE7010000004458010080B582B000AF184B184A1A60184A184B1B6843F40073136097
:4029000000237B600FE07B68032B04D8134A7B6852F8233000E0124B12497A6841F822307B6801337B607B682F2BECD90E4B1B78DAB20E4B1A700E4B0A4A1A60FFF782FEEF
:402940000C4B00221A6000BF0837BD4680BD00BF0CED00E00004FA0514ED00E000000000E92700000080FF1FBC760040C480FF1F08ED00E0C080FF1F80B584B000AF034694
:40298000FB710023FB60234A224B1B78DBB243F00103DBB21370FB79002B36D01E4B1B78DBB203F00403FB721C4B1B78BB721C4B1B787B72182001F087F81023FB6010E023
:4029C000184B1B78DBB203F00103002B09D0154B1B78DBB203F00103002B02D00023FB6008E0012001F042F8034603F00103DBB2002BE5D0FB7A002B01D100F04BFB074A8D
:402A0000BB7A1370064A7B7A1370FB6818461037BD4680BD204200400043004080430040824300402542004080B400AF054A054B1B78DBB223F00103DBB2137000BFBD466F
:402A400080BC70472042004080B584B000AF0346FB711D4A1C4B1B78DBB243F01003DBB213701A4A194B1B78DBB243F01003DBB21370FB79002B23D0154B1B78DBB203F06D
:402A80000403FB73134B1B78BB73134B1B787B73002001F019F800BF012000F0E7FF034603F00103DBB2002BF6D0FB7B002B01D100F0F0FA074ABB7B1370074A7B7B1370EC
:402AC00000BF1037BD4680BDA0430040B043004000430040804300408243004080B400AF094A094B1B78DBB223F01003DBB21370064A064B1B78DBB223F01003DBB21370D8
:402B000000BFBD4680BC7047A0430040B043004080B483B000AF0023FB71124B1B78DBB203F00703002B06D10F4B1B78DBB203F00103002B0DD10B4B1B78DBB203F007037C
:402B4000012B08D1094B1B78DBB203F00103002B01D00123FB71FB7918460C37BD4680BC704700BF93430040A5430040B543004080B584B000AF0346FB71FFF7C9FF034645
:402B8000FB73FB7B012B07D1314A314B1B78DBB223F00203DBB21370FB79082B4FD801A252F823F0C92B0000D52B0000E12B0000ED2B0000F92B0000052C0000112C000076
:402BC0003F2C00001D2C0000224B234A1278D2B21A7039E01F4B214A1278D2B21A7033E01C4B1F4A1278D2B21A702DE0194B1D4A1278D2B21A7027E0164B1B4A1278D2B263
:402C00001A7021E0134B194A1278D2B21A701BE0104B174A1278D2B21A7015E00D4B154A1278D2B21A70FB7B012B0CD1084A084B1B78DBB243F00203DBB2137003E000208E
:402C400000F0B0FA00E000BF00BF1037BD4680BD09600040A146004008010049090100490A0100490B010049890100490C0100490D0100490F01004980B584B000AF03467D
:402C8000FB71684B1B78DBB203F00703FB73FB79082B01D0FB7900E00323BB73FB7B062B25D801A252F823F0C52C0000CB2C0000D12C0000D72C0000DD2C0000E32C0000A6
:402CC000E92C00000223FB7315E00123FB7312E00323FB730FE00023FB730CE00423FB7309E00523FB7306E00623FB7303E0002000F058FA00BFBA7BFB7B9A4203D3FB794D
:402D00001846FFF735FFFB79082B72D801A252F823F000BF392D0000512D0000692D00007B2D0000932D0000AB2D0000C32D0000F32D0000DB2D00003A4A3A4B1B78DBB260
:402D400023F04703DBB243F00303DBB2137054E0344A344B1B78DBB223F04703DBB243F00103DBB2137048E02E4A2E4B1B78DBB223F04703DBB213703FE02A4A294B1B785E
:402D8000DBB223F04703DBB243F00203DBB2137033E0244A234B1B78DBB223F04703DBB243F00403DBB2137027E01E4A1D4B1B78DBB223F04703DBB243F00503DBB21370E5
:402DC0001BE0184A174B1B78DBB223F04703DBB243F00603DBB213700FE0124A114B1B78DBB223F04703DBB243F04203DBB2137003E0002000F0D6F900BFFB79082B02D18A
:402E000000F058F801E000F065F8BA7BFB7B9A4203D2FB791846FFF7ABFE00BF1037BD4680BD00BF0042004080B582B000AF0346FB71FB79012B17D0022B02D0002B26D05E
:402E40002EE04FF040224FF040231B78DBB223F04003DBB21370164A154B1B78DBB243F02003DBB213701FE04FF040224FF040231B78DBB243F04003DBB213700C4A0C4BA0
:402E80001B78DBB243F02003DBB213700CE0084A074B1B78DBB223F02003DBB2137003E0002000F07FF900BF00BF0837BD4680BD0042004080B400AF054A054B1B78DBB20A
:402EC00043F01003DBB2137000BFBD4680BC70470042004080B400AF054A054B1B78DBB223F01003DBB2137000BFBD4680BC70470042004080B483B000AF0346FB71094919
:402F0000084B1B78DBB223F00303DAB2FB7903F00303DBB21343DBB20B7000BF0C37BD4680BC70470540004080B483B000AF0346FB71044AFB79137000BF0C37BD4680BC53
:402F4000704700BF0440004080B483B000AF0346FB80154A144B1B78DBB223F00F03DBB21370124B00221A70114A114B1B78DBB263F07F03DBB213700E4BFA88D2B21A70BC
:402F80000D4AFB881B0A9BB2DBB213700B4A0B4B1B78DBB243F00103DBB2137000BF0C37BD4680BC704700BF144000401040004008400040024000400340004001400040BA
:402FC00080B584B000AF0346FB8003F0E9FD0346FB73244B1B78DBB29BB21B02BB81224B1B78DBB29AB2BB891343BB81FB88002B02D0BB89002B29D11C4B1B78FB72FB7ABC
:40300000062B02D80720FFF78FFFFB88002B0CD1174A174B1B78DBB243F04003DBB21370FB881846FFF790FF0BE0FB881846FFF78BFF0F4A0E4B1B78DBB223F04003DBB27F
:403040001370FB7A1846FFF76FFF03E0FB881846FFF77AFFFB7B184603F0A6FD00BF1037BD4680BD0740004006400040044000400840004080B400AF054A054B1B78DBB2F8
:4030800043F00403DBB2137000BFBD4680BC70470043004080B400AF054A054B1B78DBB223F00403DBB2137000BFBD4680BC70470043004080B586B000AF0346FB71002398
:4030C0007B61FB793B742B4A2A4B1B78DBB243F00103DBB21370FB79002B45D0264B1B78FB74264B1B78BB74254B1B787B74182000F0EAFC10237B6125E01E4B1B780423EF
:40310000FB730EE000BF012000F0B0FC034603F00103DBB2002BF6D0FB7BDBB2013BDBB2FB73FB7BDBB2002BECD1124B1B78DBB25BB2002B02DB00237B6108E03B7CDBB217
:40314000013BDBB23B743B7CDBB2002BD5D1FB7C03F00403002B01D1FFF79CFF074ABB7C1370074A7B7C13707B6918461837BD4680BD00BF10420040004300408043004045
:403180008243004080B400AF054A054B1B78DBB223F00103DBB2137000BFBD4680BC70471042004080B483B000AF0346FB7101BE00BF0C37BD4680BC704700BF80B582B052
:4031C00000AF786008E00C4B1B68184603F0E0FC7B68A3F500437B607B68B3F5004FF2D8064B1B687A6802FB03F3184603F0D0FC00BF0837BD4680BD0081FF1FF880FF1FE3
:4032000080B582B000AF0346FB80FB88054A127802FB03F3184603F0BBFC00BF0837BD4680BD00BFFC80FF1F80B584B000AF03463960FB710F4B1B68FB60FB791F2B02D98F
:403240000020FFF7AFFFFB7903F01F0310339B00FA6813441B68BB60FB7903F01F0310339B00FA6813443A681A60BB6818461037BD4680BD08ED00E080B582B000AF034654
:403280000A46FB711346BB71BB79072B02D90020FFF788FFFB791F2B02D90020FFF782FFFB7903F01F0303F1604303F56443BA795201D2B21A7000BF0837BD4680BD00BF6F
:4032C00080B483B000AF7860264B1B78DBB21A467B681A60244B1B78DBB21B027A6812681A437B681A60214B1B78DBB21B047A6812681A437B681A601D4B1B78DBB21B0666
:403300007A6812681A437B681A607B680433194A1278D2B21A60184B1B78DBB21A027B6804337968043109680A431A60134B1B78DBB21A047B6804337968043109680A43E1
:403340001A600F4B1B78DBB21A067B6804337968043109680A431A6000BF0C37BD4680BC704700BF0301004904010049EC46004002010049010100490001004905010049DD
:403380000601004980B500AF924B1B78DBB203F00F03DAB2904B1A70904B1B78DAB28E4B5A708C4A8B4B1B78DBB223F00F03DBB213708A4B1B78894B00221A70884B1B78FA
:4033C000DBB223F03F03DAB2834B5A71372003F0EFFB844B1B78DBB203F00703DAB27E4BDA70804B1B78DBB203F04003DAB27A4B1A717C4B1B78DBB203F01003002B03D01F
:40340000754B01225A7202E0734B00225A72764B1B78DBB203F00303DAB26F4B9A706E4B9B78012B1CD14FF040231B78DBB203F00303012B08D0012B02D3022B08D00BE090
:403440000020FFF757FD0BE00220FFF753FD07E00320FFF74FFD03E00020FFF7A3FE00BF624B1B78DBB203F00103002B05D05A4B01229A73FFF7D8FA02E0574B00229A73D6
:403480000420FFF7F9FB5A4B1B78DBB203F01003DBB2002B03D0504B01229A7108E04E4B00229A710020FFF7CFFA0620FFF7A8FE4C4B1B78DBB203F02003002B10D04FF079
:4034C00040231B78DBB203F04003002B01D1022200E00122404BDA710020FFF7A5FC02E03D4B0022DA714FF040231B78DBB203F03003DAB2384B1A72374B1B7A002B09D0ED
:403500004FF040224FF040231B78DBB223F03003DBB21370334B1B78DBB203F01003002B01D0FFF7D7FC334B1B78DAB22A4B9A72294B9B7A002B02D00020FFF7F5FC264B4D
:403540009B78002B02D00020FFF7D4FC2A4B1B78DBB29BB21B029AB21F4B9A81274B1B78D9B21D4B9A898BB213439AB21A4B9A81194B9B89002B02D00020FFF721FD194BEE
:403580001B78DBB203F007031D4AD35C184603F00FFB1C4B1B78DBB203F00103002B05D00D4B0122DA73FFF7EDFD02E00A4B0022DA73154B1B78DBB203F00403002B03D0B9
:4035C000054B01221A7402E0034B00221A7400BF80BD00BFA14300407C8BFF1FA243004000480040004200400540004020420040A0430040044000400740004006400040DC
:4036000078510100104200400B40004080B586B000AF10233B61AB4A3B1D106818609188927999809A71A84B1B7C012B17D1A74B1B78DBB203F00703A54AD35C1A461346B1
:403640009B0013441A01D31A184603F0A1FAA14AA04B1B78DBB243F00403DBB213709A4BDB7B012B24D10020FFF724FD9A4B1B780523FB8219E0954B1B78DBB203F007037E
:40368000934AD35C1A46C82303FB02F3184603F07FFA914B1B78DBB25BB2002B02DB00233B6105E0FB8A013BFB82FB8A002BE2D1372003F07DFA844B9B78022B03D0824B30
:4036C0009B78032B10D1854B1B78DAB27E4B9B7A9A4204D07C4B9B7A1846FFF725FC7A4B9B781846FFF706FC774B1B7903F04003002B0CD0744BDB7807F11802134413F893
:40370000143C032B03D10820FFF7B6FA20E06E4BDB7807F11802134413F8143C1846FFF7ABFA694B1B7903F04003002B08D0674A664B1B78DBB243F04003DBB2137007E030
:40374000624A624B1B78DBB223F04003DBB213705D4B9B79012B0AD1614B1B78DBB203F01003DBB2002B02D10020FFF76DF9564BDB791846FFF758FB534B5B7A012B01D1C1
:40378000FFF798FB504B1B7A1A464FF040231B78DBB203F030039A4210D04FF040214FF040231B78DBB25BB223F030035AB2464B1B7A5BB213435BB2DBB20B70424B9B7B4A
:4037C000012B26D110233B610020FFF7D5F85020FFF716FD434B1B78AB23FB8216E00120FFF70EFD3F4B1B78DBB203F00103002B09D03C4B1B78DBB203F00103002B02D0B7
:4038000000233B6105E0FB8A013BFB82FB8A002BE5D12D4B9B78002B03D02B4B9B78012B10D12E4B1B78DAB2274B9B7A9A4204D0254B9B7A1846FFF777FB234B9B78184628
:40384000FFF758FB204B9B79002B09D1244B1B78DBB203F01003DBB2002B01D0FFF73EF9214B1B78DBB29BB21B02FB811F4B1B78DBB29AB2FB891343FB81134B9B89FA898D
:403880009A4204D0104B9B891846FFF799FB1849174B1B78DBB25BB203F03F035AB20A4B5B795BB213435BB2DBB20B70114B064A12781A70104B044A52781A7000BF183754
:4038C000BD4680BD805101007C8BFF1F00420040785101000B4000401042004004400040A043004025420040074000400640004000480040A1430040A243004080B584B093
:4039000000AF03460A46FB711346BB8003F048F90346FB734E4B1B78DBB203F00803002B0BD14C4A4B4B1B78DBB203F01F03DBB21370FB79002B08D004E0FB7B184603F003
:4039400033F981E00020FFF72DFC00F007F9424B1B78DAB2414B1A713F4ABB881B099BB2DBB213703E4B1B78DAB23C4B5A713C4ABB88DBB203F00F03DBB21370394B1B78FF
:40398000DAB2364B9A71374ABB881B0B9BB2DBB203F00103DBB21370334B1B78DBB203F00703002B04D12D4B012283F82E2014E02A4B002283F82E202B4B1B78DBB203F048
:4039C0000703DAB2254B83F82D20274A264B1B78DBB223F00703DBB213701D4A1C4B1B78DBB223F00703DBB243F00303DBB21370174B1B7800BF00BF30BF184B93F82E303B
:403A0000012B0FD01849184B1B78DBB25BB223F007035AB2114B93F82D305BB213435BB2DBB20B7000F0DAF90B4B0C4A12791A700B4B0A4A52791A700A4B084A92791A70E6
:403A4000FB7B184603F0B0F81037BD4680BD00BF9343004083460040984300404C8BFF1F994300409A4300400042004080B584B000AF0346FB7103F093F80346FB73104B4A
:403A80001B78DAB20F4B1B781343DAB20D4B1A700C4B1B7803F00703BB73FB79DB43DAB2084B1B781340DAB2064B1A70FB7B184603F07AF8BB7B18461037BD4680BD00BF50
:403AC000904300408E8BFF1F80B582B000AF0346FB71204A1F4B1B78DBB223F00203DBB21370FFF7C7FA1B4B1B78DBB203F00103002B19D0184B1B78DBB2FA799A4224D087
:403B0000144A144B1B78DBB223F00103DBB21370114AFB7913700F4A0E4B1B78DBB243F00103DBB2137010E00B4B1B78DBB2FA799A4202D0084AFB791370064A054B1B7813
:403B4000DBB243F00103DBB2137000BF0837BD4680BD00BF824300408043004080B400AF804B1B78DAB2804B9A72804B1B78DAB27D4BDA727E4B1B78DAB27B4B1A737D4BC7
:403B80001B78DAB2784B5A737B4B1B78DAB2764B9A737A4B1B78DAB2734BDA73784B1B78DAB2714B1A74774B1B78DAB26E4B5A74754B1B78DAB26C4B9A74744B1B78DAB29E
:403BC000694BDA74724B1B78DAB2674B1A75714B1B78DAB2644B5A756F4B1B78DAB2624B9A756E4B1B78DAB25F4BDA756C4B1B78DAB25D4B1A766B4B1B78DAB25A4B5A768F
:403C0000694B1B78DAB2584B9A76684B1B78DAB2554BDA76664B1B78DAB2534B1A77654B1B78DAB2504B5A77634B1B78DAB24E4B9A77624B1B78DAB24B4BDA77604B1B789A
:403C4000DAB2494B83F820205E4B1B78DAB2464B83F821205C4B1B78DAB2434B83F822205A4B1B78DAB2404B83F82320584B1B78DAB23D4B83F82420564B1B78DAB23A4BE8
:403C800083F82520374B00221A70384B00221A70374B00221A70374B00221A70364B00221A70364B00221A70354B00221A70354B00221A70344B00221A70344B00221A7083
:403CC000334B00221A70334B00221A70324B00221A70324B00221A70314B00221A70314B00221A70304B00221A70304B00221A702F4B00221A702F4B00221A702E4B002299
:403D00001A702E4B00221A702D4B00221A702D4B00221A702C4B00221A702C4B00221A702B4B00221A702B4B00221A702A4B1B78DBB203F00803002B0CD00B4B012283F874
:403D40002F20254A244B1B78DBB223F00803DBB2137003E0044B002283F82F2000BFBD4680BC7047005A00404C8BFF1F025A0040035A0040045A0040065A0040085A00404D
:403D80000A5A0040105A0040125A0040135A0040145A0040165A0040185A00401A5A0040205A0040225A0040235A0040245A0040265A0040285A00402A5A0040305A004097
:403DC000325A0040335A0040345A0040365A0040385A00403A5A00402243004080B400AF434B444A927A1A70434B424AD27A1A70424B404A127B1A70414B3E4A527B1A7023
:403E0000404B3C4A927B1A703F4B3A4AD27B1A703E4B384A127C1A703D4B364A527C1A703C4B344A927C1A703B4B324AD27C1A703A4B304A127D1A70394B2E4A527D1A708E
:403E4000384B2C4A927D1A70374B2A4AD27D1A70364B284A127E1A70354B264A527E1A70344B244A927E1A70334B224AD27E1A70324B204A127F1A70314B1E4A527F1A70FE
:403E8000304B1C4A927F1A702F4B1A4AD27F1A702E4B184A92F820201A702D4B154A92F821201A702B4B134A92F822201A702A4B104A92F823201A70284B0E4A92F824208A
:403EC0001A70274B0B4A92F825201A70094B93F82F30012B07D1234A224B1B78DBB243F00803DBB2137000BFBD4680BC704700BF005A00404C8BFF1F025A0040035A004052
:403F0000045A0040065A0040085A00400A5A0040105A0040125A0040135A0040145A0040165A0040185A00401A5A0040205A0040225A0040235A0040245A0040265A004085
:403F4000285A00402A5A0040305A0040325A0040335A0040345A0040365A0040385A00403A5A00402243004080B582B000AF786000F03CF8786800F009F8072000F018F865
:403F800000F028F800BF0837BD4680BD80B485B000AF7860054B1B68FB60FB6848337A681A6000BF1437BD4680BC704708ED00E080B483B000AF0346FB71054AFB795B019C
:403FC000DBB2137000BF0C37BD4680BC704700BF02E400E080B400AF034B04221A6000BFBD4680BC704700BF00E100E080B400AF034B04221A6000BFBD4680BC704700BFE9
:4040000080E100E080B500AF064B1B78002B04D100F00AF8034B01221A7000F00FF800BF80BD00BF8F8BFF1F80B500AF0A2000F05BF800F03FF800BF80BD00BF80B582B006
:4040400000AF1A4B1B78DBB203F00203002B18D102F0A6FD0346FB71144A144B1B78DBB243F00203DBB21370114A114B1B78DBB243F00403DBB21370FB79184602F094FD1B
:404080000FE002F08DFD0346FB71094A084B1B78DBB243F00403DBB21370FB79184602F083FD00BF0837BD4680BD00BF004300408243004080B582B000AF02F071FD034648
:4040C000FB71084A074B1B78DBB243F00803DBB21370FB79184602F067FD00BF0837BD4680BD00BF8243004080B483B000AF0346FB710D4B1B78DBB203F00403002B0DD1D2
:404100000A490A4B1B78DBB223F00F03DAB2FB7903F00F03DBB21343DBB20B7000BF0C37BD4680BC704700BF824300408143004080B500AF0220FFF799FC0346184680BD6D
:4041400080B485B000AF0346FB710A4B1B78DBB223F00103FB730749FB7903F00103DAB2FB7B1343DBB20B7000BF1437BD4680BC704700BF2051004080B500AF064B1B7825
:40418000002B04D100F022F8034B01221A7000F033F800BF80BD00BF908BFF1F80B400AF034B02221A6000BFBD4680BC704700BF00E100E080B400AF034B02221A6000BF59
:4041C000BD4680BC704700BF80E100E080B500AF00F0B8F8064B02221A6006490120FFF723F807210120FFF747F800BF80BD00BF80E100E07947000080B582B000AF02F093
:40420000CFFC0346FB71094A084B1B78DBB243F03003DBB21370FB79184602F0C5FC044B02221A6000BF0837BD4680BD8243004000E100E080B400AF024B1846BD4680BC7F
:40424000704700BF0481FF1F80B582B000AF7860FFF7B0FF7B681B78DAB2104B1A707B685B78DAB20D4B5A707B689B78DAB20B4B9A707B681B79DAB2084B1A717B681B7A0C
:40428000DAB2064B1A727B685B899AB2034B5A81FFF784FF00BF0837BD4680BD0481FF1F80B483B000AF0346FB71044AFB79137000BF0C37BD4680BC704700BF938BFF1FFC
:4042C00090B482B000AF0346FB710B46BB711346BB80BB79022B02D8BB88013BBB80BA88BB889B089BB21846BB881349A1FB03135B099BB2C31AB9880F48A0FB0101C90925
:4043000089B20B441344BA79013A0C498A5C1146FA790A441A440A4BA2FB0334111B49080B1999080B46DB005B1AD11ACBB218460837BD4690BC70471F85EB5194510100A0
:404340002549922480B582B000AFA04B0022DA809E4B1B79D9B29D4BDB889AB28BB213449AB29A4BDA80994B5B899BB2984AA2FB0312D2094FF4C87101FB02F29B1A9BB2EC
:40438000002B15D0914B5B899BB203F003039BB2002B16D18D4B5B899BB28D4AA2FB03125209642101FB02F29B1A9BB2002B08D0884B1B78DBB243F00203DAB2854B1A7010
:4043C00007E0844B1B78DBB223F00203DAB2814B1A700023FB710DE07C4BDB889AB2FB797D49CB5C9BB213449AB2784BDA80FB790133FB71FA79754B1B7ADBB2013B9A420C
:40440000EAD3744B1B78DBB203F00203002B0BD06E4B1B7ADBB2022B06D96C4BDB889BB201339AB2694BDA80684B1B79D8B2674B1B7AD9B2654B5B899BB21A46FFF740FFED
:4044400003460133DAB2614BDA70604BDB78DBB2002B05D05D4BDB78DAB25C4BDA7006E05A4BDB78DBB20733DAB2584BDA70574B9B78DBB20B2B08D8564B1B78DBB223F0F0
:404480000403DAB2534B1A7007E0524B1B78DBB243F00403DAB24F4B1A70504B1B78DBB203F00103002B18D04D4B1B78DAB2474B1B78DBB29A4208D14A4B1B78DBB243F0E8
:4044C0000103DAB2474B1A7007E0464B1B78DBB223F00103DAB2434B1A70404B1B78DBB203F00203002B18D03D4B5B78DAB2374B5B78DBB29A4208D13A4B1B78DBB243F0B1
:404500000203DAB2374B1A7007E0364B1B78DBB223F00203DAB2334B1A70304B1B78DBB203F00403002B18D02D4B9B78DAB2274B9B78DBB29A4208D12A4B1B78DBB243F05C
:404540000403DAB2274B1A7007E0264B1B78DBB223F00403DAB2234B1A70204B1B78DBB203F00803002B18D01D4BDB78DAB2174BDB78DBB29A4208D11A4B1B78DBB243F004
:404580000803DAB2174B1A7007E0164B1B78DBB223F00803DAB2134B1A70104B1B78DBB203F02003002B27D00D4BDB889AB2074BDB889BB29A4217D10A4B1B78DBB243F056
:4045C0002003DAB2074B1A7016E000BF0481FF1F1F85EB51948BFF1F88510100918BFF1F1081FF1F928BFF1F424B1B78DBB223F02003DAB23F4B1A703F4B1B78DBB203F09D
:404600001003002B18D03D4B1B79DAB23C4B1B79DBB29A4208D1374B1B78DBB243F01003DAB2344B1A7007E0324B1B78DBB223F01003DAB22F4B1A702F4B1B78DBB203F00B
:404640004003002B18D02D4B1B7ADAB22C4B1B7ADBB29A4208D1274B1B78DBB243F04003DAB2244B1A7007E0224B1B78DBB223F04003DAB21F4B1A701F4B1B78DBB25BB28F
:40468000002B18DA1D4B5B899AB21D4B5B899BB29A4208D1174B1B78DBB263F07F03DAB2144B1A7007E0134B1B78DBB203F07F03DAB2104B1A70104B1B78BB71BB79002B67
:4046C00013D00C4B1B78DAB2BB791340DBB2BA799A420AD10B4B1B78DBB243F00803DAB2084B1A70034B00221A7000BF0837BD4680BD00BF928BFF1F918BFF1F1081FF1F2B
:404700000481FF1F948BFF1F80B500AF0020FDF749FA00BF80BD00BF80B500AF0120FDF741FA00BF80BD00BF80B500AF0220FDF739FA00BF80BD00BF80B500AF0320FDF7D1
:4047400031FA00BF80BD00BF80B500AF0420FDF729FA00BF80BD00BF80B500AF0520FDF721FA00BF80BD00BF80B500AF0620FDF719FA00BF80BD00BF80B582B000AF0420A0
:40478000FFF774F99E4B1B78DBB20133DAB29C4B1A709B4B1B78DBB23B2B40F2A682984B5B78DBB20133DAB2954B5A70944B00221A70934B5B78DBB23B2B40F24682904BE5
:4047C0009B78DBB20133DAB28D4B9A708C4B00225A708B4B9B78DBB2172B40F2DD81884B1B79DBB20133DAB2854B1A71844B00229A70834BDB889BB201339AB2804BDA803F
:404800007F4BDB78DBB20133DAB27D4BDA707C4BDB78DBB2072B02D9794B0122DA70794B1B78DBB203F00203002B11D0744B1B7ADBB2022B0CD1724B1B79DBB21946704B4C
:404840001B7ADBB2013B704AD35C013399422AD86C4B1B78DBB203F00203002B0FD0684B1B7ADBB2022B0AD0654B1B79DAB2644B1B7ADBB2013B6449CB5C9A4213D8614B07
:404880001B78DBB203F00203002B40F0F4805C4B1B79DAB25A4B1B7ADBB2013B5A49CB5C9A4240F2E880564B1B7ADBB20133DAB2534B1A72524B01221A71514B1B7ADBB251
:4048C0000C2B40F285804E4B5B899BB201339AB24B4B5A814A4B01221A72494B0122DA80474B5B899BB2494AA2FB0312D2094FF4C87101FB02F29B1A9BB2002B15D0404B4E
:404900005B899BB203F003039BB2002B16D13C4B5B899BB23D4AA2FB03125209642101FB02F29B1A9BB2002B08D0364B1B78DBB243F00203DAB2334B1A7007E0314B1B78C5
:40494000DBB223F00203DAB22E4B1A70304B1B78DBB25BB2002B18DA2E4B5B899AB2284B5B899BB29A4208D12B4B1B78DBB263F07F03DAB2284B1A7007E0274B1B78DBB2CF
:4049800003F07F03DAB2244B1A70214B1B78FB71FB79002B13D0204B1B78DAB2FB791340DBB2FA799A420AD1164B1B78DBB243F00803DAB2134B1A70174B00221A70174B65
:4049C0001B78DBB203F04003002B01D0FFF7CCFE0F4B1B78DBB203F04003002B28D00D4B1B7ADAB2064B1B7ADBB29A4218D10A4B1B78DBB243F04003DAB2074B1A7017E0D7
:404A00000481FF1F948BFF1F885101001F85EB51918BFF1F1081FF1F928BFF1F938BFF1F964B1B78DBB223F04003DAB2934B1A70934B1B78FB71FB79002B13D08F4B1B7865
:404A4000DAB2FB791340DBB2FA799A420AD18D4B1B78DBB243F00803DAB28A4B1A70874B00221A70884B1B78DBB203F02003002B01D0FFF771FE824B1B78DBB203F0080338
:404A8000002B18D0814BDB78DAB2814BDB78DBB29A4208D1794B1B78DBB243F00803DAB2764B1A7007E0754B1B78DBB223F00803DAB2724B1A70724B1B78DBB203F0200333
:404AC000002B18D0714BDB889AB2714BDB889BB29A4208D1694B1B78DBB243F02003DAB2664B1A7007E0654B1B78DBB223F02003DAB2624B1A70624B1B78DBB203F01003A3
:404B0000002B18D0614B1B79DAB2614B1B79DBB29A4208D1594B1B78DBB243F01003DAB2564B1A7007E0554B1B78DBB223F01003DAB2524B1A70524B1B78FB71FB79002B98
:404B400013D04E4B1B78DAB2FB791340DBB2FA799A420AD14B4B1B78DBB243F00803DAB2484B1A70454B00221A70474B1B78DBB203F00803002B01D0FFF7DEFD444BDB78E4
:404B8000DBB2012B08D1404B1B78DBB203F01003002B01D0FFF7D8FD3D4B9B78DBB20B2B08D8384B1B78DBB223F00403DAB2354B1A7007E0334B1B78DBB243F00403DAB20F
:404BC000304B1A702E4B1B78DBB203F00403002B18D02E4B9B78DAB22D4B9B78DBB29A4208D1264B1B78DBB243F00403DAB2234B1A7007E0214B1B78DBB223F00403DAB2BD
:404C00001E4B1A701E4B1B78FB71FB79002B13D01A4B1B78DAB2FB791340DBB2FA799A420AD1184B1B78DBB243F00803DAB2154B1A70124B00221A70134B1B78DBB203F0E4
:404C40000403002B01D0FFF76FFD0D4B1B78DBB203F00203002B25D00C4B5B78DAB20C4B5B78DBB29A4215D1044B1B78DBB243F00203DAB2014B1A7014E000BF928BFF1F19
:404C8000918BFF1F948BFF1F938BFF1F1081FF1F0481FF1F384B1B78DBB223F00203DAB2354B1A70354B1B78FB71FB79002B13D0314B1B78DAB2FB791340DBB2FA799A425F
:404CC0000AD12F4B1B78DBB243F00803DAB22C4B1A70294B00221A702A4B1B78DBB203F00203002B01D0FFF717FD244B1B78DBB203F00103002B18D0234B1B78DAB2234B2D
:404D00001B78DBB29A4208D11B4B1B78DBB243F00103DAB2184B1A7007E0174B1B78DBB223F00103DAB2144B1A70144B1B78FB71FB79002B13D0104B1B78DAB2FB79134052
:404D4000DBB2FA799A420AD10D4B1B78DBB243F00803DAB20A4B1A70074B00221A70094B1B78DBB203F00103002B01D0FFF7CCFC00BF0837BD4680BD928BFF1F918BFF1F85
:404D8000948BFF1F938BFF1F1081FF1F0481FF1F80B500AF064B1B78002B04D100F00AF8034B01221A7000F015F800BF80BD00BF958BFF1F80B400AF044B72221A70044BDE
:404DC00020221A7000BFBD4680BC7047866400408665004080B582B000AF01F0E1FE0346FB710C4A0B4B1B78DBB243F02003DBB21370094A084B1B78DBB243F01003DBB277
:404E00001370FB79184601F0CFFE00BF0837BD4680BD00BF966400409665004080B582B000AF01F0BDFE0346FB710C4A0B4B1B78DBB223F02003DBB21370094A084B1B782B
:404E4000DBB223F01003DBB21370FB79184601F0ABFE00BF0837BD4680BD00BF966400409665004080B483B000AF0023FB710C4B1B78BB71BB7903F02003002B09D0094B34
:404E80001B78FB71BB7903F01E03002B01D00023FB71FB7918460C37BD4680BC704700BF666500404664004080B582B000AF01F077FE0346FB710C4A0B4B1B78DBB243F031
:404EC0000103DBB21370084A074B1B78DBB223F00103DBB21370FB79184601F065FE00BF0837BD4680BD00BF9664004080B582B000AF786000F048F8786800F015F8072034
:404F000000F024F800F034F800BF0837BD4680BD80B500AF00F038F8024800F005F800BF80BD00BFE927000080B485B000AF7860054B1B68FB60FB6840337A681A6000BFF6
:404F40001437BD4680BC704708ED00E080B483B000AF0346FB71054AFB795B01DBB2137000BF0C37BD4680BC704700BF00E400E080B400AF034B01221A6000BFBD4680BCDA
:404F8000704700BF00E100E080B400AF034B01221A6000BFBD4680BC704700BF80E100E080B485B000AF0346FB710B4B1B78DBB223F01003FB730849FB791B01DBB203F0FF
:404FC0001003DAB2FB7B1343DBB20B7000BF1437BD4680BC704700BFC051004080B500AF00F032F800BF80BD80B500AF00F046F800BF80BD80B485B000AF0346FB710B4B03
:405000001B78DBB223F02003FB730849FB795B01DBB203F02003DAB2FB7B1343DBB20B7000BF1437BD4680BC704700BF2051004080B400AF00BFBD4680BC704780B400AF9D
:4050400000BFBD4680BC704780B500AF094B1B78DBB203F01003002B14BF01230023DBB21A46054B1A7001F05FFEFFF7E1FF00BF80BD00BF916400401C81FF1F80B500AF5E
:40508000FFF7DCFF01F0D4FE034B1B78002B01D001F006FE00BF80BD1C81FF1F80B485B000AF0346FB710B4B1B78DBB223F01003FB730849FB791B01DBB203F01003DAB2FC
:4050C000FB7B1343DBB20B7000BF1437BD4680BC704700BF3051004080B485B000AF0346FB710B4B1B78DBB223F00203FB730849FB795B00DBB203F00203DAB2FB7B134396
:40510000DBB20B7000BF1437BD4680BC704700BF2051004080B485B000AF0346FB710B4B1B78DBB223F02003FB730849FB795B01DBB203F02003DAB2FB7B1343DBB20B70EC
:4051400000BF1437BD4680BC704700BF3051004080B485B000AF0346FB710B4B1B78DBB223F01003FB730849FB791B01DBB203F01003DAB2FB7B1343DBB20B7000BF1437FA
:40518000BD4680BC704700BF2051004080B582B002AF414B01221A70404B00221A70102000F066FF102001F049F807211D20FEF763F83B4B04221A703A4B00221A703A4B79
:4051C00000221A70394A394B1B78DBB243F01803DBB21370364B00221A70364B00221A70354B00221A70354B0A221A70344B00221A70344B00221A70334B5B221A70334B69
:405200005E221A70324B00221A70324B14221A700123009310234FF4004249F2DA01002000F0A6FC0223009310234FF4004249F2DA01002000F09CFC0323009310234FF46A
:40524000004249F2DA01002000F092FC0423009310234FF4004249F2DA01002000F088FC1D4A0D4B1B78DBB2013B1C499B000B449B7813701A4A084B1B78DBB2013B1749A9
:4052800031F823301380044B1B78DBB2184600F067FA00BFBD4680BD1E81FF1F988BFF1F96580040975800409E580040075B004093580040885B0040895B00408058004005
:4052C000815800408358004088580040895800408D580040014E00400E4E0040A08BFF1F0C4E004080B582B000AF01F059FC0346FB71444B1B78BB71434A434B1B78DBB26C
:4053000043F00103DBB213703F4A3F4B1B78DBB243F01003DBB213703C4A3C4B1B78DBB243F00103DBB21370384A384B1B78DBB243F01003DBB21370354A354B1B78DBB28F
:4053400043F00203DBB21370324A324B1B78DBB243F00203DBB213702F4A2F4B1B78DBB243F00303DBB213700320FDF749FF284A274B1B78DBB223F00203DBB21370254A2E
:40538000244B1B78DBB223F00203DBB21370234A224B1B78DBB243F00603DBB21370204B7A221A701F4A1F4B1B78DBB243F00103DBB213701C4A1C4B1B78DBB243F0010301
:4053C000DBB21370194A194B1B78DBB243F00203DBB21370164A164B1B78DBB243F00203DBB21370134B4FF000521A60124B4FF000521A60FB79184601F0D6FB00BF0837E2
:40540000BD4680BD1E81FF1FAA430040BA430040F8460040F9460040915800407758004082580040A1430040B1430040A2430040B243004080E200E000E100E080B500AF1D
:40544000084B1B78002B09D1074B1B78DBB2002B01D1FFF79BFE034B01221A70FFF742FF00BF80BD9A8BFF1F9B8BFF1F80B582B000AF01F095FB0346FB714D4A4C4B1B7881
:40548000DBB223F00103DBB213704A4A494B1B78DBB243F00403DBB21370474A464B1B78DBB243F00203DBB21370444A434B1B78DBB243F00203DBB21370414A404B1B78EF
:4054C000DBB223F00303DBB213703E4A3D4B1B78DBB223F00803DBB213700320FDF790FE354A354B1B78DBB223F00203DBB21370324A324B1B78DBB223F00203DBB213706B
:40550000314A314B1B78DBB223F01003DBB213702D4A2D4B1B78DBB223F00103DBB213702A4A2A4B1B78DBB223F00103DBB21370264A264B1B78DBB223F01003DBB2137081
:40554000234A234B1B78DBB223F00603DBB21370204A204B1B78DBB223F00103DBB213701D4A1D4B1B78DBB223F00103DBB213701A4A1A4B1B78DBB223F00803DBB21370BB
:40558000174A174B1B78DBB223F00203DBB21370144A144B1B78DBB223F00203DBB21370FB79184601F000FB00BF0837BD4680BD004E0040014E0040F8460040F9460040C5
:4055C0009158004092580040AA430040BA43004077580040A1430040B143004082580040A2430040B243004080B400AF054A054B1B78DBB243F00103DBB2137000BFBD4668
:4056000080BC7047004E004080B400AF054A054B1B78DBB223F00103DBB2137000BFBD4680BC7047004E004080B485B000AF0346FB710D4B1B78DBB2002B03D00B4B1B78B1
:40564000FB7305E00A4B1B78DBB203F00103FB73FB7B012B02D0FB79002BEAD0FB7B18461437BD4680BC7047998BFF1F988BFF1F014E004080B483B000AF224B1B78DBB266
:4056800003F00303FB70FB78012B0BD81E4B1B889BB27B607B681B041C4A128892B213437B6020E0FB78022B12D1174B1B889BB27B607B681B04154A1278D2B213437B6009
:4056C000134B1B78DBB21B027A6813437B600AE00E4B1B889BB27B600B4B1B889BB21B047A6813437B600B4B1B78DBB2002B02D0094B00221A707B6818460C37BD4680BC40
:40570000704700BF144E0040124E0040104E0040114E0040998BFF1F988BFF1F90B585B000AF78600C4B1B687A68D31A7B60786805F042FA0446094B1B68184605F03CFAB1
:4057400003461946204605F03FFB0346FB60FB6818461437BD4690BD9C8BFF1FB80A002080B582B000AF0346FB71C34B00221A70FB79012B66D1C14B30221A70C04B042250
:405780001A70C04B06221A70BF4B00221A70BF4B00221A70BE4B3F221A70BE4B00221A70BD4B00221A70BD4B00221A70BC4B01221A70BC4B50221A70BB4B27221A70BB4B8F
:4057C0002C221A70BA4B00221A70BA4B55221A70B94B5A221A70B94B05221A70B84B00221A70B84B00221A70B74B0A221A70B74B43221A70442000F073FAB54B58221A708F
:40580000B44B00221A70B44B02221A70B34B02221A70B34B00221A70B24B00221A70002000F054FBB04B4FF47A421A600121052000F060FB01218A2000F042FCAB491D2081
:40584000FDF7F2FCFB79022B66D18C4B38221A708B4B04221A708B4B06221A708A4B00221A708A4B00221A70894B3F221A70894B00221A70884B00221A70884B00221A7066
:40588000874B01221A70874B50221A70864B27221A70864B2C221A70854B00221A70854B55221A70844B5A221A70844B05221A70834B01221A70834B11221A70824B19229E
:4058C0001A70824B97221A70442000F009FA804B58221A707F4B00221A707F4B05221A707E4B02221A707E4B00221A707D4B00221A70002000F0EAFA7B4B4FF47A421A6064
:405900000121052000F0F6FA0121252000F0D8FB77491D20FDF788FCFB79032B66D1574B38221A70564B04221A70564B06221A70554B00221A70554B00221A70544B3F2206
:405940001A70544B00221A70534B00221A70534B00221A70524B01221A70524B50221A70514B27221A70514B2C221A70504B00221A70504B55221A704F4B5A221A704F4BDB
:4059800005221A704E4B01221A704E4B11221A704D4B19221A704D4B97221A70442000F09FF94B4B58221A704A4B00221A704A4B05221A70494B02221A70494B00221A70D3
:4059C000484B00221A70002000F080FA464B4FF47A421A600121052000F08CFA0121252000F06EFB43491D20FDF71EFCFB79042B40F0A980214B38221A70214B04221A7018
:405A0000204B06221A70204B00221A701F4B00221A701F4B3F221A701E4B00221A701E4B00221A701D4B00221A701D4B01221A701C4B50221A701C4B27221A701B4B2C2223
:405A40001A701B4B00221A701A4B55221A701A4B5A221A70194B05221A70194B01221A70184B11221A70184B19221A70174B97221A70442040E000BF998BFF1F004E004093
:405A8000024E0040034E0040044E0040054E0040064E0040084E0040094E00400A4E0040144E0040845800408558004086580040875800408A5800408B5800408C580040C6
:405AC0008E5800408F580040905800409158004094580040955800409A5800409B5800409C5800409D580040B80A0020D15D0000DD5D0000E95D000000F0F2F8144B58229E
:405B00001A70144B00221A70134B05221A70134B02221A70124B00221A70124B00221A70002000F0D3F9104B4FF47A421A600121052000F0DFF90121252000F0C1FA0B497E
:405B40001D20FDF771FB00BF0837BD4680BD00BF94580040955800409A5800409B5800409C5800409D580040B80A0020F55D000090B587B000AF0446084611461A4623464D
:405B8000FB710346BB800B467B801346BB7197F82830002B00F08B8097F82830042B00F28680FB79013B092B4AD801A252F823F0D95B0000415C0000415C0000D95B000061
:405BC000415C0000415C0000F35B00000D5C0000415C0000275C0000BB790F2B04D9374B1B78DBB2FB752EE0354B1B78DBB2FB7529E0BB790F2B04D9324B1B78DBB2FB75B8
:405C000021E0314B1B78DBB2FB751CE0BB790F2B04D92E4B1B78DBB2FB7514E02C4B1B78DBB2FB750FE0BB790F2B04D9294B1B78DBB2FB7507E0284B1B78DBB2FB7502E002
:405C40000023FB7500BFBA8897F917305B0113443B617B883A6902FB03F3FB60FB68DB0BBB82BB790D2B12D8BA8ABB79C3F10E0342FA03F3BB8297F82830013BBA79013265
:405C8000D1B2164A9B0013440A469A7007E097F82830013B114A9B0013440F229A7097F82830013B0D49BA8A21F8232002E00020FDF778FA00BF1C37BD4690BD18010049DE
:405CC0001C010049190100491D0100491A0100491E0100491B0100491F010049A08BFF1F80B584B000AF0346FB7100F059FF0346FB73174A164B1B78DBB243F00303DBB21D
:405D00001370144A134B1B78DBB243F00303DBB21370114AFB7913700320FDF771FA0C4A0B4B1B78DBB223F00303DBB21370094A084B1B78DBB223F00303DBB21370FB7B8D
:405D4000184600F031FF00BF1037BD4680BD00BFF8460040F94600409258004080B582B000AF0B4A0A4B1B78DBB243F00403DBB21370FFF739FC0020FFF756FCFFF77AFC50
:405D80007860FFF741FC7B6818460837BD4680BD014E004080B400AF044B1B78DAB2044B5A7000BFBD4680BC704700BF004E00402081FF1F80B400AF034B044A52781A708B
:405DC00000BFBD4680BC7047004E00402081FF1F80B400AF00BFBD4680BC704780B400AF00BFBD4680BC704780B400AF00BFBD4680BC704780B400AF00BFBD4680BC704741
:405E000080B582B000AF0023FB7106E0FB791846FCF79CFBFB790133FB71FB79022BF5D9034BFF221A7000BF0837BD4680BD00BF2281FF1F80B582B000AF0346FB71FFF780
:405E4000DFFFFB791846FCF74BFB034AFB79137000BF0837BD4680BD2281FF1F80B485B000AF0346FB710B4B1B78DBB223F00203FB730849FB795B00DBB203F00203DAB2FC
:405E8000FB7B1343DBB20B7000BF1437BD4680BC704700BFC051004080B582B000AF0023FB7106E0FB791846FCF7AAFBFB790133FB71FB79012BF5D9034BFF221A7000BFCF
:405EC0000837BD4680BD00BF2381FF1F80B582B000AF0346FB71FFF7DFFFFB791846FCF76FFB034AFB79137000BF0837BD4680BD2381FF1F80B584B000AF03460A46FB8064
:405F000013467B7100F0CEF80346FB7300F0A4F80346BB81FA88BB899A4200F08880464B1B78DBB203F00203FB72FB7B002B20D1BB89002B02D0FB88002B1AD1BB89002B13
:405F40000BD13E4AFB8813803D4A3D4B1B78DBB223F04003DBB2137069E0394A384B1B78DBB243F04003DBB21370344AFB8813805DE0FB7A002B33D0324B00221A70324B03
:405F800002221A70314B00221A70314A304B1B78DBB203F07F03DBB21370294B1B78DBB203F00803002B02D0FB88002B18D1294ABB891380234B07221A7000BF214B1B7821
:405FC000DBB203F00103002BF8D11B4A1A4B1B78DBB223F00203DBB213701A4B00221A70154B1B78DBB203F00203002B13D0194AFB881380134A7B79002B01D0032300E0B4
:406000000123137000BF0F4B1B78DBB203F00103002BF8D10BE0094AFB8813800649064B1B78DAB2FB7A1343DBB20B70FFE700BF1037BD4680BD00BFA2430040844000409B
:4060400086400040014000401040004014400040084000400240004080B400AF034B1B889BB21846BD4680BC704700BF8440004080B483B000AF0346FB710949084B1B7830
:40608000DBB25AB297F9073023F007035BB213435BB2DBB20B7000BF0C37BD4680BC70478640004080B400AF044B1B78DBB203F00703DBB21846BD4680BC704786400040B7
:4060C00080B584B000AF03460A46FB8013467B7100F0CEF80346FB7300F0A4F80346BB81FA88BB899A4200F08880464B1B78DBB203F00103FB72FB7B002B20D1BB89002B01
:4061000002D0FB88002B1AD1BB89002B0BD13E4AFB8813803D4A3D4B1B78DBB223F04003DBB2137069E0394A384B1B78DBB243F04003DBB21370344AFB8813805DE0FB7A3B
:40614000002B33D0324B00221A70324B01221A70314B00221A70314A304B1B78DBB203F07F03DBB21370294B1B78DBB203F00803002B02D0FB88002B18D1294ABB8913806B
:40618000234B07221A7000BF214B1B78DBB203F00103002BF8D11B4A1A4B1B78DBB223F00103DBB213701A4B00221A70154B1B78DBB203F00103002B13D0194AFB88138068
:4061C000134A7B79002B01D0032300E00123137000BF0F4B1B78DBB203F00103002BF8D10BE0094AFB8813800649064B1B78DAB2FB7A1343DBB20B70FFE700BF1037BD46AC
:4062000080BD00BFA14300400041004002410040014000401440004010400040084000400240004080B400AF034B1B889BB21846BD4680BC704700BF0041004080B483B06F
:4062400000AF0346FB710949084B1B78DBB25AB297F9073023F007035BB213435BB2DBB20B7000BF0C37BD4680BC70470241004080B400AF044B1B78DBB203F00703DBB236
:406280001846BD4680BC70470241004080B500AF064B1B78002B04D100F00AF8034B01221A7000F01BF800BF80BD00BFB08BFF1F80B400AF064B06221A70064B47221A7011
:4062C000054B00221A7000BFBD4680BC704700BF23640040336400408564004080B582B000AF00F05DFC0346FB71094A084B1B78DBB243F01003DBB2137000F0C7F8FB7914
:40630000184600F051FC00BF0837BD4680BD00BF9564004080B582B000AF00F041FC0346FB7100F0CDF8084A074B1B78DBB223F01003DBB21370FB79184600F035FC00BF33
:406340000837BD4680BD00BF9564004080B400AF034B1B78DBB21846BD4680BC704700BF6564004080B483B000AF0346FB7100BF074B1B78DBB203F00403002BF8D1054A00
:40638000FB79137000BF0C37BD4680BC704700BF656400404564004080B584B000AF78600023FB810C4B1B78002B10D009E0FB897A6813441B781846FFF7D4FFFB890133A1
:4063C000FB81FB897A6813441B78002BEFD100BF1037BD4680BD00BFB08BFF1F80B582B000AF00F0DDFB0346FB710C4A0B4B1B78DBB243F00103DBB21370084A074B1B78AB
:40640000DBB223F00103DBB21370FB79184600F0CBFB00BF0837BD4680BD00BF9564004080B400AF00BFBD4680BC704780B400AF00BFBD4680BC704780B500AF094B1B78EF
:40644000DBB203F01003002B03D0074B01221A7002E0054B00221A70FFF75CFFFFF7E0FF00BF80BD95640040B48BFF1F80B500AFFFF7DCFFFFF7B2FF034B1B78002B01D0BD
:40648000FFF72CFF00BF80BDB48BFF1F80B400AF094A094B1B78DBB243F00403DBB21370064A064B1B78DBB243F00403DBB2137000BFBD4680BC7047A2430040B243004054
:4064C00080B400AF094A094B1B78DBB223F00403DBB21370064A064B1B78DBB223F00403DBB2137000BFBD4680BC7047A2430040B243004080B485B000AF0346FB710B4BAB
:406500001B78DBB223F00203FB730849FB795B00DBB203F00203DAB2FB7B1343DBB20B7000BF1437BD4680BC704700BFF051004080B485B000AF0346FB710B4B1B78DBB22D
:4065400023F01003FB730849FB791B01DBB203F01003DAB2FB7B1343DBB20B7000BF1437BD4680BC704700BF0051004080B485B000AF0346FB710A4B1B78DBB223F001030A
:40658000FB730749FB7903F00103DAB2FB7B1343DBB20B7000BF1437BD4680BC704700BFF051004080B500AF064B1B78002B04D100F00AF8034B01221A7000F025F800BF91
:4065C00080BD00BFB58BFF1F80B400AF094B72221A70094B20221A70084B06221A70084B47221A70074B00221A7000BFBD4680BC704700BF876500408565004027650040ED
:40660000376500408464004080B582B000AF00F0C7FA0346FB71114A104B1B78DBB243F02003DBB213700E4A0D4B1B78DBB243F01003DBB213700B4A0A4B1B78DBB243F07B
:406640001003DBB2137000F089F9FB79184600F0ABFA00BF0837BD4680BD00BF97650040956500409464004080B582B000AF00F097FA0346FB71114A104B1B78DBB223F03E
:406680002003DBB2137000F083F90D4A0C4B1B78DBB223F01003DBB213700A4A094B1B78DBB223F01003DBB21370FB79184600F07BFA00BF0837BD4680BD00BF97650040C9
:4066C000956500409464004080B483B000AF0023FB710C4B1B78BB71BB7903F02003002B09D0094B1B78FB71BB7903F01E03002B01D00023FB71FB7918460C37BD4680BCA5
:40670000704700BF656500404565004080B483B000AF084B1B78DBB203F02003002B01D0012300E00023FB71FB7918460C37BD4680BC70476565004080B582B000AF00F0A6
:406740002FFA0346FB710C4A0B4B1B78DBB243F00103DBB21370084A074B1B78DBB223F00103DBB21370FB79184600F01DFA00BF0837BD4680BD00BF9565004080B483B0C6
:4067800000AF0346FB7100BF074B1B78DBB203F00403002BF8D1054AFB79137000BF0C37BD4680BC704700BF646400404464004080B584B000AF78600023FB810C4B1B78F0
:4067C000002B10D009E0FB897A6813441B781846FFF7D4FFFB890133FB81FB897A6813441B78002BEFD100BF1037BD4680BD00BFB58BFF1F80B582B000AF00F0D1F9034643
:40680000FB710C4A0B4B1B78DBB243F00103DBB21370084A074B1B78DBB223F00103DBB21370FB79184600F0BFF900BF0837BD4680BD00BF9464004080B400AF00BFBD469A
:4068400080BC704780B400AF00BFBD4680BC704780B500AF094B1B78DBB203F01003002B03D0074B01221A7002E0054B00221A70FFF7FAFEFFF7E0FF00BF80BD956500405B
:40688000B88BFF1F80B500AFFFF7DCFFFFF754FFFFF7B0FF034B1B78002B01D0FFF7B4FE00BF80BDB88BFF1F80B582B000AF786000F048F8786800F015F8072000F024F8C4
:4068C00000F034F800BF0837BD4680BD80B500AF00F038F8024800F005F800BF80BD00BFE927000080B485B000AF7860054B1B68FB60FB684C337A681A6000BF1437BD46CF
:4069000080BC704708ED00E080B483B000AF0346FB71054AFB795B01DBB2137000BF0C37BD4680BC704700BF03E400E080B400AF034B08221A6000BFBD4680BC704700BFCE
:4069400000E100E080B400AF034B08221A6000BFBD4680BC704700BF80E100E080B400AF094A094B1B78DBB243F00803DBB21370064A064B1B78DBB243F00803DBB21370C5
:4069800000BFBD4680BC7047A2430040B243004080B400AF094A094B1B78DBB223F00803DBB21370064A064B1B78DBB223F00803DBB2137000BFBD4680BC7047A243004027
:4069C000B243004080B485B000AF0346FB710B4B1B78DBB223F04003FB730849FB799B01DBB203F04003DAB2FB7B1343DBB20B7000BF1437BD4680BC704700BF3051004057
:406A000080B483B000AF0346FB710B490A4B1B78DBB25BB223F00E035AB297F9073003F00E035BB213435BB2DBB20B7000BF0C37BD4680BC704700BF1E50004080B483B076
:406A400000AF03460A46FB801346BB80FB8803F04003002B03D0044BBA88D2B21A7000BF0C37BD4680BC70471E45004080B485B000AF0346FB71094B1B78DBB203F07F0318
:406A8000FB730649FB79DB01DAB2FB7B1343DBB20B7000BF1437BD4680BC70473051004080B483B000AF0346FB71044AFB79137000BF0C37BD4680BC704700BF77640040C6
:406AC00080B400AF044B1B78DAB2044B1A7000BFBD4680BC704700BF77640040BC8BFF1F80B400AF034B044A12781A7000BFBD4680BC704777640040BC8BFF1F80B500AFCC
:406B0000FFF7DEFF00BF80BD80B500AFFFF7E8FF00BF80BD80B485B000AF0346FB710B4B1B78DBB223F00803FB730849FB79DB00DBB203F00803DAB2FB7B1343DBB20B706F
:406B400000BF1437BD4680BC704700BFC051004080B483B000AF0346FB710B490A4B1B78DBB25BB223F00E035AB297F9073003F00E035BB213435BB2DBB20B7000BF0C37EF
:406B8000BD4680BC704700BF63500040000000000230800803D000BF01380046FCD17047EFF3108072B6704780F31088704700BF80B584B000AF0346FB71FFF7F1FF034610
:406BC000FB73FB790F2B0BD8274A274B1B78DBB203F01F03DBB243F04003DBB213703BE0FB79202B0BD8204A1F4B1B78DBB203F01F03DBB263F07F03DBB213702CE0FB79B3
:406C0000312B0BD8184A184B1B78DBB203F01F03DBB263F03F03DBB213701DE0FB79422B08D8114A104B1B78DBB203F01F03DBB2137011E0FB79532B0BD80B4A0A4B1B782D
:406C4000DBB203F01F03DBB243F02003DBB2137002E00020FCF7A6FAFB7B1846FFF7A4FF00BF1037BD4680BD0048004080B500AF084B0F221A7000F0DBF800F095F800F08D
:406C8000A1F8054B00221A70044B00221A7000BF80BD00BF80640040816400408264004080B582B000AFFFF77BFF0346FB71124A114B1B78DBB243F02003DBB213700F4A48
:406CC0000E4B1B78DBB243F01003DBB213700C4A0B4B1B78DBB243F01003DBB21370FB791846FFF761FF00F047F800F04BF800BF0837BD4680BD00BF9064004091640040B3
:406D00009264004080B500AF064B1B78002B04D1FFF7ACFF034B01221A70FFF7C1FF00BF80BD00BFBD8BFF1F80B582B000AFFFF737FF0346FB710E4A0D4B1B78DBB223F008
:406D40001003DBB213700B4A0A4B1B78DBB223F01003DBB21370FB791846FFF725FF00F017F800F01BF800BF0837BD4680BD00BF916400409264004080B400AF00BFBD46F5
:406D800080BC704780B400AF00BFBD4680BC704780B400AF00BFBD4680BC704780B400AF00BFBD4680BC704780B483B000AF044B1B78FB71FB7918460C37BD4680BC7047A9
:406DC0006164004080B483B000AF044B1B78FB71FB7918460C37BD4680BC70476264004080B483B000AF0346FB7100BF074B1B78DBB203F00403002BF8D0054AFB791370EA
:406E000000BF0C37BD4680BC704700BF616400404164004080B483B000AF044B1B78FB71FB7918460C37BD4680BC70475164004080B582B000AF01E0124B1B78124B1B7876
:406E4000DBB203F02003002BF6D1FFF7A9FE0346FB710E4A0D4B1B78DBB243F00103DBB213700A4A094B1B78DBB223F00103DBB21370FB791846FFF797FE00BF0837BD46C7
:406E800080BD00BF516400406264004091640040C9B203E00BB918467047013003788B42F8D1704742780178431C42EA01205A789B7842EA002043EA002070478378C2782D
:406EC00003EB0222437803EB0222037803EB0220704703460A0A03F8011B42700A0C090E5A70997070470170090A417070474278037843EA02207047094A0A4BC11C10B523
:406F0000146821F0030118680919814201D9002010BD11609A685868013220189A6010BD400B0020C08BFF1F08B5FFF7E5FF00B9FEE708BDFFF7E0BF30B1044A9368013B66
:406F400093600BB9024A1360704700BFC08BFF1F400B0020014B586019607047C08BFF1F38B50546FFF7E0FF002104462A4601F0CBFE204638BD000010B5064CA37C13F07E
:406F8000010F05D000F0C2F8A37C23F00103A37410BD00BFBC0A002010B5134CFFF7ECFFA37C13F0020F1ED0A3685868FFF7C4FFA068FFF7C1FF0023E360A06903E0446A1B
:406FC000FFF7BAFF20460028F9D1074B586903E0C468FFF7B1FF20460028F9D1024B9A7C22F002029A7410BDBC0A002010B5084CA37C0BB1002010BD4FF40073238202F002
:407000000FF9A37C012043F00103A37410BD00BFBC0A0020094B10B5D8689A68002308E0114652F8084B1CB901230B60486810BD01338342F4D3002010BD00BFBC0A0020BB
:40704000084B30B50022DC689B6808E05D6819460833854202D100230B6030BD0132A242F4D330BDBC0A002001230373704700230373704710B1002282720260704718B108
:40708000027B0AB1013A02737047000038B5FFF7ADFF20B3124C4200E2600001FFF760FF238AA060E0685843FFF75AFFA568E168228A002304E005EBC3046060013380186C
:4070C0008B42F8D31020FFF74BFF054C60612820FFF746FFA37CA06143F00203A37438BDBC0A002038B510220D460021044601F00BFEFFF78FFF08B9013038BDA0604FF028
:40710000FF33002065602360A07338BDF8B5154C0025E66F1C341FE0204601F075FE18B9204600F025FA02E0204600F04BFA0022134640F2F331204600F0FEF90021602288
:407140002046E76D01F0E0FD074B9C4202D02046FFF7F2FE01353C46B542DDDB014B0022DA67F8BDBC0A0020D80A002038B5837A044643B1056801F0B1FC2846FFF77FFF71
:407180002046FFF777FF002038BD08B50368827A03B19B6822B11BB1FFF7E8FF002008BD012008BD08B901307047FFF7EEBF000038B5104B9C69217B59B921606160A1603C
:4071C00004F11000142201F09FFD237B013323730DE0656A45B92820FFF7ACFE606218B12946282201F090FD646A002CE3D1204638BD00BFBC0A002038B50E4B5C69A17A27
:40720000E56839B92046102201F07EFD0123A372E5600CE045B91020FFF78CFEE06018B12946102201F070FDE468002CE7D1204638BD00BFBC0A00202DE9F74F06460020F3
